:020000040800F2
:100000000040042045120008D50F0008D90F000851
:10001000DD0F0008E10F0008E50F00089512000849
:10002000000000000000000000000000E90F0008D0
:10003000ED0F000800000000F10F0008F50F0008A8
:1000400095120008951200089512000895120008F4
:1000500095120008951200089512000895120008E4
:1000600095120008951200089512000895120008D4
:1000700095120008951200089512000895120008C4
:1000800095120008951200089512000895120008B4
:1000900095120008951200089512000895120008A4
:1000A0009512000895120008951200089512000894
:1000B0009512000895120008951200089512000884
:1000C0009512000895120008951200089512000874
:1000D0000000000095120008951200089512000813
:1000E0009512000895120008951200089512000854
:1000F0009512000895120008951200089512000844
:100100009512000895120008F90F000895120008D2
:100110009512000895120008951200089512000823
:100120009512000895120008951200089512000813
:100130009512000895120008951200089512000803
:1001400095120008951200089512000895120008F3
:1001500095120008951200089512000895120008E3
:1001600000000000000000000D10000895120008BB
:1001700095120008951200089512000895120008C3
:100180009512000895120008951200080000000062
:1001900000000000951200080000000000000000B0
:1001A00000000000000000009512000895120008F1
:1001B0009512000895120008951200089512000883
:1001C00095120008951200080000000000000000D1
:1001D0000000000000000000000000009512000870
:1001E00095120008951200080000000000000000B1
:1001F00095120008951200089512000800000000F2
:100200000000000095120008951200080000000090
:100210000000000095120008000000009512000880
:100220009512000800000000000000009512000870
:10023000951200080000000000000000000000000F
:1002400000000000000000000000000095120008FF
:0402500095120008FB
:1002580010B5054C237833B9044B13B10448AFF3F8
:1002680000800123237010BDC002002000000000A0
:100278004CB4000808B5034B1BB103490348AFF35E
:10028800008008BD00000000C40200204CB4000833
:10029800034613F8012B002AFBD1181A01387047BE
:1002A80081F0004102E000BF83F0004330B54FEA1F
:1002B80041044FEA430594EA050F08BF90EA020F8C
:1002C8001FBF54EA000C55EA020C7FEA645C7FEA1F
:1002D800655C00F0E2804FEA5454D4EB5555B8BF42
:1002E8006D420CDD2C4480EA020281EA030382EAB3
:1002F800000083EA010180EA020281EA0303362D45
:1003080088BF30BD11F0004F4FEA01314FF4801C17
:100318004CEA113102D0404261EB410113F0004F29
:100328004FEA03334CEA133302D0524263EB4303E0
:1003380094EA050F00F0A780A4F10104D5F1200E7E
:100348000DDB02FA0EFC22FA05F2801841F10001D9
:1003580003FA0EF2801843FA05F359410EE0A5F1AD
:1003680020050EF1200E012A03FA0EFC28BF4CF0DE
:10037800020C43FA05F3C01851EBE37101F0004594
:1003880007D54FF0000EDCF1000C7EEB00006EEBA1
:100398000101B1F5801F1BD3B1F5001F0CD349082B
:1003A8005FEA30004FEA3C0C04F101044FEA445282
:1003B80012F5800F80F09A80BCF1004F08BF5FEA09
:1003C800500C50F1000041EB045141EA050130BDE9
:1003D8005FEA4C0C404141EB0101013C28BFB1F5FB
:1003E800801FE9D291F0000F04BF01460020B1FA46
:1003F80081F308BF2033A3F10B03B3F120020CDA19
:100408000C3208DD02F1140CC2F10C0201FA0CF0F6
:1004180021FA02F10CE002F11402D8BFC2F1200C5B
:1004280001FA02F120FA0CFCDCBF41EA0C01904011
:10043800E41AA2BF01EB0451294330BD6FEA04045A
:100448001F3C1CDA0C340EDC04F11404C4F1200245
:1004580020FA04F001FA02F340EA030021FA04F357
:1004680045EA030130BDC4F10C04C4F1200220FAAE
:1004780002F001FA04F340EA0300294630BD21FAEC
:1004880004F0294630BD94F0000F83F4801306BFB2
:1004980081F480110134013D4EE77FEA645C18BFA6
:1004A8007FEA655C29D094EA050F08BF90EA020F3D
:1004B80005D054EA000C04BF1946104630BD91EA35
:1004C800030F1EBF0021002030BD5FEA545C05D138
:1004D8004000494128BF41F0004130BD14F5800477
:1004E8003CBF01F5801130BD01F0004545F0FE41EB
:1004F80041F470014FF0000030BD7FEA645C1ABF20
:10050800194610467FEA655C1CBF0B46024650EA56
:10051800013406BF52EA033591EA030F41F4002182
:1005280030BD00BF90F0000F04BF0021704730B508
:100538004FF4806404F132044FF000054FF00001DD
:1005480050E700BF90F0000F04BF0021704730B59E
:100558004FF4806404F1320410F0004548BF404273
:100568004FF000013EE700BF42004FEAE2014FEAC8
:1005780031014FEA02701FBF12F07F4393F07F4FA3
:1005880081F06051704732F07F4208BF704793F0A6
:100598007F4F04BF41F40021704730B54FF46074B9
:1005A80001F0004521F000411CE700BF50EA0102BC
:1005B80008BF704730B54FF000050AE050EA010265
:1005C80008BF704730B511F0004502D5404261EBD5
:1005D80041014FF4806404F132045FEA915C3FF416
:1005E800D8AE4FF003025FEADC0C18BF03325FEAB3
:1005F800DC0C18BF033202EBDC02C2F1200300FA64
:1006080003FC20FA02F001FA03FE40EA0E0021FA88
:1006180002F11444BDE600BF70B54FF0FF0C4CF476
:10062800E06C1CEA11541DBF1CEA135594EA0C0F28
:1006380095EA0C0F00F0DEF82C4481EA030621EA63
:100648004C5123EA4C5350EA013518BF52EA03359E
:1006580041F4801143F4801338D0A0FB02CE4FF050
:100668000005E1FB02E506F00042E0FB03E54FF080
:100678000006E1FB03569CF0000F18BF4EF0010E78
:10068800A4F1FF04B6F5007F64F5407404D25FEA74
:100698004E0E6D4146EB060642EAC62141EA555127
:1006A8004FEAC52040EA5E504FEACE2EB4F1FD0C69
:1006B80088BFBCF5E06F1ED8BEF1004F08BF5FEAE7
:1006C800500E50F1000041EB045170BD06F0004699
:1006D80046EA010140EA020081EA0301B4EB5C0446
:1006E800C2BFD4EB0C0541EA045170BD41F480113E
:1006F8004FF0000E013C00F3AB8014F1360FDEBF63
:10070800002001F0004170BDC4F10004203C35DA3E
:100718000C341BDC04F11404C4F1200500FA05F3C1
:1007280020FA04F001FA05F240EA020001F0004262
:1007380021F0004110EBD37021FA04F642EB0601D8
:100748005EEA430E08BF20EAD37070BDC4F10C0402
:10075800C4F1200500FA04F320FA05F001FA04F2C6
:1007680040EA020001F0004110EBD37041F10001B2
:100778005EEA430E08BF20EAD37070BDC4F12005BD
:1007880000FA05F24EEA020E20FA04F301FA05F225
:1007980043EA020321FA04F001F0004121FA04F2CD
:1007A80020EA020000EBD3705EEA430E08BF20EA9D
:1007B800D37070BD94F0000F0FD101F000464000D7
:1007C80041EB010111F4801F08BF013CF7D041EA59
:1007D800060195F0000F18BF704703F0004652005D
:1007E80043EB030313F4801F08BF013DF7D043EA2E
:1007F8000603704794EA0C0F0CEA135518BF95EAE4
:100808000C0F0CD050EA410618BF52EA4306D1D16A
:1008180081EA030101F000414FF0000070BD50EA89
:10082800410606BF1046194652EA430619D094EA13
:100838000C0F02D150EA013613D195EA0C0F05D1FD
:1008480052EA03361CBF104619460AD181EA030151
:1008580001F0004141F0FE4141F470014FF0000009
:1008680070BD41F0FE4141F4780170BD70B54FF0A4
:10087800FF0C4CF4E06C1CEA11541DBF1CEA135524
:1008880094EA0C0F95EA0C0F00F0A7F8A4EB050406
:1008980081EA030E52EA03354FEA013100F08880FD
:1008A8004FEA03334FF0805545EA131343EA1263C6
:1008B8004FEA022245EA111545EA10654FEA00267B
:1008C8000EF000419D4208BF964244F1FD0404F534
:1008D800407402D25B084FEA3202B61A65EB030590
:1008E8005B084FEA32024FF480104FF4002CB6EB4D
:1008F800020E75EB030E22BFB61A754640EA0C00CD
:100908005B084FEA3202B6EB020E75EB030E22BF0C
:10091800B61A754640EA5C005B084FEA3202B6EB4D
:10092800020E75EB030E22BFB61A754640EA9C000C
:100938005B084FEA3202B6EB020E75EB030E22BFDC
:10094800B61A754640EADC0055EA060E18D04FEA9A
:10095800051545EA16754FEA06164FEAC30343EA3A
:1009680052734FEAC2025FEA1C1CC0D111F4801F07
:100978000BD141EA00014FF000004FF0004CB6E700
:1009880011F4801F04BF01430020B4F1FD0C88BF9F
:10099800BCF5E06F3FF6AFAEB5EB030C04BFB6EBAA
:1009A800020C5FEA500C50F1000041EB045170BD9D
:1009B8000EF0004E4EEA113114EB5C04C2BFD4EBCA
:1009C8000C0541EA045170BD41F480114FF0000E4E
:1009D800013C90E645EA060E8DE60CEA135594EACA
:1009E8000C0F08BF95EA0C0F3FF43BAF94EA0C0FCD
:1009F8000AD150EA01347FF434AF95EA0C0F7FF442
:100A080025AF104619462CE795EA0C0F06D152EA95
:100A180003353FF4FDAE1046194622E750EA410679
:100A280018BF52EA43067FF4C5AE50EA41047FF48A
:100A38000DAF52EA43057FF4EBAE12E74FF0FF3CEF
:100A480006E000BF4FF0010C02E000BF4FF0010CC0
:100A58004DF804CD4FEA410C7FEA6C5C4FEA430C39
:100A680018BF7FEA6C5C1BD001B050EA410C0CBF88
:100A780052EA430C91EA030F02BF90EA020F0020EA
:100A8800704710F1000F91EA030F58BF994208BF51
:100A980090422CBFD8176FEAE37040F0010070470E
:100AA8004FEA410C7FEA6C5C02D150EA013C07D165
:100AB8004FEA430C7FEA6C5CD6D152EA033CD3D0B0
:100AC8005DF8040B704700BF8446104662468C46AA
:100AD8001946634600E000BF01B5FFF7B7FF0028DD
:100AE80048BF10F1000F01BD4DF808EDFFF7F4FF06
:100AF8000CBF012000205DF808FB00BF4DF808ED91
:100B0800FFF7EAFF34BF012000205DF808FB00BFB3
:100B18004DF808EDFFF7E0FF94BF012000205DF8D5
:100B280008FB00BF4DF808EDFFF7CEFF94BF01208A
:100B380000205DF808FB00BF4DF808EDFFF7C4FF83
:100B480034BF012000205DF808FB00BF4FEA410CCC
:100B58007FEA6C5C02D150EA013C0AD14FEA430CAF
:100B68007FEA6C5C02D152EA033C02D14FF00000EC
:100B780070474FF0010070474FEA410212F500122A
:100B880015D211D56FF47873B3EB625212D94FEACC
:100B9800C12343F0004343EA505311F0004F23FAB6
:100BA80002F018BF404270474FF00000704750EA0B
:100BB800013005D111F0004008BF6FF000407047C8
:100BC8004FF00000704700BF4A0011D212F5001222
:100BD80011D20DD56FF47873B3EB62520ED44FEA8D
:100BE800C12343F0004343EA505323FA02F070470D
:100BF8004FF00000704750EA013002D14FF0FF304B
:100C080070474FF0000070474FEA4102B2F1E043ED
:100C180024BFB3F5001CDCF1FE5C0DD901F0004CDB
:100C28004FEAC0024CEA5070B2F1004F40EB83002B
:100C380008BF20F00100704711F0804F21D113F157
:100C48003872BCBF01F00040704741F480114FEA90
:100C58005252C2F11802C2F1200C10FA0CF320FA19
:100C680002F018BF40F001004FEAC1234FEAD32336
:100C780003FA0CFC40EA0C0023FA02F34FEA4303A0
:100C8800CCE77FEA625307D150EA01331EBF4FF029
:100C9800FE4040F44000704701F0004040F0FE4044
:100CA80040F40000704700BF38B500220023044616
:100CB8000D46FFF723FF28B920462946BDE83840EE
:100CC80000F00AB8204605F1004100F005F840425E
:100CD80061EB410138BD00BFD0B500220B4B064681
:100CE8000F46FFF799FCFFF76FFF0446FFF71AFC62
:100CF8000022074BFFF790FC02460B463046394668
:100D0800FFF7D2FAFFF760FF2146D0BD0000F03DA3
:100D18000000F0417D2138B50F4800230122042549
:100D28005D2481611F21C0E90133C0E90D33C3602F
:100D380003828374C363094BC0E90922C0E90B220B
:100D48004561C4610360016200F01AFD00B938BD55
:100D5800BDE8384000F036B9DC02002000A40040AD
:100D680010B500210446BCB0D02208A8CDE9021174
:100D7800CDE90411069106F08EFF254B22689A42B0
:100D880001D03CB010BD9FED1C7B4FF4807308A8C8
:100D98008DED087B2D9302F01BFE40BB9FED186B79
:100DA8009FED197B09241B4B1B48D3F8A02002A9EF
:100DB80042F40072C3F8A020D3F8A02002F4007215
:100DC8000092009AD3F88C2042F00202C3F88C20DB
:100DD800D3F88C308DED026B03F0020301938DED97
:100DE800047B019B069400F0F9FE3CB010BD00F0B6
:100DF800E9F8D3E7AFF3008000000000040000002A
:100E08008001000002000000000000000000000057
:100E180000A40040000C024400040242F0B5002483
:100E280001228BB0CDE90444CDE906442B4B08944C
:100E3800D3F88C502A4F45F00405C3F88C50D3F8EA
:100E48008C50284E05F004050095009DD3F88C5071
:100E5800384645F08005C3F88C50D3F88C504FF4D1
:100E6800005105F080050195019DD3F88C5045F09F
:100E78000205C3F88C50D3F88C5005F00205029592
:100E8800029DD3F88C501543C3F88C50D3F88C309E
:100E9800032513400393039B00F06AFF2246304664
:100EA800032100F065FF4FF400520123CDE904232C
:100EB80000220023384604A9CDE90623002400F0C7
:100EC8008DFE03220123304604A9CDE90645CDE96C
:100ED800042300F083FE0BB0F0BD00BF000C0244F9
:100EE8000008024200040242002330B59DB0CDE95B
:100EF8000A33CDE90C33CDE90333CDE90533264A6E
:100F0800099302930E930793136943F03003136117
:100F1800136903F030030193019B53691B07FCD548
:100F28004FF4807402234FF4805130200F94202412
:100F38000022CDE91233CDE916331191189301211E
:100F48007D23082508900DEB04001593CDE91A229E
:100F580019951094149101F08DFF034608B172B6EB
:100F6800FEE71F2503240022CDE9043300230521D1
:100F780002A8CDE90254CDE9062302F0CDFA08B162
:100F880072B6FEE7054A136823F0300343F02003E6
:100F980013601DB030BD00BF0008024400200240AD
:100FA80008B500F0F1FAFFF79FFFFFF737FF00F0F1
:100FB800DDF800F029F9FFF7ADFE00F0D5F900F0F3
:100FC800DFF9FCE772B6FEE7704700BFFEE700BF37
:100FD800FEE700BFFEE700BFFEE700BFFEE700BF79
:100FE800704700BF704700BF704700BF00F0F2BAFB
:100FF80008B5034803F0DAFBBDE8084000F09EB9E5
:1010080048030020014800F0DFBF00BF9403002020
:101018000120704708B506F091FE162203464FF0EE
:10102800FF301A6008BD00BF08B506F087FE16231A
:101038000360FEE770B5161E07DD0C468D19AFF389
:10104800008004F8010BA542F9D1304670BD00BFFD
:1010580070B5161E07DD0C468D1914F8010BAFF399
:101068000080AC42F9D1304670BD00BF4FF0FF3070
:10107800704700BF4FF4005300204B60704700BF1B
:1010880001207047002070470D49034610B50D4AEE
:101098000D4C0868121B20B10344934207D80B601B
:1010A80010BD0A4C2046034493420C60F7D906F061
:1010B80045FE0C2203464FF0FF301A6010BD00BFFA
:1010C80040030020004004200004000030240020D9
:1010D800F0B4002201274FF000661D491D4CD1F8DD
:1010E80088301D4843F47003C1F888301B4B1C4DF1
:1010F8001F60DA611A621F683C401C609A62DA62FB
:101108001A6358639A63D8631A6458649A641868AF
:1011180020F4802018601A658E60AB6903F04043A4
:10112800B3F1404F01D0F0BC7047EB69DB0703D542
:101138000C4A0D4BEA60EB60094BF0BCDA6942F0EF
:101148000202DA61DA6942F00102DA61704700BF2F
:1011580000ED00E0E3EAE2EA80020101000C02444B
:10116800002002403B2A19087F6E5D4C0023632152
:1011780010B58022F924104884B0C0E90231CDE9C5
:10118800023301930D4B44608261036003F0D0F990
:1011980050B920220023084801A90192039303F0C3
:1011A800E9FB20B904B010BDFFF70CFFF1E7FFF72A
:1011B80009FF04B010BD00BF480300200014004020
:1011C8000F4B02689A4200D0704700220D4B00B5C1
:1011D800D3F89C1083B041F02001C3F89C10D3F8D9
:1011E8009C30322003F0200301931146019B00F04C
:1011F80015FA322003B05DF804EB00F04BBA00BFDB
:1012080000140040000C024402230821002210B5FB
:101218000848094CC37104600171C0F80930C0F86E
:101228000D2000F0B5FD00B910BDBDE81040FFF776
:10123800C9BE00BF94030020006001400D488546E8
:10124800FFF746FF0C480D490D4A002302E0D45829
:10125800C4500433C4188C42F9D30A4A0A4C0023F8
:1012680001E013600432A242FBD306F06DFDFFF7E4
:1012780097FEFEE70040042000000020C002002086
:1012880010B90008C002002030240020FEE700004A
:1012980008B5094800F0AAFB30B900220121064828
:1012A80000F020FC18B908BDFFF78CFEF5E7BDE893
:1012B8000840FFF787BE00BFDC020020034A116820
:1012C8004B1C023108BF00231360704778060020CA
:1012D8009FED117B1649002008B59FED116B4FF06B
:1012E800FF3381ED047B81ED067B4FF0690C9FEDA8
:1012F8000E7B104A08621048C2E9003381ED006B8A
:1013080081ED027B82F801C000F08AFB00B908BDBC
:10131800BDE80840FFF756BE0000000000000000CE
:10132800DF070000000000000000000008000000C7
:10133800880600207C060020DC02002008B5FFF7A4
:10134800BDFF42F21071064A13688B4202D801337E
:10135800136008BD0120002302491360087008BD0E
:10136800B0060020AD06002008B5044803F0B0F927
:1013780004F04AFABDE80840FFF78ABF4803002096
:1013880008B50A4B1A7842B10020094918700A7842
:1013980082F001020A70FFF79BFF0121054800F067
:1013A800EDFCBDE8084000F08FB800BFAD06002096
:1013B800AC060020000402422DE9F0410122344825
:1013C8000221CCB000F0D4FC6923324F324C78882B
:1013D80023707B7840BA062BBA881FFA80FC6370AA
:1013E80045D052BA92B24FEA4206B5B205F10301AE
:1013F8001FFA81F829D8033B012B0ED82748D7B20A
:101408003A4600EB4C0001A905F05CFC7F0032462F
:1014180001A9E01CA77006F0CCFC414646460535FC
:10142800ADB24F1C1C4805F0CBFB03462946A3551B
:1014380019481B0AE35504F0AFFC002202211448A6
:1014480000F096FC4CB0BDE8F081102BE5D10626E3
:101458001248F91D00EB4C00D2B205F04FFCD7F84A
:101468000230082507273146C4F80230DAE7062695
:1014780097E8030020600948A1800122391D00EB8C
:101488004C0005F03BFC082507273146CAE700BF9A
:1014980000040242E8090020B8080020B406002031
:1014A80010B50C4601462246044806F082FC01228B
:1014B8000349044B0C801A7010BD00BFE8090020D6
:1014C800E4090020B4080020054B1A782AB100214D
:1014D800044A19701278692A00D07047FFF76CBF68
:1014E800B4080020E809002070B5244E3278EAB12B
:1014F8004FF0E0231C69054614F0040418D04FF49B
:101508007A71B1FBF2F21E4B1C68B4FBF2F4204670
:1015180000F0CEF8044648B9024629464FF0FF309D
:1015280000F07CF8174B20461D6070BD012070BD8F
:1015380000F00CF9012817D002280BD00028E6D1BA
:101548004FF4FA5231780E4BB2FBF1F21C68B4FB3F
:10155800F2F4DCE74FF47A7231784FF40043B2FBCF
:10156800F1F2B3FBF2F4D2E74FF47A7231784FF428
:10157800FA43B2FBF1F2B3FBF2F4C8E7040000202F
:10158800000000200800002010B5032000F034F807
:1015980002F018F903460C4A0C48126A0C4902F08A
:1015A8000F02825C0420D3400B6000F091F80F20FA
:1015B800FFF79AFF10B10124204610BD0446FFF73B
:1015C80003FD204610BD00BF000C024468B40008AB
:1015D80000000020034A044B11681B780B44136079
:1015E800704700BF140B002004000020014B18684E
:1015F800704700BF140B00204FF6FF0C064903028A
:10160800CA6803F4E06302EA0C02134343F0BF63C1
:1016180043F40033CB60704700ED00E01B4B00B58E
:10162800DB68C3F30223C3F1070EBEF1040F03F115
:10163800040C28BF4FF0040EBCF1060F1CD9A3F10F
:10164800030C4FF0FF3303FA0CF322EA03024FF0C6
:10165800FF3303FA0EF321EA030303FA0CF31343EF
:101668001B010028DBB20ADB00F1604000F5614095
:1016780080F800335DF804FB00229446E7E7044A4B
:1016880000F00F00024413765DF804FB00ED00E063
:10169800FCEC00E0002807DB012300F01F01034AEF
:1016A80040098B4042F82030704700BF00E100E05D
:1016B800431EB3F1807F09D24FF0E022002053612E
:1016C8009061136943F00303136170470120704769
:1016D800042813D8DFE800F02A1A031213004FF089
:1016E800E0210B69184A23F004030B61D2F8E430B7
:1016F80023F00C0343F00803C2F8E43070474FF0BE
:10170800E022136943F00403136170474FF0E021AE
:101718000B690D4A23F004030B61D2F8E43023F07F
:101728000C0343F00403C2F8E43070474FF0E021A3
:101738000B69054A23F004030B61D2F8E43023F067
:101748000C03C2F8E4307047000C02444FF0E02369
:101758001B695B070FD4094BD3F8E40000F00C00B9
:10176800042806D0A0F10800B0FA80F04009400033
:101778007047012070470420704700BF000C0244E6
:10178800002800F015812DE9F04790F85C300446F8
:1017980003F0FF02002B73D02268936923F0100333
:1017A8009361FFF723FF054604E0FFF71FFF401B87
:1017B8000A285BD823689A691207F6D49A6942F016
:1017C80001029A61FFF712FF064604E0FFF70EFFD9
:1017D800801B0A284AD82568AB69DB07F6D5AB69B0
:1017E800794A43F002039542AB6100F0CF80237C35
:1017F800012BAB690CBF23F0400343F04003AB61FE
:10180800637C012BAB690CBF43F4804323F4804312
:10181800AB61A37C012BAB690CBF23F4805343F469
:101828008053AB61AB69A16823F440730B43AB6190
:10183800AB69E26823F0A403AB612B69012A23F0AA
:1018480010032B6121D022B3022AAB6900F0B280C9
:1018580043F08003AB612B69032A43F010032B612B
:1018680017D1AB6943F02003AB6112E00322236E6A
:10187800012043F00103236684F85C20BDE8F0876B
:1018880080F85D20FFF76CFA86E7AB6943F0040344
:10189800AB61D4E90623013B013A1B0243EA4263E8
:1018A800226AB1F5407F02F1FF3243EA020362691E
:1018B80002F1FF3243EA0243EB610ED1D4E90B1384
:1018C800A26A013B01391B01013A43EA0123134390
:1018D800626A013A43EA0243EB603C4B3C4F9D424B
:1018E80003F51B6308BF1F46A3F51873394908BFE2
:1018F80019463948394A18BF864600F1D8000CBF46
:1019080092468446A2F5E47200F50E7008BF96462A
:10191800334EDFF8D49002F1D80204BF81469446D2
:1019280002F5E4721CBF1A46B246D5F8C080E06BD7
:10193800A66B48EA0000C5F8C000D5F8800021640D
:1019480020F4F818606B48EA0040C5F88000D5F824
:101958008000C4F8449020F0706040EA0660C5F842
:101968008000481C9042C4E912ECC4E9147A11D9E9
:10197800002143F8041B9342FBD300230122236672
:1019880084F85C201846A365BDE8F0876268154BAB
:101998001A602CE79FED0A7B531E5B1A9B080133E4
:1019A8005B0801EBC303A1EC027B8B42FBD1E4E7AC
:1019B8000120704743F02003AB616AE7AFF3008072
:1019C800000000000000000000A4004000A8004043
:1019D80060AE004000AC0040B0AC0040C8B1004070
:1019E80078AE004000A5004070AC004090F85C2044
:1019F8000346012A05D01A6E012042F004021A6635
:101A080070470222002110B4046880F85C20A269A3
:101A1800084622F00102A2615DF8044B196670477E
:101A2800F0B590F85C308646022B0BD10568D5F8E6
:101A3800C43013F4001C0BD0036E43F40073036628
:101A48000120F0BD036E43F0080303660120F0BDDA
:101A5800D5F8C4604B680C6988680F68C6F30146FE
:101A6800002B37D1044344EA8744D1E906030343F2
:101A7800486906EBC6070343086A43EA0063C86877
:101A880043EA0043DEF8540040F8374000EBC70053
:101A98004360134CCB68E35CA3B19378D7781B04FD
:101AA80043EA0763177804323B4312F8037C43EA9E
:101AB800072300EB0C07BB60CB680CF1040CE35C5C
:101AC8009C45EAD30123B340C5F8CC300020CEF8BA
:101AD8005830F0BD3C43044344F08044C5E700BFA0
:101AE80078B40008034690F85C000138012805D94D
:101AF8001A6E012042F002021A6670471B6870B421
:101B080011F00705986D01F0380409D0C60707D40D
:101B1800DD6D45F00105DD6554B184072FD407E07C
:101B280004B386071ED4DE6D46F00106DE6525BBCC
:101B380011F4E07F01D0460721D411F4F05F01D001
:101B480005071CD411F4604F01D0C40617D411F452
:101B5800403F01D0860612D411F47C0F13D04506FD
:101B68000DD410E011F4E07F21D046071FD4DE6DBC
:101B780046F00106DE65002DCED0C507CCD5D86D60
:101B880040F00200D8650C0604D5D3F8DC001043F9
:101B9800C3F8DC00C80504D5D3F8E0000243C3F855
:101BA800E0205A6D002070BC0A435A65704711F452
:101BB800F05F01D00607DAD511F4604F01D0C606F0
:101BC800D5D511F4403F01D08606D0D511F47C0F4D
:101BD800D1D04606CBD5002D9ED0CEE72DE9F04FCB
:101BE8000C6883B0002C00F0BB805F4A002302EA37
:101BF80090224FF001085D4E019264E00327D0F86F
:101C080000B04FEA430C07FA0CF72BEA070BFF4327
:101C180002F0030A09F1FF390AFA0CFA4AEA0B0A38
:101C2800B9F1010F0097C0F800A040F28380032AA1
:101C380045D0C568009F2F408D6805FA0CF53D43D7
:101C4800C560D5003BD523F0030707F1884A0F2765
:101C580003F00305ED0007FA05F9019F0AF5083AB4
:101C680007FA05F56FEA0E07DAF860C012F4801F6C
:101C78002CEA090C45EA0C05CAF8605035680CBF17
:101C88003D404EEA05053560756812F4001F0CBF2B
:101C98003D404EEA05057560D6F8845012F4003FC1
:101CA8000CBF3D404EEA0505C6F88450D6F8805072
:101CB800D20354BF3D404EEA0505C6F880500133B3
:101CC80034FA03F24CD008FA03F515EA040EF6D0FC
:101CD8004A6822F01009B9F1020F8FD14FF00F0AAC
:101CE8000F694FEAD30903F0070C00EB89094FEAA3
:101CF8008C0C07F00F0707FA0CF70AFA0CFCD9F856
:101D080020A02AEA0C0C47EA0C07C9F82070032720
:101D1800D0F800A04FEA430C07FA0CF72AEA070AA2
:101D2800FF4302F0030909FA0CF949EA0A09009786
:101D3800C0F80090D0F808A00AEA070ACF6807FAA6
:101D48000CF949EA0A09C0F80890D0F8049029EA81
:101D58000509C2F300159D4045EA0905456066E797
:101D680003B0BDE8F08F00BF7F7F2F000020024442
:101D78000AB1816170478162704700BF436901EA17
:101D8800030221EA030141EA02418161704700BF71
:101D980030B583B0D0B190F89532044603F0FF0215
:101DA800002B00F0E8800323206884F8953202F0C5
:101DB8008DFE237C251D8DF80030206895E80E00E7
:101DC80002F064FE30B1022384F8953201252846DA
:101DD80003B030BD0146206802F082FE0028F2D12F
:101DE8002279002A00F0AE804FF48073012AC4E9FA
:101DF8000900E075E062A38200F0C68040F201139A
:101E0800022AC4E9130084F83F006065A38745D01F
:101E18004FF48173032AC4E91D0084F86700E06762
:101E2800A4F864303AD040F20313042AC4E9270026
:101E380084F88F00C4F8A400A4F88C302ED04FF496
:101E48008273052AC4E9310084F8B700C4F8CC00CD
:101E5800A4F8B43022D040F20513062AC4E93B00A6
:101E680084F8DF00C4F8F400A4F8DC3016D04FF48E
:101E78008373072AC4E9450084F80701C4F81C01E4
:101E8800A4F804310AD0002340F20711C4E94F3303
:101E980084F82F31A4F82C11C4F84431002301210F
:101EA800022AC4E95933C4E96333A4F8543184F8E5
:101EB8005731C4F86C31A4F87C1184F87F31C4F828
:101EC80094313FD00221032AC4E96D3384F8A73145
:101ED800C4F8BC31A4F8A41134D00321042AC4E9FD
:101EE800773384F8CF31C4F8E431A4F8CC1129D081
:101EF8000421052AC4E9813384F8F731C4F80C3287
:101F0800A4F8F4111ED00521062AC4E98B3384F8FD
:101F18001F32C4F83432A4F81C1213D00621072A41
:101F2800C4E9953384F84732C4F85C32A4F8441203
:101F380008D00722C4E99F3384F86F32C4F884328A
:101F4800A4F86C22237C20688DF8003095E80E00F8
:101F580002F0D8FD054600287FF435AF0122237B27
:101F68006074934284F895220AD0206803F0E0FB5D
:101F7800284603B030BD80F8942204F0C9FC12E76B
:101F8800204600F0C5FEF0E7C4E95900A4F8540162
:101F980084F85701C4F86C01D4E700BF90F8943274
:101FA800012B0FD010B501230446006884F8943241
:101FB80002F084FD206803F0B3FB002384F8943218
:101FC800184610BD022070472DE9F04F04468BB02B
:101FD800006803F0B5FB10F4004525D1430500F176
:101FE8004481470417D410F4005140F08181C6049D
:101FF8007AD4050500F19D83010600F179838205F5
:1020080000F10A84C3050CD54FF6FF612268536CB2
:102018000B40536405E04BF6FF712268536C0B408C
:1020280053640BB0BDE8F08F2068436C1904F8D5F1
:10203800DFF894B50DE011F01001036800F0F180AD
:102048001A0500F12D811B0400F13F82436C1A042C
:10205800E7D5416C11F00F05EDD02EB250F826707F
:102068003A041FFA87F957D43B06EFD550F82630C3
:102078004FEA850803EA0B0343F4004340F826308F
:1020880005EB850304EBC303DA7D012A00F03981EF
:10209800197D06EB8606CA0004EBC60C02F18042E5
:1020A80017F480774FEAC60A02F5B232DCF82C60E2
:1020B8000FFA81FE40F077811268C2F30942B242FA
:1020C80080F06A81B61ACCF82C609D6A0AF1140176
:1020D80015449D62DCF8303021441344CCF830308C
:1020E80002F054FF2068B1E723681A6C22F004025A
:1020F8001A641A6C22F008021A6494F8CC32012B84
:1021080000F09583204604F08DFC4EF6FF7122689E
:10211800536C0B40536484E750F826304FEA850827
:1021280023F0784323F4704323F0700343F08003D3
:1021380040F8263005EB850304EBC30393F86021D0
:10214800002A00F0068193F8572193F85411022AC7
:1021580000F02A8209B250F8212022F0784222F4B5
:10216800E04222F0700242F4004242F0C00240F81D
:10217800212093F8542150F8223013F4804F4FF067
:102188000A031DD001E0029B013B0293029B002B36
:10219800F9D1D20002F1804202F5B2321368C3F3DA
:1021A8000943E3B108EB050104EBC101B1F85C2177
:1021B800D1F868119A4603F0F5FA12E0019B013B49
:1021C8000193019B002BF9D1D20002F1804202F564
:1021D800B2325368C3F30943002B40F0BC824FF07E
:1021E800000A08EB050304EBC303D3F8702152443B
:1021F800C3F87021D3F868215244C3F86821D3F892
:102208006C2122B1D3F86431534540F2B181A8441E
:1022180004EBC808204698F8541104F0BDFB206868
:1022280022E703EA0B0343F400430360237DA26A19
:10223800DB0003F1804303F5B2331B682046C3F388
:1022480009431A442363A26204F0B0FB637C20684C
:10225800002B3FF4FBAEE36A002B7FF4F7AE627C01
:1022680042F08002C2646374F0E64FF6FF312268E0
:102278002046536C0B40536404F0A6FB94F8943248
:10228800012B3FF4CEAE012329462068657484F8FB
:10229800943203F03FFA84F894520BB0BDE8F08F03
:1022A8000A230593059B94F854212BB1059B013B08
:1022B8000593059B002BF9D1D30003F1804303F567
:1022C800B2335B68B4F85A21C3F30943C4F87031D8
:1022D80004F5277103F066FA2268B64B11682046A8
:1022E8000B4043F08003136004F04EFB2068ADE61A
:1022F8004DF6FF712268536C0B4053640BB0BDE878
:10230800F08F00216A1C02EB820204EBC2025160CA
:1023180093F82020A2B17F065A7D40F13381002A2C
:1023280040F08B821B7DDB0003F1804303F5B23361
:102338001A6822F07C421A601A6842F000421A6059
:10234800454404EBC5052046297D04F02FFB206891
:102358007CE693F854210A230393039B2BB1039B38
:10236800013B0393039B002BF9D1D30003F1804376
:1023780003F5B2335B68C3F30943002B3FF42FAF77
:1023880008EB050104EBC101B1F85A21D1F8681135
:102398009A4603F007FA24E72046CCF82C7004F09C
:1023A80005FB206852E619F0400A4FF00A0355D0A1
:1023B80001E0099B013B0993099B002BF9D11368A4
:1023C80009F48047C3F30949B14580F0D481A6EBED
:1023D8000906CCF82C604FB150F82E10764B0B4004
:1023E80043F4404343F0800340F82E3008EB0506E1
:1023F80004EBC60696F83830012B55D1B36A03EBC7
:102408000901B162DCF830304B44CCF83030776BDE
:10241800736A9F42C0F0A982FF1A776308EB05062A
:1024280004EBC60696F815C0BCF1000F40F0918287
:10243800166826F07C461660002B40F0BC821668B1
:1024480046F00046166008EB050204EBC202928BC8
:1024580003F078F9206827E0089B013B0893089B64
:10246800002BF9D1536809F48047C3F30943B342F9
:1024780000F2B181F61ACCF82C60002E00F0AE8183
:102488004FB950F82E604C49314041F4404141F079
:10249800800140F82E1008EB050704EBC70797F8F2
:1024A8003810012900F01E82454404EBC5052A7D39
:1024B800424B50F822100B4083F0300343F40043A2
:1024C80043F0800340F82230C0E50A220168394B06
:1024D8000B4043F0800303600492049B94F854215A
:1024E8002BB1049B013B0493049B002BF9D1D3002F
:1024F80003F1804303F5B2335B68C3F30943C4F8BF
:10250800703193B1D4F8681179B1B4F85A2103F055
:1025180049F9D4F86831D4F87021204613440021D1
:10252800C4F8683104F038FA206803681F053FF5DD
:102538008DAD03F44053B3F5405F3FF487AD204BB6
:102548005A6822F07C425A60D4F86421002A40F08C
:1025580092815A6842F000425A600268194B13404F
:1025680083F4405343F4004343F0800303606DE574
:10257800282101FB0541206801F5AA7102F006FD3A
:10258800206871E5002A40F067811B7DDB0003F1BC
:10259800804303F5B2335A6822F07C425A605A6885
:1025A80042F000425A60CBE619F4804F4FF00A031C
:1025B80057D00DE08F0FFF078F8FFF07BF8FFF07E3
:1025C800006401408FBFFF070F8FFF07079B013B88
:1025D8000793079B002BF9D1CB0003F1804303F548
:1025E800B23308EB05021B6804EBC202D2F86CC1D7
:1025F800C3F309439C459A4609B2C0F04881ACEB45
:10260800030CC2F86CC1BCF1000F0CD150F821C00A
:10261800B14A0CEA020282F4005242F4004242F04B
:10262800800240F8212019F0400F0AD050F821C04C
:10263800AA4A0CEA020242F4004242F0C00240F800
:102648002120002B3FF4CDAD08EB050104EBC101BF
:10265800B1F85C21D1F8681103F0A4F8C1E5069B34
:10266800013B0693069B002BF9D1CB0003F1804375
:1026780003F5B23308EB05025B6804EBC202D2F83B
:102688006CC1C3F309439C459A4609B2C0F0048162
:10269800ACEB030CC2F86CC1BCF1000F0CD150F8C4
:1026A80021C08D4A0CEA020282F4005242F4004230
:1026B80042F0800240F8212019F0400F0AD150F86A
:1026C80021C0864A0CEA020242F4004242F0C002EB
:1026D80040F82120002B3FF484AD08EB050104EB02
:1026E800C101B1F85E21D1F8681103F05BF878E513
:1026F8004FF67F7123685A6C0A405A6494F8CC22CA
:10270800002A34D1012120461A6C42F004021A64CE
:102718001A6C42F008021A6484F8CC125B6D9B08AC
:1027280003F03C03C4F8D0320BB0BDE8F04F00F022
:1027380003BB4FF2FF71236820461A6C42F008026F
:102748001A645A6C0A405A641A6C42F004021A64F9
:1027580004F04CF965E408EB050104EBC101B1F89C
:102768005E21D1F868119A4603F01CF839E5204635
:1027780004F03CF955E40023CCF82C3008EB0503B1
:1027880004EBC3035B7D002B40F09880136823F0B3
:102798007C431360136843F000431360536823F0CD
:1027A8007C435360536843F000435360204604F071
:1027B800FDF87FB308EB050304EBC3031A7D20681B
:1027C800464B50F822100B4043F4404343F080033B
:1027D80040F8223068E60023CCF82C3008EB0503DB
:1027E80004EBC3035B7D002B5BD1136823F07C43B0
:1027F8001360136843F000431360536823F07C436D
:102808005360536843F000435360204604F0CEF809
:10281800002FCFD0206847E64FF6FF5122682046A8
:10282800536C0B40536404F0CBF8FFF7FABB204617
:1028380084F8CC1200F080FA64E4012A7FF480ADB9
:102848001B7DDB0003F1804303F5B2331A6892B2B3
:102858001A601A681A6073E5012A7FF471AD1B7D4E
:10286800DB0003F1804303F5B2335A6892B25A6031
:102878005A685A6064E53E2A5ED85108D607184A55
:1028880048BF0131536843EA8163536065E64FF0FE
:10289800000CC2F86CC1B9E64FF0000CC2F86CC16C
:1028A800FDE6012BB1D113689BB213601368136066
:1028B80053689BB2536053685360A6E7012B7FF4BB
:1028C80075AF13689BB213601368136053689BB2AB
:1028D80053605368536069E78FBFFF078F8FFF0707
:1028E80000640140B96A1944B962DCF830601E44DA
:1028F800CCF83060D7F834C07E6AB44546D3ACEB28
:1029080006037B6308EB050304EBC3035B7D002B25
:1029180030D1536823F07C435360002E63D1536851
:1029280043F00043536008EB050204EBC202534630
:10293800D28B02F007FF6DE75109D5063E4A08BF62
:1029480001F1FF31536843EA816343F00043536068
:1029580003E6BCF1010F06D11668B6B21660166818
:1029680046EA034616609BB26DE5B7B94B4686F852
:10297800387053E5012B06D153689BB253605368F6
:1029880043EA064353601FFA86FACCE7BCF1000F0E
:102998001DD11E4687F838C0B4E7002396F815C045
:1029A80086F8383073633B46BCF1000FD1D1166806
:1029B80026F07C4616603E2B22D85F08DE07166894
:1029C80048BF013746EA87669BB216603BE500269A
:1029D8007B7D7E6387F838606646002BCAD15368D2
:1029E80023F07C4353603E2E17D87708F3075368CB
:1029F80048BF013743EA87631FFA86FA536092E7B4
:102A08005F09DE06166808BF07F1FF3746EA8766E2
:102A180046F000469BB2166015E57709F306536841
:102A280008BF07F1FF3743EA876343F000431FFA03
:102A380086FA536077E700BF0064014090F894225B
:102A4800012A0DD010B5012204460068617484F88B
:102A5800942202F05FFE002384F89432184610BDD9
:102A68000220704710B501F0070E0EEB8E0C090618
:102A780004464FEACC0C24D40CF5AA714FF0000C94
:102A880001440EEB8E0004EBC00080F855C1022B08
:102A9800CB7008BF0023C2F30A0208BF0B7181F88C
:102AA80000E00A6194F89432012B16D001232068C3
:102AB80084F8943202F03CF8002384F894321846E3
:102AC80010BD0CF114014FF0010C01440EEB8E0007
:102AD80004EBC00080F815C0D9E7022010BD00BF84
:102AE80001F0070303EB830301F00702090610B5A1
:102AF8004FEAC30304461AD44FF0000C03F5AA7139
:102B080002EB820004EBC003214483F855C10A702C
:102B180094F89432012B1AD00123206884F8943257
:102B280002F082F9002384F89432184610BD4FF061
:102B3800010C03F1140102EB820004EBC0032144F1
:102B480083F815C00A7094F89432012BE4D102205E
:102B580010BD00BF38B52825002401F0070E05FB7D
:102B68000E010EEB8E0C00EBCC0CCCE95A2300685E
:102B780001F5AA71CCF870418CF855418CF854E1F4
:102B880002F004FA204638BD01F0070101EB81018B
:102B980000EBC100D0F87001704700BF38B501F0F4
:102BA800070E0EEB8E0100EBC10C012500246146D7
:102BB8000068CCF82820CCF82C30CCF834308CF8CD
:102BC8003850CCF830408CF815508CF814E014319B
:102BD80002F0DCF9204638BD027901F007039A4279
:102BE80036D30A0610B504461FD44FF0000C28202F
:102BF80001EB810204EBC20282F855C1012200FBFD
:102C0800014181F8543181F8562194F8943201F544
:102C1800AA7193421AD0206884F8942202F00EFD1B
:102C2800002384F89432184610BD0120282103EBB4
:102C3800830204EBC2025075012201FB03410B75AC
:102C48008A7594F8943214319342E4D1022010BD6D
:102C58000120704738B5027901F00F039A4236D344
:102C680001F0070303EB830301F00702090604469A
:102C78004FEAC3031AD4002502EB820004EBC0001C
:102C880080F85551002503F5AA73E1180A708D7074
:102C980094F89432012B18D00123206884F89432D8
:102CA80002F0EEFC84F89452284638BD012502EB68
:102CB800820004EBC000457500251433E1180A7042
:102CC8008D7094F89432012BE6D1022038BD012092
:102CD80038BD00BF11F0800F0CD001F0070101EBE7
:102CE800810100EBC100143099B262B9C18002734E
:102CF8000020704701EB810100EBC10000F5AA70CC
:102D080099B2002AF2D00122836002730020704732
:102D18000346002110B401241A6883F8CC1208462F
:102D2800516DC3F8D84221435165536D5DF8044B8A
:102D380043F0020353657047704700BF024A936B24
:102D480043F000739363704700080244444B30B467
:102D5800996A9C6A9A6A14F47C5F9D6BC4F3052097
:102D680035D0C2F30012C5F3CC0505FB02F207EE1D
:102D7800900A06EE902A01F003010129B8EEE77ADD
:102D8800FAEEE96A25D0032941D05B6BB7EE006AF9
:102D9800C3F3080307EE903AF8EEE77ADFED315A0D
:102DA80077EE867A85EE876A77EEA67A67EE867A78
:102DB8002B4B5B6BC3F34623013307EE103AF8EE57
:102DC800C76A87EEA67AFCEEC77A17EE900A30BC7F
:102DD80070471A6892062ED51A685B6BC2F3C10257
:102DE800C3F3080306EE103A1F4BF7EE007AD34000
:102DF800B8EEC66A05EE903A36EE276AF8EEE55A5E
:102E0800C5EE877A36EE267A67EE877AD0E75B6B6F
:102E1800B7EE006AC3F3080307EE903AF8EEE77AD4
:102E2800DFED125A77EE867A85EE876A77EEA67A14
:102E380067EE867ABCE75B6BB7EE006AC3F30803FC
:102E480007EE903AF8EEE77ADFED095A77EE867AE0
:102E580085EE876A77EEA67A67EE867AA8E700BFDE
:102E6800000C02440024744A0090D00320BCBE4BDE
:102E78000024744C002800F04583A84A03682DE913
:102E8800F041D569966ADA06044605F0180506F099
:102E9800030624D5082D00F00E81182D00F00881B6
:102EA800E3699E4F002B00F0EF803B6843F480738A
:102EB8003B60FEF79BFB804606E0FEF797FBA0EB26
:102EC8000800022800F272813B689B05F5D5BB69B2
:102ED800226A23F47C1343EA0243BB612368D907BF
:102EE80038D5102D626800F00081182D00F0FA80A6
:102EF800B2F5803F18D0002A00F05B81B2F5A02F10
:102F0800864B00F03B82B2F5A81F1A6800F0B58224
:102F180022F480321A601A6822F480221A601A6831
:102F280022F480121A6004E07C4A136843F4803368
:102F38001360FEF75BFBDFF8E481074605E0FEF768
:102F480055FBC01B642800F23181D8F800309B0380
:102F5800F5D52368990724D5E368002D40F0B9809A
:102F6800002B00F0BD806D4B21691A6802F0180231
:102F78008A4240F08D81FEF739FB684F064605E02E
:102F8800FEF734FB801B022800F210813B689B0788
:102F9800F6D53B69626923F4FE0343EA02433B61C9
:102FA80023681A0719D5A3695C4E002B00F01C8111
:102FB800D6F8F03043F08063C6F8F030FEF716FB21
:102FC800074605E0FEF712FBC01B022800F2EE8060
:102FD800D6F8F0301B01F5D52368590736D5504E81
:102FE800736ADA0740F1D280A368012B00F0D3811D
:102FF800002B00F0A880052B00F04B82852B474B57
:10300800D3F8F02000F0698222F00102C3F8F02022
:10301800D3F8F02022F00402C3F8F020D3F8F0200F
:1030280022F08002C3F8F020FEF7E0FA41F2883877
:1030380006463A4F05E0FEF7D9FA801B404500F2F4
:10304800B580D7F8F0309807F5D523689A0615D5D6
:10305800636A324E002B00F00A81336843F48053D0
:103068003360FEF7C3FA074605E0FEF7BFFAC01B58
:10307800022800F29B8033689B04F6D5A36A002BD4
:1030880040F0C680002092E03B6823F480733B60E8
:10309800FEF7ACFA804606E0FEF7A8FAA0EB0800B7
:1030A800022800F283803B689805F5D4236816E768
:1030B800022E7FF4F5AEE26992B11849206A8A6956
:1030C80022F47C1242EA00428A61D9077FF542AFB6
:1030D80007E7182D0FD1012E0DD1002B7FF44BAF30
:1030E800012064E0032E7FF403AF002AF8D09A078A
:1030F8007FF557AFE368094E002B00F0A6803368D0
:10310800226923F0180313433360336843F0010343
:103118003360FEF76BFA074609E000BF000C024473
:1031280000080244FEF762FAC01B02283ED8336842
:103138009807F7D53369626923F4FE0343EA02432B
:10314800336123682DE79C4E41F28838D6F8F03079
:1031580023F00103C6F8F030D6F8F03023F08003EE
:10316800C6F8F030D6F8F03023F00403C6F8F03093
:10317800FEF73CFA074604E0FEF738FAC01B404564
:1031880014D8D6F8F0309907F6D45EE7736A43F09E
:1031980001037362FEF72AFA0746736ADB073FF5F5
:1031A80023AFFEF723FAC01B0228F6D90320BDE897
:1031B800F081814F3B6823F480333B603B6823F404
:1031C80080133B603B6823F480233B60FEF70EFAD4
:1031D800804605E0FEF70AFAA0EB08006428E5D867
:1031E8003B689803F6D4B4E6D6F8F03023F0806351
:1031F800C6F8F030FEF7FAF9074604E0FEF7F6F9EC
:10320800C01B0228D2D8D6F8F0301801F6D4E3E66D
:10321800182D69D0022B00F0C680674C236823F074
:1032280080732360FEF7E2F9054604E0FEF7DEF955
:10323800401B0228BAD823689B01F7D4A36A23F459
:10324800E02323F00303A3621CE7336823F00103A0
:103258003360FEF7CBF9074604E0FEF7C7F9C01B59
:103268000228A3D833689907F7D4236899E6336806
:1032780023F480533360FEF7B9F9074604E0FEF7FC
:10328800B5F9C01B022891D833689804F7D4F5E63D
:103298001A6822F018020A431A60DA6902F0180262
:1032A800082A00F02B81DA6912F0180F40F0058126
:1032B8001A68920640F10F811A68404BC2F3C102A6
:1032C800D3403D4A3E48126A3E4902F00F02825CF2
:1032D80002F01F02D3403C4A0B601068FEF704F965
:1032E80000283FF448AEFBE6334A012B916A556B40
:1032F8003FF4F6AEE06A01F0030383427FF4F0AED8
:10330800236BC1F3052199427FF4EAAE636BC5F3E1
:103318000801013B99427FF4E3AEA36BC5F3462154
:10332800013B99427FF4DCAEE36BC5F30641013BF8
:1033380099427FF4D5AE236CC5F30665013B9D42E7
:103348007FF4CEAE936BE26CC3F3CC0393423FF4AD
:1033580099AE194A936A23F010039362FEF746F96F
:103368000546FEF743F9A842FBD0E26C124BD200A7
:103378009A639A6A42F010029A6283E61A6842F4E3
:1033880080221A601A6822F480121A601A6842F4BD
:1033980080321A60CDE5084AD2F8F03043F00103D4
:1033A800C2F8F03040E6044D2B6823F080732B60A0
:1033B800FEF71CF906460FE0000C02440090D0030B
:1033C80068B400080000002008000020FEF70EF98D
:1033D800801B02283FF6EAAE2B689901F6D4AB6A47
:1033E800E16A23F47C53226B23F003030B4343EA83
:1033F8000223AB62D4E90E32616B013B013A5B02F6
:10340800120402F4FE0201399BB21343C1F308020D
:103418001343226C3C4E013A120602F0FE4213435B
:103428006B63AB6A23F01003AB62E36CDB00AB6346
:10343800AB6A43F01003AB62AB6A626C23F00C0317
:103448001343AB62AB6AA26C23F020031343AB6255
:10345800AB6A43F48033AB622B6843F080732B6014
:10346800FEF7C4F8044633689A013FF50BAEFEF741
:10347800BDF8001B0228F6D998E642F480221A60AB
:103488001A6842F480121A601A6842F480321A608C
:103498004FE51D4BD3F8F02042F00402C3F8F020AA
:1034A800D3F8F02022F08002C3F8F020D3F8F020FF
:1034B80042F00102C3F8F020B6E5DA6902F018021A
:1034C800102A1DD0DB6903F01803182B03D1FFF76E
:1034D8003DFC0346F5E60D4BF3E642F00402C3F863
:1034E800F020D3F8F02042F08002C3F8F020D3F89F
:1034F800F02042F00102C3F8F02095E5044BE0E625
:10350800044BDEE601207047000C02440090D00313
:1035180000093D0040787D01002800F033819E4A73
:103528002DE9F0411368044603F00F038B420D4662
:103538000CD2136823F00F030B431360136803F0D6
:103548000F038B4202D00120BDE8F0812368D90621
:103558000DD5924960690A6A120A02F07002904217
:1035680005D90A6A22F4E04242EA00220A621A07EE
:103578000DD58A4920690A6A120902F07002904240
:1035880005D90A6A22F4E06242EA00120A625F0779
:103598000BD58249E0680A6A02F07002904204D9A9
:1035A8000A6A22F0700202430A629E0703F00102CF
:1035B80040F1A580794EA068316A01F00F01884278
:1035C80004D9316A21F00F010143316282B3626884
:1035D800724B032A1B6800F09A80022A00F0CE8002
:1035E800012A00F0E7809F07ADD56C4E41F288387C
:1035F800F36923F003031343F361FDF7F7FF6368EF
:103608000746032B00F08C80022B00F09480012BDE
:1036180006D19BE0FDF7EAFFC01B404500F2B480ED
:10362800F36913F0180FF5D123689E0707D5A06832
:103638005A490A6A02F00F02824200F299805649FA
:103648000A6802F00F02AA420AD90A6822F00F0299
:103658002A430A600A6802F00F02AA427FF473AF95
:103668005D070BD54D49E0680A6A02F07002904286
:1036780004D20A6A22F0700202430A6218070DD5C2
:10368800464920690A6A120902F07002904205D27E
:103698000A6A22F4E06242EA00120A62D9060DD5EB
:1036A8003E4A6169136A1B0A03F07003994205D206
:1036B800136A23F4E04343EA01231362374BDA69C0
:1036C80002F01802082A61D0DA6912F0180F43D103
:1036D8001A6892064AD51A68314BC2F3C102D34020
:1036E8002E4A3048126A304902F00F02805C2F4A95
:1036F800C340BDE8F04108681360FDF7F5BE002A35
:103708009DD06268254B032A1B687FF466AF980139
:103718003FF56BAF17E7FDF769FFC31B434533D888
:10372800F36903F01803182BF5D17DE7FDF75EFF69
:10373800C01B404528D8F36903F01803102BF5D1B6
:1037480072E7FDF753FFC01B40451DD8F36903F02E
:103758001803082BF5D167E7DA6902F01802102A76
:103768002CD0DB6903F01803182B11D00C4BB7E7EA
:103778000A6A22F00F0202430A6260E799033FF5E2
:1037880034AFE0E6012070470320DDE6084BA7E7E9
:10379800FFF7DCFA0346A3E700200240000C0244CE
:1037A8000090D00368B40008080000200000002042
:1037B80000093D009B053FF518AFC4E6004B8FE7B5
:1037C80040787D01124BDA6902F01802082A18D0F5
:1037D800DA6912F0180F08D11A6892060FD51B681B
:1037E8000C48C3F3C103D8407047DA6902F01802E5
:1037F800102A0AD0DB6903F01803182B03D00548F8
:10380800704705487047FFF7A1BA0448704700BFE2
:10381800000C02440090D00300093D0040787D016F
:1038280070B5344C0646236823F080632360FDF7A7
:10383800DDFE054604E0FDF7D9FE401B022857D8F7
:1038480023681A01F7D4E36A316823F47C53726859
:1038580023F003030B4343EA0223E362D6E903326E
:10386800013B013A5B02120402F4FE029BB2B1680A
:10387800134372690139013AC1F3080112060B4377
:1038880002F0FE421343E363E36AB26923F00C03D8
:103898001343E362E36AF26923F020031343E3620C
:1038A800E36A726A134D1343E362E36A23F0100379
:1038B800E362236C326A23F47F4323F0F80343EA7C
:1038C800C2032364E36A43F01003E362236843F00E
:1038D80080632360FDF78AFE044604E0FDF786FE58
:1038E800001B022804D82B681B01F7D5002070BDE7
:1038F800032070BD000C024470B5344C06462368A2
:1039080023F080532360FDF771FE054604E0FDF7C0
:103918006DFE401B022857D823689A00F7D4236B02
:10392800316823F47C53726823F003030B4343EAA2
:1039380002232363D6E90332013B013A5B021204F6
:1039480002F4FE029BB2B168134372690139013A6D
:10395800C1F3080112060B4302F0FE4213436364ED
:10396800236BB26923F00C0313432363236BF269BF
:1039780023F0200313432363236B726A134D13430D
:103988002363236B23F010032363A36C326A23F4AD
:103998007F4323F0F80343EAC203A364236B43F095
:1039A80010032363236843F080532360FDF71EFE52
:1039B800044604E0FDF71AFE001B022804D82B6811
:1039C8009B00F7D5002070BD032070BD000C024499
:1039D8002DE9F843D0E90032DE01044608D52D4828
:1039E800A56DD0F8E81021F040412943C0F8E8104F
:1039F80013F001061DD0E16D052900F28B85DFE883
:103A080011F00F004A0506000F000F000F0004F127
:103A18003000FFF771FF0646D4E900324EB9E16D78
:103A280000261C4DD5F8D80020F007000143C5F842
:103A3800D8109D0731D5216E28292DD8DFE811F03F
:103A48001E052C002C002C002C002C002C002C0017
:103A580042052C002C002C002C002C002C002C00E3
:103A68004E052C002C002C002C002C002C002C00C7
:103A78001E052C002C002C002C002C002C002C00E7
:103A88001E052C002C002C002C002C002C002C00D7
:103A98001E0500BF000C02440126354658071CD5F8
:103AA800616E802900F0708400F2BE8349B140291C
:103AB80040F0C38304F10800FFF7B2FED4E90032F6
:103AC8000546002D40F00684AB4F606ED7F8D8103D
:103AD80021F4E0710143C7F8D81019071ED5A16E6B
:103AE800B1F5806F00F05B8400F2758351B1B1F5D8
:103AF800007F40F07A8304F10800FFF791FED4E9D3
:103B080000320546002D40F0E1839B4FA06ED7F8A8
:103B1800D81021F460610143C7F8D810DF061ED51C
:103B2800E16EB1F5005F00F01F8400F2968351B199
:103B3800B1F5805F40F09B8304F10800FFF770FE49
:103B4800D4E900320546002D40F0BC838A4FE06E70
:103B5800D7F8D81021F4E0410143C7F8D8109806E7
:103B68001ED5216FB1F5803F00F0628400F26883B2
:103B780051B1B1F5004F40F06D8304F10800FFF733
:103B88004FFED4E900320546002D40F0A1837A4F5C
:103B9800206FD7F8D81021F460310143C7F8D81046
:103BA800D9041ED5616FB1F1007F00F0168400F2D0
:103BB8001F8351B1B1F1807F40F0248304F10800E4
:103BC800FFF72EFED4E900320546002D40F07C8335
:103BD800694F606FD7F8E01021F0E0610143C7F842
:103BE800E0109F040ED5A16FB1F5803F00F09683D9
:103BF80040F20B8321F48031B1F5003F00F00883D7
:103C08000126354658040ED5E16FB1F5802F00F036
:103C18007C8340F2CF8021F48021B1F5002F00F0A1
:103C2800CC800126354619040FD5D4F88010B1F59B
:103C3800801F00F0858340F2CD8021F48011B1F51A
:103C4800001F00F0CA8001263546DF030BD5D4F8E3
:103C58008410B1F1807F00F0118231F0007100F022
:103C6800148201263546D0040BD5D4F88810B1F15A
:103C7800806F00F0188231F0006100F01B8201268D
:103C88003546110509D53C49C86920F40040C8618A
:103C9800C869D4F8C8703843C8619F0320D5D4F8E0
:103CA8008C10B1F5007F00F08D8300F2A48051B133
:103CB800B1F5807F40F0A98004F10800FFF7B0FD5E
:103CC800D4E900320546002D40F0F4822A4FD4F89A
:103CD8008C00D7F8DC1021F4E0610143C7F8DC1050
:103CE800580320D5D4F89010B1F5005F00F0958303
:103CF80000F28E8051B1B1F5805F40F0938004F1FD
:103D08000800FFF78DFDD4E900320546002D40F08C
:103D1800D582194FD4F89000D7F8DC1021F4E0418F
:103D28000143C7F8DC1099020CD5D4F8A010022979
:103D380000F08D8140F292810339022940F28E8190
:103D480001263546970507D5D4F8A41031F00800A8
:103D580000F0BE8101263546980100F1C78158015F
:103D68000ED5D4F89810102900F0E2825DD921F020
:103D7800100020285BD001E0000C024401263546E3
:103D8800590209D5D4F89C10002900F0B5824029C1
:103D980000F07682012635461F0166D5D4F8AC10AE
:103DA800042900F2BD83DFE811F04E0061035103DE
:103DB8005300530000297FF434AF002D40F0CA822D
:103DC800AD4FE06FD7F8E41021F440210143C7F864
:103DD800E41028E700297FF436AF002D40F08282F6
:103DE800A54FD4F88000D7F8E41021F4401101431E
:103DF800C7F8E41029E721F48070B0F5806F3FF42C
:103E080062AFB1F5407F3FF45EAF0126354667E704
:103E180021F48050B0F5804F3FF478AFB1F5405FA2
:103E28003FF474AF012635467DE70029A6D1002D61
:103E380040F05A82904FD7F8E80020F03000014354
:103E4800C7F8E8109CE78C48816A41F40031816228
:103E5800002D40F01382884FD4F8AC00D7F8E0105A
:103E680021F007010143C7F8E010D80028D5D4F89D
:103E7800B010202922D8DFE811F09C012100210090
:103E8800210021002100210021001503210021002B
:103E9800210021002100210021001D032100210013
:103EA80021002100210021002100A1012100210081
:103EB80021002100210021002100A1010126354611
:103EC80099001ED5D4F8B410802900F0C78245D8CF
:103ED800002900F0E981402945D104F10800FFF7E5
:103EE8009FFCD4E900320546002D40F0C581624FA1
:103EF800D4F8B400D7F8E01021F4E0710143C7F812
:103F0800E0105B001DD5D4F8B830B3F5806F00F031
:103F18007A822BD843B1B3F5007F2FD104F1080082
:103F2800FFF77EFC05466268002D40F0C5815249C6
:103F3800D4F8B800D1F8E03023F460630343C1F843
:103F4800E03097071ED5D4F8A830032B00F2E5829D
:103F5800DFE813F0470042004F024700C029C3D0F2
:103F6800B1F5807FC0D001263546CAE723F4007139
:103F7800B1F5006FD8D0B3F5C06FD5D0012697073B
:103F88003546E0D450070CD5D4F89430B3F5807F8B
:103F980000F01082B3F5007F45D0002B49D00126F0
:103FA8003546D10609D5D4F8C430202B27D0302B7C
:103FB8002BD0102B00F0D0810126130709D52E4AEB
:103FC800D4F8C010D2F8E83023F0C0030B43C2F88D
:103FD800E8303046BDE8F88327498B6A43F400335C
:103FE8008B62002D40F06C812349D4F8A800D1F8E9
:103FF800E43023F003030343C1F8E430C2E704F1DB
:104008003000FFF779FC05466268002D40F06681B4
:104018001949D4F8C400D1F8E43023F0300303433D
:10402800C1F8E430C9E704F10800FFF7F9FB0546D9
:104038006268002D40F050810F49D4F89400D1F8FF
:10404800E83023F440730343C1F8E830A9E704F1EA
:104058000800FFF7E5FBD4E900320546002D40F0E3
:104068003F81054FD4F8A000D7F8E81021F00701E8
:104078000143C7F8E81065E6000C024404F130007B
:10408800FFF73AFCD4E900320546002D40F03081B4
:10409800BB4FD4F88400D7F8E41021F040710143F5
:1040A800C7F8E410DFE504F13000FFF725FCD4E998
:1040B80000320546002D40F01981B14FD4F8880030
:1040C800D7F8E41021F040610143C7F8E410D8E5BF
:1040D800002D40F0B981AA4FD7F8E80020F0080079
:1040E80001439801C7F8E8107FF539AEA54F7B6A00
:1040F80043F001037B62FDF779FA804606E0FDF79D
:1041080075FAA0EB0800022800F2F0817B6AD90753
:10411800F5D5002D40F0EB81994FD4F8BC30D7F895
:10412800F02012F4407228D09A4226D0D7F8F01026
:10413800D7F8F02042F48032C7F8F020D7F8F02002
:1041480022F48032C7F8F02021F44072C7F8F0203A
:10415800CA0712D5FDF74AFA41F28839804606E0C7
:10416800FDF744FAA0EB0800484500F2CE81D7F8E5
:10417800F0309B07F4D5D4F8BC3003F44072B2F5A4
:10418800407F00F0B8817E49CA6922F47C52CA6136
:104198007B4AC3F30B03D2F8F01021F44071C2F844
:1041A800F010D2F8F0100B43C2F8F030D4E9003226
:1041B800D5E57348816A41F400318162002D59D1F7
:1041C8006F4FD4F8B000D7F8E01021F03801014360
:1041D800C7F8E01074E621F40070B0F5006F3FF402
:1041E80091ACB1F5C06F3FF48DAC0126354695E42E
:1041F80021F08070B0F1806F3FF4E7ACB1F1407FFF
:104208003FF4E3AC01263546EBE400297FF4F8AC33
:10421800002D6FD15A4FA06FD7F8E41021F4403128
:104228000143C7F8E410EDE421F04000B0F5807FC9
:104238003FF447ACC0293FF444AC012635464CE472
:1042480021F40040B0F5003F3FF49EACB1F5C03F0B
:104258003FF49AAC01263546A2E421F48050B0F52B
:10426800804F3FF470ACB1F5405F3FF46CAC012671
:10427800354674E42E4623E62E4642E62E46F4E5FD
:1042880004F10800FFF7CCFAD4E900320546002D06
:1042980039D13B4FD4F89C00D7F8E41021F0400105
:1042A8000143C7F8E41077E53548816A41F40031E5
:1042B800816219E62E4613E52E4642E62E4632E581
:1042C8002E465FE62E464AE42E468AE42E4625E42C
:1042D8002E4665E42E4600E42E4662E62E466CE63F
:1042E8002E462FE52E46B0E42E4649E52E46C8E474
:1042F8002E46B8E42E4685E42148816A41F400310F
:104308008162002DC5D02E4646E504F13000FFF746
:10431800F3FAD4E900320546E5B951E504F1300075
:10432800FFF7EAFAD4E900320546002DE2D171E739
:10433800134FB86A40F40030B862002DD4D179E543
:1043480004F13000FFF7D8FAD4E900320546002D11
:10435800C8D145E52E4666E409498B6A43F4003323
:104368008B62002DBAD153E604F13000FFF7C4FA8E
:10437800D4E900320546002DA4D1FFF7E7BB00BF02
:10438800000C02440008024404F13000FFF7B4FABC
:10439800D4E900320546002D9CD1FFF795BB04F106
:1043A8003000FFF7A9FAD4E900320546002D8DD177
:1043B800FFF7ABBB5C498B6A43F400338B62002D7B
:1043C8008AD139E604F13000FFF796FAD4E90032D1
:1043D8000546002D7FF46EAF78E404F13000FFF756
:1043E8008BFAD4E900320546002D7FF46DAFFFF754
:1043F800EFBB04F10800FFF713FA05466268002DC9
:104408007FF45EAFF0E504F13000FFF775FA05467A
:104418006268002D7FF450AF89E504F13000FFF7A2
:104428006BFAD4E900320546002D7FF447AF70E4FB
:1044380004F13000FFF760FAD4E900320546002D98
:104448007FF446AFFFF7A3BB2E4685E404F13000A6
:10445800FFF752FAD4E900320546F9E404F13000D6
:10446800FFF74AFAD4E9003205463DE504F10800B1
:10447800FFF7D6F9D4E900320546E9E4354655BBDD
:10448800294F206ED7F8D81021F038010143C7F81A
:10449800D810FFF703BB04F10800FFF7C1F906467F
:1044A800FFF7BABA04F10800FFF7BAF9D4E9003205
:1044B800054683E604F13000FFF71EFAD4E900321E
:1044C80005467BE604F10800FFF7AAF9D4E90032B3
:1044D8000546002DD4D02E46FFF7E0BA04F130008F
:1044E800FFF70AFAD4E900320546C8E70325D4E9FC
:1044F80000322E4633E40C480C4AC16902EA131212
:1045080021F47C510A43C26142E60326D4E9003211
:10451800354624E40126FFF78CBA0126354631E5F5
:1045280001263546A1E400BF000C0244CFFFFF007E
:10453800002800F0A88038B590F83D30044603F014
:10454800FF02002B00F09A8002222368584984F861
:104558003D208B421A6848D001F180518B4244D0EB
:10456800B3F1804F78D0B3F1A04F75D051498B4249
:1045780072D001F180518B426ED04F498B426BD083
:1045880001F180518B4267D04C498B427DD001F1BB
:1045980080518B4200F0878049498B4275D001F1E8
:1045A80080518B4271D047498B4259D044498B4244
:1045B80073D001F180518B426FD043498B424FD069
:1045C80001F180518B424BD040498B4265D001F1BB
:1045D80080518B4261D0A569E068616822F0800251
:1045E8002A431A60D862996212E0A06822F0700229
:1045F8002169024322F440720A43A16922F0800231
:104608000A431A60E268DA6262689A6262691A6347
:1046180001225A611A69D20703D51A6922F00102E8
:104628001A61012384F8483084F83E3084F83F301A
:1046380084F8403084F8413084F8423084F84330BC
:1046480084F8443084F8453084F8463084F847309C
:1046580084F83D30002038BDA16822F070020A437A
:10466800206922F44072A169024322F08002E068C6
:104678000A4361681A60D8629962C9E780F83C20E9
:10468800FCF79EFD60E701207047A16822F07002E8
:104698000A430A498B4289D1E2E7206922F4407231
:1046A800A1690243AAE7A16822F070020A437AE7E7
:1046B800002C01400004004000080040000C0040AD
:1046C80000340140000C0050001800400040014038
:1046D80090F83D30012B4BD10222036880F83D2031
:1046E800DA68244942F001028B42DA6032D0224A69
:1046F80093422FD0B3F1804F2CD0B3F1A04F29D0E3
:104708001E4A934226D002F18052934222D01C4A7C
:1047180093421FD002F1805293421BD0194A934210
:1047280018D002F18052934214D0174A934211D004
:1047380002F1805293420DD0144A93420AD002F1FA
:104748008052934206D0124A934203D002F180521B
:10475800934207D199680F4A0A40062A06D0B2F553
:10476800803F03D01A6842F001021A6000207047A7
:1047780001207047002C0140002C0150000400402B
:1047880000080040000C00400034014000180040C0
:104798000040014007000100704700BF704700BF9C
:1047A800704700BF704700BF704700BFF8B5036887
:1047B8000546DE681C69A10701D5B2076ED46007FB
:1047C80001D5710757D4220701D5330740D4E10634
:1047D80001D5F20628D4E30701D5F7077CD414F4F1
:1047E800025F04F4807769D030067DD4620602D572
:1047F800730600F18B80A70602D5B00600F18E8003
:10480800E10202D5F20200F19180A30202D5B702BB
:1048180000F19480600202D5710200F197802202B3
:1048280001D533024FD4F8BD6FF0100108222B6870
:10483800284619612A77DB6913F4407F40F0978096
:10484800FFF7ACFF2846FFF7ADFF00232B77C2E741
:104858006FF0080104222B68284619612A77DB6962
:104868009F0740F08180FFF799FF2846FFF79AFFDE
:1048780000232B77ABE76FF0040102222B68284650
:1048880019612A779B6913F4407F6AD1FFF786FF85
:104898002846FFF787FF00232B7794E76FF0020283
:1048A8001A61012202779B699F0757D1FFF776FFAC
:1048B8002846FFF777FF00232B7780E7002F95D056
:1048C80031061BD492E76FF400022B6828461A6160
:1048D800BDE8F84000F0D8B86FF001022B68284610
:1048E8001A61FFF759FF7AE76FF402522B682846DE
:1048F8001A6100F0BFF8002F3FF478AF6FF48072B0
:104908002B6828461A6100F0B7F86FE76FF040028D
:104918002B6828461A61FFF747FF6CE76FF0200203
:104928002B6828461A6100F0A3F869E76FF4801233
:104938002B6828461A6100F0A1F866E76FF40012A8
:104948002B6828461A6100F09BF863E76FF4800231
:104958002B6828461A6100F095F860E7FFF720FFFA
:10496800A9E7FFF71DFF96E7FFF71AFF80E7FFF7B4
:1049780017FF6AE790F83C30012B69D0022330B466
:104988000268344D80F83D30AA42844653680C686A
:10499800906847D005F18055AA424ED02E4DAA42C4
:1049A80040D005F18055AA423CD023F0007323F093
:1049B80070032343B2F1804F536025D0B2F1A04F6A
:1049C80022D0264B9A421FD003F180539A421BD023
:1049D800234B9A4218D003F180539A4214D0214BAA
:1049E8009A4211D003F180539A420DD01E4B9A423D
:1049F8000AD003F180539A4206D01C4B9A4203D046
:104A080003F180539A4204D18B6820F08000184348
:104A18009060002301228CF83C308CF83D20184629
:104A280030BC70474D6823F470032B4323F00073A8
:104A380023F0700323435360E6E74D6823F47003C3
:104A48002B4323F0007323F070031C435460DBE70F
:104A580002207047002C014000340140000400404F
:104A680000080040000C00400018004000400140D1
:104A7800704700BF704700BF704700BF704700BF56
:104A8800704700BF704700BF704700BF84B00DF18A
:104A9800040C8CE80E0068B103460021026C04B0D7
:104AA80022F000420264026C42F0010202640846ED
:104AB80059647047012004B0704700BF03460022C4
:104AC8004BF680715A641046196470470246136C9D
:104AD800002023F43F4323F080031364704700BF92
:104AE80029B9036C23F000430364002070470129AF
:104AF80005D1036C43F00043036400207047012094
:104B0800704700BF84B00DF1040C8CE80E0003461A
:104B1800012200211A641A6C084622F001021A6464
:104B28001A6C04B022F000421A645964704700BF3E
:104B3800F0B50D7803462AB2B54C50F8220091F82A
:104B480003C00440BCF1030F00F24F81DFE80CF012
:104B5800686B4D0244F4C06448F2800E44EA0E04C7
:104B680043F8224053F82240AA482040284340EA0C
:104B78000E0043F82200087B002860D10020B1F81D
:104B880006E0D4004E784FEA9E0E04F180444FEAC6
:104B98008E0E04F5B234002E00F0E0802168090C76
:104BA80009042160216841EA0E01216053F82210AE
:104BB8004F0609D553F822409649214041F4004157
:104BC80041F0C00143F8221053F822409249BCF149
:104BD800010F01EA04012BD081F0200141F40041CA
:104BE80041F0800143F82210F0BD48F280063443BA
:104BF80043F8224053F82200864F38402843304378
:104C080043F82200087B0028B8D053F82200384027
:104C180040F4014040F0800043F82200002019E0F1
:104C280044F4007498E744F4806495E781F40051F3
:104C380041F4004141F0800143F82210F0BD00200A
:104C480053F82250754C2C4044F4004444F080043E
:104C580043F82240D40004F1804404F5B2342568B6
:104C68006F4EB1F808E03540256025684FEA9E0E82
:104C780045EA8E0525606568B1F80AE0354065604B
:104C880065684FEA9E0E45EA8E056560497871BBF6
:104C980053F822104E0409D553F822405D492140AB
:104CA80041F4404141F0800143F8221053F82210AA
:104CB8004D0609D553F822405649214041F4004198
:104CC80041F0C00143F8221048F2800553F8224011
:104CD8005449214081F44051294343F8221053F8A4
:104CE80022104D4C0C402C4343F82240F0BD53F8A1
:104CF80022104C0409D553F822404649214041F47A
:104D0800404141F0800143F8221053F8221049062F
:104D180009D553F822403F49214041F4004141F070
:104D2800C00143F8221053F822403B49BCF1010F5F
:104D380001EA040118BF81F0200141F4004141F06B
:104D4800800143F8221053F822403649214041F4AB
:104D5800004141F0800143F82210F0BD0E696168FE
:104D6800090C09046160616841EA0E0161606168CB
:104D780021F07C4161603EB33E2E2AD877086168F5
:104D8800F60748BF013741EA8761616053F822108E
:104D98004F0409D553F822401E49214041F44041AF
:104DA80041F0800143F8221053F822401D49214068
:104DB800002D7FF43BAF81F4405141F4004141F0B4
:104DC800800143F82210F0BD616841F00041616044
:104DD800DCE77709F106616808BF07F1FF3741EAA8
:104DE800876141F000416160D0E748F280063443B2
:104DF80043F8224053F822400648204028433043D5
:104E080043F82200087B08B90120B8E6012017E71B
:104E18008F89FF078F8FFF07BF8FFF078F8EFF07D1
:104E28000000FFFF8FBFFF0710B40C7B4A780B7898
:104E3800A4B9002A71D050F82320540600F19480B8
:104E480050F823104E4A5DF8044B0A4042F40042E1
:104E580042F0800240F82320002070476ABB50F8D7
:104E68002320520409D550F82310464A0A4042F438
:104E7800404242F0800240F8232050F82320540694
:104E880009D550F823103F4A0A4042F4004242F044
:104E9800C00240F8232050F823103A4A48F2800410
:104EA8000A4042F4004242F0C00240F8232050F881
:104EB800232035491140324A22E050F8232051047A
:104EC80009D550F823102F4A0A4042F4404242F0D4
:104ED800800240F8232050F82320520639D448F2A3
:104EE800800450F82310274A0A4042F4404242F016
:104EF800800240F8232050F8232021491140224AFB
:104F0800214340F8231050F823100A40224340F868
:104F180023205DF8044B0020704750F823205104EB
:104F280009D550F82310174A0A4042F4404242F08B
:104F3800800240F8232050F82310134A5DF8044BF0
:104F48000A4042F4004242F0800240F82320002048
:104F5800704750F823100B4A0A4042F4004242F0CE
:104F6800C00240F82320BAE750F82310054A0A4047
:104F780042F4004242F0C00240F8232060E700BF3C
:104F8800BF8FFF078F8FFF078FBFFF072DE9F04FF8
:104F98004B780A7B012B85B05DD0002A32D0CA78C5
:104FA800022A00F0A981012A40F0B7808A690C69B9
:104FB800A24294BF0025151B8D6188BF2246002B95
:104FC80037D10B78DB0003F1804303F5B2331C685B
:104FD80024F07C441C60002A00F020823E2A00F263
:104FE800F5825408D5071A6848BF013442EA84623A
:104FF8001A605A6822F07C425A605A6842EA84620F
:105008005A6016E08C690B699C4284BFE21A1C4600
:105018000B788A61DB0003F1804303F5B2335A68E9
:1050280022F07C425A60002C6BD15A6842F0004250
:105038005A600A7812B250F82210AC4B0B4083F435
:10504800405343F4004343F0800340F822300020EB
:1050580005B0BDE8F08FD1F810C08B694C69634585
:1050680028BF6346002A00F003810F78CE78FA0043
:1050780002F18042022E0D6A02F5B23251D0ED1AC9
:105088000D6250F827509EB203366D064FEA03476B
:105098004FEA960603F0030340F177815568B1F8AB
:1050A8000AE0ADB2556055680EF1804E3D430EF5ED
:1050B800B23E55607546002B40F09C81002E00F0F2
:1050C800068135462246AEEB040C1768013D42F8CE
:1050D8000C7002F10402F8D1002B00F0F8800EEBFE
:1050E800860504EB8604012B227808D0022B66780B
:1050F80018BFA37842EA062218BF42EA03422A6090
:10510800E5E03E2C00F2358165085A68E40748BF9F
:10511800013542EA85625A608BE7012005B0BDE897
:10512800F08F0E89AC4506F1804650F827C006F589
:10513800B23680F0FB816E4DB1F80A800CEA0505A5
:1051480045F4014545F0800540F827500D6A08F1FF
:105158008048A5EB030CC1F820C050F827E09DB2A9
:105168000335AD081F041EF0400B019508F5B23851
:105178003D46029703F0030900F059815768BFB212
:10518800576057682F435760019DB9F1000F40F0F1
:105198003F82AB464DB3DE46A446019DA8EB040A08
:1051A800DCF80070BEF1010E4CF80A700CF1040C2A
:1051B800F6D10195B9F1000F15D008EB8B0804EB77
:1051C8008B0BB9F1010F9BF800700AD09BF801C056
:1051D800B9F1020F47EA0C271CBF9BF802C047EA47
:1051E8000C47C8F80070D1F820C00F691C44674507
:1051F8004C61C0F00A821FFA8CF50335AB080193A5
:1052080000234FEA0C4502950CF003090B62136862
:10521800029D9BB2136013682B431360019BB9F185
:10522800000F00F0FF81013B019312D0019D23463E
:105238002A46A6EB040C1F68013A43F80C7003F1E8
:105248000403F8D1B9F1000F41D006EB850604EB51
:105258008504B9F1010F237808D06278B9F1020FFB
:1052680043EA022302D0A27843EA024333602EE0E5
:10527800B1F806E01FFA83FC0EF1804E0CF1030C26
:105288000EF5B23E13F0030875464FEA9C0C40F049
:105298009880BCF1000F0DD065462246AEEB04079E
:1052A8001668013DD65102F10402F9D1B8F1000F98
:1052B80040F09B800A78D20002F1804202F5B232B7
:1052C8001468A4B21460146844EA034313600A78AB
:1052D800084B50F822100B4083F0300343F400438E
:1052E80043F0800340F82230B1E600BF8FBFFF07CC
:1052F8008F8FFF07BF8FFF07FBB90B780C69DB00A7
:1053080003F1804303F5B2331A6822F07C421A6035
:10531800002C76D03E2C00F243811A686508E70716
:1053280048BF013542EA85621A605A6822F07C4219
:105338005A605A6842EA85625A60CB690A78002B3B
:105348003FF478AE44F2400314B250F8245005EA12
:105358000306AB4302D0002E7FF46CAE50F8242035
:10536800B44B134043F4004343F0C00340F82430E7
:105378005FE66509E2065A6808BF05F1FF3542EAAB
:10538800856242F000425A6053E61568B1F808E0B9
:10539800ADB2156015680EF1804E3D430EF5B23E74
:1053A8001560754653BB002E91D035462246AEEBAC
:1053B800040C1768013D42F80C7002F10402F8D1A0
:1053C8008AE6BCF1010C7FF467AFB8F1010F2278CF
:1053D80009D06678B8F1020F18BFA47842EA06220D
:1053E80018BF42EA04422A6064E70EEB8C0504EB1E
:1053F8008C04EAE7013E7FF464AE74E6013ED4D142
:1054080071E61A6842F000421A605A6822F07C423B
:105418005A605A6842F000425A608EE71A6842F0B1
:1054280000421A605A6822F07C425A60FDE517680B
:10543800BFB2176017682F431760019DB9F1000FBD
:1054480040F0DD80AA466DB3CDF80CB0D4462746AF
:105458009B46019DA6EB040E3B68BCF1010C47F886
:105468000E3007F10407F7D15B460195DDF80CB063
:10547800B9F1000F14D006EB8A0604EB8A0AB9F1D9
:10548800010F9AF800700AD09AF801C0B9F1020F1A
:1054980047EA0C271CBF9AF802C047EA0C47376056
:1054A800D1F820C00E691C4466454C61C0F0A48048
:1054B8001FFA8CF50335AB0801934FEA0C430293AE
:1054C8000CF003095368C1F820B09BB253605368CD
:1054D800029D2B435360019BB9F1000F00F0A68099
:1054E800013B019312D0019D23462A46A8EB0407ED
:1054F8001E68013ADE5103F10403F9D1B9F1000F36
:105508003FF4E5AE08EB850804EB8504B9F1010F1B
:10551800237808D06278B9F1020F43EA02231CBF4E
:10552800A27843EA0243C8F80030D0E6424B0CEABE
:10553800030343F4004343F0800340F82730136823
:105548001FFA85FC9BB2136013680CF1030C43EA45
:10555800054315F0030513604FEA9C0C5ED1BCF1BE
:10556800000F3FF4B4AE62462346A6EB040E1F6854
:10557800013A43F80E7003F10403F8D1002D3FF40B
:10558800A6AE06EB8C0604EB8C04012D23783FF4C1
:105598006DAE6278022D43EA02237FF464AE65E6BD
:1055A8001A686509E60608BF05F1FF3542EA856213
:1055B80042F000421A605A6822F07C425A605A68E7
:1055C80042EA856242F000425A60B6E65409D206C1
:1055D8001A6808BF04F1FF3442EA846242F00042CC
:1055E8001A605A6822F07C425A605A6842EA846219
:1055F80042F000425A601CE5ACEB030B62E7B5F1E0
:10560800010A7FF421AFA24639E7ACEB0303FDE5BD
:10561800B5F1010B7FF4BFADA346D2E5BCF1010C97
:10562800A1D1B2E7002B7FF401AE50E6002B7FF446
:105638005AAF4CE68F8FFF078F8EFF074B780A789B
:1056480050F822105BB10C4B0B4083F0100343F46D
:10565800004343F0800340F8223000207047074B96
:105668000B4083F4805343F4004343F0800340F835
:1056780022300020704700BFBF8FFF078FBFFF0792
:105688000B7BA3BB4B780A780BB350F8223010B4CD
:105698005C0609D550F822401B4B234043F40043D5
:1056A80043F0C00340F82230CB78012B0BD050F8E0
:1056B8002210164B0B4083F0200343F4004343F0C1
:1056C800800340F8223000205DF8044B704750F802
:1056D80022305B040DD450F822100D4B0B4083F49C
:1056E800405343F4004343F0800340F82230002045
:1056F800704750F82210044B0B4043F4404343F0EA
:10570800800340F82230E6E78F8FFF07BF8FFF073F
:105718008FBFFF0709B98023C3640020704700BF0B
:1057280003469A6D002042F400429A65704700BF14
:1057380003469A6D002022F400429A65704700BF24
:10574800406C704730B502F18044DD1C13F0030251
:1057580004F5B2344FEA95051FD1EDB10846AC46C1
:10576800A4EB010E0368BCF1010C40F80E3000F107
:105778000400F7D182B104EB850001EB8501012A11
:105788000B7808D0022A4C7818BF8A7843EA042399
:1057980018BF43EA0243036030BD013D2046DDD116
:1057A800EDE700BF70B502F18046DD1C13F003047D
:1057B8004FEA950506F5B23623D10DB3B446AE4689
:1057C8008A1A0CEB0200DCF8003000F14040A0F52A
:1057D800B230BEF1010E03600CF1040CF1D17CB1C2
:1057E80006EB850601EB85013368012C0B7007D0A9
:1057F800022C4FEA132218BF1B0C4A7018BF8B707B
:1058080070BD013DDAD1EFE708B500221749184805
:1058180000F0D8FA70B91749154800F0E7FA88B9C6
:105828001549134800F028FAA0B9114800F0FAFA0F
:10583800B8B908BDFBF7C6FB0E490D4800F0D6FA0B
:105848000028EDD0FBF7BEFB0B49094800F014FA1D
:105858000028EAD0FBF7B6FB054800F0E3FA002879
:10586800E7D0BDE80840FBF7ADBB00BFDC00002077
:10587800180B00205000002094000020D0F8D432EB
:1058880010B500EB8300D0F8C04284B1D0F8C43220
:105898005BB194F80002FF2807D09B68214694F872
:1058A80001229847FF2384F80032002010BD03200E
:1058B80010BD00BF03460A2201481A80704700BF86
:1058C8008800002070B5822106460F4800F0F0FBE2
:1058D800012105460C4800F0EBFB812104460A48EB
:1058E80000F0E6FB0DB11022AA711CB10021402284
:1058F8006171227118B10021402241710271432364
:105908000148338070BD00BF0C00002070B58221B3
:1059180006460F4800F0CCFB012105460C4800F074
:10592800C7FB812104460A4800F0C2FB0DB11022D2
:10593800AA711CB1002102222171627118B10021E3
:1059480002220171427143230148338070BD00BFB8
:105958000C00002038B5D0F8D432B03350F82350BA
:105968009DB1044601F022F90246D4F8D432D5F8A4
:10597800040204EB8304D4F8C43205F50371DB6830
:10598800C5F80C229847002038BD032038BD00BF59
:1059980070B5D0F8D442D0F8C86200EB8404D4F8CB
:1059A800C05235B301F00F0C0CEB8C0E00EB8E0CD3
:1059B800DCF814300A466BB90021D4F8C4321B69EC
:1059C800C5F8141223B1D5F8080205F504719847F3
:1059D800002070BD06EBCE06766AB3FBF6FE06FB2A
:1059E8001E33002BE8D11A46CCF8143001F0C6F863
:1059F800EEE7032070BD00BF002370B582B08DF8BC
:105A08000530ADF80630D0F8D43200EB8303D3F874
:105A1800C06266B191F800C004461CF060020D46F1
:105A28001ED0202A06D02946204600F0F9FD032082
:105A380002B070BDCA8891F801E07AB31CF0800FFB
:105A48004CD0D3F8C432314670469B689847EA88F0
:105A58003146072A28BF0722204600F00BFF22E024
:105A68004B780B2BDFD801A252F823F0BD5A00085F
:105A7800AF5A00082F5A00082F5A00082F5A00085A
:105A88002F5A00082F5A00082F5A00082F5A0008CA
:105A98002F5A0008D15A0008B35A0008D3F8C43264
:105AA80070469B6898470020C2E790F89C32032B09
:105AB800F9D0B8E790F89C32032BB4D102220DF14B
:105AC800060100F0D7FEEEE790F89C32032BAAD12E
