:020000040800F2
:100000000040042049150008A1120008A5120008AC
:10001000A9120008AD120008B112000899150008D5
:10002000000000000000000000000000B512000801
:10003000B912000800000000BD120008C11200083B
:1000400099150008991500089915000899150008D8
:1000500099150008991500089915000899150008C8
:1000600099150008991500089915000899150008B8
:1000700099150008991500089915000899150008A8
:100080009915000899150008991500089915000898
:100090009915000899150008991500089915000888
:1000A000991500089915000899150008C51200084F
:1000B0009915000899150008991500089915000868
:1000C0009915000899150008991500089915000858
:1000D000000000009915000899150008F1120008A9
:1000E0009915000899150008991500089915000838
:1000F0009915000899150008991500089915000828
:100100009915000899150008FD12000899150008B6
:100110009915000899150008991500089915000807
:1001200099150008991500089915000899150008F7
:1001300099150008991500089915000899150008E7
:1001400099150008991500089915000899150008D7
:1001500099150008991500089915000899150008C7
:1001600000000000000000001113000899150008AD
:1001700099150008991500089915000899150008A7
:10018000991500089915000899150008000000004D
:1001900000000000991500080000000000000000A9
:1001A00000000000000000009915000899150008E3
:1001B0009915000899150008991500089915000867
:1001C00099150008991500080000000000000000C3
:1001D0000000000000000000000000009915000869
:1001E00099150008991500080000000000000000A3
:1001F00099150008991500089915000800000000DD
:100200000000000099150008991500080000000082
:100210000000000099150008000000009915000872
:100220009915000800000000000000009915000862
:100230009915000800000000000000000000000008
:1002400000000000000000000000000099150008F8
:0402500099150008F4
:1002580010B5054C237833B9044B13B10448AFF3F8
:1002680000800123237010BDC002002000000000A0
:1002780004CD000808B5034B1BB103490348AFF38D
:10028800008008BD00000000C402002004CD000862
:10029800034613F8012B002AFBD1181A01387047BE
:1002A80081F0004102E000BF83F0004330B54FEA1F
:1002B80041044FEA430594EA050F08BF90EA020F8C
:1002C8001FBF54EA000C55EA020C7FEA645C7FEA1F
:1002D800655C00F0E2804FEA5454D4EB5555B8BF42
:1002E8006D420CDD2C4480EA020281EA030382EAB3
:1002F800000083EA010180EA020281EA0303362D45
:1003080088BF30BD11F0004F4FEA01314FF4801C17
:100318004CEA113102D0404261EB410113F0004F29
:100328004FEA03334CEA133302D0524263EB4303E0
:1003380094EA050F00F0A780A4F10104D5F1200E7E
:100348000DDB02FA0EFC22FA05F2801841F10001D9
:1003580003FA0EF2801843FA05F359410EE0A5F1AD
:1003680020050EF1200E012A03FA0EFC28BF4CF0DE
:10037800020C43FA05F3C01851EBE37101F0004594
:1003880007D54FF0000EDCF1000C7EEB00006EEBA1
:100398000101B1F5801F1BD3B1F5001F0CD349082B
:1003A8005FEA30004FEA3C0C04F101044FEA445282
:1003B80012F5800F80F09A80BCF1004F08BF5FEA09
:1003C800500C50F1000041EB045141EA050130BDE9
:1003D8005FEA4C0C404141EB0101013C28BFB1F5FB
:1003E800801FE9D291F0000F04BF01460020B1FA46
:1003F80081F308BF2033A3F10B03B3F120020CDA19
:100408000C3208DD02F1140CC2F10C0201FA0CF0F6
:1004180021FA02F10CE002F11402D8BFC2F1200C5B
:1004280001FA02F120FA0CFCDCBF41EA0C01904011
:10043800E41AA2BF01EB0451294330BD6FEA04045A
:100448001F3C1CDA0C340EDC04F11404C4F1200245
:1004580020FA04F001FA02F340EA030021FA04F357
:1004680045EA030130BDC4F10C04C4F1200220FAAE
:1004780002F001FA04F340EA0300294630BD21FAEC
:1004880004F0294630BD94F0000F83F4801306BFB2
:1004980081F480110134013D4EE77FEA645C18BFA6
:1004A8007FEA655C29D094EA050F08BF90EA020F3D
:1004B80005D054EA000C04BF1946104630BD91EA35
:1004C800030F1EBF0021002030BD5FEA545C05D138
:1004D8004000494128BF41F0004130BD14F5800477
:1004E8003CBF01F5801130BD01F0004545F0FE41EB
:1004F80041F470014FF0000030BD7FEA645C1ABF20
:10050800194610467FEA655C1CBF0B46024650EA56
:10051800013406BF52EA033591EA030F41F4002182
:1005280030BD00BF90F0000F04BF0021704730B508
:100538004FF4806404F132044FF000054FF00001DD
:1005480050E700BF90F0000F04BF0021704730B59E
:100558004FF4806404F1320410F0004548BF404273
:100568004FF000013EE700BF42004FEAE2014FEAC8
:1005780031014FEA02701FBF12F07F4393F07F4FA3
:1005880081F06051704732F07F4208BF704793F0A6
:100598007F4F04BF41F40021704730B54FF46074B9
:1005A80001F0004521F000411CE700BF50EA0102BC
:1005B80008BF704730B54FF000050AE050EA010265
:1005C80008BF704730B511F0004502D5404261EBD5
:1005D80041014FF4806404F132045FEA915C3FF416
:1005E800D8AE4FF003025FEADC0C18BF03325FEAB3
:1005F800DC0C18BF033202EBDC02C2F1200300FA64
:1006080003FC20FA02F001FA03FE40EA0E0021FA88
:1006180002F11444BDE600BF70B54FF0FF0C4CF476
:10062800E06C1CEA11541DBF1CEA135594EA0C0F28
:1006380095EA0C0F00F0DEF82C4481EA030621EA63
:100648004C5123EA4C5350EA013518BF52EA03359E
:1006580041F4801143F4801338D0A0FB02CE4FF050
:100668000005E1FB02E506F00042E0FB03E54FF080
:100678000006E1FB03569CF0000F18BF4EF0010E78
:10068800A4F1FF04B6F5007F64F5407404D25FEA74
:100698004E0E6D4146EB060642EAC62141EA555127
:1006A8004FEAC52040EA5E504FEACE2EB4F1FD0C69
:1006B80088BFBCF5E06F1ED8BEF1004F08BF5FEAE7
:1006C800500E50F1000041EB045170BD06F0004699
:1006D80046EA010140EA020081EA0301B4EB5C0446
:1006E800C2BFD4EB0C0541EA045170BD41F480113E
:1006F8004FF0000E013C00F3AB8014F1360FDEBF63
:10070800002001F0004170BDC4F10004203C35DA3E
:100718000C341BDC04F11404C4F1200500FA05F3C1
:1007280020FA04F001FA05F240EA020001F0004262
:1007380021F0004110EBD37021FA04F642EB0601D8
:100748005EEA430E08BF20EAD37070BDC4F10C0402
:10075800C4F1200500FA04F320FA05F001FA04F2C6
:1007680040EA020001F0004110EBD37041F10001B2
:100778005EEA430E08BF20EAD37070BDC4F12005BD
:1007880000FA05F24EEA020E20FA04F301FA05F225
:1007980043EA020321FA04F001F0004121FA04F2CD
:1007A80020EA020000EBD3705EEA430E08BF20EA9D
:1007B800D37070BD94F0000F0FD101F000464000D7
:1007C80041EB010111F4801F08BF013CF7D041EA59
:1007D800060195F0000F18BF704703F0004652005D
:1007E80043EB030313F4801F08BF013DF7D043EA2E
:1007F8000603704794EA0C0F0CEA135518BF95EAE4
:100808000C0F0CD050EA410618BF52EA4306D1D16A
:1008180081EA030101F000414FF0000070BD50EA89
:10082800410606BF1046194652EA430619D094EA13
:100838000C0F02D150EA013613D195EA0C0F05D1FD
:1008480052EA03361CBF104619460AD181EA030151
:1008580001F0004141F0FE4141F470014FF0000009
:1008680070BD41F0FE4141F4780170BD70B54FF0A4
:10087800FF0C4CF4E06C1CEA11541DBF1CEA135524
:1008880094EA0C0F95EA0C0F00F0A7F8A4EB050406
:1008980081EA030E52EA03354FEA013100F08880FD
:1008A8004FEA03334FF0805545EA131343EA1263C6
:1008B8004FEA022245EA111545EA10654FEA00267B
:1008C8000EF000419D4208BF964244F1FD0404F534
:1008D800407402D25B084FEA3202B61A65EB030590
:1008E8005B084FEA32024FF480104FF4002CB6EB4D
:1008F800020E75EB030E22BFB61A754640EA0C00CD
:100908005B084FEA3202B6EB020E75EB030E22BF0C
:10091800B61A754640EA5C005B084FEA3202B6EB4D
:10092800020E75EB030E22BFB61A754640EA9C000C
:100938005B084FEA3202B6EB020E75EB030E22BFDC
:10094800B61A754640EADC0055EA060E18D04FEA9A
:10095800051545EA16754FEA06164FEAC30343EA3A
:1009680052734FEAC2025FEA1C1CC0D111F4801F07
:100978000BD141EA00014FF000004FF0004CB6E700
:1009880011F4801F04BF01430020B4F1FD0C88BF9F
:10099800BCF5E06F3FF6AFAEB5EB030C04BFB6EBAA
:1009A800020C5FEA500C50F1000041EB045170BD9D
:1009B8000EF0004E4EEA113114EB5C04C2BFD4EBCA
:1009C8000C0541EA045170BD41F480114FF0000E4E
:1009D800013C90E645EA060E8DE60CEA135594EACA
:1009E8000C0F08BF95EA0C0F3FF43BAF94EA0C0FCD
:1009F8000AD150EA01347FF434AF95EA0C0F7FF442
:100A080025AF104619462CE795EA0C0F06D152EA95
:100A180003353FF4FDAE1046194622E750EA410679
:100A280018BF52EA43067FF4C5AE50EA41047FF48A
:100A38000DAF52EA43057FF4EBAE12E74FF0FF3CEF
:100A480006E000BF4FF0010C02E000BF4FF0010CC0
:100A58004DF804CD4FEA410C7FEA6C5C4FEA430C39
:100A680018BF7FEA6C5C1BD001B050EA410C0CBF88
:100A780052EA430C91EA030F02BF90EA020F0020EA
:100A8800704710F1000F91EA030F58BF994208BF51
:100A980090422CBFD8176FEAE37040F0010070470E
:100AA8004FEA410C7FEA6C5C02D150EA013C07D165
:100AB8004FEA430C7FEA6C5CD6D152EA033CD3D0B0
:100AC8005DF8040B704700BF8446104662468C46AA
:100AD8001946634600E000BF01B5FFF7B7FF0028DD
:100AE80048BF10F1000F01BD4DF808EDFFF7F4FF06
:100AF8000CBF012000205DF808FB00BF4DF808ED91
:100B0800FFF7EAFF34BF012000205DF808FB00BFB3
:100B18004DF808EDFFF7E0FF94BF012000205DF8D5
:100B280008FB00BF4DF808EDFFF7CEFF94BF01208A
:100B380000205DF808FB00BF4DF808EDFFF7C4FF83
:100B480034BF012000205DF808FB00BF4FEA410CCC
:100B58007FEA6C5C02D150EA013C0AD14FEA430CAF
:100B68007FEA6C5C02D152EA033C02D14FF00000EC
:100B780070474FF0010070474FEA410212F500122A
:100B880015D211D56FF47873B3EB625212D94FEACC
:100B9800C12343F0004343EA505311F0004F23FAB6
:100BA80002F018BF404270474FF00000704750EA0B
:100BB800013005D111F0004008BF6FF000407047C8
:100BC8004FF00000704700BF4A0011D212F5001222
:100BD80011D20DD56FF47873B3EB62520ED44FEA8D
:100BE800C12343F0004343EA505323FA02F070470D
:100BF8004FF00000704750EA013002D14FF0FF304B
:100C080070474FF0000070474FEA4102B2F1E043ED
:100C180024BFB3F5001CDCF1FE5C0DD901F0004CDB
:100C28004FEAC0024CEA5070B2F1004F40EB83002B
:100C380008BF20F00100704711F0804F21D113F157
:100C48003872BCBF01F00040704741F480114FEA90
:100C58005252C2F11802C2F1200C10FA0CF320FA19
:100C680002F018BF40F001004FEAC1234FEAD32336
:100C780003FA0CFC40EA0C0023FA02F34FEA4303A0
:100C8800CCE77FEA625307D150EA01331EBF4FF029
:100C9800FE4040F44000704701F0004040F0FE4044
:100CA80040F40000704700BF38B500220023044616
:100CB8000D46FFF723FF28B920462946BDE83840EE
:100CC80000F00AB8204605F1004100F005F840425E
:100CD80061EB410138BD00BFD0B500220B4B064681
:100CE8000F46FFF799FCFFF76FFF0446FFF71AFC62
:100CF8000022074BFFF790FC02460B463046394668
:100D0800FFF7D2FAFFF760FF2146D0BD0000F03DA3
:100D18000000F04110B588B020220021684608F094
:100D280016FC4FF4E0140023012208213248C0E9E0
:100D38000332C0E90143C0E90A33416180F8203039
:100D48004FF480710363836380F83C30052380F897
:100D580034202A4A01830260C36100F0F5FD0028AF
:100D680037D10123062100207F240422CDE9003158
:100D7800059069462048CDE90342029300F012FF2E
:100D8800002836D10C231E4A69461B48CDE90023AA
:100D980000F008FF50BB12231A4A69461648CDE9ED
:100DA800002300F0FFFEF0B91823174A69461248DD
:100DB800CDE9002300F0F6FE90B94FF48073134A92
:100DC80069460D48CDE9002300F0ECFE20B908B0D3
:100DD80010BD00F05DFAC4E700F05AFA08B010BD83
:100DE80000F056FAE9E700F053FADDE700F050FAB0
:100DF800D1E700F04DFAC5E79003002000800242D9
:100E0800020030040040C03A0080F03E0000844BED
:100E180030B500240546D9B06C22214608A8CDE992
:100E28000244CDE90444069408F091FBD0222146FF
:100E380024A808F08CFB504B2A689A4201D059B07C
:100E480030BD02232822279329934C930323289209
:100E580026934FF480220C239FED457B2F922C93F1
:100E68000222042324A88DED247BCDE92A2304F053
:100E78000BFA002867D1414B0024D3F88C20404856
:100E880042F48062C3F88C20D3F88C2002A902F4C3
:100E980080620092009AD3F88C2042F00102C3F8D5
:100EA8008C20D3F88C301F2203F001030193019B9F
:100EB80003230494CDE9022302F0ECFA01234FF452
:100EC80000212122CDE911330E934FF480330D9187
:100ED80008A82C49CDE90944CDE90B44CDE91344D0
:100EE800199417940892159416940F9301F066FDBF
:100EF800002837D10021234A234801F07FFE70BB28
:100F0800214801F015FF38BB002381221F4C2049DE
:100F18002046C4E90E33C4E910332160A26401F00D
:100F2800FBFBB0B91849194801F052FF70B92C659C
:100F380010211648E56501F069FB00283FF47FAFF2
:100F480000F0A6F97BE700F0A3F994E700F0A0F918
:100F5800EDE700F09DF9E5E700F09AF9D4E700F035
:100F680097F9CDE700F094F9C4E700BFAFF300802C
:100F7800000020000000000000800242000C024433
:100F8800000002426C03002054030020DC02002011
:100F98005000024038B50122002304255D241F219A
:100FA8000D48C0E90133C0E90C23C0E90E33C36022
:100FB80003828374094BC0E90624C0E90812C0E91A
:100FC8000A224561036001F05BFF00B938BDBDE846
:100FD800384000F05DB900BFF803002000A40040CD
:100FE80010B500210446BCB0D02208A8CDE90211F2
:100FF800CDE90411069108F0AAFA294B22689A4211
:1010080001D03CB010BD9FED207B4FF4807308A841
:101018008DED087B2D9304F037F980BB9FED1C7B89
:10102800204B0924D3F8A02002A942F40072C3F887
:10103800A020D3F8A0201C4802F400720092009A65
:10104800D3F88C2042F00202C3F88C20D3F88C30FD
:101058008DED027B9FED107B03F0020301938DED74
:10106800047B019B069402F015FA002221462720F2
:1010780001F012F9272001F04BF93CB010BD00F047
:1010880007F9CBE7AFF30080000000000400000080
:1010980080010000020000000000000000000000C5
:1010A80000A40040000C02440004024200220C4B41
:1010B80000B5D3F8881083B041F00101C3F8881057
:1010C800D3F888301B2003F0010301931146019BDC
:1010D80001F0E2F81B2003B05DF804EB01F018B949
:1010E800000C024470B500248AB0CDE90444CDE96F
:1010F80006442D4B0894D3F88C202C4E42F0040261
:10110800C3F88C20D3F88C20294D02F004020092F9
:10111800009AD3F88C20304642F08002C3F88C2025
:10112800D3F88C204FF4005102F080020192019A0A
:10113800D3F88C2042F00102C3F88C20D3F88C201D
:1011480002F001020292029AD3F88C2042F00202C5
:10115800C3F88C20D3F88C30224603F002030393A3
:10116800039B02F061FA22462846032102F05CFA4A
:101178004FF400520123CDE9042300220023304616
:1011880004A9CDE90623002402F084F903220123EF
:101198002846032504A9CDE90645CDE9042302F034
:1011A80079F90AB070BD00BF000C02440008024281
:1011B80000040242002330B59DB0CDE90B33CDE9E0
:1011C8000D33CDE90F33CDE90333CDE90533234A98
:1011D8000A9302930793136943F030031361136969
:1011E80003F030030193019B53691B07FCD50223CD
:1011F80021204FF480314FF48054CDE908010022BA
:101208002821CDE9163311941293149318930324CB
:101218000C2308A81993CDE91A221394159103F009
:1012280085FA034608B172B6FEE71F250022CDE90C
:10123800034305930023052102A8CDE9062302955F
:1012480003F0C6FD08B172B6FEE7054A136823F03D
:10125800300343F0200313601DB030BD0008024482
:101268000020024008B500F037FBFFF7A3FFFFF7A7
:1012780039FFFFF71BFF00F0FBF800F047F9FFF715
:1012880049FDFFF787FE00F00BFA00F017FAFCE7BC
:1012980072B6FEE7704700BFFEE700BFFEE700BF7B
:1012A800FEE700BFFEE700BFFEE700BF704700BFD4
:1012B800704700BF704700BF00F034BB012210B573
:1012C800074C1146204602F0AFF9064801F0DEF857
:1012D8002046BDE810400022012102F0A5B900BF58
:1012E80000040242DC020020014802F00DB800BFF1
:1012F800F803002008B5034804F0B4FEBDE8084030
:1013080000F0ACB960040020014802F0B9BA00BF8F
:10131800AC0400200120704708B508F06BF91622CC
:1013280003464FF0FF301A6008BD00BF08B508F04B
:1013380061F916230360FEE770B5161E07DD0C463B
:101348008D19AFF3008004F8010BA542F9D130469E
:1013580070BD00BF70B5161E07DD0C468D1914F858
:10136800010BAFF30080AC42F9D1304670BD00BF2D
:101378004FF0FF30704700BF4FF4005300204B6020
:10138800704700BF01207047002070470D49034691
:1013980010B50D4A0D4C0868121B20B10344934246
:1013A80007D80B6010BD0A4C2046034493420C60DA
:1013B800F7D908F01FF90C2203464FF0FF301A60E6
:1013C80010BD00BF5C0400200040042000040000A1
:1013D80050250020F0B4002201274FF000661D4977
:1013E8001D4CD1F888301D4843F47003C1F888308B
:1013F8001B4B1C4D1F60DA611A621F683C401C6061
:101408009A62DA621A6358639A63D8631A645864F2
:101418009A64186820F4802018601A658E60AB6999
:1014280003F04043B3F1404F01D0F0BC7047EB6983
:10143800DB0703D50C4A0D4BEA60EB60094BF0BCA7
:10144800DA6942F00202DA61DA6942F00102DA612D
:10145800704700BF00ED00E0E3EAE2EA8002010124
:10146800000C0244002002403B2A19087F6E5D4CA4
:101478000023632110B58022F924104884B0C0E904
:101488000231CDE9023301930D4B44608261036060
:1014980004F0AAFC50B920220023084801A90192AF
:1014A800039304F0C3FE20B904B010BDFFF7F0FEAB
:1014B800F1E7FFF7EDFE04B010BD00BF60040020A7
:1014C800001400400F4B02689A4200D070470E4B40
:1014D80000B5D3F89C1083B041F02001C3F89C10EC
:1014E800D3F89C30322003F02003019300220B2113
:1014F800019B00F0D1FE322003B05DF804EB00F050
:1015080007BF00BF00140040000C0244022308215A
:10151800002210B50848094CC37104600171C0F875
:101528000930C0F80D2002F08FF800B910BDBDE8F1
:101538001040FFF7ADBE00BFAC04002000600140C2
:101548000D488546FFF746FF0C480D490D4A002314
:1015580002E0D458C4500433C4188C42F9D30A4A60
:101568000A4C002301E013600432A242FBD308F0C6
:1015780047F8FFF777FEFEE7004004200000002050
:10158800C0020020C8D10008C00200205025002059
:10159800FEE7000005220249024800F0C7BD00BF6F
:1015A8009007002090030020704700BF08B5094845
:1015B80001F09CFD30B900220121064801F012FE1D
:1015C80018B908BDFFF764FEF5E7BDE80840FFF766
:1015D8005FBE00BFF8030020034A11684B1C0231AC
:1015E80008BF0023136070479C070020000000001C
:1015F8009FED117B1649002008B59FED116B4FF048
:10160800FF3381ED047B81ED067B4FF0690C9FED84
:101618000E7B104A08621048C2E9003381ED006B66
:1016280081ED027B82F801C001F07AFD00B908BDA6
:10163800BDE80840FFF72CBE0000000000000000D5
:10164800DF070000000000000000000008000000A4
:10165800A8070020A0070020F8030020012210B5E9
:1016680011460C4801F0E0FFFFF7B6FF42F2107296
:10167800094C2368934208D8013323600022BDE84F
:1016880010400121034801F0CFBF0121034A002384
:101698001170F2E700040242D0070020CD070020B5
:1016A80008B5054804F070FC05F00AFDFFF77EFF59
:1016B800BDE80840FFF76EBF60040020022110B5A6
:1016C8000D4801F0B7FF0D4B1A7852B90C4C22782F
:1016D8004FF400510B4801F0A7FFBDE8104000F09F
:1016E8009BB80021064C1970227882F00102227002
:1016F800FFF77EFFEBE700BF00040242CD070020A2
:10170800CC070020000802422DE9F04101223448AC
:101718000221CCB001F088FF6923324F324C78881F
:1017280023707B7840BA062BBA881FFA80FC637056
:1017380045D052BA92B24FEA4206B5B205F103015A
:101748001FFA81F829D8033B012B0ED82748D7B2B6
:101758003A4600EB4C0001A906F010FF7F00324624
:1017680001A9E01CA77007F080FF414646460535F1
:10177800ADB24F1C1C4806F07FFE03462946A35510
:1017880019481B0AE35505F063FF0022022114489B
:1017980001F04AFF4CB0BDE8F081102BE5D10626D8
:1017A8001248F91D00EB4C00D2B206F003FFD7F83F
:1017B8000230082507273146C4F80230DAE7062642
:1017C80097E8030020600948A1800122391D00EB39
:1017D8004C0006F0EFFE082507273146CAE700BF90
:1017E80000040242080B0020D8090020D40700207A
:1017F80010B50C4601462246044807F036FF012280
:101808000349044B0C801A7010BD00BF080B002060
:10181800040B0020D4090020054B1A782AB10021B6
:10182800044A19701278692A00D07047FFF76CBF14
:10183800D4090020080B002070B5244E3278EAB194
:101848004FF0E0231C69054614F0040418D04FF447
:101858007A71B1FBF2F21E4B1C68B4FBF2F420461D
:1018680000F064FD044648B9024629464FF0FF30AF
:1018780000F012FD174B20461D6070BD012070BDA1
:1018880000F0A2FD012817D002280BD00028E6D1CD
:101898004FF4FA5231780E4BB2FBF1F21C68B4FBEC
:1018A800F2F4DCE74FF47A7231784FF40043B2FB7C
:1018B800F1F2B3FBF2F4D2E74FF47A7231784FF4D5
:1018C800FA43B2FBF1F2B3FBF2F4C8E704000020DC
:1018D800000000200800002010B5032000F0CAFC1A
:1018E80003F0CCFB03460C4A0C48126A0C4902F080
:1018F8000F02825C0420D3400B6000F027FD0F200C
:10190800FFF79AFF10B10124204610BD0446FFF7E7
:10191800C1FC204610BD00BF000C024420CD0008C9
:1019280000000020034A044B11681B780B44136025
:10193800704700BF340C002004000020014B1868D9
:10194800704700BF340C0020002330B583B00193EA
:10195800002800F09C80856D0446002D00F09C80D6
:10196800226893689D0005D5936823F0204323F0EF
:101978003F0393609368D80019D45D4B5D481B689A
:1019880091689B09A0FB030321F010419B0921F0FA
:101998003F0101335B0041F0805191600193019B4D
:1019A8002BB1019B013B0193019B002BF9D193685B
:1019B800D9006FD40120A36D43F01003A365E36D34
:1019C8000343E365936813F0040FA36D5BD1DB0653
:1019D80059D4A36D23F4817343F00203A36593687C
:1019E800DD0708D4444B9B6813F0010F434B9B68F9
:1019F80001D1D90763D5E568A36B94F820102B4370
:101A0800A568012943EA0503657E43EA453343EAAD
:101A180001434FD0A16A21B1E56A01F478712943E5
:101A28000B43D568364929401943D1601369216BA6
:101A380023F040630B43136193681B0714D4D168E8
:101A480094F83430257E21F480415B0021F00201B6
:101A580043EA85330B43D36094F83C30012B36D0EE
:101A6800136923F0010313612369012B1AD0136B47
:101A780023F00F031363A36D23F0030343F0010363
:101A8800A36503B030BDA36D43F01003A365012027
:101A980003B030BD002095E7FFF7BAF9E56584F893
:101AA80054505DE7116BE36921F00F01013B0B43D3
:101AB8001363E0E7616A013943EA4143AAE7114940
:101AC80065688B6823F47C132B438B6093E711695B
:101AD800236C656C21F4FF6121F004012B430B4357
:101AE800A16C0B43E16C0B4343F001031361BBE7AB
:101AF80000000020632D3E05008002420081024262
:101B08000740F0FF00830242704700BF08B5C06D70
:101B1800FFF7FAFF08BD00BF704700BFC36D10B5DF
:101B28009A6D12F0500F9A6D1DD1196842F4007227
:101B38009A650A6812F0080FCA681BD012F4406F41
:101B48000DD1CA6894040AD49A6D22F480729A65F9
:101B58009A6DD10403D49A6D42F001029A65184631
:101B6800FFF722FD10BDD2060AD4BDE810401B6D58
:101B78009B6E18479007E7D51846FFF715FDF1E764
:101B88001846FFF7C9FF10BDC06D08B5836D43F057
:101B980040038365C36D43F00403C365FFF7BCFFCF
:101BA80008BD00BF00222DE9F04182B0019290F8F3
:101BB8005420CD68012A00F02E81034601201A68BE
:101BC80083F854009468640709D59A6D42F020029E
:101BD8009A65002283F8542002B0BDE8F0810868B5
:101BE800012800F0AD80AB4CA04200F0A5804FF07A
:101BF8001F0C4C6802F130054FEA941E0EF00C0ED3
:101C080004EA0C04C0F38460A0400CFA04FC55F804
:101C18000E4024EA0C0C4CEA000045F80E009068CF
:101C2800400737D5906808689468E60712D4CE68EC
:101C3800994CD2F8B05006F01807FC40C0F31307CF
:101C4800044025EA07052C43C2F8B040934CA6424D
:101C580000F09E80924908421AD0924C924DA16899
:101C6800A84201F0E07673D0904DA84200F0D780EA
:101C78008F4DA84200F0E2808E49884208D18E49F3
:101C88008A4205D0D2F8C81041F00101C2F8C81044
:101C980000209EE7946808682707C5D407248D6844
:101CA800C0F30456B440C00DB5F1004F6FEA040408
:101CB80000F0040002F1140700F0E480B5403E583B
:101CC80034402C433C50506920F000405061086873
:101CD800D1E90475042F8446D66802F1600400F047
:101CE800F580C6F3C106760054F827C0B540734E98
:101CF80000F0F8400CEA06060643354345F0004577
:101D080044F827500D698E6954F8250020F080703A
:101D1800304344F825000D7F0E69A5F10105B5FA99
:101D280085F554F826006D0920F0007040EA4560FA
:101D380044F82600086877E7584CA5427FF457AF67
:101D48005D4DD5F8C84044F00104C5F8C8404EE7D9
:101D58000D029DD458498A429AD1A268584922F066
:101D6800E072324342F40002A2600A6855499209BF
:101D7800A1FB02129209013252000192019A002A33
:101D880086D0019A013A0192019A002AF9D17FE797
:101D9800002F62D090FAA0F4002C00F0BD80B4FAB5
:101DA80084F6013606F01F05092D40F2B58090FA39
:101DB800A0F0B4FA84F5B4060126354405F01F05F1
:101DC80004F0F84406FA05F52C43002800F03F819A
:101DD800B0FA80F56FF01D060320013505F01F05E8
:101DE80010FB0560000540F0007020430727C50D73
:101DF8008E6805F0040502F1140C5CF80540C0F388
:101E08000450864007FA00F024EA000030434CF8FA
:101E1800050008681EE7022002B0BDE8F081C8018D
:101E28003FF536AF28498A427FF432AFA26822F0E4
:101E3800E072324342F08072A26029E749023FF51E
:101E480027AF1D498A427FF423AFA26822F0E072CF
:101E5800324342F48002A2601AE70124800E013066
:101E680000F01F06800600F0F840B440092E06EB8B
:101E7800460544EA000473D9A5F11E00000540F0A8
:101E88000070B2E73D582C403C50506940F000408B
:101E980050611CE702003004FFFF0F0000007F4084
:101EA8000000088000830242000021C3000029438B
:101EB800000052C700005A470080024200F0FF03AA
:101EC80000000020632D3E0500810242156E156E4C
:101ED800C0F31306C5F38465002E45D1C0F38460B2
:101EE800854272D0556E556EC5F3846585427ED0A5
:101EF800A568A56804F10807C5F38465854200F064
:101F08008B80E568E56804F10C06C5F38464A0429B
:101F180000F09780604687E690FAA0F4002C00F065
:101F28009D80B4FA84F40134A40604F0F84490FACD
:101F3800A0F5002D00F090800126B5FA85F535440E
:101F480005F01F0506FA05F52C4390FAA0F00028C5
:101F58007FD0B0FA80F5013505F01F0505EB450582
:101F68002D0545EA040041E790FAA0F61EB1B6FA3D
:101F780086F6B54229D0556E556EC5F3846504F1D1
:101F88000807BE469CFAACF61EB1B6FA86F6AE4213
:101F98002FD0A568A568C5F3846504F10C06B04682
:101FA8009CFAACFEBEF1000F03D0BEFA8EFEAE4521
:101FB80034D0E568E468C4F384649CFAACF5002D79
:101FC8003FF432AEB5FA85F0A1E7106E20F000407C
:101FD8001066D1F800C0506E556ECCF313066046FB
:101FE800C5F38465002ECAD1CCF384607EE704F182
:101FF800080E506E774620F000405066D1F800C0B9
:10200800A068A568CCF313066046C5F38465002E66
:10201800C3D1CCF3846071E704F10C0838684646F4
:1020280020F000403860D1F800C0E068E468CCF3E4
:1020380013056046C4F38464002DBED1CCF38460DC
:1020480065E7306820F0004030600868ECE5054836
:10205800CBE64FF4401584E7022575E74FF080641E
:1020680065E700BF000050FE002370B582B0019301
:1020780003689A68D2072CD49968274A0446114203
:102088002AD19A68254922F0004222F03F0242F004
:1020980001029A608B681B0229D4FFF74FFC236862
:1020A80005461A68D60714D41D4E9A68D00704D47A
:1020B8009A68324042F001029A60FFF73FFC431BE6
:1020C800022B236802D91A68D10705D51A68D207E6
:1020D800EBD5002002B070BD0120A36D43F01003C2
:1020E800A365E36D43F00103E36502B070BD0D4BDA
:1020F8000D4A1B689B09A2FB03239B0901335B0064
:102108000193019B002BC8D0019B013B0193019BCC
:10211800002BF9D1C1E700BF3F00008000830242D5
:10212800C0FFFF7F00000020632D3E054C4B2DE9CA
:10213800F041D3F8088003689CB09D6815F0040549
:1021480014D190F854300446012B0FD040F22123CB
:102158001646012208F01F0823FA08F3134080F8F6
:10216800542007D180F85430012000E002201CB030
:10217800BDE8F0810F46FFF777FF00284BD1A36D2C
:10218800216823F4706323F0010343F48073A3658B
:10219800344B994244D0A36D23F48013A365A36DF7
:1021A8001C2213F4805318BFE36D206D18BF23F071
:1021B8000603E36500232C4D05662C4D45662C4D22
:1021C80085660A6084F854304B6843F010034B600E
:1021D800CB6843F00103CB60036D1B0624D5436F26
:1021E800002BC1D019680029BED001A800F088FCD6
:1021F8000028B9D1079B022B2FD0012B08BF7600EE
:10220800206D2268436F40321B689E601F61DA6050
:1022180000F072FB13E084F854501CB0BDE8F08164
:10222800B8F1000FBBD1B6E78369022B13D0012B9D
:1022380008BF760033463A46403100F0DFF822689E
:10224800936823F0004323F03F0343F004039360B3
:102258001CB0BDE8F081B600ECE7B600D0E700BFDF
:102268000083024200810242251B0008151B00085A
:10227800911B00084FF6FF0C06490302CA6803F4D5
:10228800E06302EA0C02134343F0BF6343F40033F4
:10229800CB60704700ED00E01B4B00B5DB68C3F373
:1022A8000223C3F1070EBEF1040F03F1040C28BF8B
:1022B8004FF0040EBCF1060F1CD9A3F1030C4FF02C
:1022C800FF3303FA0CF322EA03024FF0FF3303FA59
:1022D8000EF321EA030303FA0CF313431B0100284E
:1022E800DBB20ADB00F1604000F5614080F80033A2
:1022F8005DF804FB00229446E7E7044A00F00F006B
:10230800024413765DF804FB00ED00E0FCEC00E00D
:10231800002807DB012300F01F01034A40098B4016
:1023280042F82030704700BF00E100E0431EB3F1DF
:10233800807F09D24FF0E022002053619061136939
:1023480043F003031361704701207047042813D832
:10235800DFE800F02A1A031213004FF0E0210B699E
:10236800184A23F004030B61D2F8E43023F00C037D
:1023780043F00803C2F8E43070474FF0E0221369D5
:1023880043F00403136170474FF0E0210B690D4AD5
:1023980023F004030B61D2F8E43023F00C0343F07C
:1023A8000403C2F8E43070474FF0E0210B69054A96
:1023B80023F004030B61D2F8E43023F00C03C2F8D5
:1023C800E4307047000C02444FF0E0231B695B07C0
:1023D8000FD4094BD3F8E40000F00C00042806D011
:1023E800A0F10800B0FA80F04009400070470120D1
:1023F80070470420704700BF000C0244002842D0F8
:10240800F0B490F84C40012C3AD0012590F8544093
:1024180080F84C50AC422BD14FF0020C00254FF401
:10242800FE47046880F854C08565A56C9BB24FEAE6
:10243800154C4FEA0C4C4CEA0303466EA364E76064
:10244800E1642265636943F4BA4363611EB1636959
:1024580043F400736361036F1BB1636943F4005372
:1024680063616369002043F001036361F0BC704756
:102478000023402280F84C308265F0BC0120704770
:102488000220F0BC70470120704700BF012103689B
:1024980010B5C3F30B02044623F47F6020F00F004D
:1024A800503AC068C2F3C4129140014200F0A580BE
:1024B8001A69520509D55A69500506D54FF4806244
:1024C800DA60A26D42F00102A2651A69110509D508
:1024D8005A69120506D54FF40062DA60A26D42F01F
:1024E8000202A2651A69D00409D55A69D10406D531
:1024F8004FF48052DA60A26D42F00402A2651A69B4
:10250800520409D55A69500406D54FF48042DA605E
:10251800A26D42F00802A2651A6991050AD55A69A6
:10252800920507D54FF40071626ED96012B120464A
:10253800904723681A69900411D55A6991040ED5F9
:102548004FF40052DA6094F85420042A3DD0052153
:10255800226F84F8541012B12046904723681A69F4
:10256800D00518D55A69D10515D5226D120645D55D
:10257800DA6F32B99A6C22B90122616F84F854205B
:102588000A734FF440700021226ED86084F84C1012
:102598000AB120469047A36D002B2ED02268012156
:1025A8005369206D43F0020353610022030648BFBC
:1025B800636F84F8541048BF1973A36E84F84C20D5
:1025C800DBB12046BDE81040184701215A69206D4B
:1025D80022F400525A615A6942F002025A61020614
:1025E80084F8541003D50022606F01739A640022A6
:1025F800E36E84F84C20002BE3D110BD9A6C002ABE
:10260800BFD1012284F85420BBE700BFD0B1CB066C
:1026180016D54FF0010C036801F01101C3F30B024A
:1026280023F47F6323F00F03503A1129C2F3C41235
:1026380059680CFA02F20CBF0A4321EA02025A60F6
:1026480000207047012070472DE9F0438668D2F8D2
:10265800008000293DD04FF6FC7701EA0705002EDF
:102668004FD0002D50D04FF0000C046861464FEA5F
:10267800144E04EA07034FEA0E4E4FEA880906E0B3
:10268800AB4222D054F80E40194604EA07030CF175
:10269800010CB44509EB0304F2D19D4202D001209C
:1026A800BDE8F0830468240C2404234353F828006D
:1026B800214396605160D36020B14FF6FC731840F7
:1026C800204310610020BDE8F0839D426646E6D1B4
:1026D800E8E70468EEB14FF6FC77012E04EA070339
:1026E800E1D00120250C2D044FEA880E0EEB0301E2
:1026F80051F805C00130B04219460CEA0703F5D17C
:10270800D1E731463346C8E729462B462E460468AA
:10271800C9E731463346C6E770B50446FFF70EF9F8
:10272800002C00F0BC8002220021236884F84C10A1
:1027380084F854205A69054642F006025A6106E0B8
:10274800FFF7FCF8431B052B00F2A48023685A69A5
:10275800D207F5D4674AD4E90E019342656C40EA82
:10276800010000F09E8002F18052934200F09980AF
:1027780002F170428032934200F0938002F180525D
:10278800934200F08E8002F170428032934200F052
:10279800888002F18052934200F0838002F17042F7
:1027A800803293427DD002F18052934279D002F177
:1027B80070428032934274D002F18052934270D0BA
:1027C80002F17042803293426BD002F18052934200
:1027D80067D002F170428032934279D002F1805280
:1027E800934275D002F170428032934270D002F168
:1027F800805293426CD002F1704202F548629342D3
:102808004FD002F1805293424BD002F17042803295
:10281800934246D002F18052934242D002F1704274
:10282800803293423DD002F18052934239D002F176
:1028380070428032934234D002F18052934230D0B9
:1028480002F17042803293422BD002F180529342BF
:1028580027D002F170428032934222D002F1805296
:1028680093421ED002F170428032934230D002F17E
:10287800805293422CD002F170428032934227D08A
:1028880002F18052934223D05A69002122F4430274
:1028980002430DE010220323A26584F8543001207E
:1028A80070BD00215A69266C22F44302304302436A
:1028B8005A6119645D649964D9641965002201211B
:1028C800A56CDA67A26584F854101046256570BDBA
:1028D8005A69002122F4430C226C024342EA0C029A
:1028E8005A61002219645D649964D96419655A654E
:1028F8009A65E3E750000240002856D0416F00294E
:1029080053D010B490F854300268012B54695FFA20
:1029180083FC04D0BCF1020F0ED1E3030CD590F870
:102928005430012BDCB210D00020536943F001036E
:1029380053615DF8044B70470023402280F84C3007
:1029480082655DF8044B0120704790F84C30012BEC
:102958002DD000234FF0020C80F84C4080F854C072
:1029680081F80CC083650B615369446E43F4BA4324
:1029780053611CB1536943F400735361036F1BB176
:10298800536943F4005353610B680A481C6A0A49A7
:1029980014F0020F4FF6FC7418BF0146180C2340C0
:1029A80000040B431060D367BEE701207047022084
:1029B800BFE700BF000001FE000001F8002859D061
:1029C800002957D040F2FF22F0B54369C469456831
:1029D8002343C46B2A4023430469056B234384695A
:1029E8002A4323430468C568A6060B603DD5866A5A
:1029F800C76A06F1FF3C466A4FEA0C5C06F1FF3EE7
:102A0800866B0CF07C7C4FEA0E1E3E430EF47C7EF7
:102A18004CEA060C4CEA0E0C4CEA0303B5F5806F41
:102A28000B6065D0B5F5007F08BF42F40072436BB8
:102A3800456C1A434A6045B1836C066C1B0403F469
:102A48007C1335432B4313434B60B0F8682014F0D4
:102A580002038A60D0E918C70ED144F4A0640020AC
:102A6800C1E903C74B610C62F0BDB5F5806F4A60E0
:102A7800D8D1DCE701207047C36C466D5D1E1E4B44
:102A880044F4E06403EA0543056D1343002D826DA9
:102A9800B8BF43F08053C06D002EB8BF43F0005359
:102AA800002AB8BF43F0804300288B60BCBF43F0C6
:102AB80000438B60002DB8BF6D42104B002EB8BF8D
:102AC800764203EA0643C5F30C051D430023002A9A
:102AD800B8BF52420028B8BF404292B242EA004210
:102AE800C1E903C700204D618A61CB610C62F0BD6A
:102AF80042F480629BE700BF0000FF070000FF1F51
:102B0800002877D0002975D030B40C6A0B68E2B27F
:102B1800026003F00802026103F40022426103F03C
:102B28000302826103F44032C261C3F30512013229
:102B38004262C3F305520132826203F04022C2624C
:102B48002D4A1A4082634A6803F4C0539505C3634B
:102B580046BF4FF400731D46D3B2436002F40063CE
:102B6800836002F44043036402F040734364C2F399
:102B7800054383648B6858BF02F4806502F04042C5
:102B880002639AB2C560826614F00204D1E9035266
:102B98000AD10123C0E91852C0E91444C0E9164417
:102BA800C364002030BC7047C0E91852C3F30A441C
:102BB8004A690134C2F30C05C464C2F30C42DC0058
:102BC800C0E9145201D56D4205659D0044BF5242CB
:102BD80042658A695C0091B24FEA1242C0E9161256
:102BE80044BF49428165002BDBDA30BC5242C265E2
:102BF80000207047012070470020000C002800F0DA
:102C080090802DE9F041154686B0002A46D04369E8
:102C18000446012B40D003680E46002B42D00A43DD
:102C280022EA0302B2F5803F47D293F82020002918
:102C380041D091F820108A422ED12A6AD0B2884217
:102C48002AD102F00202002A4FF000014FF00202DE
:102C58003548DFF8D88022730EBF0527072780463E
:102C68002161002B3FD05EB33146204601AA01976F
:102C7800FFF7EAFC002851D1A268039B93423CD09D
:102C880056F8273045F827304FF6FC731D4045EAC3
:102C9800080546F827501CE004232361012006B0EC
:102CA800BDE8F081A1B322EA0102B2F5803F04D267
:102CB80091F82010C1E71146BFE705232361EDE72E
:102CC8004FF6FC72134043EA0803A26845F8273020
:102CD800256001320023012118462361A260217377
:102CE80006B0BDE8F081B6B14FF6FC732B4043EA5D
:102CF8000803266046F82730ECE76368002BC3D04A
:102D08004FF6FC710B4043EA080345F82730BBE750
:102D180002230373016101222560DBE70623236197
:102D2800BCE70120704700BF000001FE000001F869
:102D380040B1016800293BD043682BB199423BD090
:102D480004230361012070474269012AF8D02DE964
:102D5800F0410227077303610B6A1B4A3B401B4D76
:102D68008468002B4FEA11460BBF9046A8460527FA
:102D78000727360414B34FF6FC7C012C01EA0C0E2D
:102D8800734608D0012206EB8705EB5801329442BE
:102D980003EA0C03F9D11E434EEA080346F827302C
:102DA800002201230261037341600020BDE8F08125
:102DB8000223036101207047002070474FF6FC7E14
:102DC80001EA0E0EE8E700BF000001F8000001FE6E
:102DD800034600283DD000293BD090F8542090F8B5
:102DE8005400D2B202282FD0052A2DD00A7B022AFD
:102DF8003FD01A68204882422DD000F1805082428C
:102E080029D000F170408030824224D000F18050F7
:102E1800824220D000F1704000F5786082421AD0DA
:102E280000F18050824216D000F17040803082421A
:102E380011D000F1805082420DD00A68126A9207C0
:102E480009D503230B6104E040210022996583F82A
:102E58004C2001207047186D4A68812804D02AB197
:102E6800042301200B617047002AF9D0002059671C
:102E7800704701230B61ECE750030240000000009B
:102E8800002800F015812DE9F04790F85C300446E1
:102E980003F0FF02002B73D02268936923F010031C
:102EA8009361FEF74BFD054604E0FEF747FD401B26
:102EB8000A285BD823689A691207F6D49A6942F0FF
:102EC80001029A61FEF73AFD064604E0FEF736FD78
:102ED800801B0A284AD82568AB69DB07F6D5AB6999
:102EE800794A43F002039542AB6100F0CF80237C1E
:102EF800012BAB690CBF23F0400343F04003AB61E7
:102F0800637C012BAB690CBF43F4804323F48043FB
:102F1800AB61A37C012BAB690CBF23F4805343F452
:102F28008053AB61AB69A16823F440730B43AB6179
:102F3800AB69E26823F0A403AB612B69012A23F093
:102F480010032B6121D022B3022AAB6900F0B280B2
:102F580043F08003AB612B69032A43F010032B6114
:102F680017D1AB6943F02003AB6112E00322236E53
:102F7800012043F00103236684F85C20BDE8F08754
:102F880080F85D20FEF72CF886E7AB6943F0040370
:102F9800AB61D4E90623013B013A1B0243EA4263D1
:102FA800226AB1F5407F02F1FF3243EA0203626907
:102FB80002F1FF3243EA0243EB610ED1D4E90B136D
:102FC800A26A013B01391B01013A43EA0123134379
:102FD800626A013A43EA0243EB603C4B3C4F9D4234
:102FE80003F51B6308BF1F46A3F51873394908BFCB
:102FF80019463948394A18BF864600F1D8000CBF2F
:1030080092468446A2F5E47200F50E7008BF964613
:10301800334EDFF8D49002F1D80204BF81469446BB
:1030280002F5E4721CBF1A46B246D5F8C080E06BC0
:10303800A66B48EA0000C5F8C000D5F880002164F6
:1030480020F4F818606B48EA0040C5F88000D5F80D
:103058008000C4F8449020F0706040EA0660C5F82B
:103068008000481C9042C4E912ECC4E9147A11D9D2
:10307800002143F8041B9342FBD30023012223665B
:1030880084F85C201846A365BDE8F0876268154B94
:103098001A602CE79FED0A7B531E5B1A9B080133CD
:1030A8005B0801EBC303A1EC027B8B42FBD1E4E795
:1030B8000120704743F02003AB616AE7AFF300805B
:1030C800000000000000000000A4004000A800402C
:1030D80060AE004000AC0040B0AC0040C8B1004059
:1030E80078AE004000A5004070AC004090F85C202D
:1030F8000346012A05D01A6E012042F004021A661E
:1031080070470222002110B4046880F85C20A2698C
:10311800084622F00102A2615DF8044B1966704767
:10312800F0B590F85C308646022B0BD10568D5F8CF
:10313800C43013F4001C0BD0036E43F40073036611
:103148000120F0BD036E43F0080303660120F0BDC3
:10315800D5F8C4604B680C6988680F68C6F30146E7
:10316800002B37D1044344EA8744D1E906030343DB
:10317800486906EBC6070343086A43EA0063C86860
:1031880043EA0043DEF8540040F8374000EBC7003C
:103198004360134CCB68E35CA3B19378D7781B04E6
:1031A80043EA0763177804323B4312F8037C43EA87
:1031B800072300EB0C07BB60CB680CF1040CE35C45
:1031C8009C45EAD30123B340C5F8CC300020CEF8A3
:1031D8005830F0BD3C43044344F08044C5E700BF89
:1031E80030CD0008034690F85C000138012805D965
:1031F8001A6E012042F002021A6670471B6870B40A
:1032080011F00705986D01F0380409D0C60707D4F6
:10321800DD6D45F00105DD6554B184072FD407E065
:1032280004B386071ED4DE6D46F00106DE6525BBB5
:1032380011F4E07F01D0460721D411F4F05F01D0EA
:1032480005071CD411F4604F01D0C40617D411F43B
:10325800403F01D0860612D411F47C0F13D04506E6
:103268000DD410E011F4E07F21D046071FD4DE6DA5
:1032780046F00106DE65002DCED0C507CCD5D86D49
:1032880040F00200D8650C0604D5D3F8DC001043E2
:10329800C3F8DC00C80504D5D3F8E0000243C3F83E
:1032A800E0205A6D002070BC0A435A65704711F43B
:1032B800F05F01D00607DAD511F4604F01D0C606D9
:1032C800D5D511F4403F01D08606D0D511F47C0F36
:1032D800D1D04606CBD5002D9ED0CEE7704700BF93
:1032E800704700BF704700BF704700BF704700BFFE
:1032F800704700BF704700BF704700BF704700BFEE
:10330800704700BF704700BF2DE9F84F03680446B7
:103318001A6D596D02EA010A1A6D596D0AF4E05ADC
:1033280002EA01091A6D596D1E6D02EA01085A6D0B
:103338001F6D16405A6DD3F854B01D6D17406906BD
:1033480009F0070908F0380806F4710607F4602741
:1033580002D51BF0400F73D1EA0502D51BF4807F1C
:103368005DD1BAF1000F4AD1B9F1000F35D1B8F1EA
:10337800000F3CD1AB0502D51BF4007F75D12806A0
:1033880002D51BF0800F78D1A90402D51BF4005F89
:103398005BD12A0402D51BF4004F5ED16B040AD519
:1033A8001BF4804F07D04FF4804223681A65236EC0
:1033B80043F0800323664FB926B123681E65236E48
:1033C80033432366236E2BBBBDE8F88F2368394649
:1033D80020461F65FFF796FFEEE72368494620461B
:1033E800C3F85090FFF77CFFB8F1000FC2D02368F4
:1033F80041462046C3F85080FFF774FFBAE72368B8
:1034080051462046C3F850A0FFF768FFB9F1000FF6
:10341800ADD0E2E72046FFF773FFBDE8F88F4FF421
:10342800807223682046D3F8D8C0D3F8E0101A6514
:103438000CEA0101FFF75CFFBAF1000F94D0DEE758
:1034480040221A65FFF75AFF86E74FF400522368B7
:1034580020461A65FFF74EFF9BE74FF400422368AA
:1034680020461A65FFF748FF98E74FF40072236873
:1034780020461A65FFF738FF81E780222368204637
:10348800D3F8D4C0D3F8DC101A650CEA0101FFF7B1
:103498002DFF79E72DE9F04F0C6883B0002C00F080
:1034A800BB805F4A002302EA90224FF001085D4E7C
:1034B800019264E00327D0F800B04FEA430C07FA02
:1034C8000CF72BEA070BFF4302F0030A09F1FF3957
:1034D8000AFA0CFA4AEA0B0AB9F1010F0097C0F888
:1034E80000A040F28380032A45D0C568009F2F4082
:1034F8008D6805FA0CF53D43C560D5003BD523F032
:10350800030707F1884A0F2703F00305ED0007FAC0
:1035180005F9019F0AF5083A07FA05F56FEA0E075B
:10352800DAF860C012F4801F2CEA090C45EA0C0591
:10353800CAF8605035680CBF3D404EEA0505356055
:10354800756812F4001F0CBF3D404EEA0505756012
:10355800D6F8845012F4003F0CBF3D404EEA0505F2
:10356800C6F88450D6F88050D20354BF3D404EEA86
:103578000505C6F88050013334FA03F24CD008FA36
:1035880003F515EA040EF6D04A6822F01009B9F1DD
:10359800020F8FD14FF00F0A0F694FEAD30903F0DA
:1035A800070C00EB89094FEA8C0C07F00F0707FAA4
:1035B8000CF70AFA0CFCD9F820A02AEA0C0C47EA06
:1035C8000C07C9F820700327D0F800A04FEA430C75
:1035D80007FA0CF72AEA070AFF4302F0030909FA77
:1035E8000CF949EA0A090097C0F80090D0F808A039
:1035F8000AEA070ACF6807FA0CF949EA0A09C0F883
:103608000890D0F8049029EA0509C2F300159D40F6
:1036180045EA0905456066E703B0BDE8F08F00BFDD
:103628007F7F2F00002002440AB1816170478162C8
:10363800704700BF436901EA030221EA030141EA36
:1036480002418161704700BF30B583B0D0B190F8B6
:103658009532044603F0FF02002B00F0E8800323B4
:10366800206884F8953202F08DFE237C251D8DF8A4
:103678000030206895E80E0002F064FE30B10223A5
:1036880084F895320125284603B030BD01462068EC
:1036980002F082FE0028F2D12279002A00F0AE80E2
:1036A8004FF48073012AC4E90900E075E062A3823F
:1036B80000F0C68040F20113022AC4E9130084F81E
:1036C8003F006065A38745D04FF48173032AC4E99E
:1036D8001D0084F86700E067A4F864303AD040F22F
:1036E8000313042AC4E9270084F88F00C4F8A4004F
:1036F800A4F88C302ED04FF48273052AC4E9310027
:1037080084F8B700C4F8CC00A4F8B43022D040F252
:103718000513062AC4E93B0084F8DF00C4F8F40066
:10372800A4F8DC3016D04FF48373072AC4E94500A7
:1037380084F80701C4F81C01A4F804310AD0002356
:1037480040F20711C4E94F3384F82F31A4F82C1143
:10375800C4F8443100230121022AC4E95933C4E9D9
:103768006333A4F8543184F85731C4F86C31A4F8A1
:103778007C1184F87F31C4F894313FD00221032AA8
:10378800C4E96D3384F8A731C4F8BC31A4F8A41196
:1037980034D00321042AC4E9773384F8CF31C4F83C
:1037A800E431A4F8CC1129D00421052AC4E98133D5
:1037B80084F8F731C4F80C32A4F8F4111ED00521AE
:1037C800062AC4E98B3384F81F32C4F83432A4F8CB
:1037D8001C1213D00621072AC4E9953384F847320E
:1037E800C4F85C32A4F8441208D00722C4E99F3315
:1037F80084F86F32C4F88432A4F86C22237C2068E1
:103808008DF8003095E80E0002F0D8FD0546002836
:103818007FF435AF0122237B6074934284F89522AC
:103828000AD0206803F0E0FB284603B030BD80F8DA
:10383800942204F0C9FC12E7204600F0C5FEF0E728
:10384800C4E95900A4F8540184F85701C4F86C017C
:10385800D4E700BF90F89432012B0FD010B50123A4
:103868000446006884F8943202F084FD206803F06E
:10387800B3FB002384F89432184610BD0220704729
:103888002DE9F04F04468BB0006803F0B5FB10F447
:10389800004525D1430500F14481470417D410F4AD
:1038A800005140F08181C6047AD4050500F19D835A
:1038B800010600F17983820500F10A84C3050CD55D
:1038C8004FF6FF612268536C0B40536405E04BF6DA
:1038D800FF712268536C0B4053640BB0BDE8F08F46
:1038E8002068436C1904F8D5DFF894B50DE011F0A1
:1038F8001001036800F0F1801A0500F12D811B0406
:1039080000F13F82436C1A04E7D5416C11F00F05B2
:10391800EDD02EB250F826703A041FFA87F957D422
:103928003B06EFD550F826304FEA850803EA0B032B
:1039380043F4004340F8263005EB850304EBC3034A
:10394800DA7D012A00F03981197D06EB8606CA0066
:1039580004EBC60C02F1804217F480774FEAC60ADE
:1039680002F5B232DCF82C600FFA81FE40F0778164
:103978001268C2F30942B24280F06A81B61ACCF8E2
:103988002C609D6A0AF1140115449D62DCF8303000
:1039980021441344CCF8303002F054FF2068B1E7DA
:1039A80023681A6C22F004021A641A6C22F00802C6
:1039B8001A6494F8CC32012B00F09583204604F069
:1039C8008DFC4EF6FF712268536C0B40536484E7FC
:1039D80050F826304FEA850823F0784323F47043E3
:1039E80023F0700343F0800340F8263005EB85038D
:1039F80004EBC30393F86021002A00F0068193F8D2
:103A0800572193F85411022A00F02A8209B250F87B
:103A1800212022F0784222F4E04222F0700242F49F
:103A2800004242F0C00240F8212093F8542150F897
:103A3800223013F4804F4FF00A031DD001E0029B9F
:103A4800013B0293029B002BF9D1D20002F1804284
:103A580002F5B2321368C3F30943E3B108EB050179
:103A680004EBC101B1F85C21D1F868119A4603F062
:103A7800F5FA12E0019B013B0193019B002BF9D160
:103A8800D20002F1804202F5B2325368C3F309430F
:103A9800002B40F0BC824FF0000A08EB050304EB52
:103AA800C303D3F870215244C3F87021D3F86821B6
:103AB8005244C3F86821D3F86C2122B1D3F8643199
:103AC800534540F2B181A84404EBC808204698F851
:103AD800541104F0BDFB206822E703EA0B0343F40A
:103AE80000430360237DA26ADB0003F1804303F5F2
:103AF800B2331B682046C3F309431A442363A26206
:103B080004F0B0FB637C2068002B3FF4FBAEE36A53
:103B1800002B7FF4F7AE627C42F08002C2646374CB
:103B2800F0E64FF6FF3122682046536C0B40536491
:103B380004F0A6FB94F89432012B3FF4CEAE012397
:103B480029462068657484F8943203F03FFA84F8B3
:103B580094520BB0BDE8F08F0A230593059B94F8A7
:103B680054212BB1059B013B0593059B002BF9D1F3
:103B7800D30003F1804303F5B2335B68B4F85A21EC
:103B8800C3F30943C4F8703104F5277103F066FAEA
:103B98002268B64B116820460B4043F0800313603F
:103BA80004F04EFB2068ADE64DF6FF712268536CB9
:103BB8000B4053640BB0BDE8F08F00216A1C02EB88
:103BC800820204EBC202516093F82020A2B17F0662
:103BD8005A7D40F13381002A40F08B821B7DDB0047
:103BE80003F1804303F5B2331A6822F07C421A606D
:103BF8001A6842F000421A60454404EBC5052046A5
:103C0800297D04F02FFB20687CE693F854210A23D1
:103C18000393039B2BB1039B013B0393039B002B53
:103C2800F9D1D30003F1804303F5B2335B68C3F3E2
:103C38000943002B3FF42FAF08EB050104EBC1014A
:103C4800B1F85A21D1F868119A4603F007FA24E727
:103C58002046CCF82C7004F005FB206852E619F0D9
:103C6800400A4FF00A0355D001E0099B013B099334
:103C7800099B002BF9D1136809F48047C3F309495C
:103C8800B14580F0D481A6EB0906CCF82C604FB181
:103C980050F82E10764B0B4043F4404343F080031A
:103CA80040F82E3008EB050604EBC60696F83830C7
:103CB800012B55D1B36A03EB0901B162DCF830304E
:103CC8004B44CCF83030776B736A9F42C0F0A982BE
:103CD800FF1A776308EB050604EBC60696F815C0CD
:103CE800BCF1000F40F09182166826F07C46166001
:103CF800002B40F0BC82166846F00046166008EBC0
:103D0800050204EBC202928B03F078F9206827E0E1
:103D1800089B013B0893089B002BF9D1536809F4D1
:103D28008047C3F30943B34200F2B181F61ACCF8D5
:103D38002C60002E00F0AE814FB950F82E604C492F
:103D4800314041F4404141F0800140F82E1008EB29
:103D5800050704EBC70797F83810012900F01E8201
:103D6800454404EBC5052A7D424B50F822100B4010
:103D780083F0300343F4004343F0800340F82230DB
:103D8800C0E50A220168394B0B4043F08003036009
:103D98000492049B94F854212BB1049B013B049397
:103DA800049B002BF9D1D30003F1804303F5B23310
:103DB8005B68C3F30943C4F8703193B1D4F8681150
:103DC80079B1B4F85A2103F049F9D4F86831D4F834
:103DD8007021204613440021C4F8683104F038FAF1
:103DE800206803681F053FF58DAD03F44053B3F514
:103DF800405F3FF487AD204B5A6822F07C425A60FE
:103E0800D4F86421002A40F092815A6842F00042B6
:103E18005A600268194B134083F4405343F400433B
:103E280043F0800303606DE5282101FB054120680C
:103E380001F5AA7102F006FD206871E5002A40F03C
:103E480067811B7DDB0003F1804303F5B2335A68B9
:103E580022F07C425A605A6842F000425A60CBE62F
:103E680019F4804F4FF00A0357D00DE08F0FFF076A
:103E78008F8FFF07BF8FFF07006401408FBFFF07C9
:103E88000F8FFF07079B013B0793079B002BF9D177
:103E9800CB0003F1804303F5B23308EB05021B683E
:103EA80004EBC202D2F86CC1C3F309439C459A469D
:103EB80009B2C0F04881ACEB030CC2F86CC1BCF18C
:103EC800000F0CD150F821C0B14A0CEA020282F46A
:103ED800005242F4004242F0800240F8212019F0DA
:103EE800400F0AD050F821C0AA4A0CEA020242F454
:103EF800004242F0C00240F82120002B3FF4CDAD33
:103F080008EB050104EBC101B1F85C21D1F8681197
:103F180003F0A4F8C1E5069B013B0693069B002B22
:103F2800F9D1CB0003F1804303F5B23308EB050266
:103F38005B6804EBC202D2F86CC1C3F309439C4529
:103F48009A4609B2C0F00481ACEB030CC2F86CC10C
:103F5800BCF1000F0CD150F821C08D4A0CEA0202C6
:103F680082F4005242F4004242F0800240F82120DC
:103F780019F0400F0AD150F821C0864A0CEA020213
:103F880042F4004242F0C00240F82120002B3FF4E6
:103F980084AD08EB050104EBC101B1F85E21D1F84D
:103FA800681103F05BF878E54FF67F7123685A6C67
:103FB8000A405A6494F8CC22002A34D101212046C0
:103FC8001A6C42F004021A641A6C42F008021A646D
:103FD80084F8CC125B6D9B0803F03C03C4F8D03224
:103FE8000BB0BDE8F04F00F003BB4FF2FF71236840
:103FF80020461A6C42F008021A645A6C0A405A6445
:104008001A6C42F004021A6404F04CF965E408EBF7
:10401800050104EBC101B1F85E21D1F868119A4697
:1040280003F01CF839E5204604F03CF955E4002378
:10403800CCF82C3008EB050304EBC3035B7D002BA5
:1040480040F09880136823F07C431360136843F0B2
:1040580000431360536823F07C435360536843F074
:1040680000435360204604F0FDF87FB308EB0503D6
:1040780004EBC3031A7D2068464B50F822100B400E
:1040880043F4404343F0800340F8223068E60023BD
:10409800CCF82C3008EB050304EBC3035B7D002B45
:1040A8005BD1136823F07C431360136843F000432B
:1040B8001360536823F07C435360536843F0004314
:1040C8005360204604F0CEF8002FCFD0206847E692
:1040D8004FF6FF5122682046536C0B40536404F09E
:1040E800CBF8FFF7FABB204684F8CC1200F080FA30
:1040F80064E4012A7FF480AD1B7DDB0003F180437B
:1041080003F5B2331A6892B21A601A681A6073E536
:10411800012A7FF471AD1B7DDB0003F1804303F5B9
:10412800B2335A6892B25A605A685A6064E53E2AB5
:104138005ED85108D607184A48BF0131536843EA88
:104148008163536065E64FF0000CC2F86CC1B9E6B4
:104158004FF0000CC2F86CC1FDE6012BB1D1136819
:104168009BB213601368136053689BB25360536823
:104178005360A6E7012B7FF475AF13689BB21360F9
:104188001368136053689BB253605368536069E7C0
:104198008FBFFF078F8FFF0700640140B96A19447A
:1041A800B962DCF830601E44CCF83060D7F834C00F
:1041B8007E6AB44546D3ACEB06037B6308EB050384
:1041C80004EBC3035B7D002B30D1536823F07C43A1
:1041D8005360002E63D1536843F00043536008EBEB
:1041E800050204EBC2025346D28B02F007FF6DE7CB
:1041F8005109D5063E4A08BF01F1FF31536843EA29
:10420800816343F00043536003E6BCF1010F06D11C
:104218001668B6B21660166846EA034616609BB280
:104228006DE5B7B94B4686F8387053E5012B06D1D2
:1042380053689BB25360536843EA064353601FFABE
:1042480086FACCE7BCF1000F1DD11E4687F838C0AE
:10425800B4E7002396F815C086F8383073633B46F8
:10426800BCF1000FD1D1166826F07C4616603E2BB3
:1042780022D85F08DE07166848BF013746EA876616
:104288009BB216603BE500267B7D7E6387F838602D
:104298006646002BCAD1536823F07C4353603E2EF8
:1042A80017D87708F307536848BF013743EA87638D
:1042B8001FFA86FA536092E75F09DE06166808BFA0
:1042C80007F1FF3746EA876646F000469BB216605C
:1042D80015E57709F306536808BF07F1FF3743EA86
:1042E800876343F000431FFA86FA536077E700BFFD
:1042F8000064014090F89422012A0DD010B50122E3
:1043080004460068617484F8942202F05FFE00237A
:1043180084F89432184610BD0220704710B501F099
:10432800070E0EEB8E0C090604464FEACC0C24D47B
:104338000CF5AA714FF0000C01440EEB8E0004EB53
:10434800C00080F855C1022BCB7008BF0023C2F310
:104358000A0208BF0B7181F800E00A6194F89432F0
:10436800012B16D00123206884F8943202F03CF81F
:10437800002384F89432184610BD0CF114014FF054
:10438800010C01440EEB8E0004EBC00080F815C050
:10439800D9E7022010BD00BF01F0070303EB830338
:1043A80001F00702090610B54FEAC30304461AD400
:1043B8004FF0000C03F5AA7102EB820004EBC00376
:1043C800214483F855C10A7094F89432012B1AD00D
:1043D8000123206884F8943202F082F9002384F8DB
:1043E8009432184610BD4FF0010C03F1140102EB92
:1043F800820004EBC003214483F815C00A7094F8C6
:104408009432012BE4D1022010BD00BF38B5282515
:10441800002401F0070E05FB0E010EEB8E0C00EBDD
:10442800CC0CCCE95A23006801F5AA71CCF870418C
:104438008CF855418CF854E102F004FA204638BD56
:1044480001F0070101EB810100EBC100D0F8700118
:10445800704700BF38B501F0070E0EEB8E0100EB78
:10446800C10C0125002461460068CCF82820CCF84E
:104478002C30CCF834308CF83850CCF830408CF8EC
:1044880015508CF814E0143102F0DCF9204638BDE0
:10449800027901F007039A4236D30A0610B504469A
:1044A8001FD44FF0000C282001EB810204EBC2025C
:1044B80082F855C1012200FB014181F8543181F88D
:1044C800562194F8943201F5AA7193421AD02068C3
:1044D80084F8942202F00EFD002384F894321846E2
:1044E80010BD0120282103EB830204EBC2025075A2
:1044F800012201FB03410B758A7594F8943214313B
:104508009342E4D1022010BD0120704738B50279EA
:1045180001F00F039A4236D301F0070303EB83033C
:1045280001F00702090604464FEAC3031AD400251E
:1045380002EB820004EBC00080F85551002503F51A
:10454800AA73E1180A708D7094F89432012B18D070
:104558000123206884F8943202F0EEFC84F8945227
:10456800284638BD012502EB820004EBC0004575E2
:1045780000251433E1180A708D7094F89432012BD9
:10458800E6D1022038BD012038BD00BF11F0800FF0
:104598000CD001F0070101EB810100EBC1001430E0
:1045A80099B262B9C18002730020704701EB8101A2
:1045B80000EBC10000F5AA7099B2002AF2D00122DE
:1045C80083600273002070470346002110B4012461
:1045D8001A6883F8CC120846516DC3F8D8422143B3
:1045E8005165536D5DF8044B43F002035365704702
:1045F800704700BF024A936B43F0007393637047A0
:1046080000080244444B30B4996A9C6A9A6A14F4CC
:104618007C5F9D6BC4F3052035D0C2F30012C5F34F
:10462800CC0505FB02F207EE900A06EE902A01F08F
:1046380003010129B8EEE77AFAEEE96A25D00329E1
:1046480041D05B6BB7EE006AC3F3080307EE903AFC
:10465800F8EEE77ADFED315A77EE867A85EE876AEB
:1046680077EEA67A67EE867A2B4B5B6BC3F346230D
:10467800013307EE103AF8EEC76A87EEA67AFCEE29
:10468800C77A17EE900A30BC70471A6892062ED582
:104698001A685B6BC2F3C102C3F3080306EE103A53
:1046A8001F4BF7EE007AD340B8EEC66A05EE903A93
:1046B80036EE276AF8EEE55AC5EE877A36EE267AA0
:1046C80067EE877AD0E75B6BB7EE006AC3F308033F
:1046D80007EE903AF8EEE77ADFED125A77EE867A2F
:1046E80085EE876A77EEA67A67EE867ABCE75B6B1B
:1046F800B7EE006AC3F3080307EE903AF8EEE77ADC
:10470800DFED095A77EE867A85EE876A77EEA67A24
:1047180067EE867AA8E700BF000C02440024744ABA
:104728000090D00320BCBE4B0024744C002800F03D
:104738004583A84A03682DE9F041D569966ADA06E7
:10474800044605F0180506F0030624D5082D00F0E8
:104758000E81182D00F00881E3699E4F002B00F0B0
:10476800EF803B6843F480733B60FDF7E7F88046D1
:1047780006E0FDF7E3F8A0EB0800022800F27281DA
:104788003B689B05F5D5BB69226A23F47C1343EA91
:104798000243BB612368D90738D5102D626800F041
:1047A8000081182D00F0FA80B2F5803F18D0002A59
:1047B80000F05B81B2F5A02F864B00F03B82B2F58A
:1047C800A81F1A6800F0B58222F480321A601A68AD
:1047D80022F480221A601A6822F480121A6004E017
:1047E8007C4A136843F480331360FDF7A7F8DFF8B9
:1047F800E481074605E0FDF7A1F8C01B642800F234
:104808003181D8F800309B03F5D52368990724D562
:10481800E368002D40F0B980002B00F0BD806D4B9F
:1048280021691A6802F018028A4240F08D81FDF76A
:1048380085F8684F064605E0FDF780F8801B0228DA
:1048480000F210813B689B07F6D53B69626923F447
:10485800FE0343EA02433B6123681A0719D5A3699B
:104868005C4E002B00F01C81D6F8F03043F08063DA
:10487800C6F8F030FDF762F8074605E0FDF75EF888
:10488800C01B022800F2EE80D6F8F0301B01F5D5E7
:104898002368590736D5504E736ADA0740F1D2803B
:1048A800A368012B00F0D381002B00F0A880052B12
:1048B80000F04B82852B474BD3F8F02000F069823B
:1048C80022F00102C3F8F020D3F8F02022F004020D
:1048D800C3F8F020D3F8F02022F08002C3F8F020CB
:1048E800FDF72CF841F2883806463A4F05E0FDF707
:1048F80025F8801B404500F2B580D7F8F0309807BE
:10490800F5D523689A0615D5636A324E002B00F058
:104918000A81336843F480533360FDF70FF8074684
:1049280005E0FDF70BF8C01B022800F29B803368F6
:104938009B04F6D5A36A002B40F0C680002092E0C5
:104948003B6823F480733B60FCF7F8FF804606E081
:10495800FCF7F4FFA0EB0800022800F283803B6814
:104968009805F5D4236816E7022E7FF4F5AEE269C0
:1049780092B11849206A8A6922F47C1242EA0042FC
:104988008A61D9077FF542AF07E7182D0FD1012EAD
:104998000DD1002B7FF44BAF012064E0032E7FF490
:1049A80003AF002AF8D09A077FF557AFE368094E9E
:1049B800002B00F0A6803368226923F01803134304
:1049C8003360336843F001033360FCF7B7FF0746F1
:1049D80009E000BF000C024400080244FCF7AEFFE7
:1049E800C01B02283ED833689807F7D53369626937
:1049F80023F4FE0343EA0243336123682DE79C4E08
:104A080041F28838D6F8F03023F00103C6F8F030C8
:104A1800D6F8F03023F08003C6F8F030D6F8F0303E
:104A280023F00403C6F8F030FCF788FF074604E0DB
:104A3800FCF784FFC01B404514D8D6F8F03099071E
:104A4800F6D45EE7736A43F001037362FCF776FFFE
:104A58000746736ADB073FF523AFFCF76FFFC01B00
:104A68000228F6D90320BDE8F081814F3B6823F482
:104A780080333B603B6823F480133B603B6823F43E
:104A880080233B60FCF75AFF804605E0FCF756FFA1
:104A9800A0EB08006428E5D83B689803F6D4B4E690
:104AA800D6F8F03023F08063C6F8F030FCF746FF04
:104AB800074604E0FCF742FFC01B0228D2D8D6F80C
:104AC800F0301801F6D4E3E6182D69D0022B00F077
:104AD800C680674C236823F080732360FCF72EFFA1
:104AE800054604E0FCF72AFF401B0228BAD82368D1
:104AF8009B01F7D4A36A23F4E02323F00303A36202
:104B08001CE7336823F001033360FCF717FF0746FF
:104B180004E0FCF713FFC01B0228A3D833689907E9
:104B2800F7D4236899E6336823F480533360FCF79D
:104B380005FF074604E0FCF701FFC01B022891D8D7
:104B480033689804F7D4F5E61A6822F018020A4385
:104B58001A60DA6902F01802082A00F02B81DA6973
:104B680012F0180F40F005811A68920640F10F8183
:104B78001A68404BC2F3C102D3403D4A3E48126A0C
:104B88003E4902F00F02825C02F01F02D3403C4A09
:104B98000B601068FCF750FE00283FF448AEFBE6B7
:104BA800334A012B916A556B3FF4F6AEE06A01F087
:104BB800030383427FF4F0AE236BC1F305219942CE
:104BC8007FF4EAAE636BC5F30801013B99427FF4B9
:104BD800E3AEA36BC5F34621013B99427FF4DCAEFB
:104BE800E36BC5F30641013B99427FF4D5AE236CD4
:104BF800C5F30665013B9D427FF4CEAE936BE26C34
:104C0800C3F3CC0393423FF499AE194A936A23F055
:104C180010039362FCF792FE0546FCF78FFEA8424C
:104C2800FBD0E26C124BD2009A639A6A42F01002EF
:104C38009A6283E61A6842F480221A601A6822F49B
:104C480080121A601A6842F480321A60CDE5084A68
:104C5800D2F8F03043F00103C2F8F03040E6044DDA
:104C68002B6823F080732B60FCF768FE06460FE084
:104C7800000C02440090D00320CD00080000002062
:104C880008000020FCF75AFE801B02283FF6EAAE17
:104C98002B689901F6D4AB6AE16A23F47C53226B42
:104CA80023F003030B4343EA0223AB62D4E90E3239
:104CB800616B013B013A5B02120402F4FE02013906
:104CC8009BB21343C1F308021343226C3C4E013AD2
:104CD800120602F0FE4213436B63AB6A23F0100323
:104CE800AB62E36CDB00AB63AB6A43F01003AB620F
:104CF800AB6A626C23F00C031343AB62AB6AA26C21
:104D080023F020031343AB62AB6A43F48033AB62F6
:104D18002B6843F080732B60FCF710FE0446336861
:104D28009A013FF50BAEFCF709FE001B0228F6D9E5
:104D380098E642F480221A601A6842F480121A60D7
:104D48001A6842F480321A604FE51D4BD3F8F02000
:104D580042F00402C3F8F020D3F8F02022F08002D9
:104D6800C3F8F020D3F8F02042F00102C3F8F02095
:104D7800B6E5DA6902F01802102A1DD0DB6903F0E3
:104D88001803182B03D1FFF73DFC0346F5E60D4B3E
:104D9800F3E642F00402C3F8F020D3F8F02042F022
:104DA8008002C3F8F020D3F8F02042F00102C3F8E3
:104DB800F02095E5044BE0E6044BDEE60120704761
:104DC800000C02440090D00300093D0040787D01AA
:104DD800002800F033819E4A2DE9F041136804460B
:104DE80003F00F038B420D460CD2136823F00F0318
:104DF8000B431360136803F00F038B4202D00120AA
:104E0800BDE8F0812368D9060DD5924960690A6A20
:104E1800120A02F07002904205D90A6A22F4E042AE
:104E280042EA00220A621A070DD58A4920690A6AED
:104E3800120902F07002904205D90A6A22F4E0626F
:104E480042EA00120A625F070BD58249E0680A6AE3
:104E580002F07002904204D90A6A22F070020243FA
:104E68000A629E0703F0010240F1A580794EA0680E
:104E7800316A01F00F01884204D9316A21F00F012B
:104E88000143316282B36268724B032A1B6800F0E7
:104E98009A80022A00F0CE80012A00F0E7809F075E
:104EA800ADD56C4E41F28838F36923F00303134300
:104EB800F361FCF743FD63680746032B00F08C8021
:104EC800022B00F09480012B06D19BE0FCF736FD05
:104ED800C01B404500F2B480F36913F0180FF5D1F8
:104EE80023689E0707D5A0685A490A6A02F00F028C
:104EF800824200F2998056490A6802F00F02AA42DB
:104F08000AD90A6822F00F022A430A600A6802F0E6
:104F18000F02AA427FF473AF5D070BD54D49E068D5
:104F28000A6A02F07002904204D20A6A22F0700201
:104F380002430A6218070DD5464920690A6A120910
:104F480002F07002904205D20A6A22F4E06242EA54
:104F580000120A62D9060DD53E4A6169136A1B0A16
:104F680003F07003994205D2136A23F4E04343EA3D
:104F780001231362374BDA6902F01802082A61D05C
:104F8800DA6912F0180F43D11A6892064AD51A68DE
:104F9800314BC2F3C102D3402E4A3048126A30491D
:104FA80002F00F02805C2F4AC340BDE8F041086858
:104FB8001360FCF741BC002A9DD06268254B032A88
:104FC8001B687FF466AF98013FF56BAF17E7FCF7F6
:104FD800B5FCC31B434533D8F36903F01803182BFA
:104FE800F5D17DE7FCF7AAFCC01B404528D8F3693A
:104FF80003F01803102BF5D172E7FCF79FFCC01BD8
:1050080040451DD8F36903F01803082BF5D167E76D
:10501800DA6902F01802102A2CD0DB6903F01803B1
:10502800182B11D00C4BB7E70A6A22F00F02024383
:105038000A6260E799033FF534AFE0E60120704764
:105048000320DDE6084BA7E7FFF7DCFA0346A3E7F2
:1050580000200240000C02440090D00320CD00083C
:10506800080000200000002000093D009B053FF5D6
:1050780018AFC4E6004B8FE740787D01124BDA6920
:1050880002F01802082A18D0DA6912F0180F08D1AD
:105098001A6892060FD51B680C48C3F3C103D840A1
:1050A8007047DA6902F01802102A0AD0DB6903F0A7
:1050B8001803182B03D00548704705487047FFF7B9
:1050C800A1BA0448704700BF000C02440090D00306
:1050D80000093D0040787D0170B5344C06462368D0
:1050E80023F080632360FCF729FC054604E0FCF705
:1050F80025FC401B022857D823681A01F7D4E36A15
:10510800316823F47C53726823F003030B4343EAAA
:105118000223E362D6E90332013B013A5B0212043F
:1051280002F4FE029BB2B168134372690139013A75
:10513800C1F3080112060B4302F0FE421343E36376
:10514800E36AB26923F00C031343E362E36AF2698A
:1051580023F020031343E362E36A726A134D134397
:10516800E362E36A23F01003E362236C326A23F4F8
:105178007F4323F0F80343EAC2032364E36A43F05E
:105188001003E362236843F080632360FCF7D6FBD7
:10519800044604E0FCF7D2FB001B022804D82B6865
:1051A8001B01F7D5002070BD032070BD000C024420
:1051B80070B5344C0646236823F080532360FCF70F
:1051C800BDFB054604E0FCF7B9FB401B022857D895
:1051D80023689A00F7D4236B316823F47C537268F0
:1051E80023F003030B4343EA02232363D6E9033284
:1051F800013B013A5B02120402F4FE029BB2B16861
:10520800134372690139013AC1F3080112060B43CD
:1052180002F0FE4213436364236BB26923F00C036C
:1052280013432363236BF26923F02003134323639F
:10523800236B726A134D13432363236B23F010030C
:105248002363A36C326A23F47F4323F0F80343EA11
:10525800C203A364236B43F010032363236843F062
:1052680080532360FCF76AFB044604E0FCF766FB06
:10527800001B022804D82B689B00F7D5002070BDBE
:10528800032070BD000C02442DE9F843D0E9003238
:10529800DE01044608D52D48A56DD0F8E81021F0A8
:1052A80040412943C0F8E81013F001061DD0E16D14
:1052B800052900F28B85DFE811F00F004A0506008A
:1052C8000F000F000F0004F13000FFF771FF0646D2
:1052D800D4E900324EB9E16D00261C4DD5F8D8004E
:1052E80020F007000143C5F8D8109D0731D5216E7D
:1052F80028292DD8DFE811F01E052C002C002C00E1
:105308002C002C002C002C0042052C002C002C001A
:105318002C002C002C002C004E052C002C002C00FE
:105328002C002C002C002C001E052C002C002C001E
:105338002C002C002C002C001E052C002C002C000E
:105348002C002C002C002C001E0500BF000C024471
:105358000126354658071CD5616E802900F07084F7
:1053680000F2BE8349B1402940F0C38304F108002C
:10537800FFF7B2FED4E900320546002D40F006845E
:10538800AB4F606ED7F8D81021F4E0710143C7F82D
:10539800D81019071ED5A16EB1F5806F00F05B8497
:1053A80000F2758351B1B1F5007F40F07A8304F1C2
:1053B8000800FFF791FED4E900320546002D40F0C1
:1053C800E1839B4FA06ED7F8D81021F460610143A8
:1053D800C7F8D810DF061ED5E16EB1F5005F00F002
:1053E8001F8400F2968351B1B1F5805F40F09B8332
:1053F80004F10800FFF770FED4E900320546002DDD
:1054080040F0BC838A4FE06ED7F8D81021F4E04111
:105418000143C7F8D81098061ED5216FB1F5803F13
:1054280000F0628400F2688351B1B1F5004F40F09A
:105438006D8304F10800FFF74FFED4E900320546FA
:10544800002D40F0A1837A4F206FD7F8D81021F4AF
:1054580060310143C7F8D810D9041ED5616FB1F186
:10546800007F00F0168400F21F8351B1B1F1807FF4
:1054780040F0248304F10800FFF72EFED4E900323F
:105488000546002D40F07C83694F606FD7F8E01027
:1054980021F0E0610143C7F8E0109F040ED5A16F29
:1054A800B1F5803F00F0968340F20B8321F4803100
:1054B800B1F5003F00F008830126354658040ED5A3
:1054C800E16FB1F5802F00F07C8340F2CF8021F4AA
:1054D8008021B1F5002F00F0CC8001263546190453
:1054E8000FD5D4F88010B1F5801F00F0858340F205
:1054F800CD8021F48011B1F5001F00F0CA8001268B
:105508003546DF030BD5D4F88410B1F1807F00F065
:10551800118231F0007100F0148201263546D00462
:105528000BD5D4F88810B1F1806F00F0188231F0F3
:10553800006100F01B8201263546110509D53C495A
:10554800C86920F40040C861C869D4F8C8703843F5
:10555800C8619F0320D5D4F88C10B1F5007F00F006
:105568008D8300F2A48051B1B1F5807F40F0A9800D
:1055780004F10800FFF7B0FDD4E900320546002D1C
:1055880040F0F4822A4FD4F88C00D7F8DC1021F4CC
:10559800E0610143C7F8DC10580320D5D4F8901017
:1055A800B1F5005F00F0958300F28E8051B1B1F53E
:1055B800805F40F0938004F10800FFF78DFDD4E987
:1055C80000320546002D40F0D582194FD4F89000DE
:1055D800D7F8DC1021F4E0410143C7F8DC10990248
:1055E8000CD5D4F8A010022900F08D8140F29281E8
:1055F8000339022940F28E8101263546970507D5E1
:10560800D4F8A41031F0080000F0BE810126354618
:10561800980100F1C78158010ED5D4F898101029C7
:1056280000F0E2825DD921F0100020285BD001E073
:10563800000C024401263546590209D5D4F89C10BD
:10564800002900F0B582402900F07682012635460F
:105658001F0166D5D4F8AC10042900F2BD83DFE839
:1056680011F04E00610351035300530000297FF4E9
:1056780034AF002D40F0CA82AD4FE06FD7F8E41088
:1056880021F440210143C7F8E41028E700297FF4FA
:1056980036AF002D40F08282A54FD4F88000D7F8AD
:1056A800E41021F440110143C7F8E41029E721F47C
:1056B8008070B0F5806F3FF462AFB1F5407F3FF482
:1056C8005EAF0126354667E721F48050B0F5804F7C
:1056D8003FF478AFB1F5405F3FF474AF012635462B
:1056E8007DE70029A6D1002D40F05A82904FD7F8C7
:1056F800E80020F030000143C7F8E8109CE78C4828
:10570800816A41F400318162002D40F01382884F94
:10571800D4F8AC00D7F8E01021F007010143C7F82E
:10572800E010D80028D5D4F8B010202922D8DFE816
:1057380011F09C01210021002100210021002100FD
:105748002100150321002100210021002100210052
:1057580021001D032100210021002100210021003A
:105768002100A101210021002100210021002100A8
:105778002100A1010126354699001ED5D4F8B410A0
:10578800802900F0C78245D8002900F0E981402926
:1057980045D104F10800FFF79FFCD4E90032054623
:1057A800002D40F0C581624FD4F8B400D7F8E0105E
:1057B80021F4E0710143C7F8E0105B001DD5D4F86F
:1057C800B830B3F5806F00F07A822BD843B1B3F5C7
:1057D800007F2FD104F10800FFF77EFC05466268C0
:1057E800002D40F0C5815249D4F8B800D1F8E03016
:1057F80023F460630343C1F8E03097071ED5D4F85B
:10580800A830032B00F2E582DFE813F047004200DE
:105818004F024700C029C3D0B1F5807FC0D0012610
:105828003546CAE723F40071B1F5006FD8D0B3F557
:10583800C06FD5D0012697073546E0D450070CD560
:10584800D4F89430B3F5807F00F01082B3F5007F70
:1058580045D0002B49D001263546D10609D5D4F8C4
:10586800C430202B27D0302B2BD0102B00F0D08128
:105878000126130709D52E4AD4F8C010D2F8E8300B
:1058880023F0C0030B43C2F8E8303046BDE8F88384
:1058980027498B6A43F400338B62002D40F06C81FA
:1058A8002349D4F8A800D1F8E43023F003030343D4
:1058B800C1F8E430C2E704F13000FFF779FC05468F
:1058C8006268002D40F066811949D4F8C400D1F807
:1058D800E43023F030030343C1F8E430C9E704F1AE
:1058E8000800FFF7F9FB05466268002D40F050817B
:1058F8000F49D4F89400D1F8E83023F440730343F7
:10590800C1F8E830A9E704F10800FFF7E5FBD4E99E
:1059180000320546002D40F03F81054FD4F8A00025
:10592800D7F8E81021F007010143C7F8E81065E649
:10593800000C024404F13000FFF73AFCD4E90032CD
:105948000546002D40F03081BB4FD4F88400D7F8CD
:10595800E41021F040710143C7F8E410DFE504F1D9
:105968003000FFF725FCD4E900320546002D40F051
:105978001981B14FD4F88800D7F8E41021F04061BC
:105988000143C7F8E410D8E5002D40F0B981AA4FCB
:10599800D7F8E80020F0080001439801C7F8E8109C
:1059A8007FF539AEA54F7B6A43F001037B62FBF7B5
:1059B800C5FF804606E0FBF7C1FFA0EB0800022800
:1059C80000F2F0817B6AD907F5D5002D40F0EB8114
:1059D800994FD4F8BC30D7F8F02012F4407228D090
:1059E8009A4226D0D7F8F010D7F8F02042F4803247
:1059F800C7F8F020D7F8F02022F48032C7F8F0205A
:105A080021F44072C7F8F020CA0712D5FBF796FFB9
:105A180041F28839804606E0FBF790FFA0EB0800CA
:105A2800484500F2CE81D7F8F0309B07F4D5D4F87A
:105A3800BC3003F44072B2F5407F00F0B8817E4973
:105A4800CA6922F47C52CA617B4AC3F30B03D2F8B9
:105A5800F01021F44071C2F8F010D2F8F0100B43A6
:105A6800C2F8F030D4E90032D5E57348816A41F4D0
:105A780000318162002D59D16F4FD4F8B000D7F8AA
:105A8800E01021F038010143C7F8E01074E621F472
:105A98000070B0F5006F3FF491ACB1F5C06F3FF402
:105AA8008DAC0126354695E421F08070B0F1806F09
:105AB8003FF4E7ACB1F1407F3FF4E3AC0126354653
:105AC800EBE400297FF4F8AC002D6FD15A4FA06F9A
