:020000040800F2
:1000000000400420C11800086D1500087115000893
:1000100075150008791500087D15000811190008EC
:100020000000000000000000000000008115000832
:100030008515000800000000891500088D150008CE
:1000400011190008111900081119000811190008E8
:1000500011190008111900081119000811190008D8
:1000600011190008111900081119000811190008C8
:1000700011190008111900081119000811190008B8
:1000800011190008111900081119000811190008A8
:100090001119000811190008111900081119000898
:1000A000111900081119000811190008911500080C
:1000B0001119000811190008111900081119000878
:1000C0001119000811190008111900081119000868
:1000D0000000000011190008111900089D15000802
:1000E0001119000811190008111900081119000848
:1000F0001119000811190008111900081119000838
:1001000011190008A9150008B515000811190008F3
:1001100011190008C9150008D515000811190008A3
:100120001119000811190008111900081119000807
:1001300011190008111900081119000811190008F7
:1001400011190008111900081119000811190008E7
:1001500011190008111900081119000811190008D7
:100160000000000000000000E1150008111900085F
:1001700011190008111900081119000811190008B7
:10018000ED150008F915000811190008000000001D
:10019000000000001119000800000000000000002D
:1001A00000000000000000001119000811190008EB
:1001B0001119000811190008111900081119000877
:1001C00011190008111900080000000000000000CB
:1001D00000000000000000000000000011190008ED
:1001E00011190008111900080000000000000000AB
:1001F0001119000811190008111900080000000069
:10020000000000001119000811190008000000008A
:10021000000000001119000800000000111900087A
:10022000111900080000000000000000111900086A
:10023000111900080000000000000000000000008C
:10024000000000000000000000000000111900087C
:040250001119000878
:1002580010B5054C237833B9044B13B10448AFF3F8
:1002680000800123237010BD9004002000000000CE
:1002780078FD000808B5034B1BB103490348AFF3E9
:10028800008008BD000000009404002078FD0008EC
:10029800034613F8012B002AFBD1181A01387047BE
:1002A80081F0004102E000BF83F0004330B54FEA1F
:1002B80041044FEA430594EA050F08BF90EA020F8C
:1002C8001FBF54EA000C55EA020C7FEA645C7FEA1F
:1002D800655C00F0E2804FEA5454D4EB5555B8BF42
:1002E8006D420CDD2C4480EA020281EA030382EAB3
:1002F800000083EA010180EA020281EA0303362D45
:1003080088BF30BD11F0004F4FEA01314FF4801C17
:100318004CEA113102D0404261EB410113F0004F29
:100328004FEA03334CEA133302D0524263EB4303E0
:1003380094EA050F00F0A780A4F10104D5F1200E7E
:100348000DDB02FA0EFC22FA05F2801841F10001D9
:1003580003FA0EF2801843FA05F359410EE0A5F1AD
:1003680020050EF1200E012A03FA0EFC28BF4CF0DE
:10037800020C43FA05F3C01851EBE37101F0004594
:1003880007D54FF0000EDCF1000C7EEB00006EEBA1
:100398000101B1F5801F1BD3B1F5001F0CD349082B
:1003A8005FEA30004FEA3C0C04F101044FEA445282
:1003B80012F5800F80F09A80BCF1004F08BF5FEA09
:1003C800500C50F1000041EB045141EA050130BDE9
:1003D8005FEA4C0C404141EB0101013C28BFB1F5FB
:1003E800801FE9D291F0000F04BF01460020B1FA46
:1003F80081F308BF2033A3F10B03B3F120020CDA19
:100408000C3208DD02F1140CC2F10C0201FA0CF0F6
:1004180021FA02F10CE002F11402D8BFC2F1200C5B
:1004280001FA02F120FA0CFCDCBF41EA0C01904011
:10043800E41AA2BF01EB0451294330BD6FEA04045A
:100448001F3C1CDA0C340EDC04F11404C4F1200245
:1004580020FA04F001FA02F340EA030021FA04F357
:1004680045EA030130BDC4F10C04C4F1200220FAAE
:1004780002F001FA04F340EA0300294630BD21FAEC
:1004880004F0294630BD94F0000F83F4801306BFB2
:1004980081F480110134013D4EE77FEA645C18BFA6
:1004A8007FEA655C29D094EA050F08BF90EA020F3D
:1004B80005D054EA000C04BF1946104630BD91EA35
:1004C800030F1EBF0021002030BD5FEA545C05D138
:1004D8004000494128BF41F0004130BD14F5800477
:1004E8003CBF01F5801130BD01F0004545F0FE41EB
:1004F80041F470014FF0000030BD7FEA645C1ABF20
:10050800194610467FEA655C1CBF0B46024650EA56
:10051800013406BF52EA033591EA030F41F4002182
:1005280030BD00BF90F0000F04BF0021704730B508
:100538004FF4806404F132044FF000054FF00001DD
:1005480050E700BF90F0000F04BF0021704730B59E
:100558004FF4806404F1320410F0004548BF404273
:100568004FF000013EE700BF42004FEAE2014FEAC8
:1005780031014FEA02701FBF12F07F4393F07F4FA3
:1005880081F06051704732F07F4208BF704793F0A6
:100598007F4F04BF41F40021704730B54FF46074B9
:1005A80001F0004521F000411CE700BF50EA0102BC
:1005B80008BF704730B54FF000050AE050EA010265
:1005C80008BF704730B511F0004502D5404261EBD5
:1005D80041014FF4806404F132045FEA915C3FF416
:1005E800D8AE4FF003025FEADC0C18BF03325FEAB3
:1005F800DC0C18BF033202EBDC02C2F1200300FA64
:1006080003FC20FA02F001FA03FE40EA0E0021FA88
:1006180002F11444BDE600BF70B54FF0FF0C4CF476
:10062800E06C1CEA11541DBF1CEA135594EA0C0F28
:1006380095EA0C0F00F0DEF82C4481EA030621EA63
:100648004C5123EA4C5350EA013518BF52EA03359E
:1006580041F4801143F4801338D0A0FB02CE4FF050
:100668000005E1FB02E506F00042E0FB03E54FF080
:100678000006E1FB03569CF0000F18BF4EF0010E78
:10068800A4F1FF04B6F5007F64F5407404D25FEA74
:100698004E0E6D4146EB060642EAC62141EA555127
:1006A8004FEAC52040EA5E504FEACE2EB4F1FD0C69
:1006B80088BFBCF5E06F1ED8BEF1004F08BF5FEAE7
:1006C800500E50F1000041EB045170BD06F0004699
:1006D80046EA010140EA020081EA0301B4EB5C0446
:1006E800C2BFD4EB0C0541EA045170BD41F480113E
:1006F8004FF0000E013C00F3AB8014F1360FDEBF63
:10070800002001F0004170BDC4F10004203C35DA3E
:100718000C341BDC04F11404C4F1200500FA05F3C1
:1007280020FA04F001FA05F240EA020001F0004262
:1007380021F0004110EBD37021FA04F642EB0601D8
:100748005EEA430E08BF20EAD37070BDC4F10C0402
:10075800C4F1200500FA04F320FA05F001FA04F2C6
:1007680040EA020001F0004110EBD37041F10001B2
:100778005EEA430E08BF20EAD37070BDC4F12005BD
:1007880000FA05F24EEA020E20FA04F301FA05F225
:1007980043EA020321FA04F001F0004121FA04F2CD
:1007A80020EA020000EBD3705EEA430E08BF20EA9D
:1007B800D37070BD94F0000F0FD101F000464000D7
:1007C80041EB010111F4801F08BF013CF7D041EA59
:1007D800060195F0000F18BF704703F0004652005D
:1007E80043EB030313F4801F08BF013DF7D043EA2E
:1007F8000603704794EA0C0F0CEA135518BF95EAE4
:100808000C0F0CD050EA410618BF52EA4306D1D16A
:1008180081EA030101F000414FF0000070BD50EA89
:10082800410606BF1046194652EA430619D094EA13
:100838000C0F02D150EA013613D195EA0C0F05D1FD
:1008480052EA03361CBF104619460AD181EA030151
:1008580001F0004141F0FE4141F470014FF0000009
:1008680070BD41F0FE4141F4780170BD70B54FF0A4
:10087800FF0C4CF4E06C1CEA11541DBF1CEA135524
:1008880094EA0C0F95EA0C0F00F0A7F8A4EB050406
:1008980081EA030E52EA03354FEA013100F08880FD
:1008A8004FEA03334FF0805545EA131343EA1263C6
:1008B8004FEA022245EA111545EA10654FEA00267B
:1008C8000EF000419D4208BF964244F1FD0404F534
:1008D800407402D25B084FEA3202B61A65EB030590
:1008E8005B084FEA32024FF480104FF4002CB6EB4D
:1008F800020E75EB030E22BFB61A754640EA0C00CD
:100908005B084FEA3202B6EB020E75EB030E22BF0C
:10091800B61A754640EA5C005B084FEA3202B6EB4D
:10092800020E75EB030E22BFB61A754640EA9C000C
:100938005B084FEA3202B6EB020E75EB030E22BFDC
:10094800B61A754640EADC0055EA060E18D04FEA9A
:10095800051545EA16754FEA06164FEAC30343EA3A
:1009680052734FEAC2025FEA1C1CC0D111F4801F07
:100978000BD141EA00014FF000004FF0004CB6E700
:1009880011F4801F04BF01430020B4F1FD0C88BF9F
:10099800BCF5E06F3FF6AFAEB5EB030C04BFB6EBAA
:1009A800020C5FEA500C50F1000041EB045170BD9D
:1009B8000EF0004E4EEA113114EB5C04C2BFD4EBCA
:1009C8000C0541EA045170BD41F480114FF0000E4E
:1009D800013C90E645EA060E8DE60CEA135594EACA
:1009E8000C0F08BF95EA0C0F3FF43BAF94EA0C0FCD
:1009F8000AD150EA01347FF434AF95EA0C0F7FF442
:100A080025AF104619462CE795EA0C0F06D152EA95
:100A180003353FF4FDAE1046194622E750EA410679
:100A280018BF52EA43067FF4C5AE50EA41047FF48A
:100A38000DAF52EA43057FF4EBAE12E74FF0FF3CEF
:100A480006E000BF4FF0010C02E000BF4FF0010CC0
:100A58004DF804CD4FEA410C7FEA6C5C4FEA430C39
:100A680018BF7FEA6C5C1BD001B050EA410C0CBF88
:100A780052EA430C91EA030F02BF90EA020F0020EA
:100A8800704710F1000F91EA030F58BF994208BF51
:100A980090422CBFD8176FEAE37040F0010070470E
:100AA8004FEA410C7FEA6C5C02D150EA013C07D165
:100AB8004FEA430C7FEA6C5CD6D152EA033CD3D0B0
:100AC8005DF8040B704700BF8446104662468C46AA
:100AD8001946634600E000BF01B5FFF7B7FF0028DD
:100AE80048BF10F1000F01BD4DF808EDFFF7F4FF06
:100AF8000CBF012000205DF808FB00BF4DF808ED91
:100B0800FFF7EAFF34BF012000205DF808FB00BFB3
:100B18004DF808EDFFF7E0FF94BF012000205DF8D5
:100B280008FB00BF4DF808EDFFF7CEFF94BF01208A
:100B380000205DF808FB00BF4DF808EDFFF7C4FF83
:100B480034BF012000205DF808FB00BF4FEA410CCC
:100B58007FEA6C5C02D150EA013C0AD14FEA430CAF
:100B68007FEA6C5C02D152EA033C02D14FF00000EC
:100B780070474FF0010070474FEA410212F500122A
:100B880015D211D56FF47873B3EB625212D94FEACC
:100B9800C12343F0004343EA505311F0004F23FAB6
:100BA80002F018BF404270474FF00000704750EA0B
:100BB800013005D111F0004008BF6FF000407047C8
:100BC8004FF00000704700BF4A0011D212F5001222
:100BD80011D20DD56FF47873B3EB62520ED44FEA8D
:100BE800C12343F0004343EA505323FA02F070470D
:100BF8004FF00000704750EA013002D14FF0FF304B
:100C080070474FF0000070474FEA4102B2F1E043ED
:100C180024BFB3F5001CDCF1FE5C0DD901F0004CDB
:100C28004FEAC0024CEA5070B2F1004F40EB83002B
:100C380008BF20F00100704711F0804F21D113F157
:100C48003872BCBF01F00040704741F480114FEA90
:100C58005252C2F11802C2F1200C10FA0CF320FA19
:100C680002F018BF40F001004FEAC1234FEAD32336
:100C780003FA0CFC40EA0C0023FA02F34FEA4303A0
:100C8800CCE77FEA625307D150EA01331EBF4FF029
:100C9800FE4040F44000704701F0004040F0FE4044
:100CA80040F40000704700BF38B500220023044616
:100CB8000D46FFF723FF28B920462946BDE83840EE
:100CC80000F00AB8204605F1004100F005F840425E
:100CD80061EB410138BD00BFD0B500220B4B064681
:100CE8000F46FFF799FCFFF76FFF0446FFF71AFC62
:100CF8000022074BFFF790FC02460B463046394668
:100D0800FFF7D2FAFFF760FF2146D0BD0000F03DA3
:100D18000000F04110B588B02022002168460BF091
:100D280046FB4FF480240023364801224FF400414B
:100D3800C0E90143038380F820300363836380F8AC
:100D48003C304FF4B463026180F834200522C1605E
:100D5800836208214FF48063C2612B4A41610260BB
:100D6800C36202F0A3FB002838D101210623022028
:100D78007F22CDE9001304240023CDE9020269464D
:100D880020480494059302F0BFFC002836D10C23B8
:100D98001E4A69461B48CDE9002302F0B5FC50BB4A
:100DA80012231B4A69461748CDE9002302F0ACFC20
:100DB800F0B91823174A69461248CDE9002302F012
:100DC800A3FC90B94FF48073134A69460D48CDE9E6
:100DD800002302F099FC20B908B010BD00F0BEFB5A
:100DE800C3E700F0BBFB08B010BD00F0B7FBE9E7B4
:100DF80000F0B4FBDDE700F0B1FBD1E700F0AEFB9B
:100E0800C5E700BF600500200080024202003004F0
:100E18000040C03A0080F03E0000844B0000000013
:100E280030B500240546D9B06C22214608A8CDE982
:100E38000244CDE9044406940BF0B9FAD0222146C5
:100E480024A80BF0B4FA504B2A689A4201D059B042
:100E580030BD02232822279329934C9303232892F9
:100E680026934FF480220C239FED457B2F922C93E1
:100E78000222042324A88DED247BCDE92A2307F040
:100E880035F9002867D1414B0024D3F88C2040481D
:100E980042F48062C3F88C20D3F88C2002A902F4B3
:100EA80080620092009AD3F88C2042F00102C3F8C5
:100EB8008C20D3F88C301F2203F001030193019B8F
:100EC80003230494CDE9022304F0A2F901234FF48B
:100ED80000212122CDE911330E934FF480330D9177
:100EE80008A82C49CDE90944CDE90B44CDE91344C0
:100EF800199417940892159416940F9303F02AFBEB
:100F0800002837D10021234A234803F043FC70BB53
:100F1800214803F0D9FC38BB002381221F4C20490B
:100F28002046C4E90E33C4E910332160A26403F0FB
:100F3800BFF9B0B91849194803F016FD70B92C6506
:100F480010211648E56503F02DF900283FF47FAF1E
:100F580000F004FB7BE700F001FB94E700F0FEFAE9
:100F6800EDE700F0FBFAE5E700F0F8FAD4E700F067
:100F7800F5FACDE700F0F2FAC4E700BFAFF300805E
:100F8800000020000000000000800242000C024423
:100F9800000002423C05002024050020AC0400208B
:100FA80050000240002330B5012204255D241F2192
:100FB8001B4889B0C0E90133C0E90E33C36003821E
:100FC8008374184BC0E90624C0E90812C0E90A2254
:100FD800C0E90C224561036003F022FDC8B9002373
:100FE800012540F2DF7440F2FF720D4802A9CDE9F5
:100FF8000233CDE90435CDE9064203F047FE58B97E
:101008000123022200931146054803F06BFE09B044
:1010180030BD00F0A3FAE2E700F0A0FAF0E700BF65
:10102800C805002000A4004010B500210446BCB04B
:10103800D02208A8CDE90211CDE9041106910BF0E0
:10104800B6F9294B22689A4201D03CB010BD9FEDF9
:10105800207B4FF4807308A88DED087B2D9307F053
:1010680045F880BB9FED1C7B204B0924D3F8A020BA
:1010780002A942F40072C3F8A020D3F8A0201C48AB
:1010880002F400720092009AD3F88C2042F0020217
:10109800C3F88C20D3F88C308DED027B9FED107B4C
:1010A80003F0020301938DED047B019B069404F089
:1010B800AFF800222146272002F0A0FE272002F0E8
:1010C800D9FE3CB010BD00F049FACBE7AFF3008081
:1010D8000000000004000000800100000200000081
:1010E800000000000000000000A40040000C0244C2
:1010F8000004024200220C4B00B5D3F8881083B0DC
:1011080041F00101C3F88810D3F888301B2003F0A0
:10111800010301931146019B02F070FE1B2003B0EE
:101128005DF804EB02F0A6BE000C0244F0B5002402
:1011380001268BB0CDE90444CDE906442D4B089433
:10114800D3F88C202C4F42F00402C3F88C20D3F83B
:101158008C202A4D02F004020092009AD3F88C20C9
:10116800384642F08002C3F88C20D3F88C204FF424
:10117800005102F080020192019AD3F88C20324388
:10118800C3F88C20D3F88C2032400292029AD3F80C
:101198008C2042F00202C3F88C20D3F88C3022460F
:1011A80003F002030393039B04F0FCF8224628464D
:1011B800032104F0F7F84FF40053384604A90493C8
:1011C800CDE90564079404F023F80323284604A90D
:1011D800049307930596069404F01AF80422002352
:1011E800284604A9CDE90423069404F011F80BB0AD
:1011F800F0BD00BF000C0244000802420004024295
:101208000023012210B51748174C1849C0E90232CB
:10121800C0E90041C0E90433C0E90633036204F0C1
:10122800D1F850B900210F4805F0EAF868B9002153
:101238000C4805F00FF980B910BD00F08FF90021B6
:10124800084805F0DDF80028F1D000F087F9002102
:10125800044805F0FFF80028EED0BDE8104000F083
:101268007DB900BF8806002000580040D38C8060FC
:101278000023012210B51748174C1849C0E902325B
:10128800C0E90041C0E90433C0E90633036204F051
:1012980099F850B900210F4805F0B2F868B9002153
:1012A8000C4805F0D7F880B910BD00F057F90021B7
:1012B800084805F0A5F80028F1D000F04FF9002102
:1012C800044805F0C7F80028EED0BDE8104000F04B
:1012D80045B900BF3006002000280044E543C0108F
:1012E800D0B500210446C0B0D0220CA8CDE9061123
:1012F800CDE908110A910BF05AF8594A236893422C
:1013080004D0584A934245D040B0D0BD4FF48042F3
:1013180000230CA8CDE90C2306F0E8FE002840F0D5
:1013280095809FED4D7B0422002600274E4C06A990
:10133800D4F88C304D4843F00203C4F88C30D4F80C
:101348008C308DED067B03F002030193019B0A921A
:10135800CDE9086703F05CFF0022D4F89C30114601
:1013680043F48003C4F89C30D4F89C30352003F44F
:1013780080030293029B02F041FD352002F07AFDC2
:1013880000223620114602F039FD362002F072FDA7
:1013980040B0D0BD4FF4004200230CA8CDE90C2387
:1013A80006F0A4FE002854D14FF4807012210422C4
:1013B800002600272C4CD4F88C3043F00103C4F8E5
:1013C8008C30D4F88C3003F001030393039BD4F8DA
:1013D8008C3043F00203C4F88C30D4F88C30CDE95B
:1013E800060103F00203049306A92148CDE9086722
:1013F8000A92049B03F00CFFCDE908670923102625
:10140800122706A919480A93CDE9066703F000FFD9
:101418000022D4F8A830114643F08003C4F8A8305D
:10142800D4F8A830502003F080030593059B02F000
:10143800E5FC502002F01EFD00225120114602F06A
:10144800DDFC512002F016FD40B0D0BD00F086F85A
:1014580067E700F083F8A7E7001400001200000017
:101468000058004000280044000C024400040242D6
:1014780000000242002330B59DB0CDE90B33CDE921
:101488000D33CDE90F33CDE90333CDE90533234AD5
:101498000A9302930793136943F0300313611369A6
:1014A80003F030030193019B53691B07FCD502230A
:1014B80021204FF480314FF48054CDE908010022F7
:1014C8002821CDE916331194129314931893032409
:1014D8000C2308A81993CDE91A221394159106F044
:1014E80057F8034608B172B6FEE71F250022CDE97A
:1014F800034305930023052102A8CDE9062302959D
:1015080006F098FB08B172B6FEE7054A136823F0A7
:10151800300343F0200313601DB030BD00080244BF
:101528000020024008B501F089FFFFF7A3FFFFF78D
:10153800FDFDFFF7DFFD00F039F900F0A3F9FFF733
:10154800E9FBFFF72FFD00F007F9FFF759FEFFF75A
:101558008FFE00F099FE00F0AFFEFCE772B6FEE7E2
:10156800704700BFFEE700BFFEE700BFFEE700BF11
:10157800FEE700BFFEE700BF704700BF704700BF2F
:10158800704700BF01F080BF014802F047BD00BFAF
:10159800AC040020014803F075BD00BFC805002059
:1015A800014807F091BC00BF3007002008B5034888
:1015B80007F08AFCBDE8084000F03EBEE0060020C7
:1015C800014804F0B9B800BF88060020014804F0BB
:1015D800A7BC00BF88060020014805F083B800BFFB
:1015E8007C070020014804F0A7B800BF300600209F
:1015F800014804F095BC00BF300600200120704768
:1016080008B50AF027FF162203464FF0FF301A608C
:1016180008BD00BF08B50AF01DFF16230360FEE7EA
:1016280070B5161E07DD0C468D19AFF3008004F85F
:10163800010BA542F9D1304670BD00BF70B5161E2A
:1016480007DD0C468D1914F8010BAFF30080AC428E
:10165800F9D1304670BD00BF4FF0FF30704700BF72
:101668004FF4005300204B60704700BF01207047C3
:10167800002070470D49034610B50D4A0D4C086807
:10168800121B20B10344934207D80B6010BD0A4CCB
:101698002046034493420C60F7D90AF0DBFE0C2283
:1016A80003464FF0FF301A6010BD00BFDC06002073
:1016B8000040042000040000C0370020F0B40022DD
:1016C80001274FF000661D491D4CD1F888301D4890
:1016D80043F47003C1F888301B4B1C4D1F60DA615E
:1016E8001A621F683C401C609A62DA621A63586387
:1016F8009A63D8631A6458649A64186820F480203E
:1017080018601A658E60AB6903F04043B3F1404F2F
:1017180001D0F0BC7047EB69DB0703D50C4A0D4BD1
:10172800EA60EB60094BF0BCDA6942F00202DA6168
:10173800DA6942F00102DA61704700BF00ED00E0AB
:10174800E3EAE2EA80020101000C024400200240C0
:101758003B2A19087F6E5D4C002346F2A8118022AF
:1017680010B51048104C84B0C0E90133CDE90233FC
:1017780004600193C160826107F068FA50B92022C1
:101788000023084801A90192039307F081FC20B9BE
:1017980004B010BDFFF7E2FEF1E7FFF7DFFE04B08B
:1017A80010BD00BF30070020001000400023632157
:1017B80010B58022F924104884B0C0E90231CDE97F
:1017C800023301930D4B44608261036007F03EFAD7
:1017D80050B920220023084801A90192039307F079
:1017E80057FC20B904B010BDFFF7B8FEF1E7FFF7CA
:1017F800B5FE04B010BD00BFE00600200014004094
:1018080000B51D4A036883B0934205D01B4A934232
:101818001AD003B05DF804FB0022194B3120D3F82D
:101828009C1041F01001C3F89C10D3F89C3011466D
:1018380003F010030093009B02F0E0FA312003B09C
:101848005DF804EB02F016BB0D4B3220D3F89C1068
:10185800002241F02001C3F89C10D3F89C300B21E2
:1018680003F020030193019B02F0C8FA322003B071
:101878005DF804EB02F0FEBA0010004000140040CE
:10188800000C024402230821002210B50848094C24
:10189800C37104600171C0F80930C0F80D2004F06C
:1018A80005FE00B910BDBDE81040FFF757BE00BFE8
:1018B8007C070020006001400D488546FFF7FEFECA
:1018C8000C480D490D4A002302E0D458C450043393
:1018D800C4188C42F9D30A4A0A4C002301E0136069
:1018E8000432A242FBD30AF0BBFDFFF71BFEFEE762
:1018F800004004200000002090040020A0020108FD
:1019080090040020C0370020FEE70000000000001F
:101918002DE9F843524C2378002B00F08F80042BDC
:1019280040F087804F4B504AB3F90000B3F90210DA
:10193800DFF85891B3F90430DFF854811080A9F822
:101948000010A8F800301088484F00B2FEF7FAFDE2
:1019580041A3D3E90023FEF75FFEFFF755F938608E
:10196800B9F80000424E00B2FEF7ECFD3AA3D3E905
:101978000023FEF751FEFFF747F93060B8F8000082
:101988003C4D00B2FEF7DEFD33A3D3E90023FEF79A
:1019980043FEFFF739F92860D7ED005A97ED006A42
:1019A800D6ED007A96ED005A67EE857AD5ED006A95
:1019B800E5EE867A95ED007AE6EE877A17EE900ADC
:1019C800FEF7D2FD41EC100B0EF0C8F851EC100BED
:1019D800FFF71AF9284ADFED295A1060D7ED006A97
:1019E80096ED007A95ED006A26EE256A66EEA56A00
:1019F800BDEEC66AD2ED007A27EE257A16EE102AD9
:101A0800FDEEE66A1E4B67EEA57AA3F80E22BDEE40
:101A1800C77A16EE902AFDEEE77AA3F80A2217EEA7
:101A2800102A0321A3F80C2217EE902AA3F81022FB
:101A380021700022134B1A70BDE8F883094B1B78FC
:101A4800E52BF6D10122104B1A7000220D4B1A70AB
:101A5800BDE8F883AFF30080DE718A8EE4F27F3F41
:101A68000C0B0020CC0A0020740A00206C0A00200D
:101A7800680A0020640A0020600A002000007A44F6
:101A880044120020880A0020890A0020720A0020D7
:101A9800700A0020114B1B78012B0CD1104A1378C7
:101AA800032B05D8DFE803F0020E14080123137096
:101AB80000220C4B1A707047042313700022094B44
:101AC8001A70F8E7022313700022064B1A70F2E727
:101AD800032313700022034B1A70ECE70C0B002051
:101AE8008A0A0020880A0020012310B50A4C82B017
:101AF800A621CDE900430022084803F0BBFD0022DF
:101B0800074B1A7000F092FB064B186000F08EFB32
:101B1800054B186002B010BDCC0A0020300600202A
:101B28008A0A0020800A0020780A0020F0B583B0D5
:101B380000F07CFB494C2368C01A63281DD9484D26
:101B48002B78042B16D8DFE803F02A4E15031A0069
:101B580000F06CFB062201234249086001924249C9
:101B6800424A0B7042480092A621322203F082FDBD
:101B780004232B7000F05AFB206003B0F0BD00F086
:101B880055FB41F28833374A1268801A9842F1D9D6
:101B98000321384A2970136801331360EAE7364B8A
:101BA8001B7823B101210022344B29701A7000F0F0
:101BB8003DFB42F21073324D2A68801A9842D9D9F7
:101BC80001232A49002200910193A621284803F005
:101BD80051FD0022294B1A7000F028FB286000F004
:101BE80025FB2060C6E7254B1B78042BC2D8DFE80D
:101BF80003F031231606030003232B70BAE70123F1
:101C08004FF00E0C1F4D184E009501932C22A62163
:101C1800337085F800C0164803F0C6FCAAE7012314
:101C2800184D114E009501933122A62133702B7067
:101C38000F4803F0B9FC9DE701230826114D0A4F10
:101C4800009501932D22A6213B702E70084803F0C1
:101C5800ABFC8FE701230026F0E700BF780A0020DD
:101C68000C0B00207C0A0020880A0020CC0A0020E7
:101C780030060020840A0020890A00208A0A0020F1
:101C8800800A00208C0A002005220249024801F03F
:101C9800FFBF00BF100B002060050020054A064B5F
:101CA800D2E900011289C3F80002C3F80412A3F8AC
:101CB80008227047100B00204412002007EE900AFB
:101CC8009FED057AF8EE677A67EE877AFDEEE77A98
:101CD80017EE903A18B27047DEDC1C4200B270472B
:101CE80000B2704707EE900AFBEECF7AFDEEE77A76
:101CF80017EE903A18B2704707EE900ADFED076AC0
:101D0800F8EE677A9FED067A77EEE67A67EE877ADD
:101D1800FDEEE77A17EE903A18B2704700002042BD
:101D28000000C84207EE100ADFED066AB8EE477AEF
:101D3800DFED057AE7EE267AFDEEE77A17EE903AC0
:101D480018B27047CDCCCC3D000020C207EE100A77
:101D5800B6EE096AB8EE477ADFED067ADFED066A75
:101D6800E7EE067A67EEA67AFDEEE77A17EE903A86
:101D780018B270470000C8C20000C842030C07EE42
:101D8800903A9FED067AF8EEE77A67EE877AFDEEED
:101D9800E77A17EE903A18B2704700BF0000FA3C95
:101DA80007EE100AB6EE006AB8EE477ADFED067A5B
:101DB800DFED066AE7EE067A67EEA67AFDEEE77AC9
:101DC80017EE903A18B27047000080C20000C8426F
:101DD80007EE900A9FED057AF8EE677A67EE877A44
:101DE800FDEEE77A17EE903A18B270470000483BCC
:101DF80007EE100A9FED086AB8EE477ADFED077A1A
:101E0800F2EE046AE7EE067A67EEA67AFDEEE77A66
:101E180017EE903A18B270470AD7233C000020C248
:101E280007EE900AB6EE047AF8EE677A67EE877ADC
:101E3800FDEEE77A17EE903A18B27047014B186832
:101E4800704700BF200B0020014B1868704700BF87
:101E5800240B0020014B1868704700BF340B00208A
:101E6800014BD3F8A400704790000020014BB3F950
:101E78009800704790000020014BD3F8C0007047CD
:101E880090000020014BB3F9B40070479000002087
:101E9800014BD3F81401704790000020014BB3F9AF
:101EA8000801704790000020014B9869704700BFF7
:101EB80004000020014BB3F90C0070470400002017
:101EC800014B586B704700BF04000020014BB3F969
:101ED8002800704704000020014BD86E704700BFEF
:101EE80004000020014BB3F9600070470400002093
:101EF800014BD3F88800704704000020014BB3F968
:101F08007C00704704000020CB0710B510D4124C99
:101F1800124A23781249032B03C982E8030004D02C
:101F2800062B01D10723237010BD0423237010BD95
:101F380040210B4B0B4A044602F072FF48B90022BD
:101F48000121204603F00EF80028E0D0FFF706FB39
:101F5800DDE7FFF703FBF2E7A40B00203C0B0020B2
:101F6800440B0020540B00204FF0FF31002270B5C5
:101F78000826144C144B0588C4E90011C3E9012252
:101F8800C3E90422C3E90622DE601D601A62838861
:101F98008278FF2B62700DD9032023FA06FCE370C8
:101FA8002070084A0849094884F802C002F0D6FEA1
:101FB80020B970BD02205FFA83FCF1E7BDE87040EC
:101FC800FFF7CCBA4C0B0020800B0020C80500207E
:101FD80030B50025224A83B051781378412914BFBF
:101FE800033B023BDBB203F1FF33044614BF5268E4
:101FF800D2F803200195032B2FD8DFE803F0222520
:10200800170212BA019201982369A0609847237DAC
:10201800A081EBB1637D134A03F5807322F81300A6
:1020280000F004F9104B186003B030BD130402F43B
:102038007F4103F47F030B43C2F307421343019329
:10204800E1E7D2B20192DEE752BA92B20192DAE740
:10205800044BA28823F81200E2E700230193D2E799
:102068003C0B002044120020300B002008B5094822
:1020780002F05AFE30B900220121064802F072FF30
:1020880018B908BDFFF76AFAF5E7BDE80840FFF799
:1020980065BA00BFC8050020704700BF704700BF81
:1020A80038B5564C2378072B17D8DFE803F0171EEE
:1020B800283F586E8F04524D52482B78C3EBC30308
:1020C80000EB8300FFF784FF2B780133DBB2042B8E
:1020D80088BF00232B700223237038BD00F0A6F8B8
:1020E8000123494A1060237038BD00F09FF847F279
:1020F8002F53454A1268801A9842ECD838BD00F030
:1021080095F8424B1B68C01A0A28E6D9404B41484B
:102118001B78C3EBC30300EB8300FFF725FF00F038
:1021280085F803233C4A1060237038BD00F07EF820
:10213800394B1B68C01AC828CFD90221344A2170EC
:1021480013780133DBB20A2B137003D9002105235E
:1021580011702370314A13680133136038BD2C4D58
:102168002C482B78C3EBC30300EB8300FFF730FF49
:1021780002222B7822700133DBB20A2B2B70ACD9E8
:10218800002205232A70237038BD00F04FF81F4B3A
:102198001B68C01A0A28A0D9194B1A481B78204D69
:1021A800C3EBC30300EB8300FFF7DEFE00F03EF84D
:1021B8002A681C4B801A186000F038F8286000F074
:1021C80035F80623144A1060237038BD00F02EF845
:1021D800114B1B68C01AC8287FF67FAF084A022136
:1021E800137821700133DBB2042B137084BF0023F2
:1021F80013700D4A13680133136038BDA40B002017
:10220800380B0020040000202C0B0020300B00208D
:10221800390B002090000020280B0020240B002000
:102228001C0B0020340B0020200B0020014B1868E9
:10223800704700BFA80B0020012210B511460E48B8
:1022480003F0B0F80D4A0E4C136801331360FFF722
:1022580023FF42F210722368934208D801332360A7
:102268000022BDE810400121034803F09BB801217A
:10227800044A00231170F2E700040242A80B002070
:10228800B00B0020AC0B002008B5094806F0AEFDE5
:10229800084806F0ABFD07F045FEFFF7E7FEFFF73D
:1022A800F3FCFFF721FCBDE8084000F0FBB800BFD5
:1022B80030070020E0060020022110B5114803F085
:1022C80077F8114B1A7892B9104C22784FF40051D4
:1022D8000F4803F067F800F057F801F03DF8FFF7F2
:1022E800DFFEFFF723FCBDE8104000F041B90021F4
:1022F800064C1970227882F001022270FFF7CEFE98
:10230800E3E700BF00040242AC0B0020A50B00204D
:1023180000080242054A0368934203D0044A9342E4
:1023280002D07047FFF7F4BA00F0DCB80028004488
:102338000058004008B50268054B9A4200D008BD15
:1023480000F070F80028FAD1BDE8084000F0CAB8DB
:1023580000580040034B02689A4200D07047FFF7CC
:1023680099BB00BF00280044034B02689A4200D082
:10237800704700F05DB800BF00580040014B187866
:10238800704700BFBC0B002010B5224C2378032BEC
:1023980009D8DFE803F01E1709021F4B1B695B070A
:1023A80025D50223237010BD01211B4B1B4A1B6935
:1023B80011705A07F7D403232370FFF737FF184B20
:1023C800186010BD144B1B69590719D400232370DA
:1023D80010BD0021104B114A1B6911705807E2D536
:1023E80001232370FFF722FF0D4B186010BDFFF784
:1023F8001DFF0B4B1B68C01AB0F57A7FE6D2D2E7F7
:10240800FFF714FF064B1B68C01AB0F57A7FCAD3D2
:10241800C7E700BFB40B002000040242BC0B002039
:10242800B80B0020014B1878704700BF390C00200A
:1024380038B5FFF7FBFE0021164A174D137854787C
:102448000133DBB29C421370286082F8041682F8CC
:10245800031607D94FF4007192F80226B1FBF2F285
:1024680093420FDB0D4C4FF400720021204609F017
:102478009EFF4FF400720021A01809F098FF002376
:1024880024F8023C064B1A78032A04BF02221A7069
:1024980038BD00BF3C0C0020C40B00203E0C0020BF
:1024A800390C002038B54FF400750C4C00212A4631
:1024B800204609F07CFF2A460021601909F077FFC1
:1024C8000022042124F8022C84F8001684F802263D
:1024D800FFF7ACFE024B186038BD00BF3E0C002071
:1024E800CC0B00200122014B1A707047380C0020D9
:1024F80070B51B4B1B491A7800238A5C04264E21B1
:10250800194C02F0F00E607894F802C612016EF3CE
:102518000703D2B26EF30F230CFB004C62F3174390
:1025280062F31F63451C43F008332044EDB243F0C7
:102538000413CCF8023080F8021480F80262657047
:1025480005B970BD012594F80236227884F804563E
:1025580002FB0342BDE870400448023202F08CBF1F
:102568003A0C002000FE00083C0C002088060020E1
:102578002DE9F04F2DED028B0D4C87B02378012B00
:1025880000F0A085022B00F07F85002B00F062850B
:10259800FFF74CFE074B1B68C01AB0F57A7F02D9CB
:1025A8002378012B08D807B0BDEC028BBDE8F08F6B
:1025B800390C0020C00B0020FFF7E0FEE14CE24B95
:1025C800E24D002800F09F8593E803002171206008
:1025D800FFF758FCDE4EDF4FDF4B08EE100A019381
:1025E80004960597FFF748FC07EE900AB8EEC88AEC
:1025F800F8EE677A68EE277A17EE900AFDF7B4FFCF
:1026080002460B462846D54909F054FE2B686360FC
:10261800D34B93E8030031713060FFF76FFC08EE8D
:10262800100AFFF765FC07EE900AB8EEC88AF8EEC4
:10263800677A68EE277A17EE900AFDF795FF02464B
:102648000B462846C54909F035FE2B687360C54B13
:1026580093E8030039713860FFF72CFC08EE100A84
:10266800FFF722FC07EE900AB8EEC88AF8EE677A00
:1026780068EE277A17EE900AFDF776FF02460B46BA
:102688002846B64909F016FE2B687B60B64B93E8DE
:102698000300019B19711860FFF724FC08EE100A6B
:1026A800FFF71AFC07EE900AB8EEC88AF8EE677AC8
:1026B80068EE277A17EE900AFDF756FF02460B469A
:1026C8002846A64909F0F6FD2B68A84F194602933B
:1026D800019B4FF0040A5960A54B4FF000095A7846
:1026E80093F80206009210FB02F09A1C175093F818
:1026F800027620783946009A00F0F0074E464D469B
:10270800CE46CC4600FA0AF067F30709C0B267F371
:102718000F2902F1010860F317495FFA88F860F39E
:102728001F6911FB08F0014649F0093040F0041018
:102738004FF04E0B074694F80190009ACDF80C9094
:1027480003EB02099A1C89F802B489F802A25750CF
:10275800039F304607F0F00969F3070607FA0AF7FE
:102768000099FFB269F30F2667F3174667F31F66F0
:102778008F1C1146984488F802B488F802A293F88E
:102788000286FFB218FB07F846F0093646F0041631
:1027980042F80860A6781F4406F0F00987F802B4EA
:1027A80087F802A206FA0AF62F4669F30705009A87
:1027B800F6B269F30F2566F3174593F8028666F3B8
:1027C8001F65D61CF6B218FB06F845F0093545F02A
:1027D800041541F80850E5781E4405F0F00986F81C
:1027E80002B486F802A205FA0AF5764669F3070EDE
:1027F800EDB269F30F2E65F3174E93F8028665F371
:102808001F6E02EB0A05EDB218FB05F84EF0093E03
:102818001D444EF0041E41F808E085F802B485F81E
:1028280002A2257993F802E605F0F00868F3070C90
:1028380005FA0AF5EDB268F30F2C65F3174C65F34A
:102848001F6C551DEDB21EFB05FE4CF0093C4CF00B
:10285800041C41F80EC094F805E01D440EF0F00980
:1028680085F802B485F802A293F80286054602F1BB
:10287800060C0EFA0AFE69F307005FFA8EFE5FFA8D
:102888008CFC69F30F2018FB0CF86EF317406EF3FD
:102898001F6040F009309C4440F0041041F80800E3
:1028A8008CF802B48CF802A294F806C038460CF0F2
:1028B800F00868F307070CFA0AFC5FFA8CFC68F367
:1028C8000F276CF3174793F802E66CF31F6702F1C2
:1028D800070C5FFA8CFC1EFB0CFEE47947F0093705
:1028E80047F0041741F80E709C4404F0F00E8CF881
:1028F80002B48CF802A204FA0AF4B4466EF307068E
:10290800E4B26EF30F2664F3174693F8027664F385
:102918001F6602F10804E4B217FB04F746F0093613
:102928001C4446F00416CE5184F802B484F802A27E
:1029380002F109040A4693F80266E4B216FB04F6AB
:1029480018E000BF280C0020A0FD0008D00B0020D4
:10295800200C0020180C0020100C0020A8FD0008F6
:10296800C4FD0008CCFD0008D4FD00088C880C08C4
:102978003C0C0020DFF8C4E81C4441F806E0049948
:1029880084F802B484F802A20C782F4604F0F00808
:102998002E4604FA0AF468F30705E4B268F30F2533
:1029A80064F3174564F31F65009C93F802E60A3444
:1029B800E4B21EFB04FE45F009351C4445F004153D
:1029C80042F80E5084F802B484F802A24C78054606
:1029D80004F0F00868F3070004FA0AF4E4B268F3B4
:1029E8000F2064F3174064F31F60009C93F802E61D
:1029F8000B34E4B21EFB04FE40F0093040F0041032
:102A080042F80E0088781C4400F0F00884F802B4FC
:102A180084F802A200FA0AF0644668F3070CC0B210
:102A280068F30F2C60F3174C60F31F6C009893F851
:102A380002E60C30C0B21EFB00FE4CF0093C4CF024
:102A4800041C42F80EC091F803C018440CF0F008BA
:102A580080F802B480F802A20CFA0AFC384668F33F
:102A6800070703925FFA8CFC009A68F30F276CF350
:102A7800174793F802E66CF31F6702F10D0C5FFA33
:102A88008CFC1EFB0CFE47F009379A1C47F0041714
:102A980042F80E700F799C4407F0F00E6EF30706AB
:102AA80007FA0AF7FFB26EF30F2667F3174667F3C4
:102AB8001F66009F8CF802B48CF802A20E3793F8B8
:102AC80002C6FFB21CFB07FC46F0093646F00416A6
:102AD80042F80C604E791F4406F0F00E87F802B4F5
:102AE80087F802A206FA0AF62F466EF30705F6B231
:102AF8006EF30F2566F3174566F31F65009E93F87E
:102B080002C60F36F6B21CFB06FC45F009351E441A
:102B180045F0041542F80C5086F802B486F802A273
:102B28008D79A44605F0F00868F3070405FA0AF55C
:102B3800CE79EDB2009968F30F2465F3174465F375
:102B48001F6401F11005114693F802E6EDB21EFB71
:102B580005FE44F0093444F0041442F80E401D44C4
:102B680006F0F00E85F802B485F802A206FA0AF615
:102B780005466EF30700009AF6B26EF30F2066F36F
:102B8800174093F8024666F31F6002F11106F6B289
:102B980014FB06F440F0093040F00410085102F12B
:102BA80012000A4693F80246C0B214FB00F4DFF89C
:102BB80090E61E4486F802B486F802A241F804E0C2
:102BC8000599184480F802B480F802A208783E46B5
:102BD80000F0F0083C4600FA0AF068F30707C0B2B4
:102BE80068F30F2760F3174760F31F67009893F89F
:102BF80002E61330C0B21EFB00FE47F0093747F06B
:102C0800041742F80E704F78184407F0F00880F85F
:102C180002B480F802A207FA0AF7604668F3070CC4
:102C2800FFB268F30F2C67F3174C67F31F6C009F14
:102C380093F802E61437FFB21EFB07FE4CF0093C7E
:102C48004CF0041C42F80EC091F802C01F440CF06E
:102C5800F00887F802B487F802A20CFA0AFC2F469B
:102C680068F30705009A5FFA8CFC68F30F256CF38C
:102C7800174593F802E66CF31F6502F1150C5FFA2D
:102C88008CFC1EFB0CFE45F009359C449A1C45F053
:102C9800041542F80E508CF802B48CF802A291F890
:102CA80003C035460CF0F00868F307060CFA0AFC76
:102CB800009A5FFA8CFC68F30F266CF3174693F8BA
:102CC80002E66CF31F6602F1160C5FFA8CFC1EFB21
:102CD8000CFE46F009369A1C46F0041642F80E60BF
:102CE8000E799C4406F0F00E6EF3070406FA0AF615
:102CF800F6B26EF30F2466F3174466F31F64009E62
:102D08008CF802B48CF802A2173693F802C6F6B211
:102D18001CFB06FC44F009341E4444F0041442F839
:102D28000C4086F802B486F802A24E79044606F0F2
:102D3800F00E6EF3070006FA0AF6F6B26EF30F20ED
:102D480066F3174066F31F60009E93F802C61836B4
:102D5800F6B21CFB06FC40F0093040F0041042F8C3
:102D68000C0091F806C01E440CF0F00838460CFA26
:102D78000AFC68F3070786F802B486F802A25FFA2D
:102D88008CFCCE7968F30F2700996CF317476CF326
:102D98001F6701F1190C114693F802E65FFA8CFCE3
:102DA8001EFB0CFE47F0093747F0041742F80E7077
:102DB8009C4406F0F00E8CF802B48CF802A206FAD5
:102DC8000AF6AC466EF30705009AF6B26EF30F25C5
:102DD80066F3174593F8027666F31F6502F11A0643
:102DE800F6B217FB06F745F0093545F00415CD5145
:102DF80002F11B070A461E4486F802B486F802A2AE
:102E080093F802E6FFB21EFB07FEDFF838841F4482
:102E180041F80E80019987F802B487F802A20F786A
:102E2800264607F0F008254607FA0AF768F307046C
:102E3800FFB268F30F2467F3174467F31F64009F1A
:102E480093F802E61C37FFB21EFB07FE44F0093474
:102E58001F4444F0041442F80E4087F802B487F87F
:102E680002A24F78044607F0F00868F3070007FA53
:102E78000AF7FFB268F30F2067F3174067F31F6084
:102E8800009F93F802E61D37FFB21EFB07FE40F0D5
:102E9800093040F0041042F80E0091F802E01F4497
:102EA8000EF0F00960460EFA0AFE69F3070C87F87F
:102EB80002B487F802A25FFA8EFECF7869F30F2C6E
:102EC80000996EF3174C6EF31F6C01F11E0E11463C
:102ED80093F802865FFA8EFE18FB0EF84CF0093C58
:102EE8004CF0041C42F808C007F0F008B44607FA92
:102EF8000AF768F30706009AFFB268F30F2667F32C
:102F0800174667F31F6602F11F070A469E448EF8AC
:102F180002B48EF802A293F802E6FFB21EFB07FE87
:102F280046F0093646F0041641F80E6002991F442F
:102F380001F0F00666F3070566F30F25009E93F887
:102F480002E687F802B487F802A2203601FA0AF7E7
:102F580007F0F007F6B21EFB06FE67F3174567F3A6
:102F68001F6545F009351E4445F0041542F80E501A
:102F780086F802B486F802A2C1F3072606F0F00725
:102F880067F3070406FA0AF6F6B267F30F2466F346
:102F9800174466F31F6444F00936009C93F8025600
:102FA8002134E4B215FB04F546F004165651C1F37A
:102FB800074505F0F00767F3070005FA0AF51C4412
:102FC800EDB267F30F2084F802B484F802A265F327
:102FD80017400C0E009965F31F6040F0093501F1A8
:102FE8002200114693F80266C0B216FB00F645F0BF
:102FF80004159551184404F0F00680F802B480F8DE
:1030080002A266F3070C04FA0AF0009AC0B266F34B
:103018000F2C60F3174C93F8025660F31F6C02F103
:103028002300C0B215FB00F54CF0093C4CF0041C21
:1030380041F805C02432191881F802B481F802A2B7
:103048005A70FFF7F3F86C4B186007B0BDEC028BB1
:10305800BDE8F08F694A1278002A40F0C480FFF773
:10306800E5F842F21073664D2A68801A98427FF696
:103078008FAA01234E21634A634802F049FAFFF7F9
:10308800D5F82860FFF784BAFFF7D0F85F4B1B68C4
:10309800C01A06287FF67CAA5D4D6B78002B3FF49A
:1030A80077AA012695F802362A784E2102FB0352A8
:1030B8005548023285F8046602F0DEF903232370CE
:1030C800FFF766BAFFF7B2F8524D534E534B2978C3
:1030D800326853F82130801A98427FF659AAFFF7D0
:1030E80007FAFFF7A3F82B7830600133DBB2082B1F
:1030F8002B707FF64DAA02232370FFF797F8434BF6
:103108001860FFF745BA93E8030021712060FEF7C5
:10311800B9FE434E434F444B08EE100A0193049600
:103128000597FEF7A9FE07EE900AB8EEC88AF8EEF2
:10313800677A68EE277A17EE900AFDF715FA0246C5
:103148000B462846394909F0B5F82B686360384BB7
:1031580093E8030031713060FEF7A0FE08EE100A14
:10316800FEF796FE07EE900AB8EEC88AF8EE677A80
:1031780068EE277A17EE900AFDF7F6F902460B4635
:1031880028462A4909F096F82B687360294B93E87A
:10319800030039713860FEF769FE08EE100AFEF781
:1031A8005FFE07EE900AB8EEC88AF8EE677A68EE16
:1031B800277A17EE900AFDF7D7F902460B462846FC
:1031C8001A4909F077F82B687B601B4B93E80300DA
:1031D800154B19711860FEF779FE08EE100AFEF714
:1031E8006FFEFFF75FBA01220A4922700B70FFF7E2
:1031F8001DF8094B186032E7C00B0020380C00207E
:10320800CC0B0020300C002088060020C40B0020C6
:103218003C0C00203A0C0020C80B0020DCFD000804
:10322800200C0020180C0020100C0020A8FD00081D
:10323800ACFD0008B4FD0008BCFD00088C888C8833
:10324800CCC80C08CCC88C882DE9F0410122344840
:103258000221CCB002F0A6F86923324F324C7888AC
:1032680023707B7840BA062BBA881FFA80FC6370FB
:1032780045D052BA92B24FEA4206B5B205F10301FF
:103288001FFA81F829D8033B012B0ED82748D7B25B
:103298003A4600EB4C0001A908F0A0F87F0032463E
:1032A80001A9E01CA77009F010F94146464605350A
:1032B800ADB24F1C1C4808F00FF803462946A35529
:1032C80019481B0AE35507F0F5F8002202211448B3
:1032D80002F068F84CB0BDE8F081102BE5D1062665
:1032E8001248F91D00EB4C00D2B208F093F8D7F859
:1032F8000230082507273146C4F80230DAE70626E7
:1033080097E8030020600948A1800122391D00EBDD
:103318004C0008F07FF8082507273146CAE700BFA8
:1033280000040242781D0020481C0020441200209E
:1033380010B50C4601462246044809F0C6F8012299
:103348000349044B0C801A7010BD00BF781D002083
:10335800741D0020441C00200D4B10B51A782AB1AA
:1033680000210C4A19701278692A0DD0FEF772FDF7
:10337800094CA4F80004FEF761FDA4F80204FEF766
:1033880063FDA4F8040410BDFFF75EFFEEE700BF7D
:10339800441C0020781D00204412002070B5244EE3
:1033A8003278EAB14FF0E0231C69054614F00404B2
:1033B80018D04FF47A71B1FBF2F21E4B1C68B4FBC3
:1033C800F2F4204600F064FD044648B90246294656
:1033D8004FF0FF3000F012FD174B20461D6070BD06
:1033E800012070BD00F0A2FD012817D002280BD0E3
:1033F8000028E6D14FF4FA5231780E4BB2FBF1F2C5
:103408001C68B4FBF2F4DCE74FF47A7231784FF4BD
:103418000043B2FBF1F2B3FBF2F4D2E74FF47A7255
:1034280031784FF4FA43B2FBF1F2B3FBF2F4C8E798
:10343800C401002000000020C801002010B50320AE
:1034480000F0CAFC04F04CFD03460C4A0C48126A12
:103458000C4902F00F02825C0420D3400B6000F09C
:1034680027FD0F20FFF79AFF10B10124204610BD59
:103478000446FEF775F8204610BD00BF000C024454
:1034880090FD000800000020034A044B11681B78D7
:103498000B441360704700BFA41E0020C401002025
:1034A800014B1868704700BFA41E0020002330B5E8
:1034B80083B00193002800F09C80856D0446002DA0
:1034C80000F09C80226893689D0005D5936823F0DE
:1034D800204323F03F0393609368D80019D45D4BD1
:1034E8005D481B6891689B09A0FB030321F010410C
:1034F8009B0921F03F0101335B0041F0805191604D
:103508000193019B2BB1019B013B0193019B002B74
:10351800F9D19368D9006FD40120A36D43F010034B
:10352800A365E36D0343E365936813F0040FA36D8C
:103538005BD1DB0659D4A36D23F4817343F00203F6
:10354800A3659368DD0708D4444B9B6813F0010F0B
:10355800434B9B6801D1D90763D5E568A36B94F801
:1035680020102B43A568012943EA0503657E43EA39
:10357800453343EA01434FD0A16A21B1E56A01F41A
:10358800787129430B43D568364929401943D160DE
:103598001369216B23F040630B43136193681B0786
:1035A80014D4D16894F83430257E21F480415B002E
:1035B80021F0020143EA85330B43D36094F83C3091
:1035C800012B36D0136923F0010313612369012B02
:1035D8001AD0136B23F00F031363A36D23F00303B7
:1035E80043F00103A36503B030BDA36D43F010039E
:1035F800A365012003B030BD002095E7FDF710FC5E
:10360800E56584F854505DE7116BE36921F00F011B
:10361800013B0B431363E0E7616A013943EA414325
:10362800AAE7114965688B6823F47C132B438B60E8
:1036380093E71169236C656C21F4FF6121F00401A3
:103648002B430B43A16C0B43E16C0B4343F0010389
:103658001361BBE700000020632D3E050080024295
:10366800008102420740F0FF00830242704700BF1A
:1036780008B5C06DFFF7FAFF08BD00BF704700BF6F
:10368800C36D10B59A6D12F0500F9A6D1DD119685F
:1036980042F400729A650A6812F0080FCA681BD0D3
:1036A80012F4406F0DD1CA6894040AD49A6D22F4BA
:1036B80080729A659A6DD10403D49A6D42F0010222
:1036C8009A651846FEF7EAFA10BDD2060AD4BDE894
:1036D80010401B6D9B6E18479007E7D51846FEF7FC
:1036E800DDFAF1E71846FFF7C9FF10BDC06D08B550
:1036F800836D43F040038365C36D43F00403C365E2
:10370800FFF7BCFF08BD00BF00222DE9F04182B0E1
:10371800019290F85420CD68012A00F02E810346CA
:1037280001201A6883F854009468640709D59A6DD3
:1037380042F020029A65002283F8542002B0BDE8C6
:10374800F0810868012800F0AD80AB4CA04200F081
:10375800A5804FF01F0C4C6802F130054FEA941E0B
:103768000EF00C0E04EA0C04C0F38460A0400CFABE
:1037780004FC55F80E4024EA0C0C4CEA000045F80D
:103788000E009068400737D5906808689468E60787
:1037980012D4CE68994CD2F8B05006F01807FC4005
:1037A800C0F31307044025EA07052C43C2F8B040CC
:1037B800934CA64200F09E80924908421AD0924C3F
:1037C800924DA168A84201F0E07673D0904DA842CE
:1037D80000F0D7808F4DA84200F0E2808E498842E1
:1037E80008D18E498A4205D0D2F8C81041F00101AB
:1037F800C2F8C81000209EE7946808682707C5D457
:1038080007248D68C0F30456B440C00DB5F1004FCD
:103818006FEA040400F0040002F1140700F0E480E9
:10382800B5403E5834402C433C50506920F000408D
:1038380050610868D1E90475042F8446D66802F1FE
:10384800600400F0F580C6F3C106760054F827C07E
:10385800B540734E00F0F8400CEA060606433543BF
:1038680045F0004544F827500D698E6954F8250045
:1038780020F08070304344F825000D7F0E69A5F1D3
:103888000105B5FA85F554F826006D0920F0007099
:1038980040EA456044F82600086877E7584CA54296
:1038A8007FF457AF5D4DD5F8C84044F00104C5F822
:1038B800C8404EE70D029DD458498A429AD1A26861
:1038C800584922F0E072324342F40002A2600A68CA
:1038D80055499209A1FB0212920901325200019244
:1038E800019A002A86D0019A013A0192019A002A87
:1038F800F9D17FE7002F62D090FAA0F4002C00F0F5
:10390800BD80B4FA84F6013606F01F05092D40F291
:10391800B58090FAA0F0B4FA84F5B40601263544CF
:1039280005F01F0504F0F84406FA05F52C430028B5
:1039380000F03F81B0FA80F56FF01D0603200135D5
:1039480005F01F0510FB0560000540F000702043DE
:103958000727C50D8E6805F0040502F1140C5CF804
:103968000540C0F30450864007FA00F024EA00003E
:1039780030434CF8050008681EE7022002B0BDE895
:10398800F081C8013FF536AF28498A427FF432AF4B
:10399800A26822F0E072324342F08072A26029E706
:1039A80049023FF527AF1D498A427FF423AFA26839
:1039B80022F0E072324342F48002A2601AE7012446
:1039C800800E013000F01F06800600F0F840B44079
:1039D800092E06EB460544EA000473D9A5F11E003A
:1039E800000540F00070B2E73D582C403C5050694B
:1039F80040F0004050611CE702003004FFFF0F0058
:103A080000007F400000088000830242000021C3BC
:103A180000002943000052C700005A4700800242B4
:103A280000F0FF0300000020632D3E0500810242E4
:103A3800156E156EC0F31306C5F38465002E45D1C7
:103A4800C0F38460854272D0556E556EC5F38465A7
:103A580085427ED0A568A56804F10807C5F384658A
:103A6800854200F08B80E568E56804F10C06C5F333
:103A78008464A04200F09780604687E690FAA0F43C
:103A8800002C00F09D80B4FA84F40134A40604F0FC
:103A9800F84490FAA0F5002D00F090800126B5FAC0
:103AA80085F5354405F01F0506FA05F52C4390FA0F
:103AB800A0F000287FD0B0FA80F5013505F01F0589
:103AC80005EB45052D0545EA040041E790FAA0F607
:103AD8001EB1B6FA86F6B54229D0556E556EC5F3B5
:103AE800846504F10807BE469CFAACF61EB1B6FA26
:103AF80086F6AE422FD0A568A568C5F3846504F1A3
:103B08000C06B0469CFAACFEBEF1000F03D0BEFA1C
:103B18008EFEAE4534D0E568E468C4F384649CFA4C
:103B2800ACF5002D3FF432AEB5FA85F0A1E7106E82
:103B380020F000401066D1F800C0506E556ECCF3EE
:103B480013066046C5F38465002ECAD1CCF38460A1
:103B58007EE704F1080E506E774620F0004050666C
:103B6800D1F800C0A068A568CCF313066046C5F379
:103B78008465002EC3D1CCF3846071E704F10C088E
:103B88003868464620F000403860D1F800C0E06848
:103B9800E468CCF313056046C4F38464002DBED1F9
:103BA800CCF3846065E7306820F000403060086836
:103BB800ECE50548CBE64FF4401584E7022575E7A8
:103BC8004FF0806465E700BF000050FE002370B529
:103BD80082B0019303689A68D2072CD49968274A5F
:103BE800044611422AD19A68254922F0004222F05F
:103BF8003F0242F001029A608B681B0229D4FFF74A
:103C08004FFC236805461A68D60714D41D4E9A68D7
:103C1800D00704D49A68324042F001029A60FFF754
:103C28003FFC431B022B236802D91A68D10705D52C
:103C38001A68D207EBD5002002B070BD0120A36D31
:103C480043F01003A365E36D43F00103E36502B09D
:103C580070BD0D4B0D4A1B689B09A2FB03239B09F2
:103C680001335B000193019B002BC8D0019B013BF2
:103C78000193019B002BF9D1C1E700BF3F000080F1
:103C880000830242C0FFFF7F00000020632D3E0535
:103C98004C4B2DE9F041D3F8088003689CB09D682F
:103CA80015F0040514D190F854300446012B0FD0B8
:103CB80040F221231646012208F01F0823FA08F3D0
:103CC800134080F8542007D180F85430012000E0D8
:103CD80002201CB0BDE8F0810F46FFF777FF0028EF
:103CE8004BD1A36D216823F4706323F0010343F4DF
:103CF8008073A365344B994244D0A36D23F4801399
:103D0800A365A36D1C2213F4805318BFE36D206DC7
:103D180018BF23F00603E36500232C4D05662C4DE0
:103D280045662C4D85660A6084F854304B6843F02C
:103D380010034B60CB6843F00103CB60036D1B0697
:103D480024D5436F002BC1D019680029BED001A823
:103D580000F0A2FC0028B9D1079B022B2FD0012B21
:103D680008BF7600206D2268436F40321B689E6052
:103D78001F61DA6000F08CFB13E084F854501CB02B
:103D8800BDE8F081B8F1000FBBD1B6E78369022B1B
:103D980013D0012B08BF760033463A46403100F075
:103DA800DFF82268936823F0004323F03F0343F0D1
:103DB800040393601CB0BDE8F081B600ECE7B600E0
:103DC800D0E700BF00830242008102428936000822
:103DD80079360008F53600084FF6FF0C064903024D
:103DE800CA6803F4E06302EA0C02134343F0BF63BA
:103DF80043F40033CB60704700ED00E01B4B00B587
:103E0800DB68C3F30223C3F1070EBEF1040F03F10D
:103E1800040C28BF4FF0040EBCF1060F1CD9A3F107
:103E2800030C4FF0FF3303FA0CF322EA03024FF0BE
:103E3800FF3303FA0EF321EA030303FA0CF31343E7
:103E48001B010028DBB20ADB00F1604000F561408D
:103E580080F800335DF804FB00229446E7E7044A43
:103E680000F00F00024413765DF804FB00ED00E05B
:103E7800FCEC00E0002807DB012300F01F01034AE7
:103E880040098B4042F82030704700BF00E100E055
:103E9800431EB3F1807F09D24FF0E0220020536126
:103EA8009061136943F00303136170470120704761
:103EB800042813D8DFE800F02A1A031213004FF081
:103EC800E0210B69184A23F004030B61D2F8E430AF
:103ED80023F00C0343F00803C2F8E43070474FF0B6
:103EE800E022136943F00403136170474FF0E021A7
:103EF8000B690D4A23F004030B61D2F8E43023F078
:103F08000C0343F00403C2F8E43070474FF0E0219B
:103F18000B69054A23F004030B61D2F8E43023F05F
:103F28000C03C2F8E4307047000C02444FF0E02361
:103F38001B695B070FD4094BD3F8E40000F00C00B1
:103F4800042806D0A0F10800B0FA80F0400940002B
:103F58007047012070470420704700BF000C0244DE
:103F6800002842D0F0B490F84C40012C3AD00125FA
:103F780090F8544080F84C50AC422BD14FF0020CD2
:103F880000254FF4FE47046880F854C08565A56C89
:103F98009BB24FEA154C4FEA0C4C4CEA0303466EB1
:103FA800A364E760E1642265636943F4BA4363612B
:103FB8001EB1636943F400736361036F1BB16369E6
:103FC80043F4005363616369002043F001036361B4
:103FD800F0BC70470023402280F84C308265F0BC6A
:103FE800012070470220F0BC70470120704700BFD5
:103FF800034628B190F85420022A03D02022826573
:104008000120704704211A6883F85410536900206E
:1040180043F400530B435361704700BF0121036809
:1040280010B5C3F30B02044623F47F6020F00F00A1
:10403800503AC068C2F3C4129140014200F0A58012
:104048001A69520509D55A69500506D54FF4806298
:10405800DA60A26D42F00102A2651A69110509D55C
:104068005A69120506D54FF40062DA60A26D42F073
:104078000202A2651A69D00409D55A69D10406D585
:104088004FF48052DA60A26D42F00402A2651A6908
:10409800520409D55A69500406D54FF48042DA60B3
:1040A800A26D42F00802A2651A6991050AD55A69FB
:1040B800920507D54FF40071626ED96012B120469F
:1040C800904723681A69900411D55A6991040ED54E
:1040D8004FF40052DA6094F85420042A3DD00521A8
:1040E800226F84F8541012B12046904723681A6949
:1040F800D00518D55A69D10515D5226D120645D5B2
:10410800DA6F32B99A6C22B90122616F84F85420AF
:104118000A734FF440700021226ED86084F84C1066
:104128000AB120469047A36D002B2ED022680121AA
:104138005369206D43F0020353610022030648BF10
:10414800636F84F8541048BF1973A36E84F84C2029
:10415800DBB12046BDE81040184701215A69206D9F
:1041680022F400525A615A6942F002025A61020668
:1041780084F8541003D50022606F01739A640022FA
:10418800E36E84F84C20002BE3D110BD9A6C002A12
:10419800BFD1012284F85420BBE700BF90F8540037
:1041A800704700BFD0B1CB0616D54FF0010C03689D
:1041B80001F01101C3F30B0223F47F6323F00F0313
:1041C800503A1129C2F3C41259680CFA02F20CBF12
:1041D8000A4321EA02025A60002070470120704712
:1041E8002DE9F0438668D2F8008000293DD04FF6CB
:1041F800FC7701EA0705002E4FD0002D50D04FF074
:10420800000C046861464FEA144E04EA07034FEABB
:104218000E4E4FEA880906E0AB4222D054F80E4011
:10422800194604EA07030CF1010CB44509EB030431
:10423800F2D19D4202D00120BDE8F0830468240C2D
:104248002404234353F82800214396605160D36027
:1042580020B14FF6FC731840204310610020BDE8E0
:10426800F0839D426646E6D1E8E70468EEB14FF672
:10427800FC77012E04EA0703E1D00120250C2D0468
:104288004FEA880E0EEB030151F805C00130B04229
:1042980019460CEA0703F5D1D1E731463346C8E79A
:1042A80029462B462E460468C9E731463346C6E7F9
:1042B80070B50446FFF7F4F8002C00F0BC80022229
:1042C8000021236884F84C1084F854205A69054664
:1042D80042F006025A6106E0FFF7E2F8431B052B9D
:1042E80000F2A48023685A69D207F5D4674AD4E952
:1042F8000E019342656C40EA010000F09E8002F1D5
:104308008052934200F0998002F1704280329342C9
:1043180000F0938002F18052934200F08E8002F107
:1043280070428032934200F0888002F180529342BA
:1043380000F0838002F17042803293427DD002F116
:104348008052934279D002F170428032934274D005
:1043580002F18052934270D002F17042803293424F
:104368006BD002F18052934267D002F170428032E2
:10437800934279D002F18052934275D002F1704293
:104388008032934270D002F1805293426CD002F195
:10439800704202F5486293424FD002F18052934234
:1043A8004BD002F170428032934246D002F18052E3
:1043B800934242D002F17042803293423DD002F1E2
:1043C8008052934239D002F170428032934234D005
:1043D80002F18052934230D002F17042803293420F
:1043E8002BD002F18052934227D002F170428032E2
:1043F800934222D002F1805293421ED002F17042C1
:104408008032934230D002F1805293422CD002F194
:1044180070428032934227D002F18052934223D0D7
:104428005A69002122F4430202430DE010220323BB
:10443800A26584F85430012070BD00215A69266CA9
:1044480022F44302304302435A6119645D6499645B
:10445800D964196500220121A56CDA67A26584F880
:1044680054101046256570BD5A69002122F4430C8A
:10447800226C024342EA0C025A61002219645D640C
:104488009964D96419655A659A65E3E75000024052
:10449800002856D0416F002953D010B490F85430FA
:1044A8000268012B54695FFA83FC04D0BCF1020F47
:1044B8000ED1E3030CD590F85430012BDCB210D0A8
:1044C8000020536943F0010353615DF8044B7047C2
:1044D8000023402280F84C3082655DF8044B0120AF
:1044E800704790F84C30012B2DD000234FF0020C70
:1044F80080F84C4080F854C081F80CC083650B618B
:104508005369446E43F4BA4353611CB1536943F48D
:1045180000735361036F1BB1536943F40053536134
:104528000B680A481C6A0A4914F0020F4FF6FC741B
:1045380018BF0146180C234000040B431060D367D2
:10454800BEE7012070470220BFE700BF000001FE60
:10455800000001F8002859D0002957D040F2FF2266
:10456800F0B54369C46945682343C46B2A402343B3
:104578000469056B234384692A4323430468C56897
:10458800A6060B603DD5866AC76A06F1FF3C466AF7
:104598004FEA0C5C06F1FF3E866B0CF07C7C4FEA20
:1045A8000E1E3E430EF47C7E4CEA060C4CEA0E0CC2
:1045B8004CEA0303B5F5806F0B6065D0B5F5007F55
:1045C80008BF42F40072436B456C1A434A6045B118
:1045D800836C066C1B0403F47C1335432B43134391
:1045E8004B60B0F8682014F002038A60D0E918C75D
:1045F8000ED144F4A0640020C1E903C74B610C62EA
:10460800F0BDB5F5806F4A60D8D1DCE7012070476E
:10461800C36C466D5D1E1E4B44F4E06403EA05431B
:10462800056D1343002D826DB8BF43F08053C06DF4
:10463800002EB8BF43F00053002AB8BF43F08043B0
:1046480000288B60BCBF43F000438B60002DB8BFCF
:104658006D42104B002EB8BF764203EA0643C5F3FD
:104668000C051D430023002AB8BF52420028B8BFDA
:10467800404292B242EA0042C1E903C700204D61BC
:104688008A61CB610C62F0BD42F480629BE700BF97
:104698000000FF070000FF1F002877D0002975D011
:1046A80030B40C6A0B68E2B2026003F008020261DF
:1046B80003F40022426103F00302826103F44032F2
:1046C800C261C3F3051201324262C3F305520132DB
:1046D800826203F04022C2622D4A1A4082634A680D
:1046E80003F4C0539505C36346BF4FF400731D46DA
:1046F800D3B2436002F40063836002F4404303646E
:1047080002F040734364C2F3054383648B6858BF67
:1047180002F4806502F0404202639AB2C560826684
:1047280014F00204D1E903520AD10123C0E9185256
:10473800C0E91444C0E91644C364002030BC704783
:10474800C0E91852C3F30A444A690134C2F30C059C
:10475800C464C2F30C42DC00C0E9145201D56D42B6
:1047680005659D0044BF524242658A695C0091B26A
:104778004FEA1242C0E9161244BF49428165002B34
:10478800DBDA30BC5242C265002070470120704716
:104798000020000C002800F090802DE9F04115461B
:1047A80086B0002A46D043690446012B40D00368EE
:1047B8000E46002B42D00A4322EA0302B2F5803F9C
:1047C80047D293F82020002941D091F820108A423E
:1047D8002ED12A6AD0B288422AD102F00202002AD7
:1047E8004FF000014FF002023548DFF8D8802273FD
:1047F8000EBF0527072780462161002B3FD05EB3F7
:104808003146204601AA0197FFF7EAFC002851D15A
:10481800A268039B93423CD056F8273045F82730CE
:104828004FF6FC731D4045EA080546F827501CE082
:1048380004232361012006B0BDE8F081A1B322EA78
:104848000102B2F5803F04D291F82010C1E7114669
:10485800BFE705232361EDE74FF6FC72134043EAF7
:104868000803A26845F8273025600132002301219A
:1048780018462361A260217306B0BDE8F081B6B185
:104888004FF6FC732B4043EA0803266046F82730AE
:10489800ECE76368002BC3D04FF6FC710B4043EA8A
:1048A800080345F82730BBE702230373016101229F
:1048B8002560DBE706232361BCE70120704700BFC2
:1048C800000001FE000001F840B1016800293BD05A
:1048D80043682BB199423BD0042303610120704700
:1048E8004269012AF8D02DE9F041022707730361D4
:1048F8000B6A1B4A3B401B4D8468002B4FEA11464C
:104908000BBF9046A84605270727360414B34FF671
:10491800FC7C012C01EA0C0E734608D0012206EB40
:104928008705EB580132944203EA0C03F9D11E4380
:104938004EEA080346F82730002201230261037378
:1049480041600020BDE8F081022303610120704727
:10495800002070474FF6FC7E01EA0E0EE8E700BF24
:10496800000001F8000001FE034600283DD00029A0
:104978003BD090F8542090F85400D2B202282FD09F
:10498800052A2DD00A7B022A3FD01A682048824285
:104998002DD000F18050824229D000F17040803043
:1049A800824224D000F18050824220D000F1704031
:1049B80000F5786082421AD000F18050824216D009
:1049C80000F170408030824211D000F18050824264
:1049D8000DD00A68126A920709D503230B6104E017
:1049E80040210022996583F84C2001207047186DFA
:1049F8004A68812804D02AB1042301200B6170473A
:104A0800002AF9D000205967704701230B61ECE7B1
:104A18005003024003681869C0F30740704700BF9D
:104A2800002800F015812DE9F04790F85C30044625
:104A380003F0FF02002B73D02268936923F0100360
:104A48009361FEF72DFD054604E0FEF729FD401BA6
:104A58000A285BD823689A691207F6D49A6942F043
:104A680001029A61FEF71CFD064604E0FEF718FDF8
:104A7800801B0A284AD82568AB69DB07F6D5AB69DD
:104A8800794A43F002039542AB6100F0CF80237C62
:104A9800012BAB690CBF23F0400343F04003AB612B
:104AA800637C012BAB690CBF43F4804323F4804340
:104AB800AB61A37C012BAB690CBF23F4805343F497
:104AC8008053AB61AB69A16823F440730B43AB61BE
:104AD800AB69E26823F0A403AB612B69012A23F0D8
:104AE80010032B6121D022B3022AAB6900F0B280F7
:104AF80043F08003AB612B69032A43F010032B6159
:104B080017D1AB6943F02003AB6112E00322236E97
:104B1800012043F00103236684F85C20BDE8F08798
:104B280080F85D20FCF780FA86E7AB6943F0040360
:104B3800AB61D4E90623013B013A1B0243EA426315
:104B4800226AB1F5407F02F1FF3243EA020362694B
:104B580002F1FF3243EA0243EB610ED1D4E90B13B1
:104B6800A26A013B01391B01013A43EA01231343BD
:104B7800626A013A43EA0243EB603C4B3C4F9D4278
:104B880003F51B6308BF1F46A3F51873394908BF0F
:104B980019463948394A18BF864600F1D8000CBF73
:104BA80092468446A2F5E47200F50E7008BF964658
:104BB800334EDFF8D49002F1D80204BF8146944600
:104BC80002F5E4721CBF1A46B246D5F8C080E06B05
:104BD800A66B48EA0000C5F8C000D5F8800021643B
:104BE80020F4F818606B48EA0040C5F88000D5F852
:104BF8008000C4F8449020F0706040EA0660C5F870
:104C08008000481C9042C4E912ECC4E9147A11D916
:104C1800002143F8041B9342FBD30023012223669F
:104C280084F85C201846A365BDE8F0876268154BD8
:104C38001A602CE79FED0A7B531E5B1A9B08013311
:104C48005B0801EBC303A1EC027B8B42FBD1E4E7D9
:104C58000120704743F02003AB616AE7AFF300809F
:104C6800000000000000000000A4004000A8004070
:104C780060AE004000AC0040B0AC0040C8B100409D
:104C880078AE004000A5004070AC004090F85C2071
:104C98000346013A012A05D91A6E012042F00202A0
:104CA8001A66704770B4D1E902250E6808694C6924
:104CB8009207496856B942EAC56222431B6C42EA28
:104CC800004243F82120002070BC70475B6C40EA2A
:104CD800457043F83100224303EBC103002070BC48
:104CE8005A607047844690F85C00012807D0DCF8C9
:104CF8006030012043F00403CCF86030704710B4F2
:104D08000198DCF8004040EA4303D4F8800043EA05
:104D1800820242EA011120F03F030B430020C4F84D
:104D280080305DF8044B704790F85C200346012AF8
:104D380005D01A6E012042F004021A66704702225A
:104D4800002110B4046880F85C20A269084622F0AB
:104D58000102A2615DF8044B19667047F0B590F83E
:104D68005C308646022B0BD10568D5F8C43013F4A5
:104D7800001C0BD0036E43F4007303660120F0BDE2
:104D8800036E43F0080303660120F0BDD5F8C46044
:104D98004B680C6988680F68C6F30146002B37D149
:104DA800044344EA8744D1E906030343486906EB10
:104DB800C6070343086A43EA0063C86843EA004336
:104DC800DEF8540040F8374000EBC7004360134C4E
:104DD800CB68E35CA3B19378D7781B0443EA0763F5
:104DE800177804323B4312F8037C43EA072300EBAD
:104DF8000C07BB60CB680CF1040CE35C9C45EAD360
:104E08000123B340C5F8CC300020CEF85830F0BDAF
:104E18003C43044344F08044C5E700BF0CFE00084F
:104E28002DE9F04190F85C40022C0DD1402905682D
:104E380010D0D5F8984027076FD1036E43F48073DC
:104E480003660120BDE8F081036E43F008030366A2
:104E58000120F7E7D5F890402707EED0D5F8906005
:104E6800C6F30064F60148BFD5F88040D5F89070C5
:104E780048BFC4F34024C7F3012707EB0408846C38
:104E880008EBC80604EBC604266806F080465660A0
:104E9800002E5ED12668C6F38A461660266806F09C
:104EA80000569660266806F000461661A688D66108
:104EB800B4F806C00CF00F0CC2F80CC0666806F413
:104EC80080165661666806F400169661E67906F063
:104ED8007F061662224E676816F80CE04FEAD77C08
:104EE800C2F824C0BEF1000F10D0013B04F1070E38
:104EF800F4461EF8015FACF1060C03F8015FD568B3
:104F0800ACEB040C755D6545F2D80568402924D0E2
:104F1800C5F89C800020BDE8F081D5F89860C6F3FC
:104F28000064F60148BFD5F88040D5F8987048BFAE
:104F3800C4F30024C7F3012707EB0408C46C08EB8B
:104F4800C80604EBC604266806F080465660002EA4
:104F5800A0D0266826F060469FE7C5F89480D9E778
:104F68000CFE0008034690F85C000138012805D9BA
:104F78001A6E012042F002021A6670471B6870B46C
:104F880011F00705986D01F0380409D0C60707D459
:104F9800DD6D45F00105DD6554B184072FD407E0C8
:104FA80004B386071ED4DE6D46F00106DE6525BB18
:104FB80011F4E07F01D0460721D411F4F05F01D04D
:104FC80005071CD411F4604F01D0C40617D411F49E
:104FD800403F01D0860612D411F47C0F13D0450649
:104FE8000DD410E011F4E07F21D046071FD4DE6D08
:104FF80046F00106DE65002DCED0C507CCD5D86DAC
:1050080040F00200D8650C0604D5D3F8DC00104344
:10501800C3F8DC00C80504D5D3F8E0000243C3F8A0
:10502800E0205A6D002070BC0A435A65704711F49D
:10503800F05F01D00607DAD511F4604F01D0C6063B
:10504800D5D511F4403F01D08606D0D511F47C0F98
:10505800D1D04606CBD5002D9ED0CEE7704700BFF5
:10506800704700BF704700BF704700BF704700BF60
:10507800704700BF704700BF704700BF704700BF50
:10508800704700BF2DE9F84F036804461A6D596D43
:1050980002EA010A1A6D596D0AF4E05A02EA010996
:1050A8001A6D596D1E6D02EA01085A6D1F6D164082
:1050B8005A6DD3F854B01D6D1740690609F00709F9
:1050C80008F0380806F4710607F4602702D51BF0CB
:1050D800400F73D1EA0502D51BF4807F5DD1BAF188
:1050E800000F4AD1B9F1000F35D1B8F1000F3CD10A
:1050F800AB0502D51BF4007F75D1280602D51BF03D
:10510800800F78D1A90402D51BF4005F5BD12A0473
:1051180002D51BF4004F5ED16B040AD51BF4804FF7
:1051280007D04FF4804223681A65236E43F080034A
:1051380023664FB926B123681E65236E3343236661
:10514800236E2BBBBDE8F88F2368394620461F65C0
:10515800FFF796FFEEE7236849462046C3F85090CC
:10516800FCF7D2FEB8F1000FC2D0236841462046B2
:10517800C3F85080FFF774FFBAE72368514620460A
:10518800C3F850A0FFF76AFFB9F1000FADD0E2E70E
:105198002046FFF773FFBDE8F88F4FF4807223684D
:1051A8002046D3F8D8C0D3F8E0101A650CEA0101FC
:1051B800FFF75CFFBAF1000F94D0DEE740221A65D2
:1051C800FFF75AFF86E74FF40052236820461A6516
:1051D800FFF74EFF9BE74FF40042236820461A650D
:1051E800FFF748FF98E74FF40072236820461A65D6
:1051F800FFF738FF81E7802223682046D3F8D4C020
:10520800D3F8DC101A650CEA0101FFF72DFF79E7E6
:105218002DE9F04F0C6883B0002C00F0BB805F4A8A
:10522800002302EA90224FF001085D4E019264E0EB
:105238000327D0F800B04FEA430C07FA0CF72BEA23
:10524800070BFF4302F0030A09F1FF390AFA0CFAC7
:105258004AEA0B0AB9F1010F0097C0F800A040F222
:105268008380032A45D0C568009F2F408D6805FAC2
:105278000CF53D43C560D5003BD523F0030707F186
:10528800884A0F2703F00305ED0007FA05F9019F87
:105298000AF5083A07FA05F56FEA0E07DAF860C06A
:1052A80012F4801F2CEA090C45EA0C05CAF8605074
:1052B80035680CBF3D404EEA05053560756812F447
:1052C800001F0CBF3D404EEA05057560D6F88450B6
:1052D80012F4003F0CBF3D404EEA0505C6F8845065
:1052E800D6F88050D20354BF3D404EEA0505C6F8B3
:1052F8008050013334FA03F24CD008FA03F515EA6A
:10530800040EF6D04A6822F01009B9F1020F8FD1C5
:105318004FF00F0A0F694FEAD30903F0070C00EBAF
:1053280089094FEA8C0C07F00F0707FA0CF70AFAFD
:105338000CFCD9F820A02AEA0C0C47EA0C07C9F89B
:1053480020700327D0F800A04FEA430C07FA0CF7A7
:105358002AEA070AFF4302F0030909FA0CF949EAA5
:105368000A090097C0F80090D0F808A00AEA070ACE
:10537800CF6807FA0CF949EA0A09C0F80890D0F88A
:10538800049029EA0509C2F300159D4045EA09057C
:10539800456066E703B0BDE8F08F00BF7F7F2F0050
:1053A800002002440AB1816170478162704700BFE2
:1053B800436901EA030221EA030141EA02418161EA
:1053C800704700BF002855D038B590F841300446E2
:1053D80003F0FF02002B48D0D4E90032242184F8DE
:1053E8004110196822F0706221F00101E568A06897
:1053F80019601A619A68012D22F400429A6009D056
:1054080040F40440022D986007D15A6842F40062C3
:105418005A6006E040F4004098605A6822F400623E
:105428005A6000214FF0200C5A6842F0007242F492
:1054380000425A60DA6822F40042DA60D4E90420B3
:105448000243A06942EA0022DA60D4E90720024355
:105458001A601A68084642F001021A60616484F80A
:1054680041C0216384F8421038BD80F84020FBF722
:1054780037FFB1E70120704770B490F84140202C05
:1054880036D10568AC6914F4004431D190F840C0B5
:10549800BCF1010F2CD04262212280F84120102259
:1054A80080F84220174A44644385C262438D164AF5
:1054B8009BB2FF2B42631ED84FF00074428D93B20B
:1054C800D2B212040385C1F30903134300226968A9
:1054D8000E4E31400B43234343F400536B6080F876
:1054E80040202B68104643F0F2032B6070BC7047D5
:1054F800022070BC70474FF47F02FF234FF0807486
:10550800E0E700BF0000FFFF455B0008009800FCD3
:1055180070B490F84140202C36D10568AC6914F479
:10552800004431D190F840C0BCF1010F2CD0426248
:10553800222280F84120102280F84220174A446431
:105548004385C262438D164A9BB2FF2B42631ED825
:105558004FF00074428D93B2D2B212040385C1F3A6
:1055680009031343002269680E4E31400B4323435D
:1055780043F410536B6080F840202B68104643F0CA
:10558800F4032B6070BC7047022070BC70474FF466
:105598007F02FF234FF08074E0E700BF0000FFFFA9
:1055A800455B0008009800FC70B5844690F84100FF
:1055B800BDF8145020284FD10498002846D0002D5B
:1055C80044D0DCF80040A06910F4004044D19CF8B5
:1055D80040E0BEF1010F3FD04FF0010E8CF840E0E3
:1055E8004FF0210E8CF841E04FF0400EACF8280047
:1055F8008CF842E0CCF844001B48ACF82A50049ED2
:10560800CCF82C001948012BCCF83400CCF82460D5
:10561800CCF84C10D0B221D0120AA262CCF85000BB
:10562800C1F30902DBB2606842EA0343104A024050
:105638000020134343F0807343F4005363608CF8F5
:105648004000236843F0F203236070BD4FF40073F9
:105658000120CCF8443070BD022070BD4FF0FF32FD
:10566800A062CCF85020DBE70000FFFF515D000886
:10567800009800FC70B5844690F84100BDF81450BD
:1056880020284BD10498002842D0002D40D0DCF8C7
:105698000040A06910F4004040D19CF840E0BEF101
:1056A800010F3BD04FF0010E8CF840E04FF0220E76
:1056B8008CF841E04FF0400E8CF842E0CCF8440002
:1056C8001A48ACF82A50049ECCF82C001848012B34
:1056D800CCF83400CCF82460CCF84C10D0B21FD0F1
:1056E800120AA262CCF85000C1F30902DBB260686A
:1056F80042EA03430F4A02400020134343F4005395
:1057080063608CF84000236843F0F203236070BDA7
:105718004FF400730120CCF8443070BD022070BDF6
:105728004FF0FF32A062CCF85020DDE70000FFFF09
:10573800515D0008009800FC0268436B916912688B
:1057480003B11847704700BF704700BF704700BFDC
:105758000022016808B50B6880F842205A0426D553
:105768000B6823F480430B6090F84130292B28D034
:1057780090F841302A2B00D008BD4FF0280C222386
:1057880080F841C0036390F84130002203EA0C031B
:10579800634514BF6FF0F40C6FF0440C0B6803EA18
:1057A8000C030B6080F84020FFF7D0FF08BD1B04F6
:1057B800DAD50B6823F400430B6090F84130292BAD
:1057C800D6D14FF0280C212380F841C0036390F80C
:1057D8004130002203EA0C03634514BF6FF0F20C5A
:1057E8006FF0420C0B6803EA0C030B6080F8402052
:1057F800FFF7AAFF08BD00BF704700BF70B5046877
:10580800C368A169A269022B4FEA1242A5688446BF
:10581800E668C1F3004102F0FE020FD182EAD51317
:1058280013F00603C5F3090206D1856C01358564BA
:10583800856C022D0CD070BD06F0FE020025236891
:1058480023F0B80323608CF84050FFF7D5FF70BDF4
:1058580008258364E56180F84030FFF7CDFF70BD0F
:10586800704700BF704700BF704700BFC06D08B5E4
:10587800836B0BB10022DA66C36B0BB10022DA66C8
:1058880090F84130602B4FF0000305D0036380F897
:105898004030FFF7E7FF08BD202280F8403080F84D
:1058A80041200363FFF7E0FF08BD00BF70B5002586
:1058B800554B90F8412080F84250C3624585436CAF
:1058C800283A0B43022A43640446036863D890F8D5
:1058D800411090F8412001F02801282902F02802FF
:1058E80014BF6FF0F6006FF04600282A18BF6FF05B
:1058F800F60028251A68454902401A6084F8415084
:10590800A06B226B616318B1112A14D0212A12D01E
:10591800E06B18B1122A24D0222A22D094F8413000
:10592800602B4FF0000365D02046236384F8403095
:10593800FFF798FF70BD1A68510456D4FEF72EFC85
:105948000128EBD00023A06B314AC26684F84030AE
:10595800FEF74EFB0028EDD0A06BBDE87040C36E8B
:1059680018471A68120403D51A6822F400421A600C
:10597800FEF714FC0128D1D00023E06B244AC2664C
:1059880084F84030FEF734FB0028D3D0E06BBDE844
:105998007040C36E184790F8412090F841201A686B
:1059A80022F0FE021A609A69920748BF9D629A69BE
:1059B800D60703D49A6942F001029A6194F841200B
:1059C800602A10D0202284F841209A6995060AD5C9
:1059D8009A69D00605D51022DA61626C42F0040299
:1059E80062642022DA6100218AE71A6822F4804280
:1059F8001A60A3E72022204684F8412084F840302A
:105A08002363FFF731FF70BD0000FFFF5D620008F0
:105A1800755800082022036810B5DA6190F8412013
:105A280082B0212A51D090F84120222A35D05A68D4
:105A3800404C224000245A603F4A4463C262CA066E
:105A480005D51022DA61426C42F00402426490F8F3
:105A58004120602A32D09A69910744BF00229A6295
:105A68009A69D20703D49A6942F001029A61436C99
:105A780090F84120602A0AD04BB990F84120212A99
:105A880043D090F84120222A30D002B010BD416C9A
:105A980002B0BDE81040FFF709BF90F841401A680E
:105AA80004F02804282C14BF6FF0F40C6FF0440C99
:105AB800122402EA0C021A600463B8E74C07CAD53C
:105AC8005A6AD2B20192019AC5E790F841401A6821
