:020000040800F2
:1000000000400420C918000875150008791500087B
:100010007D150008811500088515000819190008CC
:10002000000000000000000000000000891500082A
:100030008D150008000000009115000895150008B6
:1000400019190008191900081919000819190008C8
:1000500019190008191900081919000819190008B8
:1000600019190008191900081919000819190008A8
:100070001919000819190008191900081919000898
:100080001919000819190008191900081919000888
:100090001919000819190008191900081919000878
:1000A00019190008191900081919000899150008EC
:1000B0001919000819190008191900081919000858
:1000C0001919000819190008191900081919000848
:1000D000000000001919000819190008A5150008EA
:1000E0001919000819190008191900081919000828
:1000F0001919000819190008191900081919000818
:1001000019190008B1150008BD15000819190008D3
:1001100019190008D1150008DD1500081919000883
:1001200019190008191900081919000819190008E7
:1001300019190008191900081919000819190008D7
:1001400019190008191900081919000819190008C7
:1001500019190008191900081919000819190008B7
:100160000000000000000000E9150008191900084F
:100170001919000819190008191900081919000897
:10018000F515000801160008191900080000000004
:100190000000000019190008000000000000000025
:1001A00000000000000000001919000819190008DB
:1001B0001919000819190008191900081919000857
:1001C00019190008191900080000000000000000BB
:1001D00000000000000000000000000019190008E5
:1001E000191900081919000800000000000000009B
:1001F0001919000819190008191900080000000051
:10020000000000001919000819190008000000007A
:10021000000000001919000800000000191900086A
:10022000191900080000000000000000191900085A
:100230001919000800000000000000000000000084
:100240000000000000000000000000001919000874
:040250001919000870
:1002580010B5054C237833B9044B13B10448AFF3F8
:1002680000800123237010BD8004002000000000DE
:10027800D0FC000808B5034B1BB103490348AFF392
:10028800008008BD0000000084040020D0FC0008A5
:10029800034613F8012B002AFBD1181A01387047BE
:1002A80081F0004102E000BF83F0004330B54FEA1F
:1002B80041044FEA430594EA050F08BF90EA020F8C
:1002C8001FBF54EA000C55EA020C7FEA645C7FEA1F
:1002D800655C00F0E2804FEA5454D4EB5555B8BF42
:1002E8006D420CDD2C4480EA020281EA030382EAB3
:1002F800000083EA010180EA020281EA0303362D45
:1003080088BF30BD11F0004F4FEA01314FF4801C17
:100318004CEA113102D0404261EB410113F0004F29
:100328004FEA03334CEA133302D0524263EB4303E0
:1003380094EA050F00F0A780A4F10104D5F1200E7E
:100348000DDB02FA0EFC22FA05F2801841F10001D9
:1003580003FA0EF2801843FA05F359410EE0A5F1AD
:1003680020050EF1200E012A03FA0EFC28BF4CF0DE
:10037800020C43FA05F3C01851EBE37101F0004594
:1003880007D54FF0000EDCF1000C7EEB00006EEBA1
:100398000101B1F5801F1BD3B1F5001F0CD349082B
:1003A8005FEA30004FEA3C0C04F101044FEA445282
:1003B80012F5800F80F09A80BCF1004F08BF5FEA09
:1003C800500C50F1000041EB045141EA050130BDE9
:1003D8005FEA4C0C404141EB0101013C28BFB1F5FB
:1003E800801FE9D291F0000F04BF01460020B1FA46
:1003F80081F308BF2033A3F10B03B3F120020CDA19
:100408000C3208DD02F1140CC2F10C0201FA0CF0F6
:1004180021FA02F10CE002F11402D8BFC2F1200C5B
:1004280001FA02F120FA0CFCDCBF41EA0C01904011
:10043800E41AA2BF01EB0451294330BD6FEA04045A
:100448001F3C1CDA0C340EDC04F11404C4F1200245
:1004580020FA04F001FA02F340EA030021FA04F357
:1004680045EA030130BDC4F10C04C4F1200220FAAE
:1004780002F001FA04F340EA0300294630BD21FAEC
:1004880004F0294630BD94F0000F83F4801306BFB2
:1004980081F480110134013D4EE77FEA645C18BFA6
:1004A8007FEA655C29D094EA050F08BF90EA020F3D
:1004B80005D054EA000C04BF1946104630BD91EA35
:1004C800030F1EBF0021002030BD5FEA545C05D138
:1004D8004000494128BF41F0004130BD14F5800477
:1004E8003CBF01F5801130BD01F0004545F0FE41EB
:1004F80041F470014FF0000030BD7FEA645C1ABF20
:10050800194610467FEA655C1CBF0B46024650EA56
:10051800013406BF52EA033591EA030F41F4002182
:1005280030BD00BF90F0000F04BF0021704730B508
:100538004FF4806404F132044FF000054FF00001DD
:1005480050E700BF90F0000F04BF0021704730B59E
:100558004FF4806404F1320410F0004548BF404273
:100568004FF000013EE700BF42004FEAE2014FEAC8
:1005780031014FEA02701FBF12F07F4393F07F4FA3
:1005880081F06051704732F07F4208BF704793F0A6
:100598007F4F04BF41F40021704730B54FF46074B9
:1005A80001F0004521F000411CE700BF50EA0102BC
:1005B80008BF704730B54FF000050AE050EA010265
:1005C80008BF704730B511F0004502D5404261EBD5
:1005D80041014FF4806404F132045FEA915C3FF416
:1005E800D8AE4FF003025FEADC0C18BF03325FEAB3
:1005F800DC0C18BF033202EBDC02C2F1200300FA64
:1006080003FC20FA02F001FA03FE40EA0E0021FA88
:1006180002F11444BDE600BF70B54FF0FF0C4CF476
:10062800E06C1CEA11541DBF1CEA135594EA0C0F28
:1006380095EA0C0F00F0DEF82C4481EA030621EA63
:100648004C5123EA4C5350EA013518BF52EA03359E
:1006580041F4801143F4801338D0A0FB02CE4FF050
:100668000005E1FB02E506F00042E0FB03E54FF080
:100678000006E1FB03569CF0000F18BF4EF0010E78
:10068800A4F1FF04B6F5007F64F5407404D25FEA74
:100698004E0E6D4146EB060642EAC62141EA555127
:1006A8004FEAC52040EA5E504FEACE2EB4F1FD0C69
:1006B80088BFBCF5E06F1ED8BEF1004F08BF5FEAE7
:1006C800500E50F1000041EB045170BD06F0004699
:1006D80046EA010140EA020081EA0301B4EB5C0446
:1006E800C2BFD4EB0C0541EA045170BD41F480113E
:1006F8004FF0000E013C00F3AB8014F1360FDEBF63
:10070800002001F0004170BDC4F10004203C35DA3E
:100718000C341BDC04F11404C4F1200500FA05F3C1
:1007280020FA04F001FA05F240EA020001F0004262
:1007380021F0004110EBD37021FA04F642EB0601D8
:100748005EEA430E08BF20EAD37070BDC4F10C0402
:10075800C4F1200500FA04F320FA05F001FA04F2C6
:1007680040EA020001F0004110EBD37041F10001B2
:100778005EEA430E08BF20EAD37070BDC4F12005BD
:1007880000FA05F24EEA020E20FA04F301FA05F225
:1007980043EA020321FA04F001F0004121FA04F2CD
:1007A80020EA020000EBD3705EEA430E08BF20EA9D
:1007B800D37070BD94F0000F0FD101F000464000D7
:1007C80041EB010111F4801F08BF013CF7D041EA59
:1007D800060195F0000F18BF704703F0004652005D
:1007E80043EB030313F4801F08BF013DF7D043EA2E
:1007F8000603704794EA0C0F0CEA135518BF95EAE4
:100808000C0F0CD050EA410618BF52EA4306D1D16A
:1008180081EA030101F000414FF0000070BD50EA89
:10082800410606BF1046194652EA430619D094EA13
:100838000C0F02D150EA013613D195EA0C0F05D1FD
:1008480052EA03361CBF104619460AD181EA030151
:1008580001F0004141F0FE4141F470014FF0000009
:1008680070BD41F0FE4141F4780170BD70B54FF0A4
:10087800FF0C4CF4E06C1CEA11541DBF1CEA135524
:1008880094EA0C0F95EA0C0F00F0A7F8A4EB050406
:1008980081EA030E52EA03354FEA013100F08880FD
:1008A8004FEA03334FF0805545EA131343EA1263C6
:1008B8004FEA022245EA111545EA10654FEA00267B
:1008C8000EF000419D4208BF964244F1FD0404F534
:1008D800407402D25B084FEA3202B61A65EB030590
:1008E8005B084FEA32024FF480104FF4002CB6EB4D
:1008F800020E75EB030E22BFB61A754640EA0C00CD
:100908005B084FEA3202B6EB020E75EB030E22BF0C
:10091800B61A754640EA5C005B084FEA3202B6EB4D
:10092800020E75EB030E22BFB61A754640EA9C000C
:100938005B084FEA3202B6EB020E75EB030E22BFDC
:10094800B61A754640EADC0055EA060E18D04FEA9A
:10095800051545EA16754FEA06164FEAC30343EA3A
:1009680052734FEAC2025FEA1C1CC0D111F4801F07
:100978000BD141EA00014FF000004FF0004CB6E700
:1009880011F4801F04BF01430020B4F1FD0C88BF9F
:10099800BCF5E06F3FF6AFAEB5EB030C04BFB6EBAA
:1009A800020C5FEA500C50F1000041EB045170BD9D
:1009B8000EF0004E4EEA113114EB5C04C2BFD4EBCA
:1009C8000C0541EA045170BD41F480114FF0000E4E
:1009D800013C90E645EA060E8DE60CEA135594EACA
:1009E8000C0F08BF95EA0C0F3FF43BAF94EA0C0FCD
:1009F8000AD150EA01347FF434AF95EA0C0F7FF442
:100A080025AF104619462CE795EA0C0F06D152EA95
:100A180003353FF4FDAE1046194622E750EA410679
:100A280018BF52EA43067FF4C5AE50EA41047FF48A
:100A38000DAF52EA43057FF4EBAE12E74FF0FF3CEF
:100A480006E000BF4FF0010C02E000BF4FF0010CC0
:100A58004DF804CD4FEA410C7FEA6C5C4FEA430C39
:100A680018BF7FEA6C5C1BD001B050EA410C0CBF88
:100A780052EA430C91EA030F02BF90EA020F0020EA
:100A8800704710F1000F91EA030F58BF994208BF51
:100A980090422CBFD8176FEAE37040F0010070470E
:100AA8004FEA410C7FEA6C5C02D150EA013C07D165
:100AB8004FEA430C7FEA6C5CD6D152EA033CD3D0B0
:100AC8005DF8040B704700BF8446104662468C46AA
:100AD8001946634600E000BF01B5FFF7B7FF0028DD
:100AE80048BF10F1000F01BD4DF808EDFFF7F4FF06
:100AF8000CBF012000205DF808FB00BF4DF808ED91
:100B0800FFF7EAFF34BF012000205DF808FB00BFB3
:100B18004DF808EDFFF7E0FF94BF012000205DF8D5
:100B280008FB00BF4DF808EDFFF7CEFF94BF01208A
:100B380000205DF808FB00BF4DF808EDFFF7C4FF83
:100B480034BF012000205DF808FB00BF4FEA410CCC
:100B58007FEA6C5C02D150EA013C0AD14FEA430CAF
:100B68007FEA6C5C02D152EA033C02D14FF00000EC
:100B780070474FF0010070474FEA410212F500122A
:100B880015D211D56FF47873B3EB625212D94FEACC
:100B9800C12343F0004343EA505311F0004F23FAB6
:100BA80002F018BF404270474FF00000704750EA0B
:100BB800013005D111F0004008BF6FF000407047C8
:100BC8004FF00000704700BF4A0011D212F5001222
:100BD80011D20DD56FF47873B3EB62520ED44FEA8D
:100BE800C12343F0004343EA505323FA02F070470D
:100BF8004FF00000704750EA013002D14FF0FF304B
:100C080070474FF0000070474FEA4102B2F1E043ED
:100C180024BFB3F5001CDCF1FE5C0DD901F0004CDB
:100C28004FEAC0024CEA5070B2F1004F40EB83002B
:100C380008BF20F00100704711F0804F21D113F157
:100C48003872BCBF01F00040704741F480114FEA90
:100C58005252C2F11802C2F1200C10FA0CF320FA19
:100C680002F018BF40F001004FEAC1234FEAD32336
:100C780003FA0CFC40EA0C0023FA02F34FEA4303A0
:100C8800CCE77FEA625307D150EA01331EBF4FF029
:100C9800FE4040F44000704701F0004040F0FE4044
:100CA80040F40000704700BF38B500220023044616
:100CB8000D46FFF723FF28B920462946BDE83840EE
:100CC80000F00AB8204605F1004100F005F840425E
:100CD80061EB410138BD00BFD0B500220B4B064681
:100CE8000F46FFF799FCFFF76FFF0446FFF71AFC62
:100CF8000022074BFFF790FC02460B463046394668
:100D0800FFF7D2FAFFF760FF2146D0BD0000F03DA3
:100D18000000F04110B588B02022002168460BF091
:100D2800EEFA4FF480240023364801224FF40041A4
:100D3800C0E90143038380F820300363836380F8AC
:100D48003C304FF4B463026180F834200522C1605E
:100D5800836208214FF48063C2612B4A41610260BB
:100D6800C36202F0A5FB002838D101210623022026
:100D78007F22CDE9001304240023CDE9020269464D
:100D880020480494059302F0BFFC002836D10C23B8
:100D98001E4A69461B48CDE9002302F0B5FC50BB4A
:100DA80012231B4A69461748CDE9002302F0ACFC20
:100DB800F0B91823174A69461248CDE9002302F012
:100DC800A3FC90B94FF48073134A69460D48CDE9E6
:100DD800002302F099FC20B908B010BD00F0C2FB56
:100DE800C3E700F0BFFB08B010BD00F0BBFBE9E7AC
:100DF80000F0B8FBDDE700F0B5FBD1E700F0B2FB8F
:100E0800C5E700BF50050020008002420200300400
:100E18000040C03A0080F03E0000844B0000000013
:100E280030B500240546D9B06C22214608A8CDE982
:100E38000244CDE9044406940BF061FAD02221461D
:100E480024A80BF05CFA504B2A689A4201D059B09A
:100E580030BD02232822279329934C9303232892F9
:100E680026934FF480220C239FED457B2F922C93E1
:100E78000222042324A88DED247BCDE92A2307F040
:100E88002BF9002867D1414B0024D3F88C20404827
:100E980042F48062C3F88C20D3F88C2002A902F4B3
:100EA80080620092009AD3F88C2042F00102C3F8C5
:100EB8008C20D3F88C301F2203F001030193019B8F
:100EC80003230494CDE9022304F0BEF901234FF46F
:100ED80000212122CDE911330E934FF480330D9177
:100EE80008A82C49CDE90824CDE90A44CDE91344E2
:100EF800CDE916440C94199415940F9303F040FB14
:100F0800002837D10021234A234803F059FC70BB3D
:100F1800214803F0EFFC38BB002381221F4C2049F5
:100F28002046C4E90E33C4E910332160A26403F0FB
:100F3800D5F9B0B91849194803F02CFD70B92C65DA
:100F480010211648E56503F043F900283FF47FAF08
:100F580000F008FB7BE700F005FB94E700F002FBDC
:100F6800EDE700F0FFFAE5E700F0FCFAD4E700F05F
:100F7800F9FACDE700F0F6FAC4E700BFAFF3008056
:100F8800000020000000000000800242000C024423
:100F9800000002422C050020140500209C040020BB
:100FA80050000240002330B5012204255D241F2192
:100FB8001B4889B0C0E90133C0E90E33C36003821E
:100FC8008374184BC0E90624C0E90812C0E90A2254
:100FD800C0E90C224561036003F03EFDC8B9002357
:100FE800012540F2DF7440F2FF720D4802A9CDE9F5
:100FF8000233CDE90435CDE9064203F065FE58B960
:101008000123022200931146054803F089FE09B026
:1010180030BD00F0A7FAE2E700F0A4FAF0E700BF5D
:10102800B805002000A4004010B500210446BCB05B
:10103800D02208A8CDE90211CDE9041106910BF0E0
:101048005EF9294B22689A4201D03CB010BD9FED51
:10105800207B4FF4807308A88DED087B2D9307F053
:101068003BF880BB9FED1C6B9FED1D7B09241F4B3C
:1010780002A9D3F8A0201E4842F40072C3F8A020A9
:10108800D3F8A02002F400720092009AD3F88C20C2
:1010980042F00202C3F88C20D3F88C308DED026B3D
:1010A80003F0020301938DED047B019B069404F089
:1010B800CBF800222146272002F0BAFE272002F0B2
:1010C800F3FE3CB010BD00F04DFACBE7AFF3008063
:1010D8000000000004000000800100000200000081
:1010E800000000000000000000A40040000C0244C2
:1010F80000040242002200B50B4B83B0D3F88810DD
:101108001B2041F00101C3F88810D3F8883011463C
:1011180003F001030193019B02F08AFE1B2003B038
:101128005DF804EB02F0C0BE000C0244F0B50024E8
:101138008BB0CDE90444CDE906442F4B0894D3F88D
:101148008C202E4E42F00402C3F88C20D3F88C2059
:101158002B4D02F004020092009AD3F88C203046FE
:1011680042F08002C3F88C20D3F88C204FF4005151
:1011780002F080020192019AD3F88C20012742F0F4
:101188000102C3F88C20D3F88C2002F001020292ED
:10119800029AD3F88C2042F00202C3F88C20D3F8CC
:1011A8008C30224603F002030393039B04F010F9EA
:1011B80022462846032104F00BF94FF40053304629
:1011C80004A9CDE90437CDE9064404F03DF803232A
:1011D800284604A9CDE906430493059704F034F89A
:1011E80004220023284604A9CDE90423069404F028
:1011F8002BF80BB0F0BD00BF000C024400080242FF
:10120800000402420023012210B51748174C184960
:10121800C0E90232C0E90041C0E90433C0E906333D
:10122800036204F0E5F850B900210F4805F0ACF866
:1012380068B900210C4805F0D1F880B910BD00F05C
:1012480091F90021084805F09FF80028F1D000F036
:1012580089F90021044805F0C1F80028EED0BDE85E
:10126800104000F07FB900BF780600200058004009
:10127800D38C80600023012210B51748174C1849F9
:10128800C0E90232C0E90041C0E90433C0E90633CD
:10129800036204F0ADF850B900210F4805F074F866
:1012A80068B900210C4805F099F880B910BD00F024
:1012B80059F90021084805F067F80028F1D000F036
:1012C80051F90021044805F089F80028EED0BDE85E
:1012D800104000F047B900BF200600200028004455
:1012E800E543C01000000000D0B500210446C0B09E
:1012F800D0220CA8CDE90611CDE908110A910AF00F
:10130800FEFF594A2368934204D0584A934245D075
:1013180040B0D0BD4FF4804200230CA8CDE90C2387
:1013280006F0DAFE002840F095809FED4D7B042200
:10133800002600274E4C06A9D4F88C304D4843F0BF
:101348000203C4F88C30D4F88C308DED067B03F0A2
:1013580002030193019B0A92CDE9086703F074FF29
:101368000022D4F89C30114643F48003C4F89C3022
:10137800D4F89C30352003F480030293029B02F0DA
:1013880057FD352002F090FD00223620114602F06C
:101398004FFD362002F088FD40B0D0BD4FF400422A
:1013A80000230CA8CDE90C2306F096FE002854D1A2
:1013B8004FF4807012210422002600272C4CD4F808
:1013C8008C3043F00103C4F88C30D4F88C3003F02F
:1013D80001030393039BD4F88C3043F00203C4F851
:1013E8008C30D4F88C30CDE9060103F00203049365
:1013F80006A92148CDE908670A92049B03F024FF57
:10140800CDE9086709231026122706A919480A9367
:10141800CDE9066703F018FF0022D4F8A83011467A
:1014280043F08003C4F8A830D4F8A830502003F063
:1014380080030593059B02F0FBFC502002F034FD6D
:1014480000225120114602F0F3FC512002F02CFD3D
:1014580040B0D0BD00F086F867E700F083F8A7E752
:10146800001400001200000000580040002800444A
:10147800000C02440004024200000242002330B57E
:101488009DB0CDE90B33CDE90D33CDE90F33CDE96F
:101498000333CDE90533234A0A930293079313696B
:1014A80043F030031361136903F030030193019B88
:1014B80053691B07FCD5022321204FF480314FF4D8
:1014C8008054CDE9080100222821CDE91633119472
:1014D80012931493189303240C2308A81993CDE9A5
:1014E8001A221394159106F049F8034608B172B60A
:1014F800FEE71F250022CDE90343059300230521BC
:1015080002A8CDE90623029506F08EFB08B172B653
:10151800FEE7054A136823F0300343F02003136005
:101528001DB030BD000802440020024008B501F09B
:1015380087FFFFF7A3FFFFF7F9FDFFF7DBFD00F0DB
:1015480039F900F0A3F9FFF7E5FBFFF72BFD00F0F1
:1015580007F9FFF757FEFFF78DFE00F09BFE00F03E
:10156800B1FEFCE772B6FEE705F06CBFFEE700BF10
:10157800FEE700BFFEE700BFFEE700BFFEE700BFD3
:10158800704700BF704700BF704700BF01F07EBFC3
:10159800014802F059BD00BF9C040020014803F037
:1015A8008DBD00BFB8050020014807F0A3BC00BFEF
:1015B8002007002008B5034807F09CFCBDE8084058
:1015C80000F040BED0060020014804F0CBB800BFB0
:1015D80078060020014804F099BC00BF7806002076
:1015E800014805F043B800BF6C070020014804F02B
:1015F800B9B800BF20060020014804F087BC00BF2E
:10160800200600200120704708B50AF0CBFE1622FC
:1016180003464FF0FF301A6008BD00BF08B50AF056
:10162800C1FE16230360FEE770B5161E07DD0C46E3
:101638008D19AFF3008004F8010BA542F9D13046AB
:1016480070BD00BF70B5161E07DD0C468D1914F865
:10165800010BAFF30080A542F9D1304670BD00BF41
:101668004FF0FF30704700BF4FF4005300204B602D
:10167800704700BF01207047002070470D4903469E
:1016880010B50D4A0D4C0868121B20B10344934253
:1016980007D80B6010BD0A4C2046034493420C60E7
:1016A800F7D90AF07FFE0C2203464FF0FF301A608C
:1016B80010BD00BFCC06002000400420000400003C
:1016C800B0370020F0B4002201274FF000661D4912
:1016D8001D4CD1F888301D4843F47003C1F8883098
:1016E8001B4B1C4D1F60DA611A621F683C401C606E
:1016F8009A62DA621A6358639A63D8631A64586400
:101708009A64186820F4802018601A658E60AB69A6
:1017180003F04043B3F1404F01D0F0BC7047EB6990
:10172800DB0703D50C4A0D4BEA60EB60094BF0BCB4
:10173800DA6942F00202DA61DA6942F00102DA613A
:10174800704700BF00ED00E0E3EAE2EA8002010131
:10175800000C0244002002403B2A19087F6E5D4CB1
:10176800002346F2A811802210B51048104C84B00E
:10177800CDE90233C0E9013304600193C16082619D
:1017880007F05EFA50B920220023084801A9019207
:10179800039307F091FC20B904B010BDFFF7E2FEF7
:1017A800F1E7FFF7DFFE04B010BD00BF20070020FF
:1017B800001000400023632110B58022F92410484E
:1017C80084B0CDE90233C0E9023101930D4B446086
:1017D8008261036007F034FA50B9202200230848D8
:1017E80001A90192039307F067FC20B904B010BD6A
:1017F800FFF7B8FEF1E7FFF7B5FE04B010BD00BF74
:10180800D00600200014004000B51D4A036883B0CC
:10181800934205D01B4A93421AD003B05DF804FBEB
:101828000022194B3120D3F89C1041F01001C3F865
:101838009C10D3F89C30114603F010030093009BD2
:1018480002F0F6FA312003B05DF804EB02F02CBB8D
:101858000D4B0022D3F89C000B2140F02000C3F868
:101868009C00D3F89C30322003F020030193019BA5
:1018780002F0DEFA322003B05DF804EB02F014BB8C
:101888000010004000140040000C0244022308210C
:10189800002210B50848094CC37104600171C0F8F2
:1018A8000930C0F80D2004F0C5FD00B910BDBDE831
:1018B8001040FFF757BE00BF6C07002000600140D2
:1018C8000D488546FFF7FEFE0C480D490D4A0023DA
:1018D80002E0D458C4500433C4188C42F9D30A4ADD
:1018E8000A4C002301E013600432A242FBD30AF041
:1018F8005FFDFFF71BFEFEE700400420000000200C
:10190800800400200802010880040020B03700206D
:10191800FEE7000000000000F8B5514C2378002BCA
:1019280000F08B80042B03D000224E4B1A70F8BDB8
:101938004D4B4E4AB3F90000B3F902104C4EB3F9BF
:1019480004304C4D108031802B8010884A4F00B2F3
:10195800FEF7F8FD40A3D3E90023FEF75DFEFFF78D
:1019680053F938603088454E00B2FEF7EBFD3AA3D4
:10197800D3E90023FEF750FEFFF746F930602888C8
:101988003F4D00B2FEF7DEFD33A3D3E90023FEF797
:1019980043FEFFF739F92860D7ED005A97ED006A42
:1019A800D6ED007A96ED005A67EE857AD5ED006A95
:1019B800E5EE867A95ED007AE6EE877A17EE900ADC
:1019C800FEF7D2FD41EC100B0EF078F851EC100B3D
:1019D800FFF71AF92B4ADFED2C5A1060D7ED007A81
:1019E80096ED006AD5ED006A26EE256A92ED007A3A
:1019F80066EEA56ABDEEC66A032316EE102A27EE28
:101A0800257AFDEEE66A2370204B67EEA57AA3F8E7
:101A18000C22BDEEC77A16EE902AFDEEE77AA3F8FF
:101A28000E2217EE102AA3F8102217EE902AA3F818
:101A38000A2200220B4B1A70F8BD0B4B1B78E52BC2
:101A48007FF472AF0122124B1A700022054B1A70F4
:101A5800F8BD00BFAFF30080DE718A8EE4F27F3FED
:101A6800FC0A0020780A0020BC0A0020640A002032
:101A7800620A0020600A00205C0A0020580A002040
:101A8800540A0020500A002000007A443412002032
:101A9800790A0020114B1B78012B0CD1104A1378BE
:101AA800032B05D8DFE803F0020E14080123137096
:101AB80000220C4B1A707047042313700022094B44
:101AC8001A70F8E7022313700022064B1A70F2E727
:101AD800032313700022034B1A70ECE7FC0A002062
:101AE8007A0A0020780A0020012310B50A4C82B037
:101AF800A621CDE900430022084803F0D1FD0022C9
:101B0800074B1A7000F098FB064B186000F094FB26
:101B1800054B186002B010BDBC0A0020200600204A
:101B28007A0A0020700A0020680A0020F0B583B005
:101B380000F082FB494C2368C01A63281DD9484D20
:101B48002B78042B16D8DFE803F02A4E15031A0069
:101B580000F072FB062201234249086001924249C3
:101B6800424A0B7042480092A621322203F098FDA7
:101B780004232B7000F060FB206003B0F0BD00F080
:101B88005BFB41F28833374A1268801A9842F1D9D0
:101B98000321384A2970136801331360EAE7364B8A
:101BA8001B7823B101210022344B29701A7000F0F0
:101BB80043FB42F21073324D2A68801A9842D9D9F1
:101BC80001232A49002200910193A621284803F005
:101BD80067FD0022294B1A7000F02EFB286000F0E8
:101BE8002BFB2060C6E7254B1B78042BC2D8DFE807
:101BF80003F031231606030003232B70BAE70123F1
:101C08004FF00E0C1F4D184E009501932C22A62163
:101C1800337085F800C0164803F0DCFCAAE70123FE
:101C2800184D114E009501933122A62133702B7067
:101C38000F4803F0CFFC9DE701230826114D0A4FFA
:101C4800009501932D22A6213B702E70084803F0C1
:101C5800C1FC8FE701230026F0E700BF680A0020D7
:101C6800FC0A00206C0A0020780A0020BC0A002028
:101C780020060020740A0020790A00207A0A002031
:101C8800700A00207C0A002005220249024802F05E
:101C98001DB800BF000B002050050020054A064B68
:101CA800D2E900011289C3F80002C3F80412A3F8AC
:101CB80008227047000B00203412002007EE900A1B
:101CC8009FED057AF8EE677A67EE877AFDEEE77A98
:101CD80017EE903A18B27047DEDC1C4200B270472B
:101CE80000B2704707EE900AFBEECF7AFDEEE77A76
:101CF80017EE903A18B2704707EE900ADFED076AC0
:101D0800F8EE677A9FED067A77EEE67A67EE877ADD
:101D1800FDEEE77A17EE903A18B2704700002042BD
:101D28000000C84207EE100ADFED066AB8EE477AEF
:101D3800DFED057AE7EE267AFDEEE77A17EE903AC0
:101D480018B27047CDCCCC3D000020C207EE100A77
:101D5800B6EE096AB8EE477ADFED067ADFED066A75
:101D6800E7EE067A67EEA67AFDEEE77A17EE903A86
:101D780018B270470000C8C20000C842030C07EE42
:101D8800903A9FED067AF8EEE77A67EE877AFDEEED
:101D9800E77A17EE903A18B2704700BF0000FA3C95
:101DA80007EE100AB6EE006AB8EE477ADFED067A5B
:101DB800DFED066AE7EE067A67EEA67AFDEEE77AC9
:101DC80017EE903A18B27047000080C20000C8426F
:101DD80007EE900A9FED057AF8EE677A67EE877A44
:101DE800FDEEE77A17EE903A18B270470000483BCC
:101DF80007EE100A9FED086AB8EE477ADFED077A1A
:101E0800F2EE046AE7EE067A67EEA67AFDEEE77A66
:101E180017EE903A18B270470AD7233C000020C248
:101E280007EE900AB6EE047AF8EE677A67EE877ADC
:101E3800FDEEE77A17EE903A18B27047014B186832
:101E4800704700BF100B0020014B1868704700BF97
:101E5800140B0020014B1868704700BF240B0020AA
:101E6800014BD3F8A400704790000020014BB3F950
:101E78009800704790000020014BD3F8C0007047CD
:101E880090000020014BB3F9B40070479000002087
:101E9800014BD3F81401704790000020014BB3F9AF
:101EA8000801704790000020014B9869704700BFF7
:101EB80004000020014BB3F90C0070470400002017
:101EC800014B586B704700BF04000020014BB3F969
:101ED8002800704704000020014BD86E704700BFEF
:101EE80004000020014BB3F9600070470400002093
:101EF800014BD3F88800704704000020014BB3F968
:101F08007C00704704000020CB0710B515D4154C91
:101F1800154B94F800C0154ABCF1030F92E8030072
:101F280083E8030006D0BCF1060F00D010BD0723DC
:101F3800237010BD0423237010BD40210B4B0C4AA5
:101F4800044602F08BFF48B900220121204603F025
:101F580025F80028DBD0FFF705FBD8E7FFF702FBE1
:101F6800F2E700BF940B00202C0B0020340B00205C
:101F7800440B00204FF0FF31002270B50826144CA6
:101F8800144B0588C4E90011C3E90122C3E90422FE
:101F9800C3E90622DE601D601A6283888278FF2BFF
:101FA80062700DD9032023FA06FCE3702070084AFA
:101FB8000849094884F802C002F0EEFE20B970BD55
:101FC80002205FFA83FCF1E7BDE87040FFF7CABA68
:101FD8003C0B0020700B0020B805002030B5002510
:101FE800224A83B051781378412914BF033B023B3E
:101FF800DBB203F1FF33044614BF5268D2F8032062
:102008000195032B2FD8DFE803F02225170212BA17
:10201800019201982369A0609847237DA081EBB1C4
:10202800637D134A03F5807322F8130000F004F966
:10203800104B186003B030BD130402F47F4103F461
:102048007F030B43C2F3074213430193E1E7D2B284
:102058000192DEE752BA92B20192DAE7044BA28803
:1020680023F81200E2E700230193D2E72C0B0020AB
:1020780034120020200B002008B5094802F072FE37
:1020880030B900220121064802F088FF18B908BDBE
:10209800FFF768FAF5E7BDE80840FFF763BA00BF45
:1020A800B8050020704700BF704700BF38B5564CD0
:1020B8002378072B17D8DFE803F0171E283F586E40
:1020C8008F04524D52482B78C3EBC30300EB8300B7
:1020D800FFF784FF2B780133DBB2042B88BF002382
:1020E8002B700223237038BD00F0A6F80123494A5B
:1020F8001060237038BD00F09FF847F22F53454A0F
:102108001268801A9842ECD838BD00F095F8424B16
:102118001B68C01A0A28E6D9404B41481B78C3EB14
:10212800C30300EB8300FFF725FF00F085F80323C6
:102138003C4A1060237038BD00F07EF8394B1B68AC
:10214800C01AC828CFD90221344A21701378013324
:10215800DBB20A2B137003D90021052311702370F9
:10216800314A13680133136038BD2C4D2C482B7845
:10217800C3EBC30300EB8300FFF730FF02222B7889
:1021880022700133DBB20A2B2B70ACD90022052355
:102198002A70237038BD00F04FF81F4B1B68C01A17
:1021A8000A28A0D9194B1A481B78204DC3EBC30342
:1021B80000EB8300FFF7DEFE00F03EF82A681C4BB8
:1021C800801A186000F038F8286000F035F8062307
:1021D800144A1060237038BD00F02EF8114B1B68AC
:1021E800C01AC8287FF67FAF084A022113782170E9
:1021F8000133DBB2042B137084BF002313700D4A24
:1022080013680133136038BD940B0020280B00209D
:10221800040000201C0B0020200B0020290B0020AC
:1022280090000020180B0020140B00200C0B00203D
:10223800240B0020100B0020014B1868704700BFCA
:10224800980B0020012210B511460E4803F0C0F883
:102258000D4A0E4C136801331360FFF723FF42F257
:1022680010722368934208D8013323600022BDE826
:1022780010400121034803F0ABB80121044A0023B0
:102288001170F2E700040242980B0020A00B002016
:102298009C0B002008B5094806F0BEFD084806F06A
:1022A800BBFD07F0EFFDFFF7E7FEFFF7EDFCFFF7DB
:1022B8001BFCBDE8084000F0FBB800BF2007002069
:1022C800D0060020022110B5114803F087F8114B01
:1022D8001A7892B9104C22784FF400510F4803F045
:1022E80077F800F057F801F039F8FFF7DFFEFFF74D
:1022F8001DFCBDE8104000F041B90021064C1970E2
:10230800227882F001022270FFF7CEFEE3E700BFD9
:10231800000402429C0B0020950B0020000802429A
:10232800054A0368934203D0044A934202D0704797
:10233800FFF7F2BA00F0DCB800280044005800406B
:1023480008B50268054B9A4200D008BD00F070F845
:102358000028FAD1BDE8084000F0CAB8005800408B
:10236800034B02689A4200D07047FFF793BB00BF47
:1023780000280044034B02689A4200D0704700F0DE
:102388005DB800BF00580040014B1878704700BF87
:10239800AC0B002010B5224C2378032B09D8DFE8BA
:1023A80003F01E1709021F4B1B695B0725D5022383
:1023B800237010BD01211B4B1B4A1B6911705A0762
:1023C800F7D403232370FFF737FF184B186010BDAD
:1023D800144B1B69590719D40023237010BD002121
:1023E800104B114A1B6911705807E2D5012323705D
:1023F800FFF722FF0D4B186010BDFFF71DFF0B4BB9
:102408001B68C01AB0F57A7FE6D2D2E7FFF714FF4F
:10241800064B1B68C01AB0F57A7FCAD3C7E700BF5E
:10242800A40B002000040242AC0B0020A80B0020E3
:10243800014B1878704700BF290C002038B5FFF70A
:10244800FBFE0021164A174D137854780133DBB28E
:102458009C421370286082F8041682F8031607D984
:102468004FF4007192F80226B1FBF2F293420FDBAF
:102478000D4C4FF400720021204609F040FF4FF444
:1024880000720021A01809F03AFF002324F8023C4A
:10249800064B1A78032A04BF02221A7038BD00BFFF
:1024A8002C0C0020B40B00202E0C0020290C00203E
:1024B80038B54FF400750C4C00212A46204609F027
:1024C8001EFF2A460021601909F019FF0022042185
:1024D80024F8022C84F8001684F80226FFF7ACFED4
:1024E800024B186038BD00BF2E0C0020BC0B00202A
:1024F8000122014B1A707047280C002070B51B4B45
:102508001B491A7800238A5C04264E21194C02F0D4
:10251800F00E607894F802C612016EF30703D2B287
:102528006EF30F230CFB004C62F3174362F31F6337
:10253800451C43F008332044EDB243F00413CCF8B3
:10254800023080F8021480F80262657005B970BD27
:10255800012594F80236227884F8045602FB0342D7
:10256800BDE870400448023202F09CBF2A0C0020EB
:10257800A0FD00082C0C0020780600202DE9F04F63
:102588002DED028B2F4C87B02378012B3CD0022BEA
:102598001FD073B92C4A1278002A40F02686FFF71C
:1025A8004BFE42F21073294D2A68801A984200F2B5
:1025B8002686FFF741FE264B1B68C01AB0F57A7FC6
:1025C80002D92378012B51D807B0BDEC028BBDE8A6
:1025D800F08FFFF731FE1F4B1B68C01A0628E8D999
:1025E8001D4D6B78002BE4D0012695F802362A7829
:1025F8004E2102FB03521948023285F8046602F0A4
:1026080051FF03232370D4E7FFF716FE144D154E30
:10261800154B2978326853F82130801A9842C8D966
:10262800FFF76CFFFFF708FE2B7830600133DBB251
:10263800082B2B70BDD902232370FFF7FDFD054B36
:102648001860B6E7290C0020280C0020BC0B0020DD
:10265800B00B0020B40B00202C0C002078060020C2
:102668002A0C0020B80B00207CFD0008FFF78CFE28
:10267800E14CE24B002800F0478593E80300217104
:102688002060FFF7FFFB08EE100AFFF7F5FB07EEE7
:10269800900AB8EEC88AF8EE677A68EE277A17EEDD
:1026A800900AFDF761FFD64D02460B462846D549EC
:1026B80009F0A6FDD44BD54E93E803002B68317181
:1026C800636004963060FFF719FC08EE100AFFF704
:1026D8000FFC07EE900AB8EEC88AF8EE677A68EE43
:1026E800277A17EE900AFDF73FFF02460B46284669
:1026F800C44909F085FDC64BC64F93E803002B6813
:102708003971736005973860FFF7D4FB08EE100A3B
:10271800FFF7CAFB07EE900AB8EEC88AF8EE677AA8
:1027280068EE277A17EE900AFDF71EFF02460B4661
:102738002846B44909F064FDB74B1A460293B74BD3
:1027480093E803002B68106011717B60FFF7CAFBE8
:1027580008EE100AFFF7C0FB07EE900AB8EEC88A29
:10276800F8EE677A68EE277A17EE900AFDF7FCFE16
:1027780002460B462846A34909F042FD2B68A84F9C
:1027880019460193029B4FF0040A5960A54B4FF07C
:1027980000095A7893F80206009210FB02F09A1C7E
:1027A800175093F8027620783946009A00F0F0071F
:1027B8004E464D46CE46CC4600FA0AF067F3070966
:1027C800C0B267F30F2902F1010860F317495FFAF5
:1027D80088F860F31F6911FB08F0014649F00930D9
:1027E80040F004104FF04E0B074694F80190009A01
:1027F800CDF80C9003EB02099A1C89F802B489F809
:1028080002A25750039F304607F0F00969F3070604
:1028180007FA0AF70099FFB269F30F2667F317461C
:1028280067F31F668F1C1146984488F802B488F82D
:1028380002A293F80286FFB218FB07F846F00936A1
:1028480046F0041642F80860A6781F4406F0F0091E
:1028580087F802B487F802A206FA0AF62F4669F347
:102868000705009AF6B269F30F2566F3174593F842
:10287800028666F31F65D61CF6B218FB06F845F00B
:10288800093545F0041541F80850E5781E4405F06F
:10289800F00986F802B486F802A205FA0AF5764627
:1028A80069F3070EEDB269F30F2E65F3174E93F82F
:1028B800028665F31F6E02EB0A05EDB218FB05F8F8
:1028C8004EF0093E1D444EF0041E41F808E085F81C
:1028D80002B485F802A2257993F802E605F0F0081B
:1028E80068F3070C05FA0AF5EDB268F30F2C65F3E7
:1028F800174C65F31F6C551DEDB21EFB05FE4CF021
:10290800093C4CF0041C41F80EC094F805E01D4445
:102918000EF0F00985F802B485F802A293F8028651
:10292800054602F1060C0EFA0AFE69F307005FFA83
:102938008EFE5FFA8CFC69F30F2018FB0CF86EF31F
:1029480017406EF31F6040F009309C4440F00410BB
:1029580041F808008CF802B48CF802A294F806C07A
:1029680038460CF0F00868F307070CFA0AFC5FFA1F
:102978008CFC68F30F276CF3174793F802E66CF3A7
:102988001F6702F1070C5FFA8CFC1EFB0CFEE47952
:1029980047F0093747F0041741F80E709C4404F0DB
:1029A800F00E8CF802B48CF802A204FA0AF4B446C9
:1029B8006EF30706E4B26EF30F2664F3174693F836
:1029C800027664F31F6602F10804E4B217FB04F709
:1029D80046F009361C4446F00416CE5184F802B479
:1029E80084F802A202F109040A4693F80266E4B2E6
:1029F80016FB04F618E000BF180C0020F8FC0008CD
:102A0800C00B002000FD00081CFD0008100C002071
:102A180024FD0008080C0020000C00202CFD0008F4
:102A28008C880C082C0C0020DFF81CE81C4441F8AA
:102A380006E0049984F802B484F802A20C782F46C0
:102A480004F0F0082E4604FA0AF468F30705E4B225
:102A580068F30F2564F3174564F31F65009C93F82A
:102A680002E60A34E4B21EFB04FE45F009351C44B4
:102A780045F0041542F80E5084F802B484F802A216
:102A88004C78054604F0F00868F3070004FA0AF4E5
:102A9800E4B268F30F2064F3174064F31F60009CEE
:102AA80093F802E60B34E4B21EFB04FE40F0093052
:102AB80040F0041042F80E0088781C4400F0F0083A
:102AC80084F802B484F802A200FA0AF0644668F3B3
:102AD800070CC0B268F30F2C60F3174C60F31F6C3F
:102AE800009893F802E60C30C0B21EFB00FE4CF0D2
:102AF800093C4CF0041C42F80EC091F803C018447D
:102B08000CF0F00880F802B480F802A20CFA0AFC73
:102B1800384668F3070703925FFA8CFC009A68F35B
:102B28000F276CF3174793F802E66CF31F6702F15F
:102B38000D0C5FFA8CFC1EFB0CFE47F009379A1C43
:102B480047F0041742F80E700F799C4407F0F00E16
:102B58006EF3070607FA0AF7FFB26EF30F2667F35C
:102B6800174667F31F66009F8CF802B48CF802A220
:102B78000E3793F802C6FFB21CFB07FC46F0093675
:102B880046F0041642F80C604E791F4406F0F00E29
:102B980087F802B487F802A206FA0AF62F466EF3FF
:102BA8000705F6B26EF30F2566F3174566F31F6542
:102BB800009E93F802C60F36F6B21CFB06FC45F0E1
:102BC80009351E4445F0041542F80C5086F802B445
:102BD80086F802A28D79A44605F0F00868F3070488
:102BE80005FA0AF5CE79EDB2009968F30F2465F37A
:102BF800174465F31F6401F11005114693F802E6C6
:102C0800EDB21EFB05FE44F0093444F0041442F80A
:102C18000E401D4406F0F00E85F802B485F802A2B5
:102C280006FA0AF605466EF30700009AF6B26EF346
:102C38000F2066F3174093F8024666F31F6002F10F
:102C48001106F6B214FB06F440F0093040F0041007
:102C5800085102F112000A4693F80246C0B214FB6A
:102C680000F4DFF8E8E51E4486F802B486F802A20C
:102C780041F804E00599184480F802B480F802A2EB
:102C880008783E4600F0F0083C4600FA0AF068F37F
:102C98000707C0B268F30F2760F3174760F31F6791
:102CA800009893F802E61330C0B21EFB00FE47F00E
:102CB800093747F0041742F80E704F78184407F0A8
:102CC800F00880F802B480F802A207FA0AF7604612
:102CD80068F3070CFFB268F30F2C67F3174C67F320
:102CE8001F6C009F93F802E61437FFB21EFB07FE25
:102CF8004CF0093C4CF0041C42F80EC091F802C09C
:102D08001F440CF0F00887F802B487F802A20CFA06
:102D18000AFC2F4668F30705009A5FFA8CFC68F3F3
:102D28000F256CF3174593F802E66CF31F6502F163
:102D3800150C5FFA8CFC1EFB0CFE45F009359C4413
:102D48009A1C45F0041542F80E508CF802B48CF821
:102D580002A291F803C035460CF0F00868F30706A4
:102D68000CFA0AFC009A5FFA8CFC68F30F266CF3E5
:102D7800174693F802E66CF31F6602F1160C5FFA29
:102D88008CFC1EFB0CFE46F009369A1C46F0041615
:102D980042F80E600E799C4406F0F00E6EF30704BC
:102DA80006FA0AF6F6B26EF30F2466F3174466F3D2
:102DB8001F64009E8CF802B48CF802A2173693F8B0
:102DC80002C6F6B21CFB06FC44F009341E4444F06B
:102DD800041442F80C4086F802B486F802A24E7930
:102DE800044606F0F00E6EF3070006FA0AF6F6B28D
:102DF8006EF30F2066F3174066F31F60009E93F88A
:102E080002C61836F6B21CFB06FC40F0093040F04A
:102E1800041042F80C0091F806C01E440CF0F008AB
:102E280038460CFA0AFC68F3070786F802B486F8F5
:102E380002A25FFA8CFCCE7968F30F2700996CF335
:102E480017476CF31F6701F1190C114693F802E656
:102E58005FFA8CFC1EFB0CFE47F0093747F004179D
:102E680042F80E709C4406F0F00E8CF802B48CF810
:102E780002A206FA0AF6AC466EF30705009AF6B205
:102E88006EF30F2566F3174593F8027666F31F6510
:102E980002F11A06F6B217FB06F745F0093545F0B8
:102EA8000415CD5102F11B050A461E4486F802B4EA
:102EB80086F802A293F80276EDB217FB05F7DFF861
:102EC80090E31D4441F807E0029985F802B40F78B1
:102ED80085F802A207F0F0082646254607FA0AF701
:102EE80068F30704FFB268F30F2467F3174467F326
:102EF8001F64009F93F802E61C37FFB21EFB07FE13
:102F080044F009341F4444F0041442F80E4087F892
:102F180002B487F802A24F78044607F0F00868F375
:102F2800070007FA0AF7FFB268F30F2067F31740A4
:102F380067F31F60009F93F802E61D37FFB21EFB80
:102F480007FE40F0093040F0041042F80E0091F8F6
:102F580002E01F440EF0F00960460EFA0AFE69F31B
:102F6800070C87F802B487F802A25FFA8EFECF78C2
:102F780069F30F2C00996EF3174C6EF31F6C01F177
:102F88001E0E114693F802865FFA8EFE18FB0EF8A5
:102F98004CF0093C4CF0041C42F808C007F0F0085B
:102FA800B44607FA0AF768F30706009AFFB268F30F
:102FB8000F2667F3174667F31F6602F11F070A46D5
:102FC8009E448EF802B48EF802A293F802E6FFB28D
:102FD8001EFB07FE46F0093646F0041641F80E605F
:102FE80001991F4401F0F00666F3070566F30F2503
:102FF800009E93F802E687F802B487F802A220360A
:1030080001FA0AF707F0F007F6B21EFB06FE67F3AF
:10301800174567F31F6545F009351E4445F004154B
:1030280042F80E5086F802B486F802A2C1F30726C9
:1030380006F0F00767F3070406FA0AF6F6B267F334
:103048000F2466F3174466F31F6444F00936009CA6
:1030580093F802562134E4B215FB04F546F0041641
:103068005651C1F3074505F0F00767F3070005FA65
:103078000AF51C44EDB267F30F2084F802B484F813
:1030880002A265F317400C0E009965F31F6040F02B
:10309800093501F12200114693F80266C0B216FB09
:1030A80000F645F004159551184404F0F00680F830
:1030B80002B480F802A266F3070C04FA0AF0009A38
:1030C800C0B266F30F2C60F3174C93F8025660F306
:1030D8001F6C02F12300C0B215FB00F54CF0093C4F
:1030E8004CF0041C41F805C02432191881F802B4C8
:1030F80081F802A25A70FFF79FF8464B186007B094
:10310800BDEC028BBDE8F08F93E8030021712060CD
:10311800FEF7B8FE08EE100AFEF7AEFE07EE900ABC
:10312800B8EEC88AF8EE677A68EE277A17EE900A42
:10313800FDF71AFA384D02460B462846374909F07A
:103148005FF8374B374E93E803002B6831716360A3
:1031580004963060FEF7A2FE08EE100AFEF798FE0D
:1031680007EE900AB8EEC88AF8EE677A68EE277A12
:1031780017EE900AFDF7F8F902460B46284627494C
:1031880009F03EF8284B294F93E803002B68397162
:10319800736005973860FEF769FE08EE100AFEF7BF
:1031A8005FFE07EE900AB8EEC88AF8EE677A68EE16
:1031B800277A17EE900AFDF7D7F902460B462846FC
:1031C800164909F01DF81A4B1A460293194B93E851
:1031D80003002B68106011717B60FEF777FE08EE24
:1031E800100AFEF76DFEFFF7B7BA012212492270E6
:1031F8000B70FFF721F8114B1860FFF7D0B90123C6
:103208004E210F4A0F4802F099F9FFF715F8286088
:10321800FFF7CFB9B00B0020C00B002000FD00085D
:1032280004FD0008100C00200CFD0008080C00200C
:10323800000C002014FD00082A0C0020B80B002008
:10324800200C0020780600208C888C88CCC80C08BC
:10325800CCC88C882DE9F041012232480221CCB03B
:1032680002F0B6F86923304F304C788823707B78A9
:1032780040BA062BBA881FFA80FC637045D052BA50
:1032880092B24FEA4206B5B205F103011FFA81F87E
:1032980023D9102B33D12648D2B200EB4C00F91DAC
:1032A80008F066F8D7F80230C4F802300626082578
:1032B800072731461D4807F0C7FF03462946A3558F
:1032C8001A481B0AE35507F0A3F800220221154803
:1032D80002F07EF84CB0BDE8F081033B012B0ED81C
:1032E8001348D7B23A4600EB4C0001A908F02AF877
:1032F8007A00A27001A93246E01C09F08EF8414616
:1033080005354646ADB24F1CD4E797E80300206068
:103318000748A180012200EB4C00391D08F028F86D
:10332800C4E700BF00040242681D0020381C0020CA
:103338003412002010B50C4601462246044809F014
:103348006CF801220349044B0C801A7010BD00BFB1
:10335800681D0020641D0020341C00200D4B10B592
:103368001A782AB100210C4A19701278692A0DD0EE
:10337800FEF770FD094CA4F80004FEF75FFDA4F801
:103388000204FEF761FDA4F8040410BDFFF762FF14
:10339800EEE700BF341C0020681D00203412002016
:1033A80070B5244E3278EAB14FF0E0231C69054627
:1033B80014F0040418D04FF47A71B1FBF2F21E4BEA
:1033C8001C68B4FBF2F4204600F07CFD044648B9C2
:1033D800024629464FF0FF3000F02AFD174B2046E1
:1033E8001D6070BD012070BD00F0BAFD01280DD030
:1033F800022815D00028E6D14FF4FA5231780E4B46
:10340800B2FBF1F21C68B4FBF2F4DCE74FF47A7219
:1034180031784FF4FA43B2FBF1F2B3FBF2F4D2E79E
:103428004FF47A7231784FF40043B2FBF1F2B3FBF8
:10343800F2F4C8E7C401002000000020C801002001
:1034480010B5032000F0E2FC04F044FD03460C4AEA
:103458000C48126A0C4902F00F02825C0420D34027
:103468000B6000F03FFD0F20FFF79AFF10B1012419
:10347800204610BD0446FEF777F8204610BD00BF71
:10348800000C0244E8FC000800000020034A044B3A
:1034980011681B780B441360704700BF941E00200E
:1034A800C4010020014B1868704700BF941E00201B
:1034B800002330B583B00193002800F09C80856D0F
:1034C8000446002D00F09C80226893689D0005D575
:1034D800936823F0204323F03F0393609368D80058
:1034E80019D45C4B5C481B6891689B09A0FB0303DB
:1034F80021F010419B0921F03F0101335B0041F0AD
:10350800805191600193019B2BB1019B013B019379
:10351800019B002BF9D19368D9006FD40120A36DCA
:1035280043F01003A365E36D0343E365936813F069
:10353800040FA36D5BD1DB0659D4A36D23F481730B
:1035480043F00203A3659368DD0708D4434B9B68E7
:1035580013F0010F424B9B6801D1D90763D5E56889
:10356800A36B94F820102B43A568012943EA0503AF
:10357800657E43EA453343EA01434FD0A16A21B14E
:10358800E56A01F4787129430B43D5683549294028
:103598001943D1601369216B23F040630B43136116
:1035A80093681B0714D4D16894F83430257E21F42D
:1035B80080415B0021F0020143EA85330B43D3606D
:1035C80094F83C30012B36D0136923F001031361C2
:1035D8002369012B1AD0136B23F00F031363A36D18
:1035E80023F0030343F00103A36503B030BDA36DCB
:1035F80043F01003A365012003B030BD002095E718
:10360800FDF70EFCE56584F854505DE7116BE3693E
:1036180021F00F01013B0B431363E0E7616A0139B5
:1036280043EA4143AAE7104965688B6823F47C1391
:103638002B438B6093E71169236C656C6FF38A01E8
:103648002B430B43A16C0B43E16C0B4343F0010389
:103658001361BDE700000020632D3E050080024293
:10366800008102420740F0FF00830242704700BF1A
:1036780008B5C06DFFF7FAFF08BD00BF704700BF6F
:10368800C36D10B59A6D12F0500F9A6D1DD119685F
:1036980042F400729A650A6812F0080FCA681BD0D3
:1036A80012F4406F0DD1CA6894040AD49A6D22F4BA
:1036B80080729A659A6DD10403D49A6D42F0010222
:1036C8009A651846FEF7EAFA10BDD2060AD4BDE894
:1036D80010401B6D9B6E18479007E7D51846FEF7FC
:1036E800DDFAF1E71846FFF7C9FF10BDC06D08B550
:1036F800836D43F040038365C36D43F00403C365E2
:10370800FFF7BCFF08BD00BF00222DE9F04182B0E1
:10371800019290F85420012A00F02F8103460120DD
:103728001A6883F854009468640709D59A6D42F0C2
:1037380020029A65002283F8542002B0BDE8F08187
:103748000868012800F0AE80AC4CA04200F0A580CB
:103758004FF01F0C4C6802F130054FEA941E0EF032
:103768000C0E04EA0C04C0F38460A0400CFA04FCBC
:1037780055F80E4024EA0C0C4CEA000045F80E00FF
:103788009068400737D5906808689468E60712D4AF
:10379800CE689B4CD2F8B05006F01807FC40C0F336
:1037A8001307044025EA07052C43C2F8B040954C9E
:1037B800A64200F09F80944908421AD0934C944D39
:1037C800A168A84201F0E07674D0924DA84200F0BA
:1037D800D880914DA84200F0E3809049884208D1F2
:1037E8008F498A4205D0D2F8C81041F00101C2F8C9
:1037F800C81000209EE7946808682707C5D40724E6
:103808008D68C0F30456B440C00DB5F1004F6FEA9F
:10381800040400F0040000F0E78002F11407B5404A
:103828003E5834402C433C50506920F000405061D1
:103838000868D1E90474042F0646D56800F0FA80B8
:10384800C5F3C1056D00AC4002F1600555F827C00D
:10385800744E00F0F8400CEA06060643344344F080
:10386800004445F827400C698E6955F8240020F07B
:103878008070304345F824000C7F0E69A4F10104E0
:10388800B4FA84F455F82600640920F0007040EA80
:10389800446045F82600086877E75A4CCD68A54289
:1038A8007FF456AF5E4DD5F8C84044F00104C5F822
:1038B800C8404DE70D029CD459498A4299D1A26863
:1038C800594922F0E072324342F40002A2600A68C9
:1038D80056499209A1FB0212920901325200019243
:1038E800019A002A85D0019A013A0192019A002A88
:1038F800F9D17EE7002F62D090FAA0F4002C00F0F6
:10390800C480B4FA84F6013606F01F05092D40F28A
:10391800BC8090FAA0F0B4FA84F5B40601263544C8
:1039280005F01F0504F0F84406FA05F52C430028B5
:1039380000F05381B0FA80F56FF01D0603200135C1
:1039480005F01F0510FB0560000540F000702043DE
:103958000727C50D8E6805F0040502F1140C5CF804
:103968000540C0F30450864007FA00F024EA00003E
:1039780030434CF8050008681DE7022002B0BDE896
:10398800F081C8013FF535AF29498A427FF431AF4C
:10399800A26822F0E072324342F08072A26028E707
:1039A80049023FF526AF1E498A427FF422AFA2683A
:1039B80022F0E072324342F48002A26019E7012447
:1039C800800E013000F01F06800600F0F840B44079
:1039D800092E06EB460544EA00047BD9A5F11E0032
:1039E800000540F00070B2E702F1140635582C408B
:1039F8003450506940F00040506119E7020030042B
:103A0800FFFF0F0000007F40000008800083024293
:103A1800000021C300002943000052C700005A4794
:103A28000080024200F0FF0300000020632D3E05E5
:103A380000810242146E146EC0F31305C4F384644B
:103A4800002D4BD1C0F3846084427FD0546E556EF4
:103A580002F16004C5F3846502F1640E854200F04A
:103A6800A080A568A56804F1080CC5F384658542A3
:103A780000F08180E568E56804F10C07C5F384640B
:103A8800A04200F0A48030467FE690FAA0F4002C13
:103A980000F0B480B4FA84F40134A40604F0F844C5
:103AA80090FAA0F5002D00F0A7800126B5FA85F55B
:103AB800354405F01F0506FA05F52C4390FAA0F0E9
:103AC800002800F09680B0FA80F5013505F01F0552
:103AD80005EB45052D0545EA040039E790FAA0F500
:103AE8001DB1B5FA85F5AC4230D0546E556E02F171
:103AF8006004C5F3846502F1640E04F1080CE04625
:103B080096FAA6F7002F6FD0B7FA87F7AF424AD0D8
:103B1800DCF80050DCF80050C5F3846504F10C07AC
:103B2800B84696FAA6FEBEF1000F58D0BEFA8EFE31
:103B3800AE4522D03C683C68C4F3846496FAA6F586
:103B4800002D3FF422AEB5FA85F099E71446106EC1
:103B580002F1640E20F0004044F8600F0E68506EC9
:103B6800556EC6F313073046C5F38465002FC4D1DC
:103B7800C6F3846072E704F10C08DCF800004746DD
:103B880020F00040CCF800000E68E068E468C6F356
:103B980013053046C4F38464002DCFD1C6F3846086
:103BA8006EE704F10808DEF80000C44620F0004083
:103BB800CEF800000E68A068A568C6F31307304663
:103BC800C5F38465002FA9D1C6F384604FE7386830
:103BD80020F0004038600868D7E50A48B7E6E5688D
:103BE800E468C4F38464A9E7A568A568C5F3846597
:103BF80094E74FF440156EE702255EE74FF08064C6
:103C08004EE700BF000050FE002370B582B001935C
:103C180003689A68D2072CD49968274A0446114247
:103C28002AD19A68254922F0004222F03F0242F048
:103C380001029A608B681B0229D4FFF733FC2368C2
:103C480005461A68D60714D41D4E9A68D00704D4BE
:103C58009A68324042F001029A60FFF723FC431B46
:103C6800022B236802D91A68D10705D51A68D2072A
:103C7800EBD5002002B070BD0120A36D43F0100306
:103C8800A365E36D43F00103E36502B070BD0D4B1E
:103C98000D4A1B689B09A2FB03239B0901335B00A8
:103CA8000193019B002BC8D0019B013B0193019B11
:103CB800002BF9D1C1E700BF3F000080008302421A
:103CC800C0FFFF7F00000020632D3E054A4B2DE911
:103CD800F041D3F8088003689CB09D6815F004058E
:103CE80014D190F854300446012B0FD040F2212310
:103CF8001646012208F01F0823FA08F3134080F83B
:103D0800542007D180F85430012000E002201CB074
:103D1800BDE8F0810F46FFF777FF00284BD1A36D70
:103D2800216823F4706323F0010343F48073A365CF
:103D3800324B994242D0A36D23F48013A365A36D3F
:103D48001C2213F4805318BFE36D206D18BF23F0B5
:103D58000603E36500232A4D05662A4D45662A4D6C
:103D680085660A6084F854304B6843F010034B6052
:103D7800CB6843F00103CB60036D1B0622D5436F6C
:103D8800002BC1D019680029BED001A800F09AFC08
:103D98000028B9D1079B022B2BD0012B08BF760036
:103DA800206D2268436F40321B689E601F61DA6095
:103DB80000F084FB11E084F85450A8E7B8F1000F34
:103DC800BDD1B8E78369022B11D0012B08BF76005B
:103DD80033463A46403100F0DDF82268936823F014
:103DE800004323F03F0343F0040393608FE7B600DA
:103DF800EEE7B600D4E700BF00830242008102422A
:103E08008936000879360008F53600084FF6FF0CA9
:103E180006490302CA6803F4E06302EA0C0213438A
:103E280043F0BF6343F40033CB60704700ED00E01C
:103E38001B4B00B5DB68C3F30223C3F1070EBEF1C9
:103E4800040F03F1040C28BF4FF0040EBCF1060F59
:103E58001CD9A3F1030C4FF0FF3303FA0CF322EA49
:103E680003024FF0FF3303FA0EF321EA030303FAC8
:103E78000CF313431B010028DBB20ADB00F160409E
:103E880000F5614080F800335DF804FB0022944699
:103E9800E7E7044A00F00F00024413765DF804FBDC
:103EA80000ED00E0FCEC00E0002807DB012300F057
:103EB8001F01034A40098B4042F82030704700BF79
:103EC80000E100E0431EB3F1807F09D24FF0E02209
:103ED800002053619061136943F003031361704735
:103EE80001207047042813D8DFE800F02A1A0312CB
:103EF80013004FF0E0210B69184A23F004030B610B
:103F0800D2F8E43023F00C0343F00803C2F8E4309D
:103F180070474FF0E022136943F0040313617047C0
:103F28004FF0E0210B690D4A23F004030B61D2F82E
:103F3800E43023F00C0343F00403C2F8E430704784
:103F48004FF0E0210B69054A23F004030B61D2F816
:103F5800E43023F00C03C2F8E4307047000C02444C
:103F68004FF0E0231B695B070FD4094BD3F8E4003B
:103F780000F00C00042806D0A0F10800B0FA80F088
:103F8800400940007047012070470420704700BF77
:103F9800000C024400283FD070B4046D002C36D1C8
:103FA80090F84CC0BCF1010F34D04FF0010C80F8F0
:103FB8004CC090F854C0BCF1010F24D102254FF435
:103FC800FE4680F8545084650468A56C63F30F05B9
:103FD800A564456EE660E1642265636943F4BA430B
:103FE80063611DB1636943F400736361036F1BB1BF
:103FF800636943F4005363610020636943F001037C
:10400800636170BC7047402380F84C408365012091
:1040180070BC70470220F4E701207047034628B1BE
:1040280090F85420022A03D020228265012070478C
:1040380004211A6883F854105369002043F400538C
:104048000B435361704700BF0121036810B5C3F3E8
:104058000B02044623F47F6020F00F00503AC0683A
:10406800C2F3C4129140014200F0A5801A695205BA
:1040780009D55A69500506D54FF48062DA60A26DF9
:1040880042F00102A2651A69110509D55A6912059B
:1040980006D54FF40062DA60A26D42F00202A26512
:1040A8001A69D00409D55A69D10406D54FF480524B
:1040B800DA60A26D42F00402A2651A69520409D5B9
:1040C8005A69500406D54FF48042DA60A26D42F076
:1040D8000802A2651A6991050AD55A69920507D599
:1040E8004FF40071626ED96012B120469047236880
:1040F8001A69900411D55A6991040ED54FF40052EB
:10410800DA6094F85420042A3DD00521226F84F8FF
:10411800541012B12046904723681A69D00518D563
:104128005A69D10515D5226D120645D5DA6F32B90F
:104138009A6C22B90122616F84F854200A734FF4F3
:1041480040700021226ED86084F84C100AB12046D5
:104158009047A36D002B2ED0226801215369206D52
:1041680043F0020353610022030648BF636F84F8DB
:10417800541048BF1973A36E84F84C20DBB1204655
:10418800BDE81040184701215A69206D22F40052F9
:104198005A615A6942F002025A61020684F85410C0
:1041A80003D50022606F01739A640022E36E84F8DD
:1041B8004C20002BE3D110BD9A6C002ABFD10122FC
:1041C80084F85420BBE700BF90F85400704700BF44
:1041D800C0B1CB0614D54FF0010C036801F01101F2
:1041E800C3F30B02503A6FF30B031129C2F3C41245
:1041F80059680CFA02F20CBF0A4321EA02025A601B
:1042080000207047012070472DE9F0478768D2F8F1
:10421800009000293CD04FF6FC7801EA0801002FF5
:1042280051D0002952D04FF0000C0468E24604EA4D
:1042380008034FEA89066FF30F0406E08B4223D088
:104248005EF804509A4605EA08030CF1010CBC45D7
:1042580006EB030EF2D1994202D00120BDE8F087A7
:1042680004686FF30F04234353F8291044EA0A0043
:1042780097605060D36021B14FF6FC731940214319
:1042880011610020BDE8F08799426746E5D1E7E76C
:10429800046807B34FF6FC70012F04EA000310D03E
:1042A80001214FEA144C4FEA0C4C4FEA8906F518E5
:1042B80055F80C500131B9429A4605EA0003F6D187
:1042C800CFE78A46CDE7BA463B46C4E78A460B465F
:1042D8000F460468C5E7BA463B46C2E770B50446D0
:1042E800FFF7E0F8002C00F0BC80022200212368D0
:1042F80084F84C1084F854205A69054642F00602A6
:104308005A6106E0FFF7CEF8431B052B00F2A480A4
:1043180023685A69D207F5D4674AD4E90E01934253
:10432800656C40EA010000F09E8002F180529342E1
:1043380000F0998002F170428032934200F093803D
:1043480002F18052934200F08E8002F17042803276
:10435800934200F0888002F18052934200F08380FB
:1043680002F17042803293427DD002F18052934232
:1043780079D002F170428032934274D002F18052B7
:10438800934270D002F17042803293426BD002F1B6
:104398008052934267D002F170428032934279D0C2
:1043A80002F18052934275D002F1704280329342FA
:1043B80070D002F1805293426CD002F1704202F543
:1043C800486293424FD002F1805293424BD002F19F
:1043D80070428032934246D002F18052934242D0DA
:1043E80002F17042803293423DD002F180529342F2
:1043F80039D002F170428032934234D002F18052B7
:10440800934230D002F17042803293422BD002F1B5
:104418008052934227D002F170428032934222D0D8
:1044280002F1805293421ED002F1704280329342D0
:1044380030D002F1805293422CD002F17042803287
:10444800934227D002F18052934223D05A69002127
:1044580022F4430202430DE010220323A26584F8EC
:104468005430012070BD00215A69266C22F44302A1
:10447800304302435A6119645D649964D9641965CB
:1044880000220121A56CDA67A26584F85410104651
:10449800256570BD5A69002122F4430C226C024341
:1044A80042EA0C025A61002219645D649964D96475
:1044B80019655A659A65E3E750000240F0B1436F09
:1044C800E3B1026DD2B110B490F85410026801291A
:1044D80054695FFA81FC04D0BCF1020F10D1E103EA
:1044E8000ED590F854100129CCB212D0002053698F
:1044F80043F0010353615DF8044B70470120704796
:104508000023402280F84C3082655DF8044B01207E
:10451800704790F84C1001292BD000214FF0020C65
:1045280080F84C4080F854C083F80CC0816519614C
:104538005169446E41F4BA4151611CB1516941F469
:1045480000715161016F19B1516941F40051516114
:104558001B68094C186A094910F0020F4FF6FC70E5
:1045680018BF21461C0C034024040B431460D36776
:10457800BCE70220BFE700BF000001FE000001F811
:10458800002859D0002957D0F0B540F2FF2EC26953
:10459800436944681343C26B0EEA040E134302696D
:1045A800046B134382694EEA040E13430268C4681D
:1045B80095060B603CD5856A866B05F1FF3C456A1C
:1045C800C76A4FEA0C5C013D0CF07C7C2D013E4330
:1045D80005F47C754CEA060C4CEA050C4CEA03031E
:1045E800B4F5806F0B6065D0B4F5007F08BF4EF45A
:1045F800007E446B456C4EEA04044C6045B1836C04
:10460800066C1B0403F47C1335432B4323434B6094
:10461800B0F8684012F002038C60D0E918C70DD1D9
:1046280042F4A0620020C1E903C74B610A62F0BDF1
:10463800B4F5806FD8D1DCE701207047C36C466DB4
:104648005D1E1E4B42F4E06203EA0543056D2343F9
:10465800002D846DB8BF43F08053C06D002EB8BFE5
:1046680043F00053002CB8BF43F0804300288B6010
:10467800BCBF43F000438B60002DB8BF6D42104BA8
:10468800002EB8BF764203EA0643C5F30C051D4366
:104698000023002CB8BF64420028B8BF4042A4B22F
:1046A80044EA0044C1E903C70020C1E907324D616B
:1046B8008C61F0BD4EF4806E9BE700BF0000FF07E1
:1046C8000000FF1F002877D0002975D030B40C6A8D
:1046D8000B68E2B2026003F00802026103F40022F0
:1046E800426103F00302826103F44032C261C3F302
:1046F800051201324262C3F305520132826203F0AD
:104708004022C2622D4A1A4082634A6803F4C053A9
:104718009505C36346BF4FF400731D46D3B243608B
:1047280002F40063836002F44043036402F04073C0
:104738004364C2F3054383648B6858BF02F4806501
:1047480002F0404202639AB2C560826614F0020425
:10475800D1E903520AD10123C0E91852C0E914442F
:10476800C0E91644C364002030BC7047C0E9185241
:10477800C3F30A444A690134C2F30C05C464C2F3A2
:104788000C42DC00C0E9145201D56D4205659D005C
:1047980044BF524242658A695C0091B24FEA1242B4
:1047A800C0E9161244BF49428165002BDBDA30BCF0
:1047B8005242C26500207047012070470020000C5B
:1047C800002800F090802DE9F041154686B0002AB7
:1047D80047D043690446012B41D003680E46002B9D
:1047E80043D00A4322EA0302B2F5803F46D293F847
:1047F8002020002962D091F820108A422FD12A6AFD
:10480800D0B288422BD102F00202002A4FF00001F8
:104818004FF002023548DFF8D88022730EBF052713
:10482800072780462161002B3ED056B331462046EB
:1048380001AA0197FFF7E8FC002851D14FF6FC7058
:10484800A268039905EA0003914243EA080337D0B6
:1048580056F8271045F8271046F827301AE00423A1
:104868002361012006B0BDE8F08199B322EA010274
:10487800B2F5803F02D291F82010C0E705232361EA
:10488800EFE74FF6FC72134043EA0803A26845F8C5
:104898002730256001320023012118462361A260D8
:1048A800217306B0BDE8F081BEB14FF6FC732B4012
:1048B80043EA0803266046F82730ECE711469EE7EE
:1048C800616821B1014041EA080145F8271046F81E
:1048D8002730DFE702230373016101222560DAE74D
:1048E80006232361BDE70120704700BF000001FED9
:1048F800000001F840B1016800293BD043682BB1A2
:1049080099423BD004230361012070474269012A80
:10491800F8D02DE9F0410227077303610B6A1B4A9F
:104928003B401B4D8468002B4FEA11460BBF904655
:10493800A84605270727360414B34FF6FC7C012C3C
:1049480001EA0C0E734608D0012206EB8705EB58E6
:104958000132944203EA0C03F9D11E434EEA0803DC
:1049680046F82730002201230261037341600020CA
:10497800BDE8F081022303610120704700207047E1
:104988004FF6FC7E01EA0E0EE8E700BF000001F8D2
:10499800000001FE002852D0002950D00346006DC7
:1049A80000284CD093F8542093F854C0D2B2BCF1EC
:1049B800020F3FD0052A3DD00A7B022A41D010B40D
:1049C8001A68214CA24226D004F18054A24222D077
:1049D80004F170448034A2421DD004F18054A242F4
:1049E80019D004F1704404F57864A24213D004F19C
:1049F8008054A2420FD004F170448034A2420AD0FD
:104A080004F18054A24206D00A68126A920702D5BD
:104A180003230B6105E081284A6804D02AB10423E6
:104A28000B61012003E0002AF9D0002059675DF8E6
:104A3800044B704740210022996583F84C200120DF
:104A4800704701230B61FAE75003024003681869B5
:104A5800C0F30740704700BF002800F014812DE91B
:104A6800F84390F85C30044603F0FF02002B73D043
:104A78002268936923F010039361FEF713FD05463E
:104A880004E0FEF70FFD401B0A285BD823689A69EB
:104A98001207F6D49A6942F001029A61FEF702FD04
:104AA800054604E0FEF7FEFC401B0A284AD82268A7
:104AB8009369DB07F6D59369794943F002038A4283
:104AC800936100F0CE80237C012B93690CBF23F007
:104AD800400343F040039361637C012B93690CBF4F
:104AE80043F4804323F480439361A37C012B9369AF
:104AF8000CBF23F4805343F4805393619369A068F7
:104B080023F44073034393619369E16823F0A4039A
:104B180093611369012923F01003136121D021B394
:104B28000229936900F0B18043F08003936113690F
:104B3800032943F01003136117D1936943F020034D
:104B4800936112E00322236E012043F001032366E0
:104B580084F85C20BDE8F88380F85D20FCF764FAEF
:104B680086E7936943F004039361D4E90613013B94
:104B780001391B0243EA4163216AB0F5407F01F124
:104B8800FF3143EA0103616901F1FF3143EA01435F
:104B9800D3610ED1D4E90B03A16A013B01381B0193
:104BA800013943EA00230B43616A013943EA0143AF
:104BB800D3603C4B3C489A4203F5CC633B4E3C499E
:104BC80018BF1E46A3F518730CBF03468946394F14
:104BD800A1F5E47118BF8C4601F1D80108BFBC46A5
:104BE80007F1D80718BF0F4601F5A36118BF0146A2
:104BF800A0F53870304DDFF8CC8014BF8046A94648
:104C0800D2F8C0E0E06BA56B4EEA0000C2F8C00025
:104C1800D2F88000236420F4F81E606B4EEA00404E
:104C2800C2F88000D2F88000C4F8448020F0706098
:104C380040EA0560C2F880005A1C8A42C4E912C7DB
:104C48002665C4F8549010D900221C4BC3F8502F85
:104C580000230122236684F85C201846A365BDE87A
:104C6800F8836168164B19602DE79FED0B7B4A1E90
:104C7800D21A92080132520803EBC202A3EC027B5B
:104C88009A42FBD1E4E70120704743F02003936187
:104C98006BE700BFAFF300800000000000000000D9
:104CA80000A4004000A8004050AF0040B0B1004050
:104CB80078AE004000B00040C8B1004000A00040FD
:104CC80000A50040C0AF004090F85C200346013AC0
:104CD800012A05D91A6E012042F002021A667047AD
:104CE8008A6870B4D1E9035448699207D1E9006130
:104CF80056B942EAC56202431B6C42EA04420020EC
:104D080070BC43F8212070475B6C44EA457443F853
:104D18003140104303EBC103586070BC002070475A
:104D2800844690F85C00012807D0DCF86030012048
:104D380043F00403CCF86030704710B40198DCF8F5
:104D4800004040EA4303D4F8800043EA820242EA82
:104D5800011120F03F030B430020C4F880305DF8B8
:104D6800044B704790F85C200346012A05D01A6E60
:104D7800012042F004021A6670470222002110B492
:104D8800046880F85C20A269084622F00102A2614A
:104D98005DF8044B19667047F0B590F85C308646AC
:104DA800022B0BD10568D5F8C43013F4001C0BD0C6
:104DB800036E43F4007303660120F0BD036E43F0F5
:104DC800080303660120F0BDD5F8C4604B680C6980
:104DD80088680F68C6F30146002B37D1044344EABC
:104DE8008744D1E906030343486906EBC607034332
:104DF800086A43EA0063C86843EA0043DEF85400DF
:104E080040F8374000EBC7004360134CCB68E35CC5
:104E1800A3B19378D7781B0443EA07631778043261
:104E28003B4312F8037C43EA07230CEB0007BB6003
:104E3800CB680CF1040CE35C9C45EAD30123B34036
:104E4800C5F8CC300020CEF85830F0BD3C430443C0
:104E580044F08044C5E700BFACFD00082DE9F041EF
:104E680090F85C40022C0DD14029056810D0D5F887
:104E7800984024076ED1036E43F4807303660120C3
:104E8800BDE8F081036E43F0080303660120F7E7ED
:104E9800D5F890402607EED0D5F8904014F08074ED
:104EA80018BFD5F88040D5F8907018BFC4F34024D7
:104EB800C7F3012707EB0408846C08EBC80604EB6A
:104EC800C604266806F080465660002E5DD1266826
:104ED800C6F38A461660266806F00056966026686D
:104EE80006F000461661A688D661B4F806C00CF034
:104EF8000F0CC2F80CC0666806F480165661666826
:104F080006F400169661E67906F07F061662224ED0
:104F1800676816F80CE04FEAD77CC2F824C0BEF1E7
:104F2800000F10D0013B04F1070EF4461EF8015F94
:104F3800ACF1060C03F8015FD568ACEB040C755DA9
:104F48006545F2D80568402923D0C5F89C80002023
:104F5800BDE8F081D5F8984014F0807418BFD5F8F2
:104F68008040D5F8987018BFC4F30024C7F3012710
:104F780007EB0408C46C08EBC80604EBC6042668F3
:104F880006F080465660002EA1D0266826F06046BE
:104F9800A0E7C5F89480DAE7ACFD0008034690F86E
:104FA8005C000138012805D91A6E012042F002027E
:104FB8001A6670471B6870B411F00705986D01F008
:104FC800380409D0C60707D4DD6D45F00105DD6555
:104FD80054B184072FD407E004B386071ED4DE6DCE
:104FE80046F00106DE6525BB11F4E07F01D04607D7
:104FF80021D411F4F05F01D005071CD411F4604FDF
:1050080001D0C40617D411F4403F01D0860612D44B
:1050180011F47C0F13D045060DD410E011F4E07F95
:1050280021D046071FD4DE6D46F00106DE65002D4F
:10503800CED0C507CCD5D86D40F00200D8650C0697
:1050480004D5D3F8DC001043C3F8DC00C80504D548
:10505800D3F8E0000243C3F8E0205A6D002070BC8A
:105068000A435A65704711F4F05F01D00607DAD594
:1050780011F4604F01D0C606D5D511F4403F01D0D8
:105088008606D0D511F47C0FD1D04606CBD5002D9D
:105098009ED0CEE7704700BF704700BF704700BF83
:1050A800704700BF704700BF704700BF704700BF20
:1050B800704700BF704700BF704700BF2DE9F84F29
:1050C800036804461A6D596D02EA010A1A6D596D92
:1050D8000AF4E05A02EA01091A6D596D1E6D02EAD6
:1050E80001085A6D1F6D16405A6DD3F854B01D6DE6
:1050F8001740690609F0070908F0380806F4710630
:1051080007F4602702D51BF0400F73D1EA0502D5DA
:105118001BF4807F5DD1BAF1000F4AD1B9F1000FBD
:1051280035D1B8F1000F3CD1AB0502D51BF4007F97
:1051380075D1280602D51BF0800F78D1A90402D5B5
:105148001BF4005F5BD12A0402D51BF4004F5ED12B
:105158006B040AD51BF4804F07D04FF480422368B4
:105168001A65236E43F0800323664FB926B123687E
:105178001E65236E33432366236E2BBBBDE8F88F71
:105188002368394620461F65FFF796FFEEE7236838
:1051980049462046C3F85090FCF7B6FEB8F1000F18
:1051A800C2D0236841462046C3F85080FFF774FFF9
:1051B800BAE7236851462046C3F850A0FFF76AFFB4
:1051C800B9F1000FADD0E2E72046FFF773FFBDE865
:1051D800F88F4FF4807223682046D3F8D8C0D3F8EC
:1051E800E0101A650CEA0101FFF75CFFBAF1000F45
:1051F80094D0DEE740221A65FFF75AFF86E74FF49E
:105208000052236820461A65FFF74EFF9BE74FF4CC
:105218000042236820461A65FFF748FF98E74FF4D5
:105228000072236820461A65FFF738FF81E780225D
:1052380023682046D3F8D4C0D3F8DC101A650CEAEA
:105248000101FFF72DFF79E72DE9F04F0D6885B0D3
:10525800002D00F0B6805C4A002302EA90224FF04D
:10526800010BDFF868A10392019159E0D0F800E042
:105278000CF1FF3C0EEA060E4EEA010EBCF1010FDE
:10528800C0F800E040F28580019AB8F1030F9268F7
:1052980001D1012A04D0BA40C7683E403243C260F7
:1052A800E20039D50F2123F0030606F1884603F002
:1052B800030206F50836D200376E01FA02FC03999C
:1052C80027EA0C0701FA02F23A4332666FEA090646
:1052D800DAF80020E70254BF324049EA0202CAF86D
:1052E8000020DAF80420A10254BF324049EA020241
:1052F800CAF80420DAF88420A70354BF324049EAE8
:105308000202CAF88420DAF88020E10354BF324050
:1053180049EA0202CAF88020013335FA03F250D074
:105328000BFA03F212EA0509F6D001995F004C68FE
:10533800032124F0100C04EA010801FA07F6BCF175
:10534800020F08FA07F16FEA060602918ED1019959
:105358004FEAD308096903F0070C01F00F0E0F217B
:1053680000EB88084FEA8C0C0EFA0CFE01FA0CFCD4
:10537800D8F8201021EA0C0C4EEA0C0EC8F820E0F0
:10538800D0F800C002990CEA060C4CEA010CC0F8EF
:1053980000C00199D0F808E0C9680EEA060E01FAC3
:1053A80007FC4CEA0E0CC0F808C0D0F804C00199FC
:1053B8002CEA020C22099A4042EA0C0242608A68EE
:1053C80069E705B0BDE8F08F7F7F2F000020024419
:1053D8000AB1816170478162704700BF436901EA81
:1053E800030221EA030141EA02418161704700BFDB
:1053F800002855D038B590F84130044603F0FF0234
:10540800002B48D0D4E90032242184F841101968CF
:1054180022F0706221F00101E568A06819601A6144
:105428009A68012D22F400429A6009D040F40440A1
:10543800022D986007D15A6842F400625A6006E06B
:1054480040F4004098605A6822F400625A600021D3
:105458004FF0200C5A6842F0007242F400425A6041
:10546800DA6822F40042DA60D4E904200243A06931
:1054780042EA0022DA60D4E9072002431A601A6877
:10548800084642F001021A60616484F841C0216351
:1054980084F8421038BD80F84020FBF725FFB1E7BB
:1054A8000120704770B490F84140202C36D105682F
:1054B800AC6914F4004431D190F840C0BCF1010F3C
:1054C8002CD04262212280F84120102280F842200C
:1054D800174A44644385C262438D164A9BB2FF2B28
:1054E80042631ED84FF00074428D93B2D2B21204B8
:1054F8000385C1F309031343002269680E4E314046
:105508000B43234343F400536B6080F840202B681F
:10551800104643F0F2032B6070BC7047022070BC49
:1055280070474FF47F02FF234FF08074E0E700BF1D
:105538000000FFFF615B0008009800FC70B490F861
:105548004140202C36D10568AC6914F4004431D1AF
:1055580090F840C0BCF1010F2CD04262222280F8A2
:105568004120102280F84220174A44644385C262D1
:10557800438D164A9BB2FF2B42631ED84FF000742E
:10558800428D93B2D2B212040385C1F309031343C7
:10559800002269680E4E31400B43234343F41053F5
:1055A8006B6080F840202B68104643F0F4032B60B2
:1055B80070BC7047022070BC70474FF47F02FF2315
:1055C8004FF08074E0E700BF0000FFFF615B000858
:1055D800009800FC70B5844690F84100BDF814505E
:1055E80020284FD10498002846D0002D44D0DCF85C
:1055F8000040A06910F4004044D19CF840E0BEF19E
:10560800010F3FD04FF0010E8CF840E04FF0210E13
:105618008CF841E04FF0400EACF828008CF842E0DE
:10562800CCF844001B48ACF82A50049ECCF82C0057
:105638001948012BCCF83400CCF82460CCF84C1075
:10564800D0B221D0120AA262CCF85000C1F30902EC
:10565800DBB2606842EA0343104A02400020134369
:1056680043F0807343F4005363608CF84000236870
:1056780043F0F203236070BD4FF400730120CCF8AF
:10568800443070BD022070BD4FF0FF32A062CCF8EC
:105698005020DBE70000FFFF3D5D0008009800FC9C
:1056A80070B5844690F84100BDF8145020284BD1BD
:1056B8000498002842D0002D40D0DCF80040A069B2
:1056C80010F4004040D19CF840E0BEF1010F3BD0FF
:1056D8004FF0010E8CF840E04FF0220E8CF841E0BC
:1056E8004FF0400E8CF842E0CCF844001A48ACF871
:1056F8002A50049ECCF82C001848012BCCF8340012
:10570800CCF82460CCF84C10D0B21FD0120AA26298
:10571800CCF85000C1F30902DBB2606842EA0343E7
:105728000F4A02400020134343F4005363608CF88F
:105738004000236843F0F203236070BD4FF4007308
:105748000120CCF8443070BD022070BD4FF0FF320C
:10575800A062CCF85020DDE70000FFFF3D5D0008A7
:10576800009800FC0268436B9169126803B11847FE
:10577800704700BF704700BF704700BF0022016834
:1057880010B50B6880F842205A0423D50B6823F41F
:1057980080430B6090F84130292B25D090F8413098
:1057A8002A2B00D010BD2824222380F8414003630F
:1057B80090F8413000222340A34214BF6FF0F40355
:1057C8006FF044030C6823400B6080F84020FFF71B
:1057D800D3FF10BD1B04DDD50B6823F400430B6019
:1057E80090F84130292BD9D12824212380F8414031
:1057F800036390F8413000222340A34214BF6FF0A6
:10580800F2036FF042030C6823400B6080F84020DD
:10581800FFF7B0FF10BD00BF704700BF70B5046848
:10582800C368A169A269022B4FEA1242A56884469F
:10583800E668C1F3004102F0FE020FD182EAD513F7
:1058480013F00603C5F3090206D1856C013585649A
:10585800856C022D0CD070BD06F0FE020025236871
:1058680023F0B80323608CF84050FFF7D5FF70BDD4
:1058780008258364E56180F84030FFF7CDFF70BDEF
:10588800704700BF704700BF704700BFC06D08B5C4
:10589800836B0BB10022DA66C36B0BB10022DA66A8
:1058A80090F84130602B4FF0000305D0036380F877
:1058B8004030FFF7E7FF08BD202280F8403080F82D
:1058C80041200363FFF7E0FF08BD00BF70B5002566
:1058D800554B90F8412080F84250C3624585436C8F
:1058E800283A0B43022A43640446036863D890F8B5
:1058F800411090F8412001F02801282902F02802DF
:1059080014BF6FF0F6006FF04600282A18BF6FF03A
:10591800F60028251A68454902401A6084F8415063
:10592800A06B226B616318B1112A14D0212A12D0FE
:10593800E06B18B1122A24D0222A22D094F84130E0
:10594800602B4FF0000365D02046236384F8403075
:10595800FFF798FF70BD1A68510456D4FEF734FC5F
:105968000128EBD00023A06B314AC26684F840308E
:10597800FEF754FB0028EDD0A06BBDE87040C36E65
:1059880018471A68120403D51A6822F400421A60EC
:10599800FEF71AFC0128D1D00023E06B244AC26626
:1059A80084F84030FEF73AFB0028D3D0E06BBDE81E
:1059B8007040C36E184790F8412090F841201A684B
:1059C80022F0FE021A609A69920748BF9D629A699E
:1059D800D60703D49A6942F001029A6194F84120EB
:1059E800602A10D0202284F841209A6995060AD5A9
:1059F8009A69D00605D51022DA61626C42F0040279
:105A080062642022DA6100218AE71A6822F480425F
:105A18001A60A3E72022204684F8412084F8403009
:105A28002363FFF731FF70BD0000FFFFE561000849
:105A380095580008202230B5036883B0DA6190F8E1
:105A48004120212A90F8412050D0222A37D05A6884
:105A58003F4CCD0602EA04024FF000045A603D4A6A
:105A68004463C26205D51022DA61426C42F0040236
:105A7800426490F84120602A31D09A69910744BF66
:105A880000229A629A69D20703D49A6942F0010205
:105A98009A61436C90F84120602A0AD04BB990F87B
:105AA8004120212A3FD090F84120222A2CD003B04F
:105AB80030BD416C03B0BDE83040FFF707BF90F838
:105AC8004120122402F02802282A14BF6FF0F402A1
