:020000040800F2
:1000000000400420C11800086D1500087115000893
:1000100075150008791500087D15000811190008EC
:100020000000000000000000000000008115000832
:100030008515000800000000891500088D150008CE
:1000400011190008111900081119000811190008E8
:1000500011190008111900081119000811190008D8
:1000600011190008111900081119000811190008C8
:1000700011190008111900081119000811190008B8
:1000800011190008111900081119000811190008A8
:100090001119000811190008111900081119000898
:1000A000111900081119000811190008911500080C
:1000B0001119000811190008111900081119000878
:1000C0001119000811190008111900081119000868
:1000D0000000000011190008111900089D15000802
:1000E0001119000811190008111900081119000848
:1000F0001119000811190008111900081119000838
:1001000011190008A9150008B515000811190008F3
:1001100011190008C9150008D515000811190008A3
:100120001119000811190008111900081119000807
:1001300011190008111900081119000811190008F7
:1001400011190008111900081119000811190008E7
:1001500011190008111900081119000811190008D7
:100160000000000000000000E1150008111900085F
:1001700011190008111900081119000811190008B7
:10018000ED150008F915000811190008000000001D
:10019000000000001119000800000000000000002D
:1001A00000000000000000001119000811190008EB
:1001B0001119000811190008111900081119000877
:1001C00011190008111900080000000000000000CB
:1001D00000000000000000000000000011190008ED
:1001E00011190008111900080000000000000000AB
:1001F0001119000811190008111900080000000069
:10020000000000001119000811190008000000008A
:10021000000000001119000800000000111900087A
:10022000111900080000000000000000111900086A
:10023000111900080000000000000000000000008C
:10024000000000000000000000000000111900087C
:040250001119000878
:1002580010B5054C237833B9044B13B10448AFF3F8
:1002680000800123237010BD380400200000000026
:1002780058EA000808B5034B1BB103490348AFF31C
:10028800008008BD000000003C04002058EA000877
:10029800034613F8012B002AFBD1181A01387047BE
:1002A80081F0004102E000BF83F0004330B54FEA1F
:1002B80041044FEA430594EA050F08BF90EA020F8C
:1002C8001FBF54EA000C55EA020C7FEA645C7FEA1F
:1002D800655C00F0E2804FEA5454D4EB5555B8BF42
:1002E8006D420CDD2C4480EA020281EA030382EAB3
:1002F800000083EA010180EA020281EA0303362D45
:1003080088BF30BD11F0004F4FEA01314FF4801C17
:100318004CEA113102D0404261EB410113F0004F29
:100328004FEA03334CEA133302D0524263EB4303E0
:1003380094EA050F00F0A780A4F10104D5F1200E7E
:100348000DDB02FA0EFC22FA05F2801841F10001D9
:1003580003FA0EF2801843FA05F359410EE0A5F1AD
:1003680020050EF1200E012A03FA0EFC28BF4CF0DE
:10037800020C43FA05F3C01851EBE37101F0004594
:1003880007D54FF0000EDCF1000C7EEB00006EEBA1
:100398000101B1F5801F1BD3B1F5001F0CD349082B
:1003A8005FEA30004FEA3C0C04F101044FEA445282
:1003B80012F5800F80F09A80BCF1004F08BF5FEA09
:1003C800500C50F1000041EB045141EA050130BDE9
:1003D8005FEA4C0C404141EB0101013C28BFB1F5FB
:1003E800801FE9D291F0000F04BF01460020B1FA46
:1003F80081F308BF2033A3F10B03B3F120020CDA19
:100408000C3208DD02F1140CC2F10C0201FA0CF0F6
:1004180021FA02F10CE002F11402D8BFC2F1200C5B
:1004280001FA02F120FA0CFCDCBF41EA0C01904011
:10043800E41AA2BF01EB0451294330BD6FEA04045A
:100448001F3C1CDA0C340EDC04F11404C4F1200245
:1004580020FA04F001FA02F340EA030021FA04F357
:1004680045EA030130BDC4F10C04C4F1200220FAAE
:1004780002F001FA04F340EA0300294630BD21FAEC
:1004880004F0294630BD94F0000F83F4801306BFB2
:1004980081F480110134013D4EE77FEA645C18BFA6
:1004A8007FEA655C29D094EA050F08BF90EA020F3D
:1004B80005D054EA000C04BF1946104630BD91EA35
:1004C800030F1EBF0021002030BD5FEA545C05D138
:1004D8004000494128BF41F0004130BD14F5800477
:1004E8003CBF01F5801130BD01F0004545F0FE41EB
:1004F80041F470014FF0000030BD7FEA645C1ABF20
:10050800194610467FEA655C1CBF0B46024650EA56
:10051800013406BF52EA033591EA030F41F4002182
:1005280030BD00BF90F0000F04BF0021704730B508
:100538004FF4806404F132044FF000054FF00001DD
:1005480050E700BF90F0000F04BF0021704730B59E
:100558004FF4806404F1320410F0004548BF404273
:100568004FF000013EE700BF42004FEAE2014FEAC8
:1005780031014FEA02701FBF12F07F4393F07F4FA3
:1005880081F06051704732F07F4208BF704793F0A6
:100598007F4F04BF41F40021704730B54FF46074B9
:1005A80001F0004521F000411CE700BF50EA0102BC
:1005B80008BF704730B54FF000050AE050EA010265
:1005C80008BF704730B511F0004502D5404261EBD5
:1005D80041014FF4806404F132045FEA915C3FF416
:1005E800D8AE4FF003025FEADC0C18BF03325FEAB3
:1005F800DC0C18BF033202EBDC02C2F1200300FA64
:1006080003FC20FA02F001FA03FE40EA0E0021FA88
:1006180002F11444BDE600BF70B54FF0FF0C4CF476
:10062800E06C1CEA11541DBF1CEA135594EA0C0F28
:1006380095EA0C0F00F0DEF82C4481EA030621EA63
:100648004C5123EA4C5350EA013518BF52EA03359E
:1006580041F4801143F4801338D0A0FB02CE4FF050
:100668000005E1FB02E506F00042E0FB03E54FF080
:100678000006E1FB03569CF0000F18BF4EF0010E78
:10068800A4F1FF04B6F5007F64F5407404D25FEA74
:100698004E0E6D4146EB060642EAC62141EA555127
:1006A8004FEAC52040EA5E504FEACE2EB4F1FD0C69
:1006B80088BFBCF5E06F1ED8BEF1004F08BF5FEAE7
:1006C800500E50F1000041EB045170BD06F0004699
:1006D80046EA010140EA020081EA0301B4EB5C0446
:1006E800C2BFD4EB0C0541EA045170BD41F480113E
:1006F8004FF0000E013C00F3AB8014F1360FDEBF63
:10070800002001F0004170BDC4F10004203C35DA3E
:100718000C341BDC04F11404C4F1200500FA05F3C1
:1007280020FA04F001FA05F240EA020001F0004262
:1007380021F0004110EBD37021FA04F642EB0601D8
:100748005EEA430E08BF20EAD37070BDC4F10C0402
:10075800C4F1200500FA04F320FA05F001FA04F2C6
:1007680040EA020001F0004110EBD37041F10001B2
:100778005EEA430E08BF20EAD37070BDC4F12005BD
:1007880000FA05F24EEA020E20FA04F301FA05F225
:1007980043EA020321FA04F001F0004121FA04F2CD
:1007A80020EA020000EBD3705EEA430E08BF20EA9D
:1007B800D37070BD94F0000F0FD101F000464000D7
:1007C80041EB010111F4801F08BF013CF7D041EA59
:1007D800060195F0000F18BF704703F0004652005D
:1007E80043EB030313F4801F08BF013DF7D043EA2E
:1007F8000603704794EA0C0F0CEA135518BF95EAE4
:100808000C0F0CD050EA410618BF52EA4306D1D16A
:1008180081EA030101F000414FF0000070BD50EA89
:10082800410606BF1046194652EA430619D094EA13
:100838000C0F02D150EA013613D195EA0C0F05D1FD
:1008480052EA03361CBF104619460AD181EA030151
:1008580001F0004141F0FE4141F470014FF0000009
:1008680070BD41F0FE4141F4780170BD70B54FF0A4
:10087800FF0C4CF4E06C1CEA11541DBF1CEA135524
:1008880094EA0C0F95EA0C0F00F0A7F8A4EB050406
:1008980081EA030E52EA03354FEA013100F08880FD
:1008A8004FEA03334FF0805545EA131343EA1263C6
:1008B8004FEA022245EA111545EA10654FEA00267B
:1008C8000EF000419D4208BF964244F1FD0404F534
:1008D800407402D25B084FEA3202B61A65EB030590
:1008E8005B084FEA32024FF480104FF4002CB6EB4D
:1008F800020E75EB030E22BFB61A754640EA0C00CD
:100908005B084FEA3202B6EB020E75EB030E22BF0C
:10091800B61A754640EA5C005B084FEA3202B6EB4D
:10092800020E75EB030E22BFB61A754640EA9C000C
:100938005B084FEA3202B6EB020E75EB030E22BFDC
:10094800B61A754640EADC0055EA060E18D04FEA9A
:10095800051545EA16754FEA06164FEAC30343EA3A
:1009680052734FEAC2025FEA1C1CC0D111F4801F07
:100978000BD141EA00014FF000004FF0004CB6E700
:1009880011F4801F04BF01430020B4F1FD0C88BF9F
:10099800BCF5E06F3FF6AFAEB5EB030C04BFB6EBAA
:1009A800020C5FEA500C50F1000041EB045170BD9D
:1009B8000EF0004E4EEA113114EB5C04C2BFD4EBCA
:1009C8000C0541EA045170BD41F480114FF0000E4E
:1009D800013C90E645EA060E8DE60CEA135594EACA
:1009E8000C0F08BF95EA0C0F3FF43BAF94EA0C0FCD
:1009F8000AD150EA01347FF434AF95EA0C0F7FF442
:100A080025AF104619462CE795EA0C0F06D152EA95
:100A180003353FF4FDAE1046194622E750EA410679
:100A280018BF52EA43067FF4C5AE50EA41047FF48A
:100A38000DAF52EA43057FF4EBAE12E74FF0FF3CEF
:100A480006E000BF4FF0010C02E000BF4FF0010CC0
:100A58004DF804CD4FEA410C7FEA6C5C4FEA430C39
:100A680018BF7FEA6C5C1BD001B050EA410C0CBF88
:100A780052EA430C91EA030F02BF90EA020F0020EA
:100A8800704710F1000F91EA030F58BF994208BF51
:100A980090422CBFD8176FEAE37040F0010070470E
:100AA8004FEA410C7FEA6C5C02D150EA013C07D165
:100AB8004FEA430C7FEA6C5CD6D152EA033CD3D0B0
:100AC8005DF8040B704700BF8446104662468C46AA
:100AD8001946634600E000BF01B5FFF7B7FF0028DD
:100AE80048BF10F1000F01BD4DF808EDFFF7F4FF06
:100AF8000CBF012000205DF808FB00BF4DF808ED91
:100B0800FFF7EAFF34BF012000205DF808FB00BFB3
:100B18004DF808EDFFF7E0FF94BF012000205DF8D5
:100B280008FB00BF4DF808EDFFF7CEFF94BF01208A
:100B380000205DF808FB00BF4DF808EDFFF7C4FF83
:100B480034BF012000205DF808FB00BF4FEA410CCC
:100B58007FEA6C5C02D150EA013C0AD14FEA430CAF
:100B68007FEA6C5C02D152EA033C02D14FF00000EC
:100B780070474FF0010070474FEA410212F500122A
:100B880015D211D56FF47873B3EB625212D94FEACC
:100B9800C12343F0004343EA505311F0004F23FAB6
:100BA80002F018BF404270474FF00000704750EA0B
:100BB800013005D111F0004008BF6FF000407047C8
:100BC8004FF00000704700BF4A0011D212F5001222
:100BD80011D20DD56FF47873B3EB62520ED44FEA8D
:100BE800C12343F0004343EA505323FA02F070470D
:100BF8004FF00000704750EA013002D14FF0FF304B
:100C080070474FF0000070474FEA4102B2F1E043ED
:100C180024BFB3F5001CDCF1FE5C0DD901F0004CDB
:100C28004FEAC0024CEA5070B2F1004F40EB83002B
:100C380008BF20F00100704711F0804F21D113F157
:100C48003872BCBF01F00040704741F480114FEA90
:100C58005252C2F11802C2F1200C10FA0CF320FA19
:100C680002F018BF40F001004FEAC1234FEAD32336
:100C780003FA0CFC40EA0C0023FA02F34FEA4303A0
:100C8800CCE77FEA625307D150EA01331EBF4FF029
:100C9800FE4040F44000704701F0004040F0FE4044
:100CA80040F40000704700BF38B500220023044616
:100CB8000D46FFF723FF28B920462946BDE83840EE
:100CC80000F00AB8204605F1004100F005F840425E
:100CD80061EB410138BD00BFD0B500220B4B064681
:100CE8000F46FFF799FCFFF76FFF0446FFF71AFC62
:100CF8000022074BFFF790FC02460B463046394668
:100D0800FFF7D2FAFFF760FF2146D0BD0000F03DA3
:100D18000000F04110B588B02022002168460AF092
:100D2800B6F94FF480240023364801224FF40041DD
:100D3800C0E90143038380F820300363836380F8AC
:100D48003C304FF4B463026180F834200522C1605E
:100D5800836208214FF48063C2612B4A41610260BB
:100D6800C36201F0A9FB002838D101210623022023
:100D78007F22CDE9001304240023CDE9020269464D
:100D880020480494059301F0C5FC002836D10C23B3
:100D98001E4A69461B48CDE9002301F0BBFC50BB45
:100DA80012231B4A69461748CDE9002301F0B2FC1B
:100DB800F0B91823174A69461248CDE9002301F013
:100DC800A9FC90B94FF48073134A69460D48CDE9E0
:100DD800002301F09FFC20B908B010BD00F0BEFB55
:100DE800C3E700F0BBFB08B010BD00F0B7FBE9E7B4
:100DF80000F0B4FBDDE700F0B1FBD1E700F0AEFB9B
:100E0800C5E700BF08050020008002420200300448
:100E18000040C03A0080F03E0000844B0000000013
:100E280030B500240546D9B06C22214608A8CDE982
:100E38000244CDE9044406940AF029F9D022214657
:100E480024A80AF024F9504B2A689A4201D059B0D4
:100E580030BD02232822279329934C9303232892F9
:100E680026934FF480220C239FED457B2F922C93E1
:100E78000222042324A88DED247BCDE92A2305F042
:100E8800A3FF002867D1414B0024D3F88C204048A9
:100E980042F48062C3F88C20D3F88C2002A902F4B3
:100EA80080620092009AD3F88C2042F00102C3F8C5
:100EB8008C20D3F88C301F2203F001030193019B8F
:100EC80003230494CDE9022303F0AAF901234FF484
:100ED80000212122CDE911330E934FF480330D9177
:100EE80008A82C49CDE90944CDE90B44CDE91344C0
:100EF800199417940892159416940F9302F030FBE6
:100F0800002837D10021234A234802F049FC70BB4E
:100F1800214802F0DFFC38BB002381221F4C204906
:100F28002046C4E90E33C4E910332160A26402F0FC
:100F3800C5F9B0B91849194802F01CFD70B92C65FB
:100F480010211648E56502F033F900283FF47FAF19
:100F580000F004FB7BE700F001FB94E700F0FEFAE9
:100F6800EDE700F0FBFAE5E700F0F8FAD4E700F067
:100F7800F5FACDE700F0F2FAC4E700BFAFF300805E
:100F8800000020000000000000800242000C024423
:100F980000000242E4040020CC0400205404002095
:100FA80050000240002330B5012204255D241F2192
:100FB8001B4889B0C0E90133C0E90E33C36003821E
:100FC8008374184BC0E90624C0E90812C0E90A2254
:100FD800C0E90C224561036002F02AFDC8B900236C
:100FE800012540F2DF7440F2FF720D4802A9CDE9F5
:100FF8000233CDE90435CDE9064202F04FFE58B977
:101008000123022200931146054802F073FE09B03D
:1010180030BD00F0A3FAE2E700F0A0FAF0E700BF65
:101028007005002000A4004010B500210446BCB0A3
:10103800D02208A8CDE90211CDE9041106910AF0E1
:1010480026F8294B22689A4201D03CB010BD9FED8A
:10105800207B4FF4807308A88DED087B2D9305F055
:10106800B3FE80BB9FED1C7B204B0924D3F8A02046
:1010780002A942F40072C3F8A020D3F8A0201C48AB
:1010880002F400720092009AD3F88C2042F0020217
:10109800C3F88C20D3F88C308DED027B9FED107B4C
:1010A80003F0020301938DED047B019B069403F08A
:1010B800B7F800222146272001F0A6FE272001F0DC
:1010C800DFFE3CB010BD00F049FACBE7AFF300807B
:1010D8000000000004000000800100000200000081
:1010E800000000000000000000A40040000C0244C2
:1010F8000004024200220C4B00B5D3F8881083B0DC
:1011080041F00101C3F88810D3F888301B2003F0A0
:10111800010301931146019B01F076FE1B2003B0E9
:101128005DF804EB01F0ACBE000C024470B500247D
:101138008AB0CDE90444CDE906442D4B0894D3F890
:101148008C202C4E42F00402C3F88C20D3F88C205B
:10115800294D02F004020092009AD3F88C20304600
:1011680042F08002C3F88C20D3F88C204FF4005151
:1011780002F080020192019AD3F88C2042F0010219
:10118800C3F88C20D3F88C2002F001020292029A54
:10119800D3F88C2042F00202C3F88C20D3F88C30AC
:1011A800224603F002030393039B03F003F922464C
:1011B8002846032103F0FEF84FF400520123CDE93D
:1011C800042300220023304604A9CDE90623002485
:1011D80003F026F8032201232846032504A9CDE9B4
:1011E8000645CDE9042303F01BF80AB070BD00BF23
:1011F800000C0244000802420004024200230122BB
:1012080010B51748174C1849C0E90232C0E9004127
:10121800C0E90433C0E90633036203F0DBF850B9D0
:1012280000210F4803F05AFF68B900210C4803F069
:101238007FFF80B910BD00F091F90021084803F044
:101248004DFF0028F1D000F089F90021044803F08F
:101258006FFF0028EED0BDE8104000F07FB900BF56
:101268003006002000580040D38C80600023012203
:1012780010B51748174C1849C0E90232C0E90041B7
:10128800C0E90433C0E90633036203F0A3F850B998
:1012980000210F4803F022FF68B900210C4803F031
:1012A80047FF80B910BD00F059F90021084803F044
:1012B80015FF0028F1D000F051F90021044803F08F
:1012C80037FF0028EED0BDE8104000F047B900BF56
:1012D800D805002000280044E543C01000000000A5
:1012E800D0B500210446C0B0D0220CA8CDE9061123
:1012F800CDE908110A9109F0CAFE594A23689342B8
:1013080004D0584A934245D040B0D0BD4FF48042F3
:1013180000230CA8CDE90C2305F056FD002840F069
:1013280095809FED4D7B0422002600274E4C06A990
:10133800D4F88C304D4843F00203C4F88C30D4F80C
:101348008C308DED067B03F002030193019B0A921A
:10135800CDE9086702F064FF0022D4F89C301146FA
:1013680043F48003C4F89C30D4F89C30352003F44F
:1013780080030293029B01F047FD352001F080FDB8
:1013880000223620114601F03FFD362001F078FD9D
:1013980040B0D0BD4FF4004200230CA8CDE90C2387
:1013A80005F012FD002854D14FF480701221042258
:1013B800002600272C4CD4F88C3043F00103C4F8E5
:1013C8008C30D4F88C3003F001030393039BD4F8DA
:1013D8008C3043F00203C4F88C30D4F88C30CDE95B
:1013E800060103F00203049306A92148CDE9086722
:1013F8000A92049B02F014FFCDE90867092310261E
:10140800122706A919480A93CDE9066702F008FFD2
:101418000022D4F8A830114643F08003C4F8A8305D
:10142800D4F8A830502003F080030593059B01F001
:10143800EBFC502001F024FD00225120114601F060
:10144800E3FC512001F01CFD40B0D0BD00F086F84F
:1014580067E700F083F8A7E7001400001200000017
:101468000058004000280044000C024400040242D6
:1014780000000242002330B59DB0CDE90B33CDE921
:101488000D33CDE90F33CDE90333CDE90533234AD5
:101498000A9302930793136943F0300313611369A6
:1014A80003F030030193019B53691B07FCD502230A
:1014B80021204FF480314FF48054CDE908010022F7
:1014C8002821CDE916331194129314931893032409
:1014D8000C2308A81993CDE91A221394159104F046
:1014E800C5FE034608B172B6FEE71F250022CDE906
:1014F800034305930023052102A8CDE9062302959D
:1015080005F006FA08B172B6FEE7054A136823F03B
:10151800300343F0200313601DB030BD00080244BF
:101528000020024008B500F08FFFFFF7A3FFFFF788
:10153800FDFDFFF7DFFD00F039F900F0A3F9FFF733
:10154800E9FBFFF72FFD00F007F9FFF757FEFFF75C
:101558008DFE00F03DFE00F051FEFCE772B6FEE79E
:10156800704700BFFEE700BFFEE700BFFEE700BF11
:10157800FEE700BFFEE700BF704700BF704700BF2F
:10158800704700BF00F086BF014801F04DBD00BFA5
:1015980054040020014802F07DBD00BF7005002002
:1015A800014806F0FFBA00BFD806002008B5034876
:1015B80006F0F8FABDE8084000F0E2BD8806002011
:1015C800014803F029B800BF30060020014803F0A5
:1015D80015BB00BF30060020014803F0F1BE00BF74
:1015E80024070020014803F017B800BFD8050020E1
:1015F800014803F003BB00BFD80500200120704755
:1016080008B509F097FD162203464FF0FF301A601F
:1016180008BD00BF08B509F08DFD16230360FEE77D
:1016280070B5161E07DD0C468D19AFF3008004F85F
:10163800010BA542F9D1304670BD00BF70B5161E2A
:1016480007DD0C468D1914F8010BAFF30080AC428E
:10165800F9D1304670BD00BF4FF0FF30704700BF72
:101668004FF4005300204B60704700BF01207047C3
:10167800002070470D49034610B50D4A0D4C086807
:10168800121B20B10344934207D80B6010BD0A4CCB
:101698002046034493420C60F7D909F04BFD0C2215
:1016A80003464FF0FF301A6010BD00BF84060020CB
:1016B8000040042000040000D0300020F0B40022D4
:1016C80001274FF000661D491D4CD1F888301D4890
:1016D80043F47003C1F888301B4B1C4D1F60DA615E
:1016E8001A621F683C401C609A62DA621A63586387
:1016F8009A63D8631A6458649A64186820F480203E
:1017080018601A658E60AB6903F04043B3F1404F2F
:1017180001D0F0BC7047EB69DB0703D50C4A0D4BD1
:10172800EA60EB60094BF0BCDA6942F00202DA6168
:10173800DA6942F00102DA61704700BF00ED00E0AB
:10174800E3EAE2EA80020101000C024400200240C0
:101758003B2A19087F6E5D4C002346F2A8118022AF
:1017680010B51048104C84B0C0E90133CDE90233FC
:1017780004600193C160826106F0D6F850B9202256
:101788000023084801A90192039306F0EFFA20B953
:1017980004B010BDFFF7E2FEF1E7FFF7DFFE04B08B
:1017A80010BD00BFD80600200010004000236321B0
:1017B80010B58022F924104884B0C0E90231CDE97F
:1017C800023301930D4B44608261036006F0ACF86C
:1017D80050B920220023084801A90192039306F07A
:1017E800C5FA20B904B010BDFFF7B8FEF1E7FFF75E
:1017F800B5FE04B010BD00BF8806002000140040EC
:1018080000B51D4A036883B0934205D01B4A934232
:101818001AD003B05DF804FB0022194B3120D3F82D
:101828009C1041F01001C3F89C10D3F89C3011466D
:1018380003F010030093009B01F0E6FA312003B097
:101848005DF804EB01F01CBB0D4B3220D3F89C1063
:10185800002241F02001C3F89C10D3F89C300B21E2
:1018680003F020030193019B01F0CEFA322003B06C
:101878005DF804EB01F004BB0010004000140040C8
:10188800000C024402230821002210B50848094C24
:10189800C37104600171C0F80930C0F80D2003F06D
:1018A80073FC00B910BDBDE81040FFF757BE00BF7C
:1018B80024070020006001400D488546FFF7FEFE22
:1018C8000C480D490D4A002302E0D458C450043393
:1018D800C4188C42F9D30A4A0A4C002301E0136069
:1018E8000432A242FBD309F02BFCFFF71BFEFEE7F4
:1018F80000400420000000203804002018EF0008F1
:1019080038040020D0300020FEE70000000000006E
:101918002DE9F843524C2378002B00F08F80042BDC
:1019280040F087804F4B504AB3F90000B3F90210DA
:10193800DFF85891B3F90430DFF854811080A9F822
:101948000010A8F800301088484F00B2FEF7FAFDE2
:1019580041A3D3E90023FEF75FFEFFF755F938608E
:10196800B9F80000424E00B2FEF7ECFD3AA3D3E905
:101978000023FEF751FEFFF747F93060B8F8000082
:101988003C4D00B2FEF7DEFD33A3D3E90023FEF79A
:1019980043FEFFF739F92860D7ED005A97ED006A42
:1019A800D6ED007A96ED005A67EE857AD5ED006A95
:1019B800E5EE867A95ED007AE6EE877A17EE900ADC
:1019C800FEF7D2FD41EC100B0CF038FF51EC100B78
:1019D800FFF71AF9284ADFED295A1060D7ED006A97
:1019E80096ED007A95ED006A26EE256A66EEA56A00
:1019F800BDEEC66AD2ED007A27EE257A16EE102AD9
:101A0800FDEEE66A1E4B67EEA57AA3F80E22BDEE40
:101A1800C77A16EE902AFDEEE77AA3F80A2217EEA7
:101A2800102A0321A3F80C2217EE902AA3F81022FB
:101A380021700022134B1A70BDE8F883094B1B78FC
:101A4800E52BF6D10122104B1A7000220D4B1A70AB
:101A5800BDE8F883AFF30080DE718A8EE4F27F3F41
:101A6800B40A0020740A00201C0A0020140A00206E
:101A7800100A00200C0A0020080A002000007A44FE
:101A8800540B0020300A0020310A00201A0A0020D6
:101A9800180A0020114B1B78012B0CD1104A13781F
:101AA800032B05D8DFE803F0020E14080123137096
:101AB80000220C4B1A707047042313700022094B44
:101AC8001A70F8E7022313700022064B1A70F2E727
:101AD800032313700022034B1A70ECE7B40A0020AA
:101AE800320A0020300A0020012310B50A4C82B0C7
:101AF800A621CDE900430022084802F02BFD002270
:101B0800074B1A7000F036FB064B186000F032FBEA
:101B1800054B186002B010BD740A0020D8050020DB
:101B2800320A0020280A0020200A0020F0B583B0DD
:101B380000F020FB494C2368C01A63281DD9484D82
:101B48002B78042B16D8DFE803F02A4E15031A0069
:101B580000F010FB06220123424908600192424925
:101B6800424A0B7042480092A621322202F0F2FC4F
:101B780004232B7000F0FEFA206003B0F0BD00F0E3
:101B8800F9FA41F28833374A1268801A9842F1D933
:101B98000321384A2970136801331360EAE7364B8A
:101BA8001B7823B101210022344B29701A7000F0F0
:101BB800E1FA42F21073324D2A68801A9842D9D954
:101BC80001232A49002200910193A621284802F006
:101BD800C1FC0022294B1A7000F0CCFA286000F0F2
:101BE800C9FA2060C6E7254B1B78042BC2D8DFE86A
:101BF80003F031231606030003232B70BAE70123F1
:101C08004FF00E0C1F4D184E009501932C22A62163
:101C1800337085F800C0164802F036FCAAE70123A5
:101C2800184D114E009501933122A62133702B7067
:101C38000F4802F029FC9DE701230826114D0A4FA1
:101C4800009501932D22A6213B702E70084802F0C2
:101C58001BFC8FE701230026F0E700BF200A0020C5
:101C6800B40A0020240A0020300A0020740A002048
:101C7800D80500202C0A0020310A0020320A002052
:101C8800280A0020340A002005220249024801F0EF
:101C980005B800BFB80A002008050020054A064B11
:101CA800D2E900011289C3F80002C3F80412A3F8AC
:101CB80008227047B80A0020540B002007EE900A4B
:101CC8009FED057AF8EE677A67EE877AFDEEE77A98
:101CD80017EE903A18B27047DEDC1C4200B270472B
:101CE80000B2704707EE900AFBEECF7AFDEEE77A76
:101CF80017EE903A18B2704707EE900ADFED076AC0
:101D0800F8EE677A9FED067A77EEE67A67EE877ADD
:101D1800FDEEE77A17EE903A18B2704700002042BD
:101D28000000C84207EE100ADFED066AB8EE477AEF
:101D3800DFED057AE7EE267AFDEEE77A17EE903AC0
:101D480018B27047CDCCCC3D000020C207EE100A77
:101D5800B6EE096AB8EE477ADFED067ADFED066A75
:101D6800E7EE067A67EEA67AFDEEE77A17EE903A86
:101D780018B270470000C8C20000C842030C07EE42
:101D8800903A9FED067AF8EEE77A67EE877AFDEEED
:101D9800E77A17EE903A18B2704700BF0000FA3C95
:101DA80007EE100AB6EE006AB8EE477ADFED067A5B
:101DB800DFED066AE7EE067A67EEA67AFDEEE77AC9
:101DC80017EE903A18B27047000080C20000C8426F
:101DD80007EE900A9FED057AF8EE677A67EE877A44
:101DE800FDEEE77A17EE903A18B270470000483BCC
:101DF80007EE100A9FED086AB8EE477ADFED077A1A
:101E0800F2EE046AE7EE067A67EEA67AFDEEE77A66
:101E180017EE903A18B270470AD7233C000020C248
:101E280007EE900AB6EE047AF8EE677A67EE877ADC
:101E3800FDEEE77A17EE903A18B27047CB0710B567
:101E480010D4124C124A23781249032B03C982E892
:101E5800030004D0062B01D10723237010BD0423EF
:101E6800237010BD40210B4B0B4A044601F0E0FFE4
:101E780048B900220121204602F07CF80028E0D071
:101E8800FFF76CFBDDE7FFF769FBF2E7440B002087
:101E9800E00A0020E80A0020F80A00204FF0FF318D
:101EA800002270B50826144C144B0588C4E90011AB
:101EB800C3E90122C3E90422C3E90622DE601D60EA
:101EC8001A6283888278FF2B62700DD9032023FA67
:101ED80006FCE3702070084A0849094884F802C0E3
:101EE80001F044FF20B970BD02205FFA83FCF1E7DE
:101EF800BDE87040FFF732BBF00A0020200B00203D
:101F08007005002030B50025214A83B05178137838
:101F1800412914BF033B023BDBB203F1FF33044604
:101F280014BF5268D2F803200195032B2CD8DFE8A0
:101F380003F01E21130212BA019201982369A060CE
:101F48009847237DA081CBB1637D124A03F5807346
:101F580022F8130003B030BD130402F47F4103F4E8
:101F68007F030B43C2F3074213430193E5E7D2B261
:101F78000192E2E752BA92B20192DEE7054BA288DB
:101F880023F8120003B030BD00230193D5E700BF4A
:101F9800E00A0020540B002008B5094801F0CCFEE7
:101FA80030B900220121064801F0E4FF18B908BD44
:101FB800FFF7D4FAF5E7BDE80840FFF7CFBA00BF4E
:101FC80070050020704700BF704700BF70B55D4CBA
:101FD8002378072B0ED8DFE803F02B04374C667DF7
:101FE8009B1300F0C7F847F22F53574A1268801A1C
:101FF800984215D8554D564B2A68A3F8002470BD51
:10200800544D55482B7803EB430300EBC300FFF70F
:1020180079FF2B780133DBB2042B88BF00232B70A8
:1020280002234A4D23702A68494BA3F8002470BD47
:1020380000F0A0F80123444A444D10602A68237038
:10204800434BA3F8002470BD444B45481B783F4DD3
:1020580003EB430300EBC300FFF720FF00F08AF80F
:102068000323404A10602A682370394BA3F80024E0
:1020780070BD00F07FF83B4B1B68C01AC828B9D95F
:102088000221364A217013780133DBB2092B137011
:1020980003D90021052311702370334A2B4D13688F
:1020A80001331360A7E72D4E2D48337803EB430324
:1020B80000EBC300FFF726FF0222337822700133BA
:1020C800DBB2092B337095D9002205231F4D3270DE
:1020D800237090E71F4B20481B78244E03EB4303E3
:1020E80000EBC300FFF7DAFE00F044F83368174D41
:1020F800C01A286000F03EF8306000F03BF8062374
:10210800184A10602A682370114BA3F8002470BD88
:1021180000F030F8134B1B68C01AC8287FF66AAF66
:102128000C4A0221137821700133DBB2042B13709F
:1021380084BF002313700E4A044D136801331360E3
:1021480059E700BF440B0020D40A0020D80A002019
:10215800540B0020DC0A002004000020DD0A0020C7
:102168007C000020D00A0020CC0A0020C40A0020ED
:10217800C80A0020014B1868704700BF480B0020B0
:10218800012210B511460E4802F014F90D4A0E4C02
:10219800136801331360FFF715FF42F210722368CA
:1021A800934208D8013323600022BDE81040012182
:1021B800034802F0FFB80121044A00231170F2E736
:1021C80000040242480B0020500B00204C0B00205A
:1021D80008B5084805F078FC074805F075FC06F0D6
:1021E8000FFDFFF7D9FEFFF74FFDBDE80840FFF7E9
:1021F8007BBC00BFD806002088060020022110B54D
:102208000F4802F0DDF80F4B1A7872B90E4C22789D
:102218004FF400510D4802F0CDF800F0B5F8FFF783
:10222800D5FEBDE81040FFF781BC0021064C1970AF
:10223800227882F001022270FFF7C6FEE7E700BFAE
:10224800000402424C0B0020450B0020000802420B
:10225800034B02689A4200D07047FFF759BB00BF92
:1022680000280044034B02689A4200D07047FFF7E9
:1022780011BC00BF002800442DE9F0410122344878
:102288000221CCB002F096F86923324F324C78889C
:1022980023707B7840BA062BBA881FFA80FC6370DB
:1022A80045D052BA92B24FEA4206B5B205F10301DF
:1022B8001FFA81F829D8033B012B0ED82748D7B23B
:1022C8003A4600EB4C0001A907F0F8FE7F003246C1
:1022D80001A9E01CA77008F068FF4146464605358D
:1022E800ADB24F1C1C4807F067FE03462946A355AC
:1022F80019481B0AE35506F04BFF00220221144837
:1023080002F058F84CB0BDE8F081102BE5D1062654
:102318001248F91D00EB4C00D2B207F0EBFED7F8DB
:102328000230082507273146C4F80230DAE70626C6
:1023380097E8030020600948A1800122391D00EBBD
:102348004C0007F0D7FE082507273146CAE700BF2B
:10235800000402428816002058150020540B002063
:1023680010B50C4601462246044808F01EFF01221B
:102378000349044B0C801A7010BD00BF881600205A
:102388008416002054150020054B1A782AB1002124
:10239800044A19701278692A00D07047FFF76CBF99
:1023A800541500208816002070B5244E3278EAB102
:1023B8004FF0E0231C69054614F0040418D04FF4CC
:1023C8007A71B1FBF2F21E4B1C68B4FBF2F42046A2
:1023D80000F064FD044648B9024629464FF0FF3034
:1023E80000F012FD174B20461D6070BD012070BD26
:1023F80000F0A2FD012817D002280BD00028E6D152
:102408004FF4FA5231780E4BB2FBF1F21C68B4FB70
:10241800F2F4DCE74FF47A7231784FF40043B2FB00
:10242800F1F2B3FBF2F4D2E74FF47A7231784FF459
:10243800FA43B2FBF1F2B3FBF2F4C8E76C010020F7
:10244800000000207001002010B5032000F0CAFC35
:1024580004F0B4FB03460C4A0C48126A0C4902F01B
:102468000F02825C0420D3400B6000F027FD0F2090
:10247800FFF79AFF10B10124204610BD0446FFF76C
:102488006FF8204610BD00BF000C024470EA000837
:1024980000000020034A044B11681B780B441360AA
:1024A800704700BFB41700206C010020014B18686A
:1024B800704700BFB4170020002330B583B00193E4
:1024C800002800F09C80856D0446002D00F09C805B
:1024D800226893689D0005D5936823F0204323F074
:1024E8003F0393609368D80019D45D4B5D481B681F
:1024F80091689B09A0FB030321F010419B0921F07F
:102508003F0101335B0041F0805191600193019BD1
:102518002BB1019B013B0193019B002BF9D19368DF
:10252800D9006FD40120A36D43F01003A365E36DB8
:102538000343E365936813F0040FA36D5BD1DB06D7
:1025480059D4A36D23F4817343F00203A365936800
:10255800DD0708D4444B9B6813F0010F434B9B687D
:1025680001D1D90763D5E568A36B94F820102B43F4
:10257800A568012943EA0503657E43EA453343EA32
:1025880001434FD0A16A21B1E56A01F4787129436A
:102598000B43D568364929401943D1601369216B2B
:1025A80023F040630B43136193681B0714D4D1686D
:1025B80094F83430257E21F480415B0021F002013B
:1025C80043EA85330B43D36094F83C30012B36D073
:1025D800136923F0010313612369012B1AD0136BCC
:1025E80023F00F031363A36D23F0030343F00103E8
:1025F800A36503B030BDA36D43F01003A3650120AC
:1026080003B030BD002095E7FEF70AFCE56584F8C5
:1026180054505DE7116BE36921F00F01013B0B4357
:102628001363E0E7616A013943EA4143AAE71149C4
:1026380065688B6823F47C132B438B6093E71169DF
:10264800236C656C21F4FF6121F004012B430B43DB
:10265800A16C0B43E16C0B4343F001031361BBE72F
:1026680000000020632D3E050080024200810242E6
:102678000740F0FF00830242704700BF08B5C06DF5
:10268800FFF7FAFF08BD00BF704700BFC36D10B564
:102698009A6D12F0500F9A6D1DD1196842F40072AC
:1026A8009A650A6812F0080FCA681BD012F4406FC6
:1026B8000DD1CA6894040AD49A6D22F480729A657E
:1026C8009A6DD10403D49A6D42F001029A651846B6
:1026D800FFF7E4FA10BDD2060AD4BDE810401B6D1E
:1026E8009B6E18479007E7D51846FFF7D7FAF1E72A
:1026F8001846FFF7C9FF10BDC06D08B5836D43F0DC
:1027080040038365C36D43F00403C365FFF7BCFF53
:1027180008BD00BF00222DE9F04182B0019290F877
:102728005420CD68012A00F02E81034601201A6842
:1027380083F854009468640709D59A6D42F0200222
:102748009A65002283F8542002B0BDE8F081086839
:10275800012800F0AD80AB4CA04200F0A5804FF0FE
:102768001F0C4C6802F130054FEA941E0EF00C0E57
:1027780004EA0C04C0F38460A0400CFA04FC55F889
:102788000E4024EA0C0C4CEA000045F80E00906854
:10279800400737D5906808689468E60712D4CE6871
:1027A800994CD2F8B05006F01807FC40C0F3130754
:1027B800044025EA07052C43C2F8B040934CA642D2
:1027C80000F09E80924908421AD0924C924DA1681E
:1027D800A84201F0E07673D0904DA84200F0D7806F
:1027E8008F4DA84200F0E2808E49884208D18E4978
:1027F8008A4205D0D2F8C81041F00101C2F8C810C9
:1028080000209EE7946808682707C5D407248D68C8
:10281800C0F30456B440C00DB5F1004F6FEA04048C
:1028280000F0040002F1140700F0E480B5403E58BF
:1028380034402C433C50506920F0004050610868F7
:10284800D1E90475042F8446D66802F1600400F0CB
:10285800F580C6F3C106760054F827C0B540734E1C
:1028680000F0F8400CEA06060643354345F00045FB
:1028780044F827500D698E6954F8250020F08070BF
:10288800304344F825000D7F0E69A5F10105B5FA1E
:1028980085F554F826006D0920F0007040EA45607F
:1028A80044F82600086877E7584CA5427FF457AFEC
:1028B8005D4DD5F8C84044F00104C5F8C8404EE75E
:1028C8000D029DD458498A429AD1A268584922F0EB
:1028D800E072324342F40002A2600A685549920944
:1028E800A1FB02129209013252000192019A002AB8
:1028F80086D0019A013A0192019A002AF9D17FE71C
:10290800002F62D090FAA0F4002C00F0BD80B4FA39
:1029180084F6013606F01F05092D40F2B58090FABD
:10292800A0F0B4FA84F5B4060126354405F01F0575
:1029380004F0F84406FA05F52C43002800F03F811E
:10294800B0FA80F56FF01D060320013505F01F056C
:1029580010FB0560000540F0007020430727C50DF7
:102968008E6805F0040502F1140C5CF80540C0F30C
:102978000450864007FA00F024EA000030434CF87F
:10298800050008681EE7022002B0BDE8F081C80112
:102998003FF536AF28498A427FF432AFA26822F069
:1029A800E072324342F08072A26029E749023FF5A3
:1029B80027AF1D498A427FF423AFA26822F0E07254
:1029C800324342F48002A2601AE70124800E0130EB
:1029D80000F01F06800600F0F840B440092E06EB10
:1029E800460544EA000473D9A5F11E00000540F02D
:1029F8000070B2E73D582C403C50506940F0004010
:102A080050611CE702003004FFFF0F0000007F4008
:102A18000000088000830242000021C3000029430F
:102A2800000052C700005A470080024200F0FF032E
:102A380000000020632D3E0500810242156E156ED0
:102A4800C0F31306C5F38465002E45D1C0F3846036
:102A5800854272D0556E556EC5F3846585427ED029
:102A6800A568A56804F10807C5F38465854200F0E8
:102A78008B80E568E56804F10C06C5F38464A04220
:102A880000F09780604687E690FAA0F4002C00F0EA
:102A98009D80B4FA84F40134A40604F0F84490FA52
:102AA800A0F5002D00F090800126B5FA85F5354493
:102AB80005F01F0506FA05F52C4390FAA0F000284A
:102AC8007FD0B0FA80F5013505F01F0505EB450507
:102AD8002D0545EA040041E790FAA0F61EB1B6FAC2
:102AE80086F6B54229D0556E556EC5F3846504F156
:102AF8000807BE469CFAACF61EB1B6FA86F6AE4298
:102B08002FD0A568A568C5F3846504F10C06B04606
:102B18009CFAACFEBEF1000F03D0BEFA8EFEAE45A5
:102B280034D0E568E468C4F384649CFAACF5002DFD
:102B38003FF432AEB5FA85F0A1E7106E20F0004000
:102B48001066D1F800C0506E556ECCF3130660467F
:102B5800C5F38465002ECAD1CCF384607EE704F106
:102B6800080E506E774620F000405066D1F800C03D
:102B7800A068A568CCF313066046C5F38465002EEB
:102B8800C3D1CCF3846071E704F10C083868464679
:102B980020F000403860D1F800C0E068E468CCF369
:102BA80013056046C4F38464002DBED1CCF3846061
:102BB80065E7306820F0004030600868ECE50548BB
:102BC800CBE64FF4401584E7022575E74FF08064A3
:102BD80065E700BF000050FE002370B582B0019386
:102BE80003689A68D2072CD49968274A0446114288
:102BF8002AD19A68254922F0004222F03F0242F089
:102C080001029A608B681B0229D4FFF74FFC2368E6
:102C180005461A68D60714D41D4E9A68D00704D4FE
:102C28009A68324042F001029A60FFF73FFC431B6A
:102C3800022B236802D91A68D10705D51A68D2076A
:102C4800EBD5002002B070BD0120A36D43F0100346
:102C5800A365E36D43F00103E36502B070BD0D4B5E
:102C68000D4A1B689B09A2FB03239B0901335B00E8
:102C78000193019B002BC8D0019B013B0193019B51
:102C8800002BF9D1C1E700BF3F000080008302425A
:102C9800C0FFFF7F00000020632D3E054C4B2DE94F
:102CA800F041D3F8088003689CB09D6815F00405CE
:102CB80014D190F854300446012B0FD040F2212350
:102CC8001646012208F01F0823FA08F3134080F87B
:102CD800542007D180F85430012000E002201CB0B5
:102CE800BDE8F0810F46FFF777FF00284BD1A36DB1
:102CF800216823F4706323F0010343F48073A36510
:102D0800344B994244D0A36D23F48013A365A36D7B
:102D18001C2213F4805318BFE36D206D18BF23F0F5
:102D28000603E36500232C4D05662C4D45662C4DA6
:102D380085660A6084F854304B6843F010034B6092
:102D4800CB6843F00103CB60036D1B0624D5436FAA
:102D5800002BC1D019680029BED001A800F0A2FC40
:102D68000028B9D1079B022B2FD0012B08BF760072
:102D7800206D2268436F40321B689E601F61DA60D5
:102D880000F08CFB13E084F854501CB0BDE8F081CF
:102D9800B8F1000FBBD1B6E78369022B13D0012B22
:102DA80008BF760033463A46403100F0DFF8226823
:102DB800936823F0004323F03F0343F00403936038
:102DC8001CB0BDE8F081B600ECE7B600D0E700BF64
:102DD80000830242008102429526000885260008E9
:102DE800012700084FF6FF0C06490302CA6803F4DE
:102DF800E06302EA0C02134343F0BF6343F4003379
:102E0800CB60704700ED00E01B4B00B5DB68C3F3F7
:102E18000223C3F1070EBEF1040F03F1040C28BF0F
:102E28004FF0040EBCF1060F1CD9A3F1030C4FF0B0
:102E3800FF3303FA0CF322EA03024FF0FF3303FADD
:102E48000EF321EA030303FA0CF313431B010028D2
:102E5800DBB20ADB00F1604000F5614080F8003326
:102E68005DF804FB00229446E7E7044A00F00F00EF
:102E7800024413765DF804FB00ED00E0FCEC00E092
:102E8800002807DB012300F01F01034A40098B409B
:102E980042F82030704700BF00E100E0431EB3F164
:102EA800807F09D24FF0E0220020536190611369BE
:102EB80043F003031361704701207047042813D8B7
:102EC800DFE800F02A1A031213004FF0E0210B6923
:102ED800184A23F004030B61D2F8E43023F00C0302
:102EE80043F00803C2F8E43070474FF0E02213695A
:102EF80043F00403136170474FF0E0210B690D4A5A
:102F080023F004030B61D2F8E43023F00C0343F000
:102F18000403C2F8E43070474FF0E0210B69054A1A
:102F280023F004030B61D2F8E43023F00C03C2F859
:102F3800E4307047000C02444FF0E0231B695B0744
:102F48000FD4094BD3F8E40000F00C00042806D095
:102F5800A0F10800B0FA80F0400940007047012055
:102F680070470420704700BF000C0244002842D07C
:102F7800F0B490F84C40012C3AD0012590F8544018
:102F880080F84C50AC422BD14FF0020C00254FF486
:102F9800FE47046880F854C08565A56C9BB24FEA6B
:102FA800154C4FEA0C4C4CEA0303466EA364E760E9
:102FB800E1642265636943F4BA4363611EB16369DE
:102FC80043F400736361036F1BB1636943F40053F7
:102FD80063616369002043F001036361F0BC7047DB
:102FE8000023402280F84C308265F0BC01207047F5
:102FF8000220F0BC70470120704700BF034628B18B
:1030080090F85420022A03D02022826501207047BC
:1030180004211A6883F854105369002043F40053BC
:103028000B435361704700BF0121036810B5C3F318
:103038000B02044623F47F6020F00F00503AC0686A
:10304800C2F3C4129140014200F0A5801A695205EA
:1030580009D55A69500506D54FF48062DA60A26D29
:1030680042F00102A2651A69110509D55A691205CB
:1030780006D54FF40062DA60A26D42F00202A26542
:103088001A69D00409D55A69D10406D54FF480527B
:10309800DA60A26D42F00402A2651A69520409D5E9
:1030A8005A69500406D54FF48042DA60A26D42F0A6
:1030B8000802A2651A6991050AD55A69920507D5C9
:1030C8004FF40071626ED96012B1204690472368B0
:1030D8001A69900411D55A6991040ED54FF400521B
:1030E800DA6094F85420042A3DD00521226F84F830
:1030F800541012B12046904723681A69D00518D594
:103108005A69D10515D5226D120645D5DA6F32B93F
:103118009A6C22B90122616F84F854200A734FF423
:1031280040700021226ED86084F84C100AB1204605
:103138009047A36D002B2ED0226801215369206D82
:1031480043F0020353610022030648BF636F84F80B
:10315800541048BF1973A36E84F84C20DBB1204685
:10316800BDE81040184701215A69206D22F4005229
:103178005A615A6942F002025A61020684F85410F0
:1031880003D50022606F01739A640022E36E84F80D
:103198004C20002BE3D110BD9A6C002ABFD101222C
:1031A80084F85420BBE700BF90F85400704700BF74
:1031B800D0B1CB0616D54FF0010C036801F0110110
:1031C800C3F30B0223F47F6323F00F03503A112952
:1031D800C2F3C41259680CFA02F20CBF0A4321EA7E
:1031E80002025A6000207047012070472DE9F04321
:1031F8008668D2F8008000293DD04FF6FC7701EAB6
:103208000705002E4FD0002D50D04FF0000C046859
:1032180061464FEA144E04EA07034FEA0E4E4FEA9E
:10322800880906E0AB4222D054F80E40194604EA59
:1032380007030CF1010CB44509EB0304F2D19D42DC
:1032480002D00120BDE8F0830468240C2404234341
:1032580053F82800214396605160D36020B14FF69F
:10326800FC731840204310610020BDE8F0839D42A4
:103278006646E6D1E8E70468EEB14FF6FC77012E22
:1032880004EA0703E1D00120250C2D044FEA880E3B
:103298000EEB030151F805C00130B04219460CEAA3
:1032A8000703F5D1D1E731463346C8E729462B460F
:1032B8002E460468C9E731463346C6E770B504466A
:1032C800FFF7F4F8002C00F0BC80022200212368EC
:1032D80084F84C1084F854205A69054642F00602D6
:1032E8005A6106E0FFF7E2F8431B052B00F2A480C1
:1032F80023685A69D207F5D4674AD4E90E01934284
:10330800656C40EA010000F09E8002F18052934211
:1033180000F0998002F170428032934200F093806D
:1033280002F18052934200F08E8002F170428032A6
:10333800934200F0888002F18052934200F083802B
:1033480002F17042803293427DD002F18052934262
:1033580079D002F170428032934274D002F18052E7
:10336800934270D002F17042803293426BD002F1E6
:103378008052934267D002F170428032934279D0F2
:1033880002F18052934275D002F17042803293422A
:1033980070D002F1805293426CD002F1704202F573
:1033A800486293424FD002F1805293424BD002F1CF
:1033B80070428032934246D002F18052934242D00A
:1033C80002F17042803293423DD002F18052934222
:1033D80039D002F170428032934234D002F18052E7
:1033E800934230D002F17042803293422BD002F1E6
:1033F8008052934227D002F170428032934222D009
:1034080002F1805293421ED002F170428032934200
:1034180030D002F1805293422CD002F170428032B7
:10342800934227D002F18052934223D05A69002157
:1034380022F4430202430DE010220323A26584F81C
:103448005430012070BD00215A69266C22F44302D1
:10345800304302435A6119645D649964D9641965FB
:1034680000220121A56CDA67A26584F85410104681
:10347800256570BD5A69002122F4430C226C024371
:1034880042EA0C025A61002219645D649964D964A5
:1034980019655A659A65E3E750000240002856D03E
:1034A800416F002953D010B490F854300268012BB2
:1034B80054695FFA83FC04D0BCF1020F0ED1E30318
:1034C8000CD590F85430012BDCB210D00020536991
:1034D80043F0010353615DF8044B70470023402219
:1034E80080F84C3082655DF8044B0120704790F8F5
:1034F8004C30012B2DD000234FF0020C80F84C40AB
:1035080080F854C081F80CC083650B615369446E20
:1035180043F4BA4353611CB1536943F400735361D4
:10352800036F1BB1536943F4005353610B680A4896
:103538001C6A0A4914F0020F4FF6FC7418BF0146C2
:10354800180C234000040B431060D367BEE701202A
:1035580070470220BFE700BF000001FE000001F82D
:10356800002859D0002957D040F2FF22F0B543690E
:10357800C46945682343C46B2A4023430469056B27
:10358800234384692A4323430468C568A6060B605D
:103598003DD5866AC76A06F1FF3C466A4FEA0C5C6D
:1035A80006F1FF3E866B0CF07C7C4FEA0E1E3E4314
:1035B8000EF47C7E4CEA060C4CEA0E0C4CEA030333
:1035C800B5F5806F0B6065D0B5F5007F08BF42F494
:1035D8000072436B456C1A434A6045B1836C066CB4
:1035E8001B0403F47C1335432B4313434B60B0F89F
:1035F800682014F002038A60D0E918C70ED144F499
:10360800A0640020C1E903C74B610C62F0BDB5F5A9
:10361800806F4A60D8D1DCE701207047C36C466DE3
:103628005D1E1E4B44F4E06403EA0543056D134335
:10363800002D826DB8BF43F08053C06D002EB8BF17
:1036480043F00053002AB8BF43F0804300288B6042
:10365800BCBF43F000438B60002DB8BF6D42104BD8
:10366800002EB8BF764203EA0643C5F30C051D4396
:103678000023002AB8BF52420028B8BF404292B285
:1036880042EA0042C1E903C700204D618A61CB616B
:103698000C62F0BD42F480629BE700BF0000FF07A8
:1036A8000000FF1F002877D0002975D030B40C6ABD
:1036B8000B68E2B2026003F00802026103F4002220
:1036C800426103F00302826103F44032C261C3F332
:1036D800051201324262C3F305520132826203F0DD
:1036E8004022C2622D4A1A4082634A6803F4C053DA
:1036F8009505C36346BF4FF400731D46D3B24360BC
:1037080002F40063836002F44043036402F04073F0
:103718004364C2F3054383648B6858BF02F4806531
:1037280002F0404202639AB2C560826614F0020455
:10373800D1E903520AD10123C0E91852C0E914445F
:10374800C0E91644C364002030BC7047C0E9185271
:10375800C3F30A444A690134C2F30C05C464C2F3D2
:103768000C42DC00C0E9145201D56D4205659D008C
:1037780044BF524242658A695C0091B24FEA1242E4
:10378800C0E9161244BF49428165002BDBDA30BC20
:103798005242C26500207047012070470020000C8B
:1037A800002800F090802DE9F041154686B0002AE7
:1037B80046D043690446012B40D003680E46002BCF
:1037C80042D00A4322EA0302B2F5803F47D293F877
:1037D8002020002941D091F820108A422ED12A6A4F
:1037E800D0B288422AD102F00202002A4FF000012A
:1037F8004FF002023548DFF8D88022730EBF052744
:10380800072780462161002B3FD05EB33146204612
:1038180001AA0197FFF7EAFC002851D1A268039B8F
:1038280093423CD056F8273045F827304FF6FC73C2
:103838001D4045EA080546F827501CE0042323618B
:10384800012006B0BDE8F081A1B322EA0102B2F579
:10385800803F04D291F82010C1E71146BFE7052345
:103868002361EDE74FF6FC72134043EA0803A268B0
:1038780045F82730256001320023012118462361CD
:10388800A260217306B0BDE8F081B6B14FF6FC73B3
:103898002B4043EA0803266046F82730ECE76368C4
:1038A800002BC3D04FF6FC710B4043EA080345F8E0
:1038B8002730BBE702230373016101222560DBE7A0
:1038C80006232361BCE70120704700BF000001FE0A
:1038D800000001F840B1016800293BD043682BB1D2
:1038E80099423BD004230361012070474269012AB1
:1038F800F8D02DE9F0410227077303610B6A1B4AD0
:103908003B401B4D8468002B4FEA11460BBF904685
:10391800A84605270727360414B34FF6FC7C012C6C
:1039280001EA0C0E734608D0012206EB8705EB5816
:103938000132944203EA0C03F9D11E434EEA08030C
:1039480046F82730002201230261037341600020FA
:10395800BDE8F08102230361012070470020704711
:103968004FF6FC7E01EA0E0EE8E700BF000001F802
:10397800000001FE034600283DD000293BD090F806
:10398800542090F85400D2B202282FD0052A2DD006
:103998000A7B022A3FD01A68204882422DD000F1C3
:1039A8008050824229D000F170408030824224D079
:1039B80000F18050824220D000F1704000F578601C
:1039C80082421AD000F18050824216D000F1704035
:1039D8008030824211D000F1805082420DD00A68B6
:1039E800126A920709D503230B6104E040210022E3
:1039F800996583F84C2001207047186D4A68812822
:103A080004D02AB1042301200B617047002AF9D0A1
:103A180000205967704701230B61ECE7500302400F
:103A280003681869C0F30740704700BF0000000032
:103A3800002800F015812DE9F04790F85C30044625
:103A480003F0FF02002B73D02268936923F0100360
:103A58009361FEF72BFD054604E0FEF727FD401BAA
:103A68000A285BD823689A691207F6D49A6942F043
:103A780001029A61FEF71AFD064604E0FEF716FDFC
:103A8800801B0A284AD82568AB69DB07F6D5AB69DD
:103A9800794A43F002039542AB6100F0CF80237C62
:103AA800012BAB690CBF23F0400343F04003AB612B
:103AB800637C012BAB690CBF43F4804323F4804340
:103AC800AB61A37C012BAB690CBF23F4805343F497
:103AD8008053AB61AB69A16823F440730B43AB61BE
:103AE800AB69E26823F0A403AB612B69012A23F0D8
:103AF80010032B6121D022B3022AAB6900F0B280F7
:103B080043F08003AB612B69032A43F010032B6158
:103B180017D1AB6943F02003AB6112E00322236E97
:103B2800012043F00103236684F85C20BDE8F08798
:103B380080F85D20FDF778FA86E7AB6943F0040367
:103B4800AB61D4E90623013B013A1B0243EA426315
:103B5800226AB1F5407F02F1FF3243EA020362694B
:103B680002F1FF3243EA0243EB610ED1D4E90B13B1
:103B7800A26A013B01391B01013A43EA01231343BD
:103B8800626A013A43EA0243EB603C4B3C4F9D4278
:103B980003F51B6308BF1F46A3F51873394908BF0F
:103BA80019463948394A18BF864600F1D8000CBF73
:103BB80092468446A2F5E47200F50E7008BF964658
:103BC800334EDFF8D49002F1D80204BF8146944600
:103BD80002F5E4721CBF1A46B246D5F8C080E06B05
:103BE800A66B48EA0000C5F8C000D5F8800021643B
:103BF80020F4F818606B48EA0040C5F88000D5F852
:103C08008000C4F8449020F0706040EA0660C5F86F
:103C18008000481C9042C4E912ECC4E9147A11D916
:103C2800002143F8041B9342FBD30023012223669F
:103C380084F85C201846A365BDE8F0876268154BD8
:103C48001A602CE79FED0A7B531E5B1A9B08013311
:103C58005B0801EBC303A1EC027B8B42FBD1E4E7D9
:103C68000120704743F02003AB616AE7AFF300809F
:103C7800000000000000000000A4004000A8004070
:103C880060AE004000AC0040B0AC0040C8B100409D
:103C980078AE004000A5004070AC004090F85C2071
:103CA8000346013A012A05D91A6E012042F00202A0
:103CB8001A66704770B4D1E902250E6808694C6924
:103CC8009207496856B942EAC56222431B6C42EA28
:103CD800004243F82120002070BC70475B6C40EA2A
:103CE800457043F83100224303EBC103002070BC48
:103CF8005A607047844690F85C00012807D0DCF8C9
:103D08006030012043F00403CCF86030704710B4F1
:103D18000198DCF8004040EA4303D4F8800043EA05
:103D2800820242EA011120F03F030B430020C4F84D
:103D380080305DF8044B704790F85C200346012AF8
:103D480005D01A6E012042F004021A66704702225A
:103D5800002110B4046880F85C20A269084622F0AB
:103D68000102A2615DF8044B19667047F0B590F83E
:103D78005C308646022B0BD10568D5F8C43013F4A5
:103D8800001C0BD0036E43F4007303660120F0BDE2
:103D9800036E43F0080303660120F0BDD5F8C46044
:103DA8004B680C6988680F68C6F30146002B37D149
:103DB800044344EA8744D1E906030343486906EB10
:103DC800C6070343086A43EA0063C86843EA004336
:103DD800DEF8540040F8374000EBC7004360134C4E
:103DE800CB68E35CA3B19378D7781B0443EA0763F5
:103DF800177804323B4312F8037C43EA072300EBAD
:103E08000C07BB60CB680CF1040CE35C9C45EAD35F
:103E18000123B340C5F8CC300020CEF85830F0BDAF
:103E28003C43044344F08044C5E700BF80EA0008EF
:103E38002DE9F04190F85C40022C0DD1402905682D
:103E480010D0D5F8984027076FD1036E43F48073DC
:103E580003660120BDE8F081036E43F008030366A2
:103E68000120F7E7D5F890402707EED0D5F8906005
:103E7800C6F30064F60148BFD5F88040D5F89070C5
:103E880048BFC4F34024C7F3012707EB0408846C38
:103E980008EBC80604EBC604266806F080465660A0
:103EA800002E5ED12668C6F38A461660266806F09C
:103EB80000569660266806F000461661A688D66108
:103EC800B4F806C00CF00F0CC2F80CC0666806F413
:103ED80080165661666806F400169661E67906F063
:103EE8007F061662224E676816F80CE04FEAD77C08
:103EF800C2F824C0BEF1000F10D0013B04F1070E38
:103F0800F4461EF8015FACF1060C03F8015FD568B2
:103F1800ACEB040C755D6545F2D80568402924D0E2
:103F2800C5F89C800020BDE8F081D5F89860C6F3FC
:103F38000064F60148BFD5F88040D5F8987048BFAE
:103F4800C4F30024C7F3012707EB0408C46C08EB8B
:103F5800C80604EBC604266806F080465660002EA4
:103F6800A0D0266826F060469FE7C5F89480D9E778
:103F780080EA0008034690F85C000138012805D95A
:103F88001A6E012042F002021A6670471B6870B46C
:103F980011F00705986D01F0380409D0C60707D459
:103FA800DD6D45F00105DD6554B184072FD407E0C8
:103FB80004B386071ED4DE6D46F00106DE6525BB18
:103FC80011F4E07F01D0460721D411F4F05F01D04D
:103FD80005071CD411F4604F01D0C40617D411F49E
:103FE800403F01D0860612D411F47C0F13D0450649
:103FF8000DD410E011F4E07F21D046071FD4DE6D08
:1040080046F00106DE65002DCED0C507CCD5D86DAB
:1040180040F00200D8650C0604D5D3F8DC00104344
:10402800C3F8DC00C80504D5D3F8E0000243C3F8A0
:10403800E0205A6D002070BC0A435A65704711F49D
:10404800F05F01D00607DAD511F4604F01D0C6063B
:10405800D5D511F4403F01D08606D0D511F47C0F98
:10406800D1D04606CBD5002D9ED0CEE7704700BFF5
:10407800704700BF704700BF704700BF704700BF60
:10408800704700BF704700BF704700BF704700BF50
:10409800704700BF2DE9F84F036804461A6D596D43
:1040A80002EA010A1A6D596D0AF4E05A02EA010996
:1040B8001A6D596D1E6D02EA01085A6D1F6D164082
:1040C8005A6DD3F854B01D6D1740690609F00709F9
:1040D80008F0380806F4710607F4602702D51BF0CB
:1040E800400F73D1EA0502D51BF4807F5DD1BAF188
:1040F800000F4AD1B9F1000F35D1B8F1000F3CD10A
:10410800AB0502D51BF4007F75D1280602D51BF03C
:10411800800F78D1A90402D51BF4005F5BD12A0473
:1041280002D51BF4004F5ED16B040AD51BF4804FF7
:1041380007D04FF4804223681A65236E43F080034A
:1041480023664FB926B123681E65236E3343236661
:10415800236E2BBBBDE8F88F2368394620461F65C0
:10416800FFF796FFEEE7236849462046C3F85090CC
:10417800FDF764FEB8F1000FC2D02368414620461F
:10418800C3F85080FFF774FFBAE72368514620460A
:10419800C3F850A0FFF76AFFB9F1000FADD0E2E70E
:1041A8002046FFF773FFBDE8F88F4FF4807223684D
:1041B8002046D3F8D8C0D3F8E0101A650CEA0101FC
:1041C800FFF75CFFBAF1000F94D0DEE740221A65D2
:1041D800FFF75AFF86E74FF40052236820461A6516
:1041E800FFF74EFF9BE74FF40042236820461A650D
:1041F800FFF748FF98E74FF40072236820461A65D6
:10420800FFF738FF81E7802223682046D3F8D4C01F
:10421800D3F8DC101A650CEA0101FFF72DFF79E7E6
:104228002DE9F04F0C6883B0002C00F0BB805F4A8A
:10423800002302EA90224FF001085D4E019264E0EB
:104248000327D0F800B04FEA430C07FA0CF72BEA23
:10425800070BFF4302F0030A09F1FF390AFA0CFAC7
:104268004AEA0B0AB9F1010F0097C0F800A040F222
:104278008380032A45D0C568009F2F408D6805FAC2
:104288000CF53D43C560D5003BD523F0030707F186
:10429800884A0F2703F00305ED0007FA05F9019F87
:1042A8000AF5083A07FA05F56FEA0E07DAF860C06A
:1042B80012F4801F2CEA090C45EA0C05CAF8605074
:1042C80035680CBF3D404EEA05053560756812F447
:1042D800001F0CBF3D404EEA05057560D6F88450B6
:1042E80012F4003F0CBF3D404EEA0505C6F8845065
:1042F800D6F88050D20354BF3D404EEA0505C6F8B3
:104308008050013334FA03F24CD008FA03F515EA69
:10431800040EF6D04A6822F01009B9F1020F8FD1C5
:104328004FF00F0A0F694FEAD30903F0070C00EBAF
:1043380089094FEA8C0C07F00F0707FA0CF70AFAFD
:104348000CFCD9F820A02AEA0C0C47EA0C07C9F89B
:1043580020700327D0F800A04FEA430C07FA0CF7A7
:104368002AEA070AFF4302F0030909FA0CF949EAA5
:104378000A090097C0F80090D0F808A00AEA070ACE
:10438800CF6807FA0CF949EA0A09C0F80890D0F88A
:10439800049029EA0509C2F300159D4045EA09057C
:1043A800456066E703B0BDE8F08F00BF7F7F2F0050
:1043B800002002440AB1816170478162704700BFE2
:1043C800436901EA030221EA030141EA02418161EA
:1043D800704700BF002855D038B590F841300446E2
:1043E80003F0FF02002B48D0D4E90032242184F8DE
:1043F8004110196822F0706221F00101E568A06897
:1044080019601A619A68012D22F400429A6009D055
:1044180040F40440022D986007D15A6842F40062C3
:104428005A6006E040F4004098605A6822F400623E
:104438005A6000214FF0200C5A6842F0007242F492
:1044480000425A60DA6822F40042DA60D4E90420B3
:104458000243A06942EA0022DA60D4E90720024355
:104468001A601A68084642F001021A60616484F80A
:1044780041C0216384F8421038BD80F84020FCF721
:104488002FFFB1E70120704770B5844690F84100CE
:10449800BDF8145020284FD10498002846D0002D8C
:1044A80044D0DCF80040A06910F4004044D19CF8E6
:1044B80040E0BEF1010F3FD04FF0010E8CF840E014
:1044C8004FF0210E8CF841E04FF0400EACF8280078
:1044D8008CF842E0CCF844001B48ACF82A50049E03
:1044E800CCF82C001948012BCCF83400CCF8246007
:1044F800CCF84C10D0B221D0120AA262CCF85000ED
:10450800C1F30902DBB2606842EA0343104A024081
:104518000020134343F0807343F4005363608CF826
:104528004000236843F0F203236070BD4FF400732A
:104538000120CCF8443070BD022070BD4FF0FF322E
:10454800A062CCF85020DBE70000FFFF2D4A0008EE
:10455800009800FC70B5844690F84100BDF81450EE
:1045680020284BD10498002842D0002D40D0DCF8F8
:104578000040A06910F4004040D19CF840E0BEF132
:10458800010F3BD04FF0010E8CF840E04FF0220EA7
:104598008CF841E04FF0400E8CF842E0CCF8440033
:1045A8001A48ACF82A50049ECCF82C001848012B65
:1045B800CCF83400CCF82460CCF84C10D0B21FD022
:1045C800120AA262CCF85000C1F30902DBB260689B
:1045D80042EA03430F4A02400020134343F40053C6
:1045E80063608CF84000236843F0F203236070BDD9
:1045F8004FF400730120CCF8443070BD022070BD28
:104608004FF0FF32A062CCF85020DDE70000FFFF3A
:104618002D4A0008009800FC0268436B91691268F3
:1046280003B11847704700BF704700BF704700BF0D
:10463800704700BF704700BF0022016808B50B68CB
:1046480080F842205A0426D50B6823F480430B6077
:1046580090F84130292B28D090F841302A2B00D0EF
:1046680008BD4FF0280C222380F841C0036390F85E
:104678004130002203EA0C03634514BF6FF0F40CC9
:104688006FF0440C0B6803EA0C030B6080F84020C1
:10469800FFF7D0FF08BD1B04DAD50B6823F40043ED
:1046A8000B6090F84130292BD6D14FF0280C2123EC
:1046B80080F841C0036390F84130002203EA0C03FC
:1046C800634514BF6FF0F20C6FF0420C0B6803EAFD
:1046D8000C030B6080F84020FFF7AAFF08BD00BF5D
:1046E800704700BF70B50468C368A169A269022B4E
:1046F8004FEA1242A5688446E668C1F3004102F019
:10470800FE020FD182EAD51313F00603C5F309029E
:1047180006D1856C01358564856C022D0CD070BD81
:1047280006F0FE020025236823F0B80323608CF806
:104738004050FFF7D5FF70BD08258364E56180F818
:104748004030FFF7CDFF70BD704700BF704700BF16
:10475800704700BFC06D08B5836B0BB10022DA66E5
:10476800C36B0BB10022DA6690F84130602B4FF032
:10477800000305D0036380F84030FFF7E7FF08BD6A
:10478800202280F8403080F841200363FFF7E0FFE3
:1047980008BD00BF70B50025554B90F8412080F842
:1047A8004250C3624585436C283A0B43022A43644E
:1047B8000446036863D890F8411090F8412001F04E
:1047C8002801282902F0280214BF6FF0F6006FF0C4
:1047D8004600282A18BF6FF0F60028251A684549B0
:1047E80002401A6084F84150A06B226B616318B1D3
:1047F800112A14D0212A12D0E06B18B1122A24D021
:10480800222A22D094F84130602B4FF0000365D063
:104818002046236384F84030FFF798FF70BD1A687C
:10482800510456D4FEF7C0FC0128EBD00023A06B3E
:10483800314AC26684F84030FEF7E0FB0028EDD02C
:10484800A06BBDE87040C36E18471A68120403D500
:104858001A6822F400421A60FEF7A6FC0128D1D09B
:104868000023E06B244AC26684F84030FEF7C6FB9A
:104878000028D3D0E06BBDE87040C36E184790F8AD
:10488800412090F841201A6822F0FE021A609A69C5
:10489800920748BF9D629A69D60703D49A6942F085
:1048A80001029A6194F84120602A10D0202284F8ED
:1048B80041209A6995060AD59A69D00605D510222D
:1048C800DA61626C42F0040262642022DA6100213B
:1048D8008AE71A6822F480421A60A3E72022204659
:1048E80084F8412084F840302363FFF731FF70BD1E
:1048F8000000FFFF394F00085D47000820220368C9
:1049080010B5DA6190F8412082B0212A51D090F890
:104918004120222A35D05A68404C224000245A604F
:104928003F4A4463C262CA0605D51022DA61426C66
:1049380042F00402426490F84120602A32D09A6919
:10494800910744BF00229A629A69D20703D49A69F0
:1049580042F001029A61436C90F84120602A0AD023
:104968004BB990F84120212A43D090F84120222ABF
:1049780030D002B010BD416C02B0BDE81040FFF766
:1049880009BF90F841401A6804F02804282C14BF85
:104998006FF0F40C6FF0440C122402EA0C021A6057
:1049A8000463B8E74C07CAD55A6AD2B20192019A91
:1049B800C5E790F841401A6804F02804282C14BF71
:1049C8006FF0F20C6FF0420C112402EA0C021A602C
:1049D8000463A0E7202280F84120036390F8422076
:1049E80080F84030402A80F8423014D0FFF71EFE8D
:1049F800BFE7202280F84120036390F8422080F826
:104A08004030402A80F8423002D0FFF70DFEB0E770
:104A1800FDF728FCADE7FDF71BFCAAE700E800FE60
:104A28000000FFFFF8B590F84030012B00F0AA8095
:104A38000123CF0604460D46164680F840301BD5A4
:104A4800D00619D510222368DA61626C42F004029C
:104A580062649A69910744BF00229A629A69D207F0
:104A680040F18180AA0602D5B30600F186800023B2
:104A780084F840301846F8BD6F070ED4A9071FD533
:104A8800B2071DD5236D2268013300F09180236D94
:104A980093624FF0FF332365E4E77007EED5226891
:104AA800636A526A25F004051A70626A638D0132DE
:104AB800013B6262228D9BB26385531E2385D1E739
:104AC8002B061CD57706CDD5638D9BB2002B4FD016
:104AD800238D002B4CD1638D22689BB2FF2B74D998
:104AE800FF20E36C414F5168C3F3090339400B437E
:104AF80043F0FF7343F4803320855360B2E76806C0
:104B0800B0D57106AED594F84120236802F028028A
:104B1800282A14BF6FF0F2026FF042021968344875
:104B28000A401A601A68334942F0F4021A6094F88D
:104B380041C0628DBCF1220F18BF084692B2FF2A0D
:104B480022D9FF222285E26C5968C2F30902024386
:104B5800294822F0004201400A4342F0FF7242F421
:104B680080325A607EE79A6942F001029A6179E7D9
:104B780040212046FFF70EFE74E729462046FFF73E
:104B8800BDFE74E70220F8BD628D92B2D1B22285D3
:104B9800E26CC2F3090242EA01420243596816482C
:104BA80022F0004201400A4342F000725A6059E77D
:104BB800616A238D11F8010B013B90622385638D97
:104BC8006162013B9BB263854CE7638D07489BB2EA
:104BD800D9B22385E36CC3F3090343EA014351685F
:104BE80001400B4343F0007353603BE7009C00FC1B
:104BF8000024008000200080009800FC036810B4A6
:104C08009A691968D4052FD50C061FD54FF48074FE
:104C1800416C41F0010141645105DC6129D54FF433
:104C28008064416C920541F008014164DC6106D55D
:104C38004FF40071426C42F002024264D961416C47
:104C480011F00B0F0CD15DF8044B70475405F6D4E6
:104C58009405F4D50906EBD4416C11F00B0FF2D092
:104C68005DF8044BFFF796BD5405F1D50906D6D477
:104C7800E5E79205DCD4E2E720222DE9F04103685C
:104C88000D461E68C76A90F8411004462129DA616A
:104C98000ED0CAB2223A082A12D8DFE812F0DC0095
:104CA80011001100110011001100F4000900DC00CE
:104CB800212194F841201A6822F0FA021A6021632F
:104CC8005A68994942F400425A605A680A405A6040
:104CD8009A69900744BF00229A629A69D10703D45F
:104CE8009A6942F001029A6172047BD51A68A06B36
:104CF80022F480421A6048B10368D3F84880FEF76E
:104D08008FFE80441FFA88F8A4F82A80690710D516
:104D180023685A6A636A1A70636A01336362238D6F
:104D28002BB1013B2385638D013B9BB2638525F045
:104D38000405638D9BB21BB1636C43F00403636489
:104D4800EA0601D5F3062AD4002784F84270666C77
:104D58006763002E50D1E36A744DAB4210D194F8CA
:104D680041302046222B4FF0200384F8406084F81D
:104D78004130266300F09280FFF75AFCBDE8F081CD
:104D88002046FFF759FC2023E562204684F841308D
:104D980084F840602663FFF7D7FCBDE8F081638D97
:104DA80022689BB2002B5FD194F84110282979D052
:104DB80094F84130292B4FF01003D361C4D117F573
:104DC800803FC1D09369980744BF002393629369D9
:104DD800D90703D4936943F0010393612046FFF791
:104DE8002BFCB1E7300491D51A68E06B22F400423D
:104DF8001A60002880D189E72046616CFFF7CAFC59
:104E080094F84130282BB9D12023484A6763E262DD
:104E1800276384F841306B07226884F8427009D50B
:104E2800526A636A1A70636A228D01336362002AC8
:104E380061D122681025002194F8413094F841305E
:104E48001368204623F0FE031360D56184F84010F0
:104E5800FFF77AFC92E7222190F841201A6822F0A5
:104E6800FC021A6001632BE71023D361636C43F0E3
:104E78000403636437F080737FF466AF2046616C87
:104E8800FFF788FC60E7002190F8412090F8412066
:104E98001A6822F0FE021A60016311E7FFF7CAFBE5
:104EA800BDE8F081B7F1007F82D120496E07E16249
:104EB8004FF020012363636384F8411084F8423083
:104EC80008D5526A636A1A70636A228D0133636275
:104ED800EAB922681026002194F8413094F841304C
:104EE8001368204623F0FE031360D66184F840104F
:104EF800FFF72AFC28E7618D531E4A1E92B262858D
:104F0800616C226841F004012385616492E7618D38
:104F1800531E4A1E92B26285616C226841F00401F8
:104F280023856164D6E700BF00E800FE0000FFFFAC
:104F380038B590F840C0C56ABCF1010F6ED04FF08B
:104F4800010C11F0200F0B46044680F840C002D037
:104F580012F0200F5BD1D80616D5D10614D5628D74
:104F6800216892B2002A5BD194F8410028287DD0AC
:104F780094F84130292B4FF01003CB6162D0002305
:104F8800184684F8403038BD59070DD4190729D57B
:104F9800100727D594F8413003F02803282B61D057
:104FA80008222368DA61EAE75007EFD5638D9BB2E0
:104FB8006BB12268636A526A1A70638D616A228DC6
:104FC800013B0131013A9BB2616222856385638DA1
:104FD8009BB2002BD3D115F5803FD0D02046FFF7E8
:104FE8002BFBCCE79907CAD59307C8D5638D9BB22D
:104FF80023B3616A236811F8010B228D9862638DCF
:10500800013A013B9BB2616263852285B7E7FFF7EE
:1050180033FE0023184684F84030B4E7022038BD38
:105028001023CB61636C43F00403636435F0807331
:10503800A5D12046616CFFF7ADFBA0E735F0807382
:105048009DD1CBE715F5803F99D08B699D0744BF6B
:1050580000238B628B69D807C0D48B6943F00103A6
:105068008B61BBE72046FFF73DFB88E7B5F1007F82
:105078007FF47EAF18485B07E0624FF020002263A0
:10508800626384F8410084F8422008D54A6A636A5A
:105098001A70636A228D013363628AB92168102508
:1050A800002294F8413094F841300B68204623F0F0
:1050B800FE030B60CD6184F84020FFF745FB5EE7F7
:1050C800638D013A013B9BB26385636C216843F0B1
:1050D800040322856364E2E70000FFFF90F84120A3
:1050E800202A23D15FFA82FC90F840200346012A47
:1050F8001CD0242000B54FF0000E1A6883F8410038
:10510800106820F001001060106820F480501060D2
:105118001068014311601168704641F00101116087
:1051280083F841C083F840E05DF804FB0220704733
:1051380090F84120202A22D100B55FFA82FE90F82B
:1051480040200346012A1CD024204FF0000C1A6886
:1051580083F84100106820F001001060106820F406
:10516800706040EA012111601168604641F0010158
:10517800116083F841E083F840C05DF804FB022029
:10518800704702205DF804FB30B583B0D0B190F8C9
:105198009532044603F0FF02002B00F0E880032359
:1051A800206884F8953202F08DFE237C251D8DF849
:1051B8000030206895E80E0002F064FE30B102234A
:1051C80084F895320125284603B030BD0146206891
:1051D80002F082FE0028F2D12279002A00F0AE8087
:1051E8004FF48073012AC4E90900E075E062A382E4
:1051F80000F0C68040F20113022AC4E9130084F8C3
:105208003F006065A38745D04FF48173032AC4E942
:105218001D0084F86700E067A4F864303AD040F2D3
:105228000313042AC4E9270084F88F00C4F8A400F3
:10523800A4F88C302ED04FF48273052AC4E93100CB
:1052480084F8B700C4F8CC00A4F8B43022D040F2F7
:105258000513062AC4E93B0084F8DF00C4F8F4000B
:10526800A4F8DC3016D04FF48373072AC4E945004C
:1052780084F80701C4F81C01A4F804310AD00023FB
:1052880040F20711C4E94F3384F82F31A4F82C11E8
:10529800C4F8443100230121022AC4E95933C4E97E
:1052A8006333A4F8543184F85731C4F86C31A4F846
:1052B8007C1184F87F31C4F894313FD00221032A4D
:1052C800C4E96D3384F8A731C4F8BC31A4F8A4113B
:1052D80034D00321042AC4E9773384F8CF31C4F8E1
:1052E800E431A4F8CC1129D00421052AC4E981337A
:1052F80084F8F731C4F80C32A4F8F4111ED0052153
:10530800062AC4E98B3384F81F32C4F83432A4F86F
:105318001C1213D00621072AC4E9953384F84732B2
:10532800C4F85C32A4F8441208D00722C4E99F33B9
:1053380084F86F32C4F88432A4F86C22237C206885
:105348008DF8003095E80E0002F0D8FD05460028DB
:105358007FF435AF0122237B6074934284F8952251
:105368000AD0206803F0E0FB284603B030BD80F87F
:10537800942204F0C9FC12E7204600F0C5FEF0E7CD
:10538800C4E95900A4F8540184F85701C4F86C0121
:10539800D4E700BF90F89432012B0FD010B5012349
:1053A8000446006884F8943202F084FD206803F013
:1053B800B3FB002384F89432184610BD02207047CE
:1053C8002DE9F04F04468BB0006803F0B5FB10F4EC
:1053D800004525D1430500F14481470417D410F452
:1053E800005140F08181C6047AD4050500F19D83FF
:1053F800010600F17983820500F10A84C3050CD502
:105408004FF6FF612268536C0B40536405E04BF67E
:10541800FF712268536C0B4053640BB0BDE8F08FEA
:105428002068436C1904F8D5DFF894B50DE011F045
:105438001001036800F0F1801A0500F12D811B04AA
:1054480000F13F82436C1A04E7D5416C11F00F0557
:10545800EDD02EB250F826703A041FFA87F957D4C7
:105468003B06EFD550F826304FEA850803EA0B03D0
:1054780043F4004340F8263005EB850304EBC303EF
:10548800DA7D012A00F03981197D06EB8606CA000B
:1054980004EBC60C02F1804217F480774FEAC60A83
:1054A80002F5B232DCF82C600FFA81FE40F0778109
:1054B8001268C2F30942B24280F06A81B61ACCF887
:1054C8002C609D6A0AF1140115449D62DCF83030A5
:1054D80021441344CCF8303002F054FF2068B1E77F
:1054E80023681A6C22F004021A641A6C22F008026B
:1054F8001A6494F8CC32012B00F09583204604F00E
:105508008DFC4EF6FF712268536C0B40536484E7A0
:1055180050F826304FEA850823F0784323F4704387
:1055280023F0700343F0800340F8263005EB850331
:1055380004EBC30393F86021002A00F0068193F876
:10554800572193F85411022A00F02A8209B250F820
:10555800212022F0784222F4E04222F0700242F444
:10556800004242F0C00240F8212093F8542150F83C
:10557800223013F4804F4FF00A031DD001E0029B44
:10558800013B0293029B002BF9D1D20002F1804229
:1055980002F5B2321368C3F30943E3B108EB05011E
:1055A80004EBC101B1F85C21D1F868119A4603F007
:1055B800F5FA12E0019B013B0193019B002BF9D105
:1055C800D20002F1804202F5B2325368C3F30943B4
:1055D800002B40F0BC824FF0000A08EB050304EBF7
:1055E800C303D3F870215244C3F87021D3F868215B
:1055F8005244C3F86821D3F86C2122B1D3F864313E
:10560800534540F2B181A84404EBC808204698F8F5
:10561800541104F0BDFB206822E703EA0B0343F4AE
:1056280000430360237DA26ADB0003F1804303F596
:10563800B2331B682046C3F309431A442363A262AA
:1056480004F0B0FB637C2068002B3FF4FBAEE36AF8
:10565800002B7FF4F7AE627C42F08002C264637470
:10566800F0E64FF6FF3122682046536C0B40536436
:1056780004F0A6FB94F89432012B3FF4CEAE01233C
:1056880029462068657484F8943203F03FFA84F858
:1056980094520BB0BDE8F08F0A230593059B94F84C
:1056A80054212BB1059B013B0593059B002BF9D198
:1056B800D30003F1804303F5B2335B68B4F85A2191
:1056C800C3F30943C4F8703104F5277103F066FA8F
:1056D8002268B64B116820460B4043F080031360E4
:1056E80004F04EFB2068ADE64DF6FF712268536C5E
:1056F8000B4053640BB0BDE8F08F00216A1C02EB2D
:10570800820204EBC202516093F82020A2B17F0606
:105718005A7D40F13381002A40F08B821B7DDB00EB
:1057280003F1804303F5B2331A6822F07C421A6011
:105738001A6842F000421A60454404EBC505204649
:10574800297D04F02FFB20687CE693F854210A2376
:105758000393039B2BB1039B013B0393039B002BF8
:10576800F9D1D30003F1804303F5B2335B68C3F387
:105778000943002B3FF42FAF08EB050104EBC101EF
:10578800B1F85A21D1F868119A4603F007FA24E7CC
:105798002046CCF82C7004F005FB206852E619F07E
:1057A800400A4FF00A0355D001E0099B013B0993D9
:1057B800099B002BF9D1136809F48047C3F3094901
:1057C800B14580F0D481A6EB0906CCF82C604FB126
:1057D80050F82E10764B0B4043F4404343F08003BF
:1057E80040F82E3008EB050604EBC60696F838306C
:1057F800012B55D1B36A03EB0901B162DCF83030F3
:105808004B44CCF83030776B736A9F42C0F0A98262
:10581800FF1A776308EB050604EBC60696F815C071
:10582800BCF1000F40F09182166826F07C461660A5
:10583800002B40F0BC82166846F00046166008EB64
:10584800050204EBC202928B03F078F9206827E086
:10585800089B013B0893089B002BF9D1536809F476
:105868008047C3F30943B34200F2B181F61ACCF87A
:105878002C60002E00F0AE814FB950F82E604C49D4
:10588800314041F4404141F0800140F82E1008EBCE
:10589800050704EBC70797F83810012900F01E82A6
:1058A800454404EBC5052A7D424B50F822100B40B5
:1058B80083F0300343F4004343F0800340F8223080
:1058C800C0E50A220168394B0B4043F080030360AE
:1058D8000492049B94F854212BB1049B013B04933C
:1058E800049B002BF9D1D30003F1804303F5B233B5
:1058F8005B68C3F30943C4F8703193B1D4F86811F5
:1059080079B1B4F85A2103F049F9D4F86831D4F8D8
:105918007021204613440021C4F8683104F038FA95
:10592800206803681F053FF58DAD03F44053B3F5B8
:10593800405F3FF487AD204B5A6822F07C425A60A2
:10594800D4F86421002A40F092815A6842F000425B
:105958005A600268194B134083F4405343F40043E0
:1059680043F0800303606DE5282101FB05412068B1
:1059780001F5AA7102F006FD206871E5002A40F0E1
:1059880067811B7DDB0003F1804303F5B2335A685E
:1059980022F07C425A605A6842F000425A60CBE6D4
:1059A80019F4804F4FF00A0357D00DE08F0FFF070F
:1059B8008F8FFF07BF8FFF07006401408FBFFF076E
:1059C8000F8FFF07079B013B0793079B002BF9D11C
:1059D800CB0003F1804303F5B23308EB05021B68E3
:1059E80004EBC202D2F86CC1C3F309439C459A4642
:1059F80009B2C0F04881ACEB030CC2F86CC1BCF131
:105A0800000F0CD150F821C0B14A0CEA020282F40E
:105A1800005242F4004242F0800240F8212019F07E
:105A2800400F0AD050F821C0AA4A0CEA020242F4F8
:105A3800004242F0C00240F82120002B3FF4CDADD7
:105A480008EB050104EBC101B1F85C21D1F868113C
:105A580003F0A4F8C1E5069B013B0693069B002BC7
:105A6800F9D1CB0003F1804303F5B23308EB05020B
:105A78005B6804EBC202D2F86CC1C3F309439C45CE
:105A88009A4609B2C0F00481ACEB030CC2F86CC1B1
:105A9800BCF1000F0CD150F821C08D4A0CEA02026B
:105AA80082F4005242F4004242F0800240F8212081
:105AB80019F0400F0AD150F821C0864A0CEA0202B8
:105AC80042F4004242F0C00240F82120002B3FF48B
